:1000000010308A0000280000FF00030E8301A100C9
:100010000A08A0008A010408A2007708A300780853
:10002000A4007908A5007A08A60003170D08031399
:10003000A70003170F080313A80003170C080313E6
:10004000A90003170E080313AA00831383128C3030
:100050008400801E2D288C1A4E2822088400230834
:10006000F7002408F8002508F9002608FA002708F8
:1000700003178D000313280803178F0003132908A3
:1000800003178C0003132A0803178E00031320089C
:100090008A00210E8300FF0E7F0E09008A110A12CA
:1000A000DE2C0A108A100A1182072B34493450348E
:1000B00044342C340A108A100A11820743344D3418
:1000C00044343A340A108A100A1182074F344B34F0
:1000D0000D340A3400340A108A100A1182074E3493
:1000E0006F3420344134703400340A108A100A11FD
:1000F00082072B34433457344A34413450343A3431
:1001000000340A108A100A11820743344F344E34E7
:100110004E344534433454344534443400340A10A6
:100120008A100A1182074634413449344C34003471
:10013000412AAB214928D3224E22BD126316311920
:100140000D050000412AAB2149284326CF29C51EB1
:10015000A5310D050001412AAB21D72841288A0687
:100160000000412AAB214928D3224E22BD1263163A
:1001700031190D050001412AAB2149284326CF2919
:10018000C51EA5310D050001412AAB214928D32206
:100190004E22BD12631631190D050001412AAB2113
:1001A00049284326CF29C51EA5310D050000412A47
:1001B000AB21D7264F22C51EA5310D050001412ACE
:1001C000AB2157254128BF060A00412AAB215725FC
:1001D0004128BD127300412AAB21D7264F22C51EEC
:1001E000A5310D050001412AAB214928CD2AD81E91
:1001F000B1060A00412AAB214928D322522B4529B6
:10020000BD182C1CB0060A0045346E3463346534C6
:100210006E3464346534723420344D3461346E3459
:10022000753461346C340034413470346134673473
:10023000613464346F3420344D3461346E34753439
:1002400061346C342034003443346F346E3466349B
:1002500069346734753472346134633469346F34AB
:100260006E34203420340034003400340034003440
:1002700000340034003400340034003400340034DE
:1002800000340034003400344F346E3420342D34C4
:100290003E342034533461346C3469346434613412
:1002A0002034313400344F346E3420342D343E3415
:1002B0002034533461346C34693464346134203410
:1002C000323400344F346E3420342D343E342034F4
:1002D000533461346C3469346434613420343334DD
:1002E00000344F346E3420342D343E3420345334B3
:1002F00061346C346934643461342034343400340F
:100300004F346E3420342D343E3420345334613431
:100310006C346934643461342034353400344F34FF
:100320006E3420342D343E342034533461346C34F4
:100330006934643461342034363400344F346E34DC
:1003400020342D343E342034533461346C346934D9
:10035000643461342034373400344F346E34203404
:100360002D343E342034533461346C346934643475
:100370006134203438340034533441344C344934FB
:10038000523420342034203420342034203420349B
:10039000203420340034003400340034003400347D
:1003A00000340034003400340034003400340034AD
:1003B000003400344F346634663420342D343E34F7
:1003C0002034533461346C346934643461342034FF
:1003D000313400344F346634663420342D343E34A6
:1003E0002034533461346C346934643461342034DF
:1003F000323400344F346634663420342D343E3485
:100400002034533461346C346934643461342034BE
:10041000333400344F346634663420342D343E3463
:100420002034533461346C3469346434613420349E
:10043000343400344F346634663420342D343E3442
:100440002034533461346C3469346434613420347E
:10045000353400344F346634663420342D343E3421
:100460002034533461346C3469346434613420345E
:10047000363400344F346634663420342D343E3400
:100480002034533461346C3469346434613420343E
:10049000373400344F346634663420342D343E34DF
:1004A0002034533461346C3469346434613420341E
:1004B00038340034533441344C34493452342034C9
:1004C000203420342034203420342034203420348C
:1004D000203400340034003400340034003400345C
:1004E000003400340034003400340034003400346C
:1004F00000340034453453345434413443344934A3
:100500004F344E3420344934503420342034203495
:10051000203420340034453453345434413443348B
:1005200049344F344E3420345334533449344434F2
:1005300020342034203400344134503420345334B7
:10054000533449344434203420342034203420348B
:1005500020342034203420340034413450342034CA
:100560004B34453459342034203420342034203462
:1005700020342034203420342034003441345034AA
:100580002034493450342034203420342034203472
:1005900020342034203420342034203400344334B8
:1005A0006F346E34663420344134633463346534DC
:1005B000733473346F34203452346534643400340B
:1005C0004F346E342F344F34663466342034423422
:1005D000613463346B346C34693467346834743434
:1005E0000034533441344C344934523420342034B0
:1005F000203420342034203420342034203420345B
:10060000203400340034003400340034003400342A
:10061000003400340034003400340034003400343A
:10062000003400340034453473347434613463343A
:100630006934F3346E3420342034203420342034B0
:100640000034413463346334653473347334203498
:1006500050346F3469346E3474342034003445348B
:10066000733474346134633469346F346E342034D9
:100670002B342034413450340034533441344C341E
:10068000493452342034203420342034203420346F
:10069000203420340034003400340034003400347A
:1006A00000340034003400340034003400340034AA
:1006B0000034D320CC245200DB29C9235D10201044
:1006C0002010A02D4527D42E0000412AAB21D7268B
:1006D0004F22C52FC422C61EB1060A008C216F37D7
:1006E000E63467104336E9326E3A6500412AAB21A1
:1006F000D7264F22C52FC422C61EB2060A008C215F
:100700006F37E634671041280001412AAB21D72614
:100710004F22C52FC422C61EB3060A008C216F3794
:10072000E63467104336E9326E3AE5205000F701AF
:10073000F80183160317110803101218F707F70CB6
:10074000F80C9218F707F70CF80C1219F707F70CCA
:10075000F80C9219F707F70CF80C121AF707F70CB8
:10076000F80C921AF707F70CF80C121BF707F70CA6
:10077000F80C921BF707F70CF80C83120313080010
:100780000317ED01EE016208FB3E03185B2C053EEA
:100790000313D52C83160317900191016330840055
:1007A0008317100884071108831203136220800046
:1007B00000380319E22B83160317910A900ACE2BF7
:1007C0008312031304300317ED000130EE005B2C9D
:1007D000831603179001910163308400831710087A
:1007E00084071108831203136B208000003803195B
:1007F000002C83160317910A900AEC2B8312031323
:1008000005300317ED005B2C83160317900191014F
:1008100063308400831710088407110883120313C0
:1008200075208000003803191C2C83160317910AC9
:10083000900A082C8312031307300317ED005B2C7A
:100840008316031790019101633084008317100809
:1008500084071108831203138120800000380319D4
:10086000382C83160317910A900A242C8312031341
:1008700009300317ED005B2C8316031790019101DB
:100880006330840083171008840711088312031350
:100890008F20800000380319542C83160317910A07
:1008A000900A402C8312031304300317ED0001302B
:1008B000EE005B2C031703135008831603179100F7
:1008C00006309200831203139723031762087807F8
:1008D000533E8400831363300007840083170008AD
:1008E0006102031DAF2C03135008831603179100F8
:1008F00006309200831203139723031762087807C8
:10090000533E84008313800A031350088316031791
:100910009100063092008312031397230317620895
:100920007807533E840083136D080002031DAB2C2F
:1009300003135108831603179100063092008312A7
:1009400003139723031762087807533E8400831329
:1009500001308000AE2CE208031DAE2CD32C031313
:100960005008831603179100063092008312031378
:100970009723031762087807533E8400831380018E
:100980006E0BD32C03135108831603179100063006
:100990009200831203139723031762087807533ECC
:1009A000840083138001031308000A108A100A15BB
:1009B0008207CA2B042CE82B202C3C2C8C1EDE2C0E
:1009C0001A080317DF005F08E00003134F08013A1D
:1009D0000319F42C033A0319FB2C013A0319102DC7
:1009E000073A0319252D252D03176008E100E201C0
:1009F0000313C023D12D03176008E1000230E20089
:100A00000313C02303176008E1000130E200031361
:100A1000C02303176008E100E2010313C023D12DB6
:100A200003176008E1000330E2000313C02303173B
:100A30006008E1000430E2000313C02303176008DC
:100A4000E100E2010313C023D12D0317E301600885
:100A5000E2000530E4000313490B462D031762083A
:100A60002C3C031D362DE3080319422D423003139D
:100A70004D07840083130317620880000313CD0A17
:100A8000452D03170313CD01C9015F2D4D085120DA
:100A9000F80003176202031D5D2DE308031D5D2DA1
:100AA0000313CD0A0317640803134D02031D5B2DC6
:100AB0000130C900CD015F2D03170313CD010317CA
:100AC000E2016008E1000430E3000313480B822DCB
:100AD000031761082C3C031D702DE20803197C2DBF
:100AE000443003134C07840083130317610880000C
:100AF0000313CC0A812D03170313CC01C801013065
:100B0000CA009B2D4C085A20F80003176102031DF0
:100B1000992DE208031D992D0313CC0A03176308CE
:100B200003134C02031D972D0130C800CC019B2DEF
:100B300003170313CC010317E2016008E10003135C
:100B40004A0BD02D031761083A3C031DAA2DE20879
:100B50000319CB2DA03003134E0784008313031712
:100B6000610880000313C7014E08C600CE08031DAC
:100B7000C82D031761082C3C0319C02D0313C82D81
:100B8000E2080319C52D0313C82D0313CE01C92D87
:100B9000CE0AD02D03170313CE01CA010130CB00BA
:100BA000CF018C128A110A122D288C216F37E6345E
:100BB000E73AF2306E326F172E170001563084007C
:100BC000831700080319F12D0630F800F701F70B21
:100BD000E72DF80BE62D7B30F700F70BED2D800BA2
:100BE000E42D080003174F18F92D03130812FB2DED
:100BF0000317031308168316081283120317CF185E
:100C0000052E03138812072E031703138816831665
:100C10008812831203174F19112E03130813132E72
:100C20000317031308178316081383120317CF192A
:100C30001D2E031388131F2E031703138817831603
:100C40008813000083120814831608100230F7007E
:100C5000F70B282E2B2E0000831208108316081085
:100C600083120800831608100811881083120811D7
:100C70008316081108168816081788178312881417
:100C800083168810000083120814831608100000D1
:100C900083120317D0018316031308160030831242
:100CA000081A01300317D004831603138816003086
:100CB0008312881A0130F7000310F70D7708031725
:100CC000D00483160313081700308312081B013069
:100CD000F700F70DF70DFC30F70577080317D00480
:100CE00083160313881700308312881B0130F70026
:100CF000F70DF70DF70DF830F70577080317D00457
:100D00005008F8007808CF00031308108316081065
:100D1000000083120814831608108E2E8F2E0000F8
:100D200083120317D00183160313081600308312B1
:100D3000081A01300317D0048316031388160030F5
:100D40008312881A0130F7000310F70D7708031794
:100D5000D00483160313081700308312081B0130D8
:100D6000F700F70DF70DFC30F70577080317D004EF
:100D700083160313881700308312881B0130F70095
:100D8000F70DF70DF70DF830F70577080317D004C6
:100D90005008F8007808CE000313081083160810D6
:100DA0000812881208138813831203174F0EF700D6
:100DB000F030F70577084E04F8007808CE00CE1F13
:100DC000E42E831603133A2ECC08031DEB2E0313D7
:100DD0000811ED2E031703130815831608110000E0
:100DE000831288108316881000008312081083165F
:100DF0000810831203174D0ECE000F30CE054E089B
:100E0000CF000313F22503174D080F39CE00CF0092
:100E10000313F225080028300317C3000C30C40068
:100E20000130C5000630C6000313081083160810F1
:100E300083120811831608118312881083168810F4
:100E400008128812081388130810081188100F3030
:100E500083120317D6000313DE2501300317C200E7
:100E60004208033C031C402F0330CF000313F2253C
:100E700005300317D6000313DE250317C20A302FEF
:100E80000230CF000313F22505300317D6000313F9
:100E9000DE250317C2014208033C031C5D2F4330CB
:100EA0004207840083170008C700CC014708CD0023
:100EB000031332260317C20A4B2F03138A110A1693
:100EC000AB2803174708073A03130319712F0B3A8E
:100ED0000319882F063A0319942F023A0319AC2FED
:100EE000B32F01300317C800C900490B782F7B2F9F
:100EF0004030CA007C2FCA0101304802CA074A08A4
:100F00008038CB00CC014B08CD0003133226BA2F1A
:100F10000317CC010130CD00031332260230031732
:100F2000D6000313DE25BA2F01300317C8000230A4
:100F3000C900490B9C2F9F2F4030CA00A02FCA0127
:100F400001304802CA074A088038CB00CC014B0860
:100F5000CD0003133226BA2F0317CC011030CD0079
:100F600003133226BA2F01300317CC004708CD00F7
:100F70000313322608000B080317C50003138B1355
:100F8000831603178C170C14000000008312C51F72
:100F9000CC2F03138B1703178C080319E22F0D08AE
:100FA000C5000F08C6000C08C7000313612703170C
:100FB00045088D0046088F008D0A03198F0A031318
:080FC000BB2F03170313080007
:101000000B080317C40003138B13831603178C17E5
:101010000C14000000008312C41F112803138B1747
:1010200003170C087F3903195228C4000D08C500A6
:101030000F08C6004408C7008A11031361278A15E8
:10104000031745088D0046088F0003130B0803178C
:10105000C70003138B13831603178C170C1400009F
:1010600000008312C71F372803138B1703170C0DBB
:101070000E0D7F3903195228C4000D08C5000F0852
:10108000C6004408C7008A11031361278A15031795
:1010900045088D0046088F008D0A03198F0A031337
:1010A00000280317031308000B080317D6000313C7
:1010B0008B13831603178C170C1400000000831287
:1010C000D61F652803138B17031703188D280C08E8
:1010D0007F39D6000D08D7000F08D8005608031333
:1010E0000C1E70289900031757088D0058088F00B0
:1010F00003130B080317D90003138B13831603176D
:101100008C170C14000000008312D91F8A280313C7
:101110008B170317D50B8D28A8280C0D0E0D7F39C2
:10112000D6000D08D7000F08D800560803130C1E70
:1011300097289900031757088D0058088F008D0ACB
:1011400003198F0A0310D50BA628A82803135428C7
:10115000031308000B080317D50003138B13831622
:1011600003178C170C14000000008312D51FBB2836
:1011700003138B1703170C087F390319FA28D500BE
:101180000D08D6000F08D700550803130C1EC628FB
:101190009900031756088D0057088F0003130B089A
:1011A0000317D80003138B13831603178C170C1423
:1011B000000000008312D81FE02803138B170317C9
:1011C0000C0D0E0D7F390319FA28D5000D08D60035
:1011D0000F08D700550803130C1EEC2899000317BD
:1011E00056088D0057088F008D0A03198F0A0313C4
:1011F000AA280317031308000317C401C50103132A
:10120000AB018B1BAB178B1351088316031791008F
:10121000063092008A118312031397238A15AB1BA1
:101220008B1753307807840083138008031D91299E
:101230000317C50A0313AB018B1BAB178B135108A4
:10124000831603179100063092008A11831203134C
:1012500097238A15AB1B8B17031745087807533E56
:1012600084008313000B89290313AB018B1BAB177D
:101270008B135008831603179100063092008A11D1
:101280008312031397238A15AB1B8B17031745088B
:101290007807533E8400831380010313AB018B1B3B
:1012A000AB178B1351088316031791000630920079
:1012B0008A118312031397238A15AB1B8B1703170D
:1012C00045087807533E8400831380014508043C99
:1012D00003196E294508053C031D87290313AB013B
:1012E0008B1BAB178B135108831603179100063025
:1012F00092008A118312031397238A15AB1B8B1755
:1013000053307807840083130130800003174508A9
:10131000C40003135208031745020318C501FF2830
:101320000313AB018B1BAB178B13510883160317E9
:101330009100063092008A118312031397238A15B5
:10134000AB1B8B1753307807840083138001CF01C8
:101350000A300317D6008A110313DE258A150317F6
:101360004408F8000313080003178D0183168C133B
:101370000C1483120C080313DF000A300317D60085
:101380008A110313DE258A155F08313A0319CE2925
:10139000033A0319CE29013A031DCF29EE290B0880
:1013A000F7008B1303178D0133308C0083168C13D9
:1013B0000C1555308D00AA308D008C148C18DE2948
:1013C0000C117708831203138B040A300317D6001D
:1013D0008A110313DE258A153330DF00D730031757
:1013E0008D0000308F0003100A30D5000313542005
:1013F0005F080C1EF92999000D300C1EFD2999007B
:101400000A300C1E012A99000130CF003230031738
:10141000D6008A110313DE258A15DF3003178D00ED
:1014200000308F000313AA200230CF00FC20780880
:101430000317C2004208023C031DA32AC301103057
:1014400043078400831700080A3C0319502A103010
:1014500043078400831701304307C60046088D0008
:1014600083168C130C1483120C0880000A30D600EB
:101470008A110313DE258A151030031743078400F1
:101480008317000F462A0530C200502A1030430748
:101490008400831700080A3C0319502AC30A1F2A34
:1014A0004208053C0319832AE5308D0000308F0087
:1014B00003100930D5000313542010308400831723
:1014C000800803197D2A0317D6010408D500561099
:1014D000831B5614000803130C1E6C2A9900031773
:1014E00055088400831356188317840A031D7B2A2A
:1014F0000313850A03170313602A0330CF00FC206F
:1015000078080317C2004208043C03198B2A4208DA
:10151000053C031DA32AEB308D0000308F00031023
:101520000A30D500031354200C1E942A99000D3064
:101530000C1E982A99000A300C1E9C2A9900013032
:10154000CF00FC200317F3308D0000308F00031311
:10155000AA2004300317C400FA30D6008A110313FE
:10156000DE258A150317C40BAC2AFA308D00003033
:101570008F000313AA2004300317C400FA30D600EA
:101580008A110313DE258A150317C40BBE2A043003
:101590000313CF008A110A16BE2801300317C800B2
:1015A0000230C900490BD52AD82A4030CA00D92AAE
:1015B000CA0101304802CA074A088038CB00CC0172
:1015C0004B08CD008A11031332268A155C300317AD
:1015D0008D0003308F000313002008000317570805
:1015E0000739F700570CF800F80CF80C1F30F80515
:1015F00078085907840083135A188317F801F80AEA
:10160000F70A032BF80DF70B022BD80803190B2B45
:10161000780880040E2BF809780880050313080069
:101620000317C401C5017B30C6002230C7006330F8
:10163000C8006D30C9006430CA002230CB003A3097
:10164000CC002230CD006F30CE006B30CF00223086
:10165000D0007D30D100D20103134B0B912D4408F3
:101660004F3C031D842B4508503C031D842B303018
:101670008316210283120317C50083160313200863
:10168000303A83120319482B013A0319642B802B3B
:1016900003100317450D2C3E84008313840A0008B1
:1016A000D60084030008D500D700D801DA01D9019B
:1016B0000313EE2203175508D700D801DA01803052
:1016C000D9000313EE22802B03100317450D2C3E87
:1016D00084008313840A0008D60084030008D50020
:1016E000D7000130D800DA01D9010313EE22031725
:1016F0005508D700D801DA018030D9000313EE2253
:1017000001300317C400031344084E3C031D812C11
:101710004508433C031D812C0317D3010313C7085D
:10172000031D982B0317530803134602031CC52BF4
:10173000013003175307D500A030530784008313EB
:101740000008D60003130B08F7008B130317550886
:101750008D0056088C0083168C130C1555308D00A7
:10176000AA308D008C148C18B32B0C1177088312BF
:1017700003138B040A300317D6008A110313DE25E6
:101780008A150317D30A8E2B03130130031753074F
:10179000D50003130B08F7008B13031755088D00B2
:1017A0000D308C0083168C130C1555308D00AA302B
:1017B0008D008C148C18DA2B0C117708831203130C
:1017C0008B040A300317D6008A110313DE258A150D
:1017D000023003175307D50003130B08F7008B13D0
:1017E000031755088D000A308C0083168C130C15D6
:1017F00055308D00AA308D008C148C18FD2B0C11E7
:101800007708831203138B040A300317D6008A115A
:101810000313DE258A15983003178D0000308F00E2
:1018200003100B30D5000313542042080C1E162C55
:1018300099009E3003178D0000308F00031405308F
:10184000D500031354203C300317D6008A1103132C
:10185000DE258A15463084008317800803194A2C38
:101860000317D6010408D5005610831B5614000830
:1018700003130C1E392C9900031755088400831399
:1018800056188317840A031D482C0313850A03176F
:1018900003132D2C6E300317D6008A110313DE2597
:1018A0008A15A23003178D0000308F0003100C3012
:1018B000D5000313542042080C1E5C2C99000D30F7
:1018C0000C1E602C99000A300C1E642C9900AB3061
:1018D00003178D0000308F000313AA200430031774
:1018E000D500FA30D6008A110313DE258A150317B6
:1018F000D50B712C8A010313002801300317C40093
:10190000031344084E3C031D132D45084D3C031D95
:10191000132D0B08F7008B1303178D018316031388
:101920002008831203178C0083168C130C15553076
:101930008D00AA308D008C148C189C2C0C1177080B
:10194000831203138B040A300317D6008A11031382
:10195000DE258A1514300317D6008A110313DE25FD
:101960008A15B13003178D0000308F0003100B3043
:10197000D5000313542042080C1EBC2C9900B7302C
:1019800003178D0000308F0003140530D5000313BA
:10199000542032300317D6008A110313DE258A152E
:1019A00046308400831780080319F02C0317D601F2
:1019B0000408D5005610831B5614000803130C1E90
:1019C000DF2C9900031755088400831356188317DA
:1019D000840A031DEE2C0313850A03170313D32C6B
:1019E00064300317D6008A110313DE258A15BB3035
:1019F00003178D0000308F0003100C30D500031347
:101A0000542042080C1E022D99000D300C1E062D8C
:101A100099000A300C1E0A2D99008A010028013015
:101A20000317C400031314300317D6008A110313DD
:101A3000DE258A15C43003178D0000308F00031097
:101A40000B30D5000313542042080C1E252D99009D
:101A5000CA3003178D0000308F0003140530D50005
:101A60000313542032300317D6008A110313DE25E6
:101A70008A1546308400831780080319592D0317EF
:101A8000D6010408D5005610831B56140008031312
:101A90000C1E482D9900031755088400831356180F
:101AA0008317840A031D572D0313850A0317031395
:101AB0003C2D64300317D6008A110313DE258A15E6
:101AC000CE3003178D0000308F0003100C30D5008E
:101AD0000313542042080C1E6B2D99000D300C1E70
:101AE0006F2D99000A300C1E732D99000317D40135
:101AF0000313C708031D822D03175408031346025E
:101B0000031C8B2DA030031754078400831380011E
:101B1000D40A782D0313C401C501C201CB01C7014A
:101B2000C60103174408F800031308000317C9018E
:101B3000C801CB01CA01C508031DA22D4408133CEE
:101B40000318E72E45084E3C031CE72E031DAC2D61
:101B50004408203C031CE72ED1010130D000863020
:101B6000CF00A030CE0083105108D5005008D4001B
:101B70004F08D3004E08D200D901D8014508D7003C
:101B80004408D6008318C72D5A3084008317F70104
:101B9000F801F901FA01DA01DB01DC01DD01590884
:101BA0005804570456040319052E2030DE00031094
:101BB000D20DD30DD40DD50DDA0DDB0DDC0DDD0D01
:101BC00059085D02031DEE2D58085C02031DEE2D21
:101BD00057085B02031DEE2D56085A02031CFF2D09
:101BE0005608DA025708031C570FDB025808031C7B
:101BF000580FDC025908031C590FDD020314F70DBE
:101C0000F80DF90DFA0DDE0BD72D5A088000840A65
:101C10005B088000840A5C088000840A5D088000FC
:101C20007A08D1007908D0007808CF007708CE0074
:101C30005108D5005008D4004F08D3004E08D200F8
:101C4000D901D801D7010530D6002030DE00DA01F5
:101C5000DB01DC01DD015508FA005408F9005308E6
:101C6000F8005208F7000310771C442E5608DA07D4
:101C700057080318570FDB0758080318580FDC07DD
:101C800059080318590FDD07DD0CDC0CDB0CDA0CEE
:101C9000FA0CF90CF80CF70CDE0B332E7A08D10095
:101CA0007908D0007808CF007708CE004F08CD0023
:101CB0004E08CC0083160313061183120615031772
:101CC0004D08D200D20AD2030319772EFF30D30079
:101CD0000330D302031C762E533084008317000890
:101CE0000319762E742E742E800B732E632E4C08DF
:101CF000D3000330D302031C872E53308400831794
:101D000000080319872E852E852E800B842E4C0803
:101D1000CA074D0803184D0FCB078316031306118E
:101D20008312061103174D08D200D20AD2030319F9
:101D3000AA2EFF30D3000330D302031CA92E533048
:101D40008400831700080319A92EA72EA72E800B45
:101D5000A62E962E4C08D3000330D302031CBA2EB5
:101D600053308400831700080319BA2EB82EB82EFA
:101D7000800BB72E4C08CA074D0803184D0FCB0730
:101D80001930CA070318CB0A4B08023C0318DD2E92
:101D9000FF3A031DCF2E4A08E73C0318DD2EE8303A
:101DA000CA020330031C0430CB02C80A0319C90A53
:101DB0001930CA070318CB0AC42E49084702031C6E
:101DC000E72E031D5A2E46084802031C5A2E031301
:021DD000080009
:1020000003081F3983005730F70020308400831302
:102010008001840AF70B0828F801F901FA01FB0195
:10202000FC01FD01FE015030F700A0308400831355
:102030008001840AF70B18286030F7001030840004
:1020400083178001840AF70B212883136030F7007F
:102050009030840083178001840AF70B2B288313A8
:10206000A001831603178715083003139900023067
:102070009A00A630980090308312980083160610BC
:1020800083120614C701C601C801C901CA01CB01E8
:10209000CC01CD01CE01CF010130D000D1010530FE
:1020A000D2000230E0000830E100E2000730E30037
:1020B0000330E400E501831603170908C0398900DD
:1020C00003131F129F120030031788008312870129
:1020D0008801890183134A300313AC00AD014930F4
:1020E000AE00AF014830B000B1012C30B200B301F6
:1020F0002830B400B5012930B600B7012A30B80045
:10210000B9012B30BA00BB01BC01BD01D301D40120
:10211000D501D601D701D801D901DA01DB01DC01F3
:10212000DD01DE0102300317C200FA30D6000A12C8
:102130000313DE250A160317C20B952830308316C9
:10214000031395008113323086008C16C030831241
:102150008B040A120B2F0A16D53003178D00053099
:102160008F000A128A15031300200A168A1183169B
:102170008811831288150A128A15B4290A168A1141
:102180006508FC3E0318EE2B043EF02B0317C2013A
:10219000C301420EF700F030F7057708C4000C3099
:1021A000C7000A12031361270A16043003178D00B3
:1021B00001308F0044088D0703188F0A0A12031399
:1021C000BB270A160A128A15CD220A168A1103178E
:1021D000C308031D5C290A128A15031310230A166B
:1021E0008A11831606168312061A3829023003173D
:1021F000C400FA30D6000A120313DE250A160317AC
:10220000C40BF9280430C500B930C400C70114302C
:10221000C6000A128A15031396250A168A11031797
:10222000C20A420803136002031819290317C201E6
:1022300003130317420EF700F030F7057708C400C8
:102240000C30C7000A12031361270A160430031763
:102250008D0001308F0044088D0703188F0A0A1281
:102260000313BB270A160A128A15CD220A168A11F1
:10227000831686168312861A5A2902300317C40061
:10228000FA30D6000A120313DE250A160317C40B10
:1022900040290430C500B930C400C7011430C6005D
:1022A0000A128A15031396250A168A11013003179C
:1022B000C3000313E728031701304207F80078082A
:1022C0000313E500EE2B0317C201C3010313AB0197
:1022D0008B1BAB178B1303174208831691000F302B
:1022E00092000A128312031397230A16AB1B8B1753
:1022F00078080317C4000C30C7000A1203136127C3
:102300000A16443003178D0001308F0044088D07F2
:1023100003188F0A0A120313BB270A160A128A151A
:10232000CD220A168A110317C308031D3C2A0A127C
:102330008A15031310230A168A11831606168312B0
:10234000061AF12902300317C400FA30D6000A1227
:102350000313DE250A160317C40BA5290430C50094
:10236000B930C400C7011430C6000A128A1503131D
:1023700096250A168A110317C20A4208031361023E
:102380000318C5290317C2010313AB018B1BAB173D
:102390008B1303174208831691000F3092000A1224
:1023A0008312031397230A16AB1B8B1778080317A6
:1023B000C4000C30C7000A12031361270A16443008
:1023C00003178D0001308F0044088D0703188F0A12
:1023D0000A120313BB270A160A128A15CD220A16FF
:1023E0008A11831686168312861A3A2A0230031738
:1023F000C400FA30D6000A120313DE250A160317AA
:10240000C40BF9290430C500B930C400C701143029
:10241000C6000A128A15031396250A168A11610846
:1024200003174202031D172A0130C3003B2A031081
:10243000420D2C3E84008313840A0008C5008403E7
:102440000008C400D7000130D800DA01D9010A120F
:102450008A150313EE220A168A1103174408D700BF
:10246000D801DA018030D9000A128A150313EE224E
:102470000A168A11031794290030F800780803130C
:10248000E500EE2B0317C201C301420EF700F03046
:10249000F7057708C4000C30C7000A120313612740
:1024A0000A16DA3003178D0001308F0044088D07BB
:1024B00003188F0A0A120313BB270A160A128A1579
:1024C000CD220A168A110317C308031DFE2A0A1219
:1024D0008A15031310230A168A118316061683120F
:1024E000061AB42A02300317C400FA30D6000A12C2
:1024F0000313DE250A160317C40B752A0430C50022
:10250000B930C400C7011430C6000A128A1503137B
:1025100096250A168A110317C20A4208031362029B
:102520000318952A0317C20103130317420EF7007D
:10253000F030F7057708C4000C30C7000A12031307
:1025400061270A16DA3003178D0001308F00440826
:102550008D0703188F0A0A120313BB270A160A12E3
:102560008A15CD220A168A11831686168312861AB8
:10257000FC2A02300317C400FA30D6000A120313F3
:10258000DE250A160317C40BBC2A0430C500B93077
:10259000C400C7011430C6000A128A150313962519
:1025A0000A168A11620803174202031DDA2A013053
:1025B000C300FD2A0310420D2C3E84008313840ABD
:1025C0000008C50084030008C400D700D801DA0160
:1025D000D9010A128A150313EE220A168A1103176B
:1025E0004408D700D801DA018030D9000A128A15D0
:1025F0000313EE220A168A110317642A0030F8002A
:1026000078080313E500EE2B0A128A1510230A1628
:102610008A110317C201C3010313AB018B1BAB1754
:102620008B130317420883169100113092000A128F
:102630008312031397230A16AB1B8B177808031713
:10264000C4000C30C7000A12031361270A167A303F
:1026500003178D0002308F0044088D0703188F0A7E
:102660000A120313BB270A160A128A15CD220A166C
:102670008A110317C308031DE92B831603130616DB
:102680008312061A922B02300317C400FA30D600C8
:102690000A120313DE250A160317C40B462B043057
:1026A000C500B930C400C7011430C6000A128A152B
:1026B000031396250A168A110317C20A4208031348
:1026C00063020318662B0317C2010313AB018B1BB4
:1026D000AB178B1303174208831691001130920039
:1026E0000A128312031397230A16AB1B8B17780861
:1026F0000317C4000C30C7000A12031361270A161F
:102700007A3003178D0002308F0044088D070318BC
:102710008F0A0A120313BB270A160A128A15CD2242
:102720000A168A11831686168312861AE72B023040
:102730000317C400FA30D6000A120313DE250A1666
:102740000317C40B9A2B0430C500B930C400C7016D
:102750001430C6000A128A15031396250A168A1128
:10276000630803174202031DB82B0130C300E82B96
:102770004208C4000313AB018B1BAB178B13031769
:10278000420883169100113092000A12831203133B
:1027900097230A16AB1B8B1778080317C4000C305D
:1027A000C7000A12031361270A167A3003178D0037
:1027B00002308F0044088D0703188F0A0A12031392
:1027C000BB270A160A128A15CD220A168A11031788
:1027D0003A2B0030F80078080313E500C0286300A6
:1027E0000A148A140A118207C6286329422A042B74
:04400E00E22FFF3E60
:00000001FF
;PIC16F887
;CRC=7970  CREATED="13-dic.-17 00:44"
