:100000000D308A00002D0000FF00030E8301A100C7
:100010000A08A0008A010408A2007708A300780853
:10002000A4007908A5007A08A60003170D08031399
:10003000A70003170F080313A80003170C080313E6
:10004000A90003170E080313AA00831383128C3030
:100050008400801E2D288C1A4E2822088400230834
:10006000F7002408F8002508F9002608FA002708F8
:1000700003178D000313280803178F0003132908A3
:1000800003178C0003132A0803178E00031320089C
:100090008A00210E8300FF0E7F0E09008A110A12CA
:1000A000EF2A43346C34693465346E347434653407
:1000B000203420342034203420340034413463345C
:1000C0006334653473347334203450346F3469349A
:1000D0006E347434003443346C34693465346E34B3
:1000E0007434653420342B3420344134503400349B
:1000F000533441344C344934523420342034203485
:1001000020342034203420340034003400340034CF
:10011000003400340034003400340034003400343F
:1001200000340034D320CC245200DB29C9235D10D5
:1001300020102010A02D4527D42E0000412AAB21ED
:10014000D7264F22C52FC422C61EB112E312630068
:100150008C216F37E63467104336E9326E3A65001A
:10016000412AAB21D7264F22C52FC422C61EB21268
:10017000E31263008C216F37E634671041280001D9
:10018000412AAB21D7264F22C52FC422C61EB31247
:10019000E31263008C216F37E63467104336E9328F
:1001A0006E3AE5205000B11C3217311B381730175A
:1001B00031008C183919AE18361C2E18AE180001F3
:1001C0004318C719DF2ACE2200018C21B023B32F98
:1001D000552745003119331A413D21008C18B219B9
:1001E000B420FA1000010C21E1316B36E933683A92
:1001F000A0276E000C21E1316B36E933683AA02765
:100200006633000145346E34633465346E346434CF
:100210006534723420344D3461346E347534613455
:100220006C34003441347034613467346134643484
:100230006F3420344D3461346E34753461346C3431
:100240002034003443346F346E3466346934673498
:10025000753472346134633469346F346E342034ED
:1002600020340034003400340034003400340034CE
:1002700000340034003400340034003400340034DE
:10028000003400344F346E3420342D343E34203466
:10029000533461346C34693464346134203431341F
:1002A00000344F346E3420342D343E3420345334F3
:1002B00061346C3469346434613420343234003451
:1002C0004F346E3420342D343E3420345334613472
:1002D0006C346934643461342034333400344F3442
:1002E0006E3420342D343E342034533461346C3435
:1002F0006934643461342034343400344F346E341F
:1003000020342D343E342034533461346C34693419
:10031000643461342034353400344F346E34203446
:100320002D343E342034533461346C3469346434B5
:1003300061342034363400344F346E3420342D345C
:100340003E342034533461346C3469346434613461
:100350002034373400344F346E3420342D343E345E
:100360002034533461346C3469346434613420345F
:1003700038340034533441344C344934523420340A
:1003800020342034203420342034203420342034CD
:1003900000340034003400340034003400340034BD
:1003A00000340034003400340034003400340034AD
:1003B0004F346634663420342D343E342034533484
:1003C00061346C3469346434613420343134003441
:1003D0004F346634663420342D343E342034533464
:1003E00061346C3469346434613420343234003420
:1003F0004F346634663420342D343E342034533444
:1004000061346C34693464346134203433340034FE
:100410004F346634663420342D343E342034533423
:1004200061346C34693464346134203434340034DD
:100430004F346634663420342D343E342034533403
:1004400061346C34693464346134203435340034BC
:100450004F346634663420342D343E3420345334E3
:1004600061346C346934643461342034363400349B
:100470004F346634663420342D343E3420345334C3
:1004800061346C346934643461342034373400347A
:100490004F346634663420342D343E3420345334A3
:1004A00061346C3469346434613420343834003459
:1004B000533441344C3449345234203420342034C1
:1004C00020342034203420342034203420340034AC
:1004D000003400340034003400340034003400347C
:1004E000003400340034003400340034003400346C
:1004F0005634453452342034493450342034203476
:10050000203420342034203420342034203420344B
:10051000003456344534523420345334533449343F
:100520004434203420342034203420342034203407
:100530002034003456344534523420344B3445345E
:1005400059342034203420342034203420342034D2
:1005500020342034003443346F346E346634203415
:100560004134633463346534733473346F3420340A
:1005700052346534643400344F346E342F344F3485
:100580006634663420344234613463346B346C3402
:1005900069346734683474340034533441344C342F
:1005A0004934523420342034203420342034203450
:1005B00020342034203420342034003400340034FB
:1005C000003400340034003400340034003400348B
:1005D00000340034003400340034003400348C1211
:1005E0008A110A122D28533A6139F412E31263007A
:1005F000A53084008313000803190B2B0630F80084
:10060000F701F70B012BF80B002B7B30F700F70BF2
:10061000072B800BFE2A080083162C18132B83123D
:100620000812152B83168312081683160812AC18AD
:100630001D2B831288121F2B831683128816831694
:1006400088122C19272B83120813292B8316831247
:10065000081783160813AC19312B83128813332B18
:1006600083168312881783168813000083120814D8
:10067000831608100230F700F70B3C2B3F2B0000CD
:1006800083120810831608108312080083160810BE
:10069000081188108312081183160811081688168D
:1006A0000817881783128814831688100000831295
:1006B0000814831608100000AD01081600308312DC
:1006C000081A01308316AD04881600308312881A88
:1006D0000130F7000310F70D77088316AD040817F3
:1006E00000308312081B0130F700F70DF70DFC30C6
:1006F000F70577088316AD04881700308312881B2E
:100700000130F700F70DF70DF70DF830F705770812
:100710008316AD042D08F8007808AC008312081089
:100720008316081000008312081483160810982BF3
:10073000992B0000AD01081600308312081A013011
:100740008316AD04881600308312881A0130F70032
:100750000310F70D77088316AD04081700308312D5
:10076000081B0130F700F70DF70DFC30F70577088F
:100770008316AD04881700308312881B0130F70000
:10078000F70DF70DF70DF830F70577088316AD0470
:100790002D08F8007808AB008312081083160810A3
:1007A00008128812081388132C0EF700F030F70592
:1007B00077082B04F8007808AB00AB1B4E2BA90878
:1007C000031DE62B83120811E82B831683120815EC
:1007D0008316081100008312881083168810000009
:1007E00083120810831608102A0EAB000F30AB05D9
:1007F0002B08AC0083120C2383162A080F39AB0098
:10080000AC0083120C23080028308316A0000C30A3
:10081000A1000130A2000630A30083120810831645
:10082000081083120811831608118312881083168A
:1008300088100812881208138813081008118810ED
:100840000F30A5008312F8220130FB007B08033C27
:10085000031C362C03308316AC0083120C230530A6
:100860008316A5008312F822FB0A262C0230831679
:10087000AC0083120C2305308316A5008312F822E6
:10088000FB017B08033C031C532CA0307B07840036
:1008900083130008FC008316A9017C08AA008312B8
:1008A0004623FB0A412C8A150A12A92D831606102D
:1008B000831206100830F8005D2C0000F817702C29
:1008C000F8138316A30C831203180614031C0610D6
:1008D0007817702C7813F80B612C6E2C000006141E
:1008E00008308400840B722C0000F81B602C781BED
:1008F0006A2C08000B088316A00083128B13831642
:1009000003178C170C14000000000313A01F8B2C7E
:1009100083128B1783160318C42C831203170C0839
:100920007F3983160313A000831203170D08831663
:100930000313A100831203170F0883160313A200E9
:100940002008A3008312562483162108831203175C
:100950008D00831603132208831203178F000313DD
:100960000B088316A30083128B13831603178C17AF
:100970000C14000000000313A31FC12C83128B175B
:100980008316FB0BC42CF22C831203170C0D0E0DD7
:100990007F3983160313A000831203170D088316F3
:1009A0000313A100831203170F0883160313A20079
:1009B0002008A300831256248316210883120317EC
:1009C0008D00831603132208831203178F008D0AEC
:1009D00003198F0A0310FB0BEE2CF02C03137A2C57
:1009E0008316031383128A150A12B92D831624085D
:1009F000073A83120319062D0B3A03191D2D063AE7
:100A00000319292D023A0319412D482D013083166F
:100A1000A500A600260B0D2D102D4030A700112D8E
:100A2000A70101302502A70727088038A800A901DF
:100A30002808AA00831246234F2D8316A9010130EE
:100A4000AA008312462302308316A5008312F822DF
:100A50004F2D01308316A5000230A600260B312D44
:100A6000342D4030A700352DA70101302502A707FE
:100A700027088038A800A9012808AA008312462365
:100A80004F2D8316A9011030AA00831246234F2D43
:100A900001308316A9002408AA0083124623080007
:100AA0000B088316A20083128B13831603178C176F
:100AB0000C14000000000313A21F612D83128B177A
:100AC0008316831203178C080319892D0D088316CA
:100AD0000313A200831203170F0883160313A30046
:100AE000831203170C0883160313A4008312F62441
:100AF00083162208831203178D008316031323081D
:100B0000831203178F008D0A03198F0A0313502DC8
:100B10000317031308000B088316A10083128B131D
:100B2000831603178C170C14000000000313A11F79
:100B30009C2D83128B178316831203170C087F39A1
:100B40000319FD2D83160313A100831203170D084B
:100B500083160313A200831203170F0883160313CF
:100B6000A3002108A4008312F6248316220883120E
:100B700003178D00831603132308831203178F00B6
:100B800003130B088316A40083128B138316031719
:100B90008C170C14000000000313A41FD22D831225
:100BA0008B178316831203170C0D0E0D7F39031953
:100BB000FD2D83160313A100831203170D0883165E
:100BC0000313A200831203170F0883160313A30055
:100BD0002108A4008312F624831622088312031727
:100BE0008D00831603132308831203178F008D0AC9
:100BF00003198F0A03138B2D031703130800013009
:100C00008316A5000230A600260B072E0A2E4030C0
:100C1000A7000B2EA70101302502A707270880385F
:100C2000A800A9012808AA008312462395300317BB
:100C30008D0000308F0003138B2508008316A6015A
:100C4000A501A801A701A208031D2A2E2108133C13
:100C500003186B2F22084E3C031C6B2F031D342EF0
:100C60002108203C031C6B2FAE010130AD00863003
:100C7000AC00A030AB0083102E08B2002D08B100EC
:100C80002C08B0002B08AF00B601B5012208B40053
:100C90002108B30083184F2EB73084008313F70167
:100CA000F801F901FA01B701B801B901BA01360832
:100CB00035043404330403198D2E2030BB00031097
:100CC000AF0DB00DB10DB20DB70DB80DB90DBA0D18
:100CD00036083A02031D762E35083902031D762E9A
:100CE00034083802031D762E33083702031C872E82
:100CF0003308B7023408031C340FB8023508031C4C
:100D0000350FB9023608031C360FBA020314F70D6B
:100D1000F80DF90DFA0DBB0B5F2E37088000840A21
:100D200038088000840A39088000840A3A08800064
:100D30007A08AE007908AD007808AC007708AB00FF
:100D40002E08B2002D08B1002C08B0002B08AF000F
:100D5000B601B501B4010530B3002030BB00B701C6
:100D6000B801B901BA013208FA003108F9003008B7
:100D7000F8002F08F7000310771CCC2E3308B707B4
:100D800034080318340FB80735080318350FB907AE
:100D900036080318360FBA07BA0CB90CB80CB70CE2
:100DA000FA0CF90CF80CF70CBB0BBB2E7A08AE0052
:100DB0007908AD007808AC007708AB002C08AA00D1
:100DC0002B08A90006118312061583162A08AF0006
:100DD000AF0AAF030319FD2EFF30B0000330B0029D
:100DE000031CFC2EB0308400831300080319FC2E72
:100DF000FA2EFA2E800BF92EE92E2908B0000330C6
:100E0000B002031C0D2FB0308400831300080319B7
:100E10000D2F0B2F0B2F800B0A2F2908A7072A084D
:100E200003182A0FA80706118312061183162A0831
:100E3000AF00AF0AAF0303192E2FFF30B00003300D
:100E4000B002031C2D2FB030840083130008031957
:100E50002D2F2B2F2B2F800B2A2F1A2F2908B00074
:100E60000330B002031C3E2FB0308400831300080F
:100E700003193E2F3C2F3C2F800B3B2F2908A7073F
:100E80002A0803182A0FA8071930A7070318A80A69
:100E90002808023C0318612FFF3A031D532F27082F
:100EA000E73C0318612FE830A7020330031C04302D
:100EB000A802A50A0319A60A1930A7070318A80A49
:100EC000482F26082402031C6B2F031DE22E230843
:100ED0002502031CE22E83120800FB01FC017B0E9D
:100EE000F700F030F7057708FD000C308316A400FA
:100EF0008312F624023003178D0001308F007D0825
:100F00008D0703188F0A03135025FF25FC08031DC6
:100F1000D82F831606168312061ABD2F0230FD0045
:100F2000FA308316A5008312F822FD0B902F0430AF
:100F30008316A200B930A100A4011430A3008312CB
:100F40001E26FB0A7B085D02031CFB017B0EF700DB
:100F5000F030F7057708FD000C308316A4008312EB
:100F6000F624023003178D0001308F007D088D07B5
:100F700003188F0A03135025FF2583168616831244
:100F8000861AD72F0230FD00FA308316A50083128F
:100F9000F822FD0BC42F04308316A200B930A10043
:100FA000A4011430A30083121E260130FC00862FFA
:100FB00001307B07F8008A150A12DB2D8316200802
:100FC0000739F700200CF800F80CF80C1F30F80572
:100FD000780822078400831323188317F801F80A7E
:100FE000F70AF32FF80DF70BF22FA1080319FB2FC7
:100FF00078088004FE2FF80978088005831208001D
:10100000F701F8018316210803102218F707F70CDF
:10101000F80CA218F707F70CF80C2219F707F70CD1
:10102000F80CA219F707F70CF80C221AF707F70CBF
:10103000F80CA21AF707F70CF80C221BF707F70CAD
:10104000F80CA21BF707F70CF80C83120800FB0141
:10105000FC017B088316A1000F30A2008312002040
:101060007808FD000C308316A4008A118312F62440
:101070008A15423003178D0001308F007D088D07DF
:1010800003188F0A8A11031350258A158A11FF2528
:101090008A15FC08031DD128831606168312061A2A
:1010A0008D280230FD00FA308316A5008A118312C4
:1010B000F8228A15FD0B532804308316A200B9309C
:1010C000A100A4011430A3008A1183121E268A15E0
:1010D000FB0A7B085F02031CFB017B088316A1004F
:1010E0000F30A200831200207808FD000C30831618
:1010F000A4008A118312F6248A15423003178D004A
:1011000001308F007D088D0703188F0A8A110313A1
:1011100050258A158A11FF258A1583168616831293
:10112000861AD0280230FD00FA308316A5008A11F5
:101130008312F8228A15FD0B942804308316A2002E
:10114000B930A100A4011430A3008A1183121E2615
:101150008A155F087B02031DB0280130FC00D028EF
:1011600003107B0D2E3E84008313840A0008FE00CA
:1011700084030008FD008316A0000130A100A30134
:10118000A2018A118312DE278A157D088316A0002A
:10119000A101A3018030A2008A118312DE278A15E3
:1011A00049280030F8008A150A12E02DFB01FC01E5
:1011B0007B0EF700F030F7057708FD000C30831642
:1011C000A4008A118312F6248A15D83003178D00E3
:1011D00001308F007D088D0703188F0A8A110313D1
:1011E00050258A158A11FF258A15FC08031D7929C7
:1011F000831606168312061A36290230FD00FA30CD
:101200008316A5008A118312F8228A15FD0BFF2888
:1012100004308316A200B930A100A4011430A30049
:101220008A1183121E268A15FB0A7B086002031CA2
:10123000FB017B0EF700F030F7057708FD000C305E
:101240008316A4008A118312F6248A15D830031756
:101250008D0001308F007D088D0703188F0A8A11D9
:10126000031350258A158A11FF258A1583168616C1
:101270008312861A78290230FD00FA308316A50001
:101280008A118312F8228A15FD0B3D29043083163A
:10129000A200B930A100A4011430A3008A11831266
:1012A0001E268A1560087B02031D59290130FC00A7
:1012B000782903107B0D2E3E84008313840A0008D6
:1012C000FE0084030008FD008316A000A101A30115
:1012D000A2018A118312DE278A157D088316A000D9
:1012E000A101A3018030A2008A118312DE278A1592
:1012F000F5280030F8008A150A12E42D0B08831631
:10130000A00083128B13831603178C170C14000094
:1013100000000313A01F8F2983128B1783168312DB
:1013200003170C087F390319F42983160313A0004F
:10133000831203170D0883160313A10083120317EA
:101340000F0883160313A2002008A3008A1183123A
:1013500056248A1583162108831203178D008316DD
:1013600003132208831203178F0003130B0883163D
:10137000A30083128B13831603178C170C14000021
:1013800000000313A31FC72983128B178316831230
:1013900003170C0D0E0D7F390319F429831603135F
:1013A000A000831203170D0883160313A1008312F4
:1013B00003170F0883160313A2002008A3008A1145
:1013C000831256248A1583162108831203178D0071
:1013D000831603132208831203178F008D0A031943
:1013E0008F0A03137E290317031308000C3083169A
:1013F000A5000230A600260BFE29012A4030A700D6
:10140000022AA70101302502A70727088038A80073
:10141000A9012808AA008A11831246238A1592304E
:1014200003178D0000308F008A1103138B258A1556
:10143000831686168312861A2B2A02308316A10081
:10144000FA30A5008A118312F8228A158316A10B9F
:10145000202A2D2A8312182A83162D308400831304
:10146000800803194C2AA2010408A1002210831B42
:1014700022140008A3008A11831256248A158316A9
:1014800021088400831322188317840A031D4B2A22
:101490008312850A8316302A831208000B088316EC
:1014A000A20083128B13831603178C170C140000F1
:1014B00000000313A21F5F2A83128B1783160318E1
:1014C000992A831203170C087F3983160313A2008D
:1014D000831203170D0883160313A3008312031747
:1014E0000F0883160313A400220883120C1E762A09
:1014F000990083162308831203178D0083160313A4
:101500002408831203178F0003130B088316A5000A
:1015100083128B13831603178C170C140000000022
:101520000313A51F962A83128B178316A10B992AE2
:10153000C82A831203170C0D0E0D7F39831603136F
:10154000A200831203170D0883160313A30083124E
:1015500003170F0883160313A400220883120C1E1E
:10156000AF2A990083162308831203178D00831670
:1015700003132408831203178F008D0A03198F0A9F
:10158000031083160313A10BC62AC82A83124E2AFE
:10159000831208007D08FA3E0318412C063E442CB5
:1015A000D33003178D0000308F0003137E21D93014
:1015B00003178D0000308F008A1103138B258A15C5
:1015C000F621412CE03003178D0000308F0003130B
:1015D0007E21E53003178D0000308F008A11031340
:1015E0008B258A15F621412CEA3003178D00003037
:1015F0008F0003137E21EE3003178D0000308F0023
:101600008A1103138B258A15F621412CFE018316BE
:10161000A0017E08A1000D30A200831200207808EE
:101620008316A1000C30A4008A118312F6248A15B7
:10163000513003178D0000308F00831603132108EB
:10164000831203178D0703188F0A8A11031350257D
:101650008A158A11FF258A158316A008031D232CDD
:1016600006168312061A742B02308316A100FA3074
:10167000A5008A118312F8228A158316A10B372B35
:101680000430A200B930A100A4011430A3008A11D3
:1016900083121E268A15FE0A7E085C02031CFE01C8
:1016A0007E088316A1000D30A20083120020780866
:1016B0008316A1000C30A4008A118312F6248A1527
:1016C000513003178D0000308F008316031321085B
:1016D000831203178D0703188F0A8A1103135025ED
:1016E0008A158A11FF258A15831686168312861A93
:1016F000212C02308316A100FA30A5008A11831232
:10170000F8228A158316A10B7C2B0430A200B93075
:10171000A100A4011430A3008A1183121E268A1589
:101720005C087E02031D992B01308316A000222C39
:1017300083127E080319A32B013A0319C12B033A24
:101740000319DF2BFC2B9E3003178D0000308F0018
:1017500003100F3083160313A10083124E222B08AF
:101760000C1EB02B99002C080C1EB42B9900A8302D
:1017700003178D0000308F008A1103138B258A1503
:10178000FC2BB03003178D0000308F0003100F309A
:1017900083160313A10083124E222B080C1ECE2B9E
:1017A00099002C080C1ED22B9900BA3003178D001B
:1017B00000308F008A1103138B258A15FC2BC03053
:1017C00003178D0000308F0003100F3083160313B2
:1017D000A10083124E222B080C1EEC2B99002C0822
:1017E0000C1EF02B9900CA3003178D0000308F00BB
:1017F0008A1103138B258A15F6217E088316A10012
:101800000D30A2008312002078088316A1000C304E
:10181000A4008A118312F6248A15513003178D0013
:1018200000308F00831603132108831203178D07DE
:1018300003188F0A8A11031350258A158A11FF2570
:101840008A1583162D2B8312412C8316881108309C
:1018500083128806881D362CF33003178D00003064
:101860008F008A1103138B258A153F2CFA3003173A
:101870008D0000308F008A1103138B258A15F62105
:10188000412C8A150A12DA2C0A108A100A158207CE
:10189000D02AE22AF42A062B252C412CFB01FC013C
:1018A0007B088316A1001130A20083120020780863
:1018B000FD000C308316A4008A118312F6248A15C9
:1018C000783003178D0002308F007D088D070318D4
:1018D0008F0A8A11031350258A158A11FF258A154C
:1018E000FC08031DFB2C831606168312061AB42C63
:1018F0000230FD00FA308316A5008A118312F82207
:101900008A15FD0B7A2C04308316A200B930A10091
:10191000A4011430A3008A1183121E268A15FB0A23
:101920007B085E02031CFB017B088316A1001130BB
:10193000A200831200207808FD000C308316A4005A
:101940008A118312F6248A15783003178D0002302D
:101950008F007D088D0703188F0A8A110313502505
:101960008A158A11FF258A15831686168312861A10
:10197000FA2C0230FD00FA308316A5008A1183127A
:10198000F8228A15FD0BBB2C04308316A200B93057
:10199000A100A4011430A3008A1183121E268A1507
:1019A0005E087B02031DD72C0130FC00FA2C7B085B
:1019B000FD00CA2A7B088316A1001130A200831201
:1019C00000207808FD000C308316A4008A118312D1
:1019D000F6248A15783003178D0002308F007D08B9
:1019E0008D0703188F0A8A11031350258A158A114F
:1019F000FF258A15702C0030F8008A150A12E82D90
:101A000003081F3983008316031787152A30031331
:101A1000990000309A00A630980090308312980008
:101A200083160610831206140A30AB000D30AC008A
:101A30000330DC000230DD000530DE000830DF005E
:101A4000E000F501F601831603170908C039890083
:101A500003131F129F12003003178800831287019F
:101A60008801890183130313AD014A30AE00AF0131
:101A70004930B000B1014830B200B3012C30B4009D
:101A8000B5012830B600B7012930B800B9012A30B5
:101A9000BA00BB012B30BC00BD01BE01BF01B93093
:101AA000C4003B30C5005E30C6003830C70034305B
:101AB000C8003530C9003830CA003230CB0066303B
:101AC000CC002F30CD00BD30CE002C30CF003A30CE
:101AD000D0002A30D100DC30D2002730D3009F3034
:101AE000D4002530D5008230D6002330D700843092
:101AF000D8002130D900A330DA001F30DB0041309C
:101B0000E100E2015430E300E4012B30E500E6019E
:101B10004330E700E8015730E900EA014C30EB00C0
:101B2000EC014130ED00EE015030EF00F0010A30E1
:101B3000F100F2010D30F300F4013030831695000E
:101B40008113323086008C16C03083128B048A11C8
:101B5000042C8A158316881183128815F330031715
:101B60008D0002308F0003100530FB008A11031333
:101B70007A2C8A152B088316A3008A118312562407
:101B80008A152C088316A3008A11831256248A15FD
:101B90000230FB00FA308316A5008A118312F82266
:101BA0008A15FB0BCA2D7508FC3E0318EA2D043E6E
:101BB000EC2D8A116D2F8A157808F500EA2D27285B
:101BC0007808F500EA2DD6287808F500EA2D4E2C85
:101BD0007808F500D32D63000A148A100A158207CD
:081BE000D92DDF2DE32DE72DC7
:04400E00E22FFF3E60
:00000001FF
;PIC16F887
;CRC=4A81  CREATED="23-nov.-17 22:08"
