:100000000B308A00912B0000FF00030E8301A1003A
:100010000A08A0008A010408A2007708A300780853
:10002000A4007908A5007A08A60003170D08031399
:10003000A70003170F080313A80003170C080313E6
:10004000A90003170E080313AA00831383128C3030
:100050008400801E2D288C1A4E2822088400230834
:10006000F7002408F8002508F9002608FA002708F8
:1000700003178D000313280803178F0003132908A3
:1000800003178C0003132A0803178E00031320089C
:100090008A00210E8300FF0E7F0E09008A110A12CA
:1000A000092B0A108A100A1182074F344B340D3481
:1000B0000A3443346C34693465346E3474346534D2
:1000C000203420342034203420340034413463344C
:1000D0006334653473347334203450346F3469348A
:1000E0006E347434003443346C34693465346E34A3
:1000F0007434653420342B3420344134503400348B
:10010000533441344C344934523420342034203474
:1001100020342034203420340034003400340034BF
:10012000003400340034003400340034003400342F
:1001300000340034D320CC245200DB29C9235D10C5
:1001400020102010A02D4527D42E0000412AAB21DD
:10015000D7264F22C52FC422C61EB112E312630058
:100160008C216F37E63467104336E9326E3A65000A
:10017000412AAB21D7264F22C52FC422C61EB21258
:10018000E31263008C216F37E634671041280001C9
:10019000412AAB21D7264F22C52FC422C61EB31237
:1001A000E31263008C216F37E63467104336E9327F
:1001B0006E3AE5205000B11C3217311B381730174A
:1001C00031008C183919AE18361C2E18AE180001E3
:1001D0004318C719DF2ACE2200018C21B023B32F88
:1001E000552745003119331A413D21008C18B219A9
:1001F000B420FA1000010C21E1316B36E933683A82
:10020000A0276E000C21E1316B36E933683AA02754
:100210006633000145346E34633465346E346434BF
:100220006534723420344D3461346E347534613445
:100230006C34003441347034613467346134643474
:100240006F3420344D3461346E34753461346C3421
:100250002034003443346F346E3466346934673488
:10026000753472346134633469346F346E342034DD
:1002700020340034003400340034003400340034BE
:1002800000340034003400340034003400340034CE
:10029000003400344F346E3420342D343E34203456
:1002A000533461346C34693464346134203431340F
:1002B00000344F346E3420342D343E3420345334E3
:1002C00061346C3469346434613420343234003441
:1002D0004F346E3420342D343E3420345334613462
:1002E0006C346934643461342034333400344F3432
:1002F0006E3420342D343E342034533461346C3425
:100300006934643461342034343400344F346E340E
:1003100020342D343E342034533461346C34693409
:10032000643461342034353400344F346E34203436
:100330002D343E342034533461346C3469346434A5
:1003400061342034363400344F346E3420342D344C
:100350003E342034533461346C3469346434613451
:100360002034373400344F346E3420342D343E344E
:100370002034533461346C3469346434613420344F
:1003800038340034533441344C34493452342034FA
:1003900020342034203420342034203420342034BD
:1003A00000340034003400340034003400340034AD
:1003B000003400340034003400340034003400349D
:1003C0004F346634663420342D343E342034533474
:1003D00061346C3469346434613420343134003431
:1003E0004F346634663420342D343E342034533454
:1003F00061346C3469346434613420343234003410
:100400004F346634663420342D343E342034533433
:1004100061346C34693464346134203433340034EE
:100420004F346634663420342D343E342034533413
:1004300061346C34693464346134203434340034CD
:100440004F346634663420342D343E3420345334F3
:1004500061346C34693464346134203435340034AC
:100460004F346634663420342D343E3420345334D3
:1004700061346C346934643461342034363400348B
:100480004F346634663420342D343E3420345334B3
:1004900061346C346934643461342034373400346A
:1004A0004F346634663420342D343E342034533493
:1004B00061346C3469346434613420343834003449
:1004C000533441344C3449345234203420342034B1
:1004D000203420342034203420342034203400349C
:1004E000003400340034003400340034003400346C
:1004F000003400340034003400340034003400345C
:100500005634453452342034493450342034203465
:10051000203420342034203420342034203420343B
:10052000003456344534523420345334533449342F
:1005300044342034203420342034203420342034F7
:100540002034003456344534523420344B3445344E
:1005500059342034203420342034203420342034C2
:1005600020342034003443346F346E346634203405
:100570004134633463346534733473346F342034FA
:1005800052346534643400344F346E342F344F3475
:100590006634663420344234613463346B346C34F2
:1005A00069346734683474340034533441344C341F
:1005B0004934523420342034203420342034203440
:1005C00020342034203420342034003400340034EB
:1005D000003400340034003400340034003400347B
:1005E00000340034003400340034003400348C24EF
:1005F000EE34E3346136693D6137E4372E172E005F
:100600008C266F326F10E3376E33E9337539613200
:100610006F008C1E092B1A088316BF008312610815
:10062000013A031D3E2B83163F08C0000430C10071
:10063000831267085120F80083164002031D362BF1
:10064000623083126707840083138316400880009A
:100650008312E70A8316410883126702031D332BB6
:100660000130E600342BE6013D2B83168312E701AF
:10067000E601E201E301E401E5013F2BE1018C1217
:100680008A110A122D28A030840083130008031950
:10069000562B0630F800F701F70B4C2BF80B4B2BC1
:1006A0007B30F700F70B522B800B492B0800831689
:1006B00027185E2B83120812602B831683120816EC
:1006C00083160812A718682B831288126A2B8316C8
:1006D00083128816831688122719722B8312081327
:1006E000742B83168312081783160813A7197C2B03
:1006F000831288137E2B8316831288178316881320
:10070000000083120814831608100230F700F70B5C
:10071000872B8A2B0000831208108316081083127F
:100720000800831608100811881083120811831618
:10073000081108168816081788178312881483165C
:100740008810000083120814831608100000A80106
:10075000081600308312081A01308316A804881680
:1007600000308312881A0130F7000310F70D770864
:100770008316A804081700308312081B0130F70005
:10078000F70DF70DFC30F70577088316A8048817D6
:1007900000308312881B0130F700F70DF70DF70DBD
:1007A000F830F70577088316A8042808F8007808B9
:1007B000A700831208108316081000008312081483
:1007C00083160810E32BE42B0000A8010816003064
:1007D0008312081A01308316A80488160030831289
:1007E000881A0130F7000310F70D77088316A80464
:1007F000081700308312081B0130F700F70DF70DC2
:10080000FC30F70577088316A80488170030831298
:10081000881B0130F700F70DF70DF70DF830F705DD
:1008200077088316A8042808F8007808A600831221
:100830000810831608100812881208138813270E50
:10084000F700F030F70577082604F8007808A600CE
:10085000A61B992BA408031D312C83120811332CDD
:10086000831683120815831608110000831288105E
:100870008316881000008312081083160810250EB6
:10088000A6000F30A6052608A7008312572383165B
:1008900025080F39A600A700831257230800283027
:1008A000EB000C30EC000130ED000630EE000810DB
:1008B00083160810831208118316081183128810FA
:1008C000831688100812881208138813081008115C
:1008D00088100F30A000831243230130EA006A0819
:1008E000033C031C7F2C03308316A700831257237D
:1008F00005308316A00083124323EA0A6F2C0230CE
:100900008316A7008312572305308316A000831295
:100910004323EA016A08033C031C9E2C6B306A07E0
:10092000840083130008EF008316A40183126F086C
:100930008316A50083129123EA0A8A2C8A150A12CB
:100940001F2C7E08073A0319AF2C0B3A0319C62C4B
:10095000063A0319D22C023A0319EA2CF12C013081
:100960008316A000A100210BB62CB92C4030A200A8
:10097000BA2CA20101302002A20722088038A3006D
:10098000A4012308A50083129123F82C8316A40147
:100990000130A5008312912302308316A000831238
:1009A0004323F82C01308316A0000230A100210B54
:1009B000DA2CDD2C4030A200DE2CA2010130200216
:1009C000A20722088038A300A4012308A5008312EF
:1009D0009123F82C8316A4011030A50083129123D3
:1009E000F82C01308316A4007E08A5008312912301
:1009F00008000B08FB008B13831603178C170C14CD
:100A000000000000FB1F092D831203138B178316B0
:100A1000031783120C087F390319472DFB000D08BB
:100A2000FC000F08FD007B08FE000313A1247C08D6
:100A300003178D007D088F0003130B08FE008B1336
:100A4000831603178C170C1400000000FE1F2D2DB9
:100A5000831203138B178316031783120C0D0E0DCD
:100A60007F390319472DFB000D08FC000F08FD001E
:100A70007B08FE000313A1247C0803178D007D086A
:100A80008F008D0A03198F0A0313F92C0317031320
:100A90000800F73003178D0002308F000313F9248C
:100AA0003130EA00EB015530EC004E30ED004530BE
:100AB000EE005F30EF004330F0003030F1003630B0
:100AC000F2004530F300F4013130F500F601413019
:100AD0008316A0005430A1002B30A2005230A30096
:100AE0005330A4005430A500A6010630FB00FC01E1
:100AF0007B087C020318892DA0307C0784008313B7
:100B00000008FD0083120C1E832D9900FC0A831639
:100B1000782D0D3083120C1E8B2D99000A300C1E7F
:100B20008F2D99000830FB00FA308316A000831245
:100B30004323FB0B942DFC016A30FB0041308316EC
:100B4000A0005430A1002B30A2004330A300573046
:100B5000A4004D30A5004F30A6004430A70045301A
:100B6000A8003D30A900AA010B30FD00AE01A03065
:100B7000AD007C08B0007B08AF002E08B2002D0845
:100B8000B1003208FA003108840083137A18831701
:100B900080080319CF2DB10A0319B20AC12D3008FC
:100BA000FA002F08840083137A188317800803192A
:100BB000EE2D2F0884008313301883170008B5002A
:100BC0003108840083133218831735088000B10A76
:100BD0000319B20AAF0A0319B00ACF2D31088400F5
:100BE00083133218831780012D08F8002E08F900AE
:100BF000FE017D087E0203180A2EA0307E078400C5
:100C000083130008AB0083120C1E042E9900FE0A09
:100C10008316F92D0D3083120C1E0C2E99000A300C
:100C20000C1E102E99000130F8007808E100E6084B
:100C30000319172EE601003003178D0003308F00D3
:100C40000313F9241430FB00FA308316A00083123A
:100C50004323FB0B242E8A150A12312C0B08F000BB
:100C60008B13831603178C170C1400000000F01F61
:100C70003E2E831203138B178316031783128C08DF
:100C80000319552E0D08F0000F08F1000C08FE00A6
:100C90000313A124700803178D0071088F008D0ABB
:100CA00003198F0A03132E2E031703130800F401F0
:100CB000F301F601F501F008031D622E6F08133CE5
:100CC0000318AB2F70084E3C031CAB2F031D6C2E7A
:100CD0006F08203C031CAB2F8316A3010130A20038
:100CE0008630A100A030A00083102308A7002208AE
:100CF000A6002108A5002008A400AB01AA017008E5
:100D0000A90083126F088316A80083188A2EAC30BE
:100D100084008313F701F801F901FA01AC01AD0178
:100D2000AE01AF012B082A04290428040319C82E98
:100D30002030B0000310A40DA50DA60DA70DAC0D1D
:100D4000AD0DAE0DAF0D2B082F02031DB12E2A08DD
:100D50002E02031DB12E29082D02031DB12E2808D5
:100D60002C02031CC22E2808AC022908031C290FE0
:100D7000AD022A08031C2A0FAE022B08031C2B0FFE
:100D8000AF020314F70DF80DF90DFA0DB00B9A2E02
:100D90002C088000840A2D088000840A2E08800018
:100DA000840A2F0880007A08A3007908A200780836
:100DB000A1007708A0002308A7002208A6002108A8
:100DC000A5002008A400AB01AA01A9010530A800D4
:100DD0002030B000AC01AD01AE01AF012708FA0030
:100DE0002608F9002508F8002408F7000310771CEE
:100DF000072F2808AC0729080318290FAD072A0870
:100E000003182A0FAE072B0803182B0FAF07AF0CE0
:100E1000AE0CAD0CAC0CFA0CF90CF80CF70CB00BDA
:100E2000F62E7A08A3007908A2007808A1007708B6
:100E3000A0002108FC002008FB0006118312061503
:100E40007C08FD00FD0AFD030319392FFF308316CE
:100E5000A5000330A502031C372FA530840083139F
:100E600000080319372F352F352F800B342F8312AD
:100E7000232F7B088316A5000330A502031C4A2FED
:100E8000A53084008313000803194A2F482F482FE8
:100E9000800B472F7B08F5077C0803187C0FF607AB
:100EA0000611831206117C08FD00FD0AFD030319DB
:100EB0006C2FFF308316A5000330A502031C6A2F98
:100EC000A53084008313000803196A2F682F682F48
:100ED000800B672F8312562F7B088316A5000330E3
:100EE000A502031C7D2FA53084008313000803197D
:100EF0007D2F7B2F7B2F800B7A2F7B08F5077C08BB
:100F000003187C0FF6071930F5070318F60A760860
:100F1000023C0318A02FFF3A031D922F7508E73CEF
:100F20000318A02FE830F5020330031C0430F6024A
:100F3000F30A0319F40A1930F5070318F60A872F84
:100F400074087202031CAA2F031D1D2F710873025F
:100F5000031C1D2F83120800F701F8016F0803100E
:100F60007018F707F70CF80CF018F707F70CF80CE7
:100F70007019F707F70CF80CF019F707F70CF80CD5
:100F8000701AF707F70CF80CF01AF707F70CF80CC3
:100F9000701BF707F70CF80CF01BF707F70CF80CB1
:100FA00008006E080739F7006E0CF800F80CF80C12
:100FB0001F30F805780870078400831371188317B1
:100FC000F801F80AF70AE52FF80DF70BE42FEF0800
:100FD0000319ED2F78088004F02FF80978088005B0
:020FE000080007
:10100000EA01EB016A0EF700F030F7057708EC0013
:101010000C30FE008A11A1248A150A3003178D00B6
:1010200001308F0003136C0803178D0703188F0A14
:101030008A1103132E268A1501308316A000023070
:10104000A100210B242827284030A2002828A20133
:1010500001302002A20722088038A300A40123083F
:10106000A5008A11831291238A159D3003178D00E4
:1010700000308F008A110313F9248A15EB08031D31
:10108000B928831606168312061A9C280230EC0033
:10109000FA308316A0008A11831243238A15EC0BC1
:1010A00048280430F000B930EF00F2011430F100AC
:1010B0008A1157268A15EA0A6A085D02031CEA01AA
:1010C0006A0EF700F030F7057708EC000C30FE00F0
:1010D0008A11A1248A150A3003178D0001308F0070
:1010E00003136C0803178D0703188F0A8A11031363
:1010F0002E268A1501308316A0000230A100210B94
:10110000822885284030A2008628A20101302002D2
:10111000A20722088038A300A4012308A5008A1191
:10112000831291238A159D3003178D0000308F00A4
:101130008A110313F9248A15831686168312861AD8
:10114000B8280230EC00FA308316A0008A1183120E
:1011500043238A15EC0BA3280430F000B930EF00CC
:10116000F2011430F1008A1157268A150130EB0084
:101170003E2801306A07F8008A150A12392CEA0164
:10118000EB016A08EF000F30F0008A11AC278A15D6
:101190007808EC000C30FE008A11A1248A154A3030
:1011A00003178D0001308F0003136C0803178D07A0
:1011B00003188F0A8A1103132E268A15013083160D
:1011C000A0000230A100210BE628E9284030A2004F
:1011D000EA28A20101302002A20722088038A300D9
:1011E000A4012308A5008A11831291238A159D303A
:1011F00003178D0000308F008A110313F9248A151C
:10120000EB08031D9F29831606168312061A61290F
:101210000230EC00FA308316A0008A1183124323B7
:101220008A15EC0B0A290430F000B930EF00F20106
:101230001430F1008A1157268A15EA0A6A085F02FB
:10124000031CEA016A08EF000F30F0008A11AC2796
:101250008A157808EC000C30FE008A11A1248A154A
:101260004A3003178D0001308F0003136C080317F9
:101270008D0703188F0A8A1103132E268A15013051
:101280008316A0000230A100210B47294A294030D3
:10129000A2004B29A20101302002A20722088038B7
:1012A000A300A4012308A5008A11831291238A15A3
:1012B0009D3003178D0000308F008A110313F9242D
:1012C0008A15831686168312861A9E290230EC0030
:1012D000FA308316A0008A11831243238A15EC0B7F
:1012E00068290430F000B930EF00F2011430F10049
:1012F0008A1157268A155F086A02031D8229013068
:10130000EB009E2903106A0D2E3E84008313840A8D
:101310000008ED0084030008EC00EE000130EF004F
:10132000F101F0018A11D1278A156C08EE00EF0156
:10133000F1018030F0008A11D1278A150029003090
:10134000F8008A150A123D2CEA01EB016A0EF7003B
:10135000F030F7057708EC000C30FE008A11A1246C
:101360008A15E03003178D0001308F0003136C08DD
:1013700003178D0703188F0A8A1103132E268A1567
:1013800001308316A0000230A100210BC829CB290F
:101390004030A200CC29A20101302002A20722087D
:1013A0008038A300A4012308A5008A118312912389
:1013B0008A159D3003178D0000308F008A110313AA
:1013C000F9248A15EB08031D7D2A8316061683125D
:1013D000061A402A0230EC00FA308316A0008A1167
:1013E000831243238A15EC0BEC290430F000B9304A
:1013F000EF00F2011430F1008A1157268A15EA0A2B
:101400006A086002031CEA016A0EF700F030F70573
:101410007708EC000C30FE008A11A1248A15E03018
:1014200003178D0001308F0003136C0803178D071D
:1014300003188F0A8A1103132E268A15013083168A
:10144000A0000230A100210B262A292A4030A20048
:101450002A2AA20101302002A20722088038A30014
:10146000A4012308A5008A11831291238A159D30B7
:1014700003178D0000308F008A110313F9248A1599
:10148000831686168312861A7C2A0230EC00FA3004
:101490008316A0008A11831243238A15EC0B472A76
:1014A0000430F000B930EF00F2011430F1008A117D
:1014B00057268A1560086A02031D612A0130EB0075
:1014C0007C2A03106A0D2E3E84008313840A0008D0
:1014D000ED0084030008EC00EE00EF01F101F001E3
:1014E0008A11D1278A156C08EE00EF01F1018030D6
:1014F000F0008A11D1278A15E2290030F8008A15F8
:101500000A12412CEA01EB016A08EF001130F000E9
:101510008A11AC278A157808EC000C30FE008A117D
:10152000A1248A15803003178D0002308F00031329
:101530006C0803178D0703188F0A8A1103132E26D0
:101540008A1501308316A0000230A100210BA92AC0
:10155000AC2A4030A200AD2AA20101302002A2072D
:1015600022088038A300A4012308A5008A11831251
:1015700091238A159D3003178D0000308F008A114A
:101580000313F9248A15EB08031D8C2B831606160A
:101590008312061A242B0230EC00FA308316A000C6
:1015A0008A11831243238A15EC0BCD2A0430F000F4
:1015B000B930EF00F2011430F1008A1157268A1574
:1015C000EA0A6A085E02031CEA016A08EF001130A9
:1015D000F0008A11AC278A157808EC000C30FE0068
:1015E0008A11A1248A15803003178D0002308F00E4
:1015F00003136C0803178D0703188F0A8A1103134E
:101600002E268A1501308316A0000230A100210B7E
:101610000A2B0D2B4030A2000E2BA201013020021C
:10162000A20722088038A300A4012308A5008A117C
:10163000831291238A159D3003178D0000308F008F
:101640008A110313F9248A15831686168312861AC3
:101650008B2B0230EC00FA308316A0008A11831223
:1016600043238A15EC0B2B2B0430F000B930EF002C
:10167000F2011430F1008A1157268A155E086A02B9
:10168000031D452B0130EB008B2B6A08EC000A167A
:101690008A1100280A128A156A08EF001130F0003A
:1016A0008A11AC278A157808EC000C30FE008A11EC
:1016B000A1248A15803003178D0002308F00031398
:1016C0006C0803178D0703188F0A8A1103132E263F
:1016D0008A1501308316A0000230A100210B712B66
:1016E000742B4030A200752BA20101302002A2070A
:1016F00022088038A300A4012308A5008A118312C0
:1017000091238A159D3003178D0000308F008A11B8
:101710000313F9248A15C32A0030F8008A150A1227
:10172000452C03081F3983008316031787150830DB
:101730000313990002309A00A6309800903083126B
:10174000980083160610831206140A30AB000D3081
:10175000AC000330DC000230DD000530DE00083074
:10176000DF00E000E101E601E701E801E90183169D
:1017700003170908C039890003131F129F12003094
:1017800003178800831287018801890183130313DB
:10179000AD014A30AE00AF014930B000B101483070
:1017A000B200B3012C30B400B5012830B600B70147
:1017B0002930B800B9012A30BA00BB012B30BC0077
:1017C000BD01BE01BF01B930C4003B30C5005E3071
:1017D000C6003830C7003430C8003530C900383052
:1017E000CA003230CB006630CC002F30CD00BD3087
:1017F000CE002C30CF003A30D0002A30D100DC307F
:10180000D2002730D3009F30D4002530D50082305D
:10181000D6002330D7008430D8002130D900A3303F
:10182000DA001F30DB003030831695008113323030
:1018300086008C16C03083128B048A114F2C8A15B7
:1018400083168811831288150230EA00FA30831655
:10185000A0008A11831243238A15EA0B262C8A11D1
:10186000492D8A156808FC3E0318472C043E492C74
:1018700000287808E800472CBF287808E800472CA3
:10188000A4297808E800472C822A7808E800322C3E
:1018900063000A108A100A158207382C3C2C402C51
:0218A000442CD6
:102000006C08FA3E0318952E063E982EDB30031717
:102010008D0000308F0003130B08ED008B13831627
:1020200003178C170C140000000083120313ED1B20
:102030008B1703170C087F390319A1280313ED0030
:1020400003170D080313EE0003170F080313EF0027
:102050006D08F10083160610831206100830F80090
:1020600031280000F8174228F813F10C0318061461
:10207000031C0610781742287813F80B35284028DF
:1020800000000614A7308400840B44284728F81B5E
:102090003428781B3C286E0803178D0003136F0843
:1020A00003178F0003130B08F0008B13831603171D
:1020B0008C170C1400000000F01F63288312031318
:1020C0008B178316031783120C0D0E0D7F3903191E
:1020D000A1280313ED0003170D080313EE000317E7
:1020E0000F080313EF006D08F1008316061083122A
:1020F00006100830F8007C280000F8178D28F81327
:10210000F10C03180614031C061078178D28781399
:10211000F80B80288B2800000614A7308400840B5D
:102120008F289228F81B7F28781B87286E080317B2
:102130008D0003136F0803178F008D0A03198F0A90
:102140000B28E1308D0000308F000A120313F924B0
:102150000A160C308316A0000230A100210BB12812
:10216000B4284030A200B528A20101302002A20705
:1021700022088038A300A4012308A5000A128312B4
:1021800091230A169A3003178D0000308F000A122F
:102190000313F9240A16831686168312861ADC287E
:1021A0000230EF00FA308316A0000A128312432394
:1021B0000A16EF0BD228DD28CB282D30840083139C
:1021C000800803191529F0010408EF007010831B23
:1021D00070140008F10083160610831206100830F0
:1021E000F800F2280000F8170329F813F10C03187F
:1021F0000614031C0610781703297813F80BF62829
:10220000012900000614A7308400840B0529082941
:10221000F81BF528781BFD286F08840083137018BD
:102220008317840A0319850AE028952EE8300317DE
:102230008D0000308F0003130B08ED008B13831605
:1022400003178C170C140000000083120313ED1BFE
:102250008B1703170C087F390319B1290313ED00FD
:1022600003170D080313EE0003170F080313EF0005
:102270006D08F10083160610831206100830F8006E
:1022800041290000F8175229F813F10C031806141D
:10229000031C0610781752297813F80B452950298A
:1022A00000000614A7308400840B54295729F81B1A
:1022B0004429781B4C296E0803178D0003136F08FF
:1022C00003178F0003130B08F0008B1383160317FB
:1022D0008C170C1400000000F01F732983120313E5
:1022E0008B178316031783120C0D0E0D7F390319FC
:1022F000B1290313ED0003170D080313EE000317B4
:102300000F080313EF006D08F10083160610831207
:1023100006100830F8008C290000F8179D29F813E2
:10232000F10C03180614031C061078179D29781366
:10233000F80B90299B2900000614A7308400840B19
:102340009F29A229F81B8F29781B97296E0803174C
:102350008D0003136F0803178F008D0A03198F0A6E
:102360001B29ED308D0000308F000A120313F92471
:102370000A160C308316A0000230A100210BC129DF
:10238000C4294030A200C529A20101302002A207C1
:1023900022088038A300A4012308A5000A12831292
:1023A00091230A169A3003178D0000308F000A120D
:1023B0000313F9240A16831686168312861AEC294B
:1023C0000230EF00FA308316A0000A128312432372
:1023D0000A16EF0BE229ED29DB292D308400831347
:1023E00080080319252AF0010408EF007010831BF0
:1023F00070140008F10083160610831206100830CE
:10240000F800022A0000F817132AF813F10C031839
:102410000614031C06107817132A7813F80B062AE3
:10242000112A00000614A7308400840B152A182AEC
:10243000F81B052A781B0D2A6F0884008313701877
:102440008317840A0319850AF029952EF2300317A1
:102450008D0000308F0003130B08ED008B138316E3
:1024600003178C170C140000000083120313ED1BDC
:102470008B1703170C087F390319C12A0313ED00CA
:1024800003170D080313EE0003170F080313EF00E3
:102490006D08F10083160610831206100830F8004C
:1024A000512A0000F817622AF813F10C03180614D9
:1024B000031C06107817622A7813F80B552A602A35
:1024C00000000614A7308400840B642A672AF81BD6
:1024D000542A781B5C2A6E0803178D0003136F08BB
:1024E00003178F0003130B08F0008B1383160317D9
:1024F0008C170C1400000000F01F832A83120313B2
:102500008B178316031783120C0D0E0D7F390319D9
:10251000C12A0313ED0003170D080313EE00031780
:102520000F080313EF006D08F100831606108312E5
:1025300006100830F8009C2A0000F817AD2AF8139E
:10254000F10C03180614031C06107817AD2A781333
:10255000F80BA02AAB2A00000614A7308400840BD5
:10256000AF2AB22AF81B9F2A781BA72A6E080317E6
:102570008D0003136F0803178F008D0A03198F0A4C
:102580002B2AF6308D0000308F000A120313F92435
:102590000A160C308316A0000230A100210BD12AAC
:1025A000D42A4030A200D52AA20101302002A2077D
:1025B00022088038A300A4012308A5000A12831270
:1025C00091230A169A3003178D0000308F000A12EB
:1025D0000313F9240A16831686168312861AFC2A18
:1025E0000230EF00FA308316A0000A128312432350
:1025F0000A16EF0BF22AFD2AEB2A2D3084008313F2
:1026000080080319352BF0010408EF007010831BBC
:1026100070140008F10083160610831206100830AB
:10262000F800122B0000F817232BF813F10C0318F5
:102630000614031C06107817232B7813F80B162B9F
:10264000212B00000614A7308400840B252B282B97
:10265000F81B152B781B1D2B6F0884008313701833
:102660008317840A0319850A002B952EED01EE01CC
:102670006D08EF000D30F0000A12AC270A1678083A
:10268000EF000C30FE000A12A1240A16593003177D
:102690008D0000308F0003136F0803178D07031898
:1026A0008F0A0A1203132E260A1601308316A00081
:1026B0000230A100210B5D2B602B4030A200612B6A
:1026C000A20101302002A20722088038A300A40141
:1026D0002308A5000A12831291230A169D300317BE
:1026E0008D0000308F000A120313F9240A16EE0839
:1026F000031D0D2E831606168312061AD82B0230E0
:10270000EF00FA308316A0000A12831243230A1640
:10271000EF0B812B0430F000B930EF00F2011430E0
:10272000F1000A1257260A16ED0A6D085C02031C16
:10273000ED016D08EF000D30F0000A12AC270A160B
:102740007808EF000C30FE000A12A1240A16593056
:1027500003178D0000308F0003136F0803178D07D8
:1027600003188F0A0A1203132E260A160130831645
:10277000A0000230A100210BBE2BC12B4030A200D3
:10278000C22BA20101302002A20722088038A30038
:10279000A4012308A5000A12831291230A169D3072
:1027A00003178D0000308F000A120313F9240A1654
:1027B000831686168312861A0C2E0230EF00FA302A
:1027C0008316A0000A12831243230A16EF0BDF2B95
:1027D0000430F000B930EF00F2011430F1000A12B9
:1027E00057260A165C086D02031DF92B0130EE0016
:1027F0000C2E6D080319032C013A0319782C033AA7
:102800000319ED2C612DA63003178D0000308F00C9
:1028100003100F300313EF000B08F0008B13831627
:1028200003178C170C1400000000F01F1C2C8312DF
:1028300003138B178316031703184C2C83120C08F1
:102840007F39F0000D08F1000F08F2007008031343
:102850000C1E282C9900710803178D0072088F0038
:1028600003130B08F3008B13831603178C170C1438
:1028700000000000F31F412C831203138B178316F3
:10288000031783120313EF0B462C492C83160317EF
:102890004C2C662C8316031783120C0D0E0D7F39FA
:1028A000F0000D08F1000F08F200700803130C1E71
:1028B000572C9900710803178D0072088F008D0A3C
:1028C00003198F0A03100313EF0B0C2C2B080C1E9B
:1028D000672C99002C080C1E6B2C9900B030031744
:1028E0008D0000308F000A120313F9240A16612D9F
:1028F000B83003178D0000308F0003100F30031322
:10290000EF000B08F0008B13831603178C170C14C1
:1029100000000000F01F912C831203138B17831605
:1029200003170318C12C83120C087F39F0000D081F
:10293000F1000F08F200700803130C1E9D2C990083
:10294000710803178D0072088F0003130B08F30042
:102950008B13831603178C170C1400000000F31F51
:10296000B62C831203138B178316031783120313DA
:10297000EF0BBB2CBE2C83160317C12CDB2C83164C
:10298000031783120C0D0E0D7F39F0000D08F100B6
:102990000F08F200700803130C1ECC2C990071086C
:1029A00003178D0072088F008D0A03198F0A031018
:1029B0000313EF0B812C2B080C1EDC2C99002C0828
:1029C0000C1EE02C9900C23003178D0000308F00E0
:1029D0000A120313F9240A16612DC83003178D005B
:1029E00000308F0003100F300313EF000B08F000CE
:1029F0008B13831603178C170C1400000000F01FB4
:102A0000062D831203138B17831603170318362D15
:102A100083120C087F39F0000D08F1000F08F20056
:102A2000700803130C1E122D9900710803178D00F6
:102A300072088F0003130B08F3008B138316031720
:102A40008C170C1400000000F31F2B2D83120313AE
:102A50008B178316031783120313EF0B302D332DBF
:102A600083160317362D502D8316031783120C0D72
:102A70000E0D7F39F0000D08F1000F08F20070080C
:102A800003130C1E412D9900710803178D00720865
:102A90008F008D0A03198F0A03100313EF0BF62C16
:102AA0002B080C1E512D99002C080C1E552D990039
:102AB000D23003178D0000308F000A120313F9245F
:102AC0000A160C308316A0000230A100210B692DDC
:102AD0006C2D4030A2006D2DA20101302002A20712
:102AE00022088038A300A4012308A5000A1283123B
:102AF00091230A169A3003178D0000308F000A12B6
:102B00000313F9240A16831686168312861A942D47
:102B10000230EF00FA308316A0000A12831243231A
:102B20000A16EF0B8A2D952D832D2D3084008313EB
:102B300080080319CD2DF0010408EF007010831BED
:102B400070140008F1008316061083120610083076
:102B5000F800AA2D0000F817BB2DF813F10C03188C
:102B60000614031C06107817BB2D7813F80BAE2D36
:102B7000B92D00000614A7308400840BBD2DC02D94
:102B8000F81BAD2D781BB52D6F08840083137018CA
:102B90008317840A0319850A982D6D08EF000D30FC
:102BA000F0000A12AC270A167808EF000C30FE007D
:102BB0000A12A1240A16593003178D0000308F0025
:102BC00003136F0803178D0703188F0A0A120313E4
:102BD0002E260A1601308316A0000230A100210B18
:102BE000F22DF52D4030A200F62DA2010130200279
:102BF000A20722088038A300A4012308A5000A1216
:102C0000831291230A169D3003178D0000308F0028
:102C10000A120313F9240A16772B952E83168811AE
:102C2000083083128806881D1F2EFB3003178D0085
:102C300000308F000A120313F9240A16282E0230DE
:102C400003178D0001308F000A120313F9240A16AE
:102C50000C308316A0000230A100210B302E332E41
:102C60004030A200342EA20101302002A207220827
:102C70008038A300A4012308A5000A12831291231F
:102C80000A169A3003178D0000308F000A120313C2
:102C9000F9240A16831686168312861A5B2E0230D2
:102CA000EF00FA308316A0000A12831243230A169B
:102CB000EF0B512E5C2E4A2E2D308400831380089A
:102CC0000319942EF0010408EF007010831B701498
:102CD0000008F10083160610831206100830F80071
:102CE000712E0000F817822EF813F10C0318061449
:102CF000031C06107817822E7813F80B752E802E81
:102D000000000614A7308400840B842E872EF81B45
:102D1000742E781B7C2E6F08840083137018831721
:102D2000840A0319850A5F2E952E8A150A124A2BEA
:102D30000A108A140A15820706281629262A362B15
:042D40000E2E952E90
:04400E00E22FFF3E60
:00000001FF
;PIC16F887
;CRC=FD35  CREATED="29-nov.-17 22:45"
