:1000000016308A00832E0000FF00030E8301A1003A
:100010000A08A0008A010408A2007708A300780853
:10002000A4007908A5007A08A60003170D08031399
:10003000A70003170F080313A80003170C080313E6
:10004000A90003170E080313AA00831383128C3030
:100050008400801E2D288C1A4E2822088400230834
:10006000F7002408F8002508F9002608FA002708F8
:1000700003178D000313280803178F0003132908A3
:1000800003178C0003132A0803178E00031320089C
:100090008A00210E8300FF0E7F0E09008A110A12CA
:1000A000F32B0A108A100A1182072B34493450347A
:1000B00044342C340A108A100A11820743344D3418
:1000C00044343A340A108A100A1182074F344B34F0
:1000D0000D340A340A108A100A1182074E346F3424
:1000E0002034413450340A108A100A1182072B340C
:1000F000433457344A34413450343A340A108A1065
:100100000A11820743344F344E344E34453443345D
:100110005434453444340A108A100A118207463494
:10012000413449344C34412AAB214928D3224E2250
:10013000BD12631631190D050000412AAB21492873
:100140004326CF29C51EA5310D050001412AAB214B
:10015000D72841288A060000412AAB214928D3220A
:100160004E22BD12631631190D050001412AAB2143
:1001700049284326CF29C51EA5310D050001412A76
:10018000AB214928D3224E22BD12631631190D0529
:100190000001412AAB2149284326CF29C51EA5319C
:1001A0000D050000412AAB21D7264F22C51EA531DF
:1001B0000D050001412AAB2157254128BF060A0041
:1001C000412AAB2157254128BD127300412AAB219A
:1001D000D7264F22C51EA5310D050001412AAB21AE
:1001E0004928CD2AD81EB1060A00412AAB21492848
:1001F000D322522B4529BD182C1CB0060A004534C9
:100200006E34633465346E3464346534723420344F
:100210004D3461346E34753461346C34003441349F
:10022000703461346734613464346F3420344D3455
:1002300061346E34753461346C34203400344334AA
:100240006F346E34663469346734753472346134B3
:10025000633469346F346E34203420340034003415
:1002600000340034003400340034003400340034EE
:1002700000340034003400340034003400344F348F
:100280006E3420342D343E342034533461346C3495
:100290006934643461342034313400344F346E3482
:1002A00020342D343E342034533461346C3469347A
:1002B000643461342034323400344F346E342034AA
:1002C0002D343E342034533461346C346934643416
:1002D00061342034333400344F346E3420342D34C0
:1002E0003E342034533461346C34693464346134C2
:1002F0002034343400344F346E3420342D343E34C2
:100300002034533461346C346934643461342034BF
:10031000353400344F346E3420342D343E342034A0
:10032000533461346C346934643461342034363489
:1003300000344F346E3420342D343E342034533462
:1003400061346C34693464346134203437340034BB
:100350004F346E3420342D343E34203453346134E1
:100360006C346934643461342034383400345334A8
:1003700041344C3449345234203420342034203435
:10038000203420342034203420340034003400342D
:1003900000340034003400340034003400340034BD
:1003A000003400340034003400344F346634663492
:1003B00020342D343E342034533461346C34693469
:1003C000643461342034313400344F34663466345C
:1003D00020342D343E342034533461346C34693449
:1003E000643461342034323400344F34663466343B
:1003F00020342D343E342034533461346C34693429
:10040000643461342034333400344F346634663419
:1004100020342D343E342034533461346C34693408
:10042000643461342034343400344F3466346634F8
:1004300020342D343E342034533461346C346934E8
:10044000643461342034353400344F3466346634D7
:1004500020342D343E342034533461346C346934C8
:10046000643461342034363400344F3466346634B6
:1004700020342D343E342034533461346C346934A8
:10048000643461342034373400344F346634663495
:1004900020342D343E342034533461346C34693488
:1004A00064346134203438340034533441344C34AF
:1004B0004934523420342034203420342034203441
:1004C000203420342034203400340034003400340C
:1004D000003400340034003400340034003400347C
:1004E0000034003400340034003445345334543480
:1004F0004134433449344F344E3420344934503439
:100500002034203420342034203400344534533413
:1005100054344134433449344F344E34203453340A
:1005200053344934443420342034203400344134AA
:100530005034203453345334493444342034203438
:10054000203420342034203420342034203400342B
:100550004134503420344B34453459342034203421
:1005600020342034203420342034203420342034EB
:100570000034413450342034493450342034203451
:1005800020342034203420342034203420342034CB
:100590002034003443346F346E34663420344134B4
:1005A000633463346534733473346F3420345234B9
:1005B0006534643400344F346E342F344F34663431
:1005C000663420344234613463346B346C346934BF
:1005D0006734683474340034533441344C3449340F
:1005E0005234203420342034203420342034203439
:1005F00020342034203420340034003400340034DB
:10060000003400340034003400340034003400344A
:100610000034003400340034003400344534733482
:100620007434613463346934F3346E3420342034E8
:10063000203420342034003441346334633465344E
:1006400073347334203450346F3469346E347434FA
:100650002034003445347334743461346334693481
:100660006F346E3420342B34203441345034003411
:10067000533441344C3449345234203420342034FF
:10068000203420342034203420340034003400342A
:1006900000340034003400340034003400340034BA
:1006A0000034003400340034D320CC245200DB2941
:1006B000C9235D1020102010A02D4527D42E000046
:1006C0008C27502ADF29C827D72F532AC12F492822
:1006D00000018C27502ADF29C827D72F532AC12F82
:1006E000D329492200018C27502ADF29C827D72F78
:1006F0004128DF29D32444008C27502ADF29C8272A
:10070000D72F4128DF25C52C00018C27502ADF294F
:10071000C827D72F4128DF2450000C21E1316B3648
:10072000E933683AA0276E000C21E1316B36E933DA
:10073000683AA02766330001412AAB21D7264F2211
:10074000C52FC422C61EB1060A008C216F37E634BD
:1007500067104336E9326E3A6500412AAB21D7264D
:100760004F22C52FC422C61EB2060A008C216F3745
:10077000E634671041280001412AAB21D7264F22D9
:10078000C52FC422C61EB3060A008C216F37E6347B
:1007900067104336E9326E3AE52050000430031703
:1007A000AF00831603132C0883126220F80003178E
:1007B0002E02031DED2B83160313AC0A83120317BD
:1007C0002F08831603132C02031DE92B0130A6000A
:1007D000EA2BA601F12B8312031783160313AC0136
:1007E000A601831208008C1EF32B1A080317AC0015
:1007F0002C08AD00831603132508013A8312031950
:100800000B2C033A0319112C013A03195D2C073AFA
:100810000319A92CA92C03172D08AE000313CE230E
:100820007D2D03172D08AE000530AF00831603138E
:100830002D0883126A20F80003172E02031D302CA6
:1008400083160313AD0A831203172F0883160313AD
:100850002D02031D2D2C0130A700332C831203170A
:1008600083160313AD01831203172D08AE00073062
:10087000AF00831603132E0883127320F8000317AA
:100880002E02031D532C83160313AE0A8312031783
:100890002F08831603132E02031D502C0130A800CD
:1008A000562C8312031783160313AE01831203170A
:1008B0002D08AE000313CE237D2D03172D08AE00A7
:1008C0000930AF00831603132F0883127E20F8002F
:1008D00003172E02031D7C2C83160313AF0A831209
:1008E00003172F08831603132F02031D792C0130E1
:1008F000A9007F2C8312031783160313AF01831201
:1009000003172D08AE000430AF0083160313300820
:1009100083128B20F80003172E02031D9F2C8316D1
:100920000313B00A831203172F0883160313300230
:10093000031D9C2C0130AA00A22C831203178316DE
:100940000313B001831203172D08AE000313CE2347
:100950007D2D0317AF012D08AE000530B0007E0BD2
:10096000CF2C2E082C3C031DB82CAF080319C82C23
:100970004130831603132307840083138312031764
:100980002E08800083160313A30ACC2C83120317AE
:1009900083160313A301FE01F02C831203178316A1
:1009A0000313230883125120F80003172E02031D9E
:1009B000ED2CAF08031DED2C83160313A30A83123D
:1009C00003173008831603132302031DEA2C01309A
:1009D000FE00A301F02C8312031783160313A30157
:1009E00083120317AF012D08AE000430B0007D0B59
:1009F000192D2E082C3C031D002DAF080319102DB6
:100A000043308316031322078400831383120317D2
:100A10002E08800083160313A20A162D83120317D3
:100A200083160313A201FD010130A0003A2D8312A9
:100A3000031783160313220883125A20F8000317A2
:100A40002E02031D372DAF08031D372D8316031308
:100A5000A20A831203173008831603132202031D10
:100A6000342D0130FD00A2013A2D831203178316A5
:100A70000313A20183120317AF012D08AE008316E2
:100A80000313200B7B2D831203172E083A3C031D02
:100A90004C2DAF080319752D453083160313240719
:100AA00084008313831203172E088000FC01831631
:100AB00003132408FB00A408031D712D83120317E0
:100AC0002E082C3C0319672D83160313712DAF08D4
:100AD00003196D2D83160313712D83160313A401BF
:100AE000722DA40A7B2D8312031783160313A4010E
:100AF000A0010130A100A50183128C128A110A12F3
:100B00002D288C216F37E634E73AF2306E326F17BA
:100B10002E170001223084008317000803199D2D31
:100B20000630F800F701F70B932DF80B922D7B3070
:100B3000F700F70B992D800B902D080083160810F5
:100B400008118810831208118316081108168816D8
:100B500008178817831288148316881000008312E0
:100B60000814831608100000831203179C018316D3
:100B70000313081600308312081A013003179C046F
:100B800083160313881600308312881A0130F70089
:100B90000310F70D770803179C0483160313081737
:100BA00000308312081B0130F700F70DF70DFC3001
:100BB000F705770803179C04831603138817003082
:100BC0008312881B0130F700F70DF70DF70DF83091
:100BD000F705770803179C041C08F80078089B00A9
:100BE00003130810831608100000831208148316DC
:100BF0000810FA2DFB2D0000831203179C018316A9
:100C00000313081600308312081A013003179C04DE
:100C100083160313881600308312881A0130F700F8
:100C20000310F70D770803179C04831603130817A6
:100C300000308312081B0130F700F70DF70DFC3070
:100C4000F705770803179C048316031388170030F1
:100C50008312881B0130F700F70DF70DF70DF83000
:100C6000F705770803179C041C08F80078089A0019
:100C7000031308108316081008128812081388132B
:100C8000831203171B0EF700F030F70577081A04DC
:100C9000F80078089A009A1F502E83160313A62D89
:100CA0009808031D572E03130811592E0317031319
:100CB0000815831608110000831288108316881007
:100CC0000000831208108316081083120317190EF0
:100CD0009A000F309A051A089B001B18732E0313F5
:100CE0000812752E031703130816831608128312B1
:100CF00003179B187F2E03138812812E03170313EB
:100D0000881683168812831203171B198B2E031360
:100D100008138D2E03170313081783160813831265
:100D200003179B19972E03138813992E0317031388
:100D3000881783168813000083120814831608107E
:100D40000230F700F70BA22EA52E00008312081028
:100D5000831608108312031719080F399A001A080E
:100D60009B001B18B72E03130812B92E0317031389
:100D7000081683160812831203179B18C32E031339
:100D80008812C52E03170313881683168812831240
:100D900003171B19CF2E03130813D12E03170313A8
:100DA000081783160813831203179B19DB2E0313EE
:100DB0008813DD2E0317031388178316881300008A
:100DC00083120814831608100230F700F70BE62E82
:100DD000E92E000083120810831608108312080001
:100DE00028308316EC000C30ED000130EE000630A8
:100DF000EF0083120810831608108312081183165F
:100E0000081183128810831688100812881208139C
:100E100088130810081188100F3083120317A200DE
:100E200003138A2501308316EB006B08033C031C77
:100E3000632F0330831203179B001B18232F031308
:100E40000812252F0317031308168316081283129E
:100E500003179B182F2F03138812312F0317031327
:100E6000881683168812831203171B193B2F03134E
:100E700008133D2F03170313081783160813831253
:100E800003179B19472F03138813492F03170313C5
:100E9000881783168813000083120814831608101D
:100EA0000230F700F70B522F552F00008312081065
:100EB00083160810053083120317A20003138A2536
:100EC0008316EB0A152F0230831203179B001B18A1
:100ED0006D2F031308126F2F0317031308168316C1
:100EE0000812831203179B18792F031388127B2F84
:100EF00003170313881683168812831203171B190E
:100F0000852F03130813872F03170313081783165E
:100F10000813831203179B19912F03138813932F20
:100F2000031703138817831688130000831208140D
:100F3000831608100230F700F70B9C2F9F2F00003C
:100F40008312081083160810053083120317A200BD
:100F500003138A258316EB016B08033C031CC02F87
:100F6000EC306B0784008313000883120317900092
:100F700098011008990003139E258316EB0AAC2FE5
:100F800083128A110A16292F8316ED01A608031D64
:100F9000F02F280BD02FAE01A8010130ED00EF2F6C
:100FA000270BD72FAD01A7010230ED00EF2F290B42
:100FB000DE2FAF01A9010330ED00EF2F2A0BE72F41
:100FC000B001AA010130A6000430ED00EF2F2B0B79
:100FD000EF2FB101AB010130A6000530ED00C62FA7
:0C0FE000A601A5016D08F80083120800AE
:1010000003171308073A0313031910280B3A03199F
:101010002928063A03193928023A031953285C286B
:101020000130031794009500150B17281A2840303B
:1010300096001B2896010130140296071608803886
:1010400097009801170899008A1103139E258A15A5
:10105000652803179801013099008A1103139E2512
:101060008A1502300317A2008A1103138A258A15F4
:10107000652801300317940002309500150B4128B4
:101080004428403096004528960101301402960706
:101090001608803897009801170899008A110313E1
:1010A0009E258A15652803179801103099008A112A
:1010B00003139E258A15652801300317980013082D
:1010C00099008A1103139E258A1508000B0803173F
:1010D000900003138B13831603178C170C14000056
:1010E00000008312901F772803138B1703170C0837
:1010F0007F390319B42890000D0891000F08920061
:101100001008930003130020031711088D00120824
:101110008F0003130B080317930003138B1383161D
:1011200003178C170C14000000008312931F9B28D8
:1011300003138B1703170C0D0E0D7F390319B428F9
:1011400090000D0891000F089200100893000313FF
:101150000020031711088D0012088F008D0A031953
:101160008F0A031366280317031308000B080317DD
:10117000A20003138B13831603178C170C140000A3
:1011800000008312A21FC72803138B17031703182D
:10119000EF280C087F39A2000D08A3000F08A40057
:1011A000220803130C1ED2289900031723088D0070
:1011B00024088F0003130B080317A50003138B13D8
:1011C000831603178C170C14000000008312A51F50
:1011D000EC2803138B170317A10BEF280A290C0D1A
:1011E0000E0D7F39A2000D08A3000F08A4002208ED
:1011F00003130C1EF9289900031723088D002408F7
:101200008F008D0A03198F0A0310A10B08290A29E0
:101210000313B628031308000B080317A1000313D8
:101220008B13831603178C170C1400000000831215
:10123000A11F1D2903138B1703170C087F390319EE
:101240005C29A1000D08A2000F08A30021080313C8
:101250000C1E28299900031722088D0023088F00EF
:1012600003130B080317A40003138B138316031730
:101270008C170C14000000008312A41F42290313D2
:101280008B1703170C0D0E0D7F3903195C29A10074
:101290000D08A2000F08A300210803130C1E4E29FD
:1012A0009900031722088D0023088F008D0A031967
:1012B0008F0A03130C2903170313080003178D016A
:1012C00083168C130C1483120C0883160313B200BC
:1012D0000A3083120317A2008A1103138A258A1584
:1012E00083163208313A831203197C29033A031911
:1012F0007C29013A031D7D299E290B08F7008B13D9
:1013000003178D0133308C0083168C130C15553068
:101310008D00AA308D008C148C188C290C11770844
:10132000831203138B040A300317A2008A110313DC
:101330008A258A1533308316B2008312D230031700
:101340008D0000308F0003100A30A1000313B62077
:101350008316320883120C1EAB2999000D300C1E27
:10136000AF2999000A300C1EB32999000130831669
:10137000A500323083120317A2008A1103138A25B5
:101380008A15DA3003178D0000308F0003130C210B
:1013900002308316A5008A118312C4278A157808A3
:1013A0008316EB006B08023C031D692AEC01B33085
:1013B0006C078400831300080A3C03190A2AB3301F
:1013C0006C078400831301306C07EF006F088312F1
:1013D00003178D0083168C130C1483120C088000E5
:1013E0000A30A2008A1103138A258A15B3308316A6
:1013F0006C0784008313000F002A0530EB000A2AD3
:10140000B3306C078400831300080A3C03190A2ACE
:10141000EC0AD7296B08053C0319432AE0308312F4
:1014200003178D0000308F0003100930A100031353
:10143000B620B3308400831380080319392A0317B8
:10144000A2010408A1002210831B22140008031328
:101450000C1E282A990003172108840083132218E0
:101460008317840A031D372A0313850A03170313FE
:101470001C2A03308316A5008A118312C4278A15FB
:1014800078088316EB006B08043C03194B2A6B08A1
:10149000053C031D692AE630831203178D000030D6
:1014A0008F0003100A30A1000313B6200C1E562A29
:1014B00099000D300C1E5A2A99000A300C1E5E2A23
:1014C000990001308316A5008A118312C4278A155A
:1014D0008316EE30831203178D0000308F00031344
:1014E0000C2104308316ED00FA3083120317A2009A
:1014F0008A1103138A258A158316ED0B742AF53099
:10150000831203178D0000308F0003130C21043069
:101510008316ED00FA3083120317A2008A11031319
:101520008A258A158316ED0B8A2A0430A5008312BA
:101530008A110A163C2F0B080317910003138B1313
:10154000831603178C170C14000000008312911FE0
:10155000AC2A03138B1703178C080319C22A0D0832
:1015600091000F0892000C0893000313002003174A
:1015700011088D0012088F008D0A03198F0A0313BA
:101580009B2A031703130800031723080739F700E2
:10159000230CF800F80CF80C1F30F8057808250724
:1015A0008400831326188317F801F80AF70AD92A4A
:1015B000F80DF70BD82AA4080319E12A780880044B
:1015C000E42AF8097808800503130800031790013E
:1015D00091017B30920022309300633094006D3093
:1015E000950064309600223097003A3098002230FF
:1015F00099006F309A006B309B0022309C007D3048
:101600009D009E0183160313210B5A2D831243085C
:101610004F3C031D582B4408503C031D582B3030C1
:1016200046020317910003134508303A03191C2B97
:10163000013A0319382B542B03100317110D2B3EBD
:1016400084008313840A0008A20084030008A10018
:10165000A300A401A601A5010313C42203172108B6
:10166000A300A401A6018030A5000313C422542BBB
:1016700003100317110D2B3E84008313840A000806
:10168000A20084030008A100A3000130A400A60169
:10169000A5010313C42203172108A300A401A60176
:1016A0008030A5000313C4220130031790000313F8
:1016B00043084E3C031D4F2C4408433C031D4F2C54
:1016C00003179F01FC08031D692B1F087B02031CE5
:1016D000942B01301F07A10045301F07840083139E
:1016E0000008A20003130B08F7008B13031721084F
:1016F0008D0022088C0083168C130C1555308D003C
:10170000AA308D008C148C18832B0C11770883124F
:1017100003138B040A300317A2008A1103138A25CE
:101720008A1503179F0A622B01301F07A1000313BC
:101730000B08F7008B13031721088D000D308C0068
:1017400083168C130C1555308D00AA308D008C1427
:101750008C18A82B0C117708831203138B040A3002
:101760000317A2008A1103138A258A150230031772
:101770001F07A10003130B08F7008B1303172108A1
:101780008D000A308C0083168C130C1555308D009B
:10179000AA308D008C148C18CB2B0C117708831277
:1017A00003138B040A300317A2008A1103138A253E
:1017B0008A15933003178D0000308F0003100B3013
:1017C000A1000313B62041080C1EE42B99009930A8
:1017D00003178D0000308F0003140530A1000313A0
:1017E000B6203C300317A2008A1103138A258A15FC
:1017F00012308400831780080319182C0317A201E4
:101800000408A1002210831B2214000803130C1EDD
:10181000072C9900031721088400831322188317CB
:10182000840A031D162C0313850A03170313FB2BCD
:101830006E300317A2008A1103138A258A159D3082
:1018400003178D0000308F0003100C30A10003132C
:10185000B62041080C1E2A2C99000D300C1E2E2C8F
:1018600099000A300C1E322C9900A63003178D0007
:1018700000308F0003130C2104300317A100FA304D
:10188000A2008A1103138A258A150317A10B3F2C86
:101890008A01031300280130031790000313430843
:1018A0004E3C031DDF2C44084D3C031DDF2C0B0870
:1018B000F7008B1303178D010313450803178C00E2
:1018C00083168C130C1555308D00AA308D008C14A6
:1018D0008C18682C0C117708831203138B040A30C0
:1018E0000317A2008A1103138A258A1514300317DF
:1018F000A2008A1103138A258A15AC3003178D00C4
:1019000000308F0003100B30A1000313B6204108F4
:101910000C1E882C9900B23003178D0000308F0008
:1019200003140530A1000313B62032300317A200C0
:101930008A1103138A258A151230840083178008C0
:101940000319BC2C0317A2010408A1002210831B59
:101950002214000803130C1EAB2C99000317210856
:101960008400831322188317840A031DBA2C0313DF
:10197000850A031703139F2C64300317A2008A11F2
:1019800003138A258A15B63003178D0000308F00A7
:1019900003100C30A1000313B62041080C1ECE2CFE
:1019A00099000D300C1ED22C99000A300C1ED62C3A
:1019B00099008A01002801300317900003131430A6
:1019C0000317A2008A1103138A258A15BF30031753
:1019D0008D0000308F0003100B30A1000313B620E0
:1019E00041080C1EF12C9900C53003178D00003002
:1019F0008F0003140530A1000313B6203230031703
:101A0000A2008A1103138A258A15123084008317D5
:101A100080080319252D0317A2010408A100221034
:101A2000831B2214000803130C1E142D99000317A6
:101A300021088400831322188317840A031D232D91
:101A40000313850A03170313082D64300317A2003C
:101A50008A1103138A258A15C93003178D000030B7
:101A60008F0003100C30A1000313B62041080C1E98
:101A7000372D99000D300C1E3B2D99000A300C1E9D
:101A80003F2D99000317A001FC08031D4B2D2008D2
:101A90007B02031C522D45302007840083138001F4
:101AA000A00A442D0313C301C401C1018316A1017F
:101AB000FC01FB01831203171008F8000313080050
:101AC000031795019401970196019108031D6C2D50
:101AD0001008133C0318B12E11084E3C031CB12E04
:101AE000031D762D1008203C031CB12E9D010130F2
:101AF0009C0086309B00A0309A0083101D08A10036
:101B00001C08A0001B089F001A089E00A501A40144
:101B10001108A3001008A2008318912D263084001C
:101B20008317F701F801F901FA01A601A701A8013D
:101B3000A90125082404230422040319CF2D2030F1
:101B4000AA0003109E0D9F0DA00DA10DA60DA70DBF
:101B5000A80DA90D25082902031DB82D2408280267
:101B6000031DB82D23082702031DB82D22082602C5
:101B7000031CC92D2208A6022308031C230FA70259
:101B80002408031C240FA8022508031C250FA90202
:101B90000314F70DF80DF90DFA0DAA0BA12D260867
:101BA0008000840A27088000840A28088000840AAC
:101BB000290880007A089D0079089C0078089B001D
:101BC00077089A001D08A1001C08A0001B089F00B0
:101BD0001A089E00A501A401A3010530A20020302F
:101BE000AA00A601A701A801A9012108FA0020085E
:101BF000F9001F08F8001E08F7000310771C0E2ECE
:101C00002208A60723080318230FA7072408031890
:101C1000240FA80725080318250FA907A90CA80C4D
:101C2000A70CA60CFA0CF90CF80CF70CAA0BFD2D5E
:101C30007A089D0079089C0078089B0077089A0034
:101C40001B0899001A0898008316031306118312C3
:101C50000615031719089E009E0A9E030319412EBC
:101C6000FF309F0003309F02031C402E1F30840072
:101C7000831700080319402E3E2E3E2E800B3D2E6A
:101C80002D2E18089F0003309F02031C512E1F3079
:101C90008400831700080319512E4F2E4F2E800BFE
:101CA0004E2E1808960719080318190F9707831660
:101CB0000313061183120611031719089E009E0ACA
:101CC0009E030319742EFF309F0003309F02031CF4
:101CD000732E1F308400831700080319732E712E92
:101CE000712E800B702E602E18089F0003309F020B
:101CF000031C842E1F308400831700080319842ED0
:101D0000822E822E800B812E180896071908031840
:101D1000190F9707193096070318970A1708023CFE
:101D20000318A72EFF3A031D992E1608E73C031847
:101D3000A72EE83096020330031C04309702940A61
:101D40000319950A193096070318970A8E2E15085D
:101D50001302031CB12E031D242E12081402031CAF
:101D6000242E031308008316EB01EC016B0EF70021
:101D7000F030F7057708ED000C308312031793005D
:101D800003130020FF3003178D0000308F008316EF
:101D900003136D08831203178D0703188F0A0313AB
:101DA0009B2201300317940002309500150BD92EA9
:101DB000DC2E40309600DD2E96010130140296078D
:101DC0001608803897009801170899008A110313A4
:101DD0009E258A15573003178D0003308F0003139B
:101DE00066208316EC08031D7A2F8312E6228316E1
:101DF00006168312061A562F02308316ED00FA30AB
:101E000083120317A2008A1103138A258A158316E9
:101E1000ED0BFF2E0430831203179100B9309000B0
:101E2000930114309200031360258316EB0A6B08AC
:101E30006502031CEB016B0EF700F030F705770825
:101E4000ED000C3083120317930003130020FF30C2
:101E500003178D0000308F00831603136D08831263
:101E600003178D0703188F0A03139B2201300317F2
:101E7000940002309500150B3E2F412F4030960004
:101E8000422F9601013014029607160880389700F9
:101E90009801170899008A1103139E258A15573057
:101EA00003178D0003308F000313662083168616F8
:101EB0008312861A782F02308316ED00FA308312CF
:101EC0000317A2008A1103138A258A158316ED0BC6
:101ED0005E2F0430831203179100B93090009301F4
:101EE000143092000313602501308316EC00831236
:101EF000F12E831601306B07F80083128A110A163F
:101F0000492FF701F8010317100803101118F707FC
:101F1000F70CF80C9118F707F70CF80C1119F707E4
:101F2000F70CF80C9119F707F70CF80C111AF707D2
:101F3000F70CF80C911AF707F70CF80C111BF707C0
:101F4000F70CF80C911BF707F70CF80C03130800BB
:102000008316EB01EC016B088312031790000F306D
:1020100091000A128A15031381270A168A1178087B
:102020008316ED000C308312031793000A128A15F1
:10203000031300200A168A113F3003178D00013068
:102040008F00831603136D08831203178D0703187F
:102050008F0A0A128A1503139B220A168A1101306D
:102060000317940002309500150B37283A284030AA
:1020700096003B2896010130140296071608803816
:1020800097009801170899000A1203139E250A1653
:10209000573003178D0003308F000A128A1503137F
:1020A00066200A168A118316EC08031D28290A12D5
:1020B0008A158312E6220A168A11831606168312DF
:1020C000061AD52802308316ED00FA308312031762
:1020D000A2000A1203138A250A168316ED0B65283F
:1020E0000430831203179100B9309000930114302B
:1020F00092000A128A15031360250A168A118316A4
:10210000EB0A6B086602031CEB016B0883120317D2
:1021100090000F3091000A128A15031381270A16C6
:102120008A1178088316ED000C3083120317930090
:102130000A128A15031300200A168A113F3003176A
:102140008D0001308F00831603136D08831203176F
:102150008D0703188F0A0A128A1503139B220A1689
:102160008A1101300317940002309500150BB9282D
:10217000BC2840309600BD28960101301402960715
:102180001608803897009801170899000A1203135F
:102190009E250A16573003178D0003308F000A1250
:1021A0008A15031366200A168A118316861683126F
:1021B000861A262902308316ED00FA30831203179F
:1021C000A2000A1203138A250A168316ED0BDD28D6
:1021D0000430831203179100B9309000930114303A
:1021E00092000A128A15031360250A168A118316B3
:1021F00066086B02031DFF280130EC00272903103D
:102200006B0D2B3E84008313840A0008EE008403C8
:102210000008ED0083120317A3000130A400A601FB
:10222000A5010A128A150313C4220A168A118316FD
:102230006D0883120317A300A401A6018030A50036
:102240000A128A150313C4220A168A118316542807
:102250000030F80083128A110A16502F8316EB0102
:10226000EC016B0EF700F030F7057708ED000C304D
:102270008312031793000A128A15031300200A160B
:102280008A11D53003178D0001308F008316031398
:102290006D08831203178D0703188F0A0A128A1517
:1022A00003139B220A168A1101300317940002308F
:1022B0009500150B5C295F29403096006029960136
:1022C0000130140296071608803897009801170805
:1022D00099000A1203139E250A16573003178D0022
:1022E00003308F000A128A15031366200A168A111A
:1022F0008316EC08031D432A0A128A158312E6226C
:102300000A168A11831606168312061AF12902305C
:102310008316ED00FA3083120317A2000A1203138A
:102320008A250A168316ED0B8A29043083120317B7
:102330009100B93090009301143092000A128A156E
:10234000031360250A168A118316EB0A6B086702CD
:10235000031CEB016B0EF700F030F7057708ED007A
:102360000C308312031793000A128A1503130020FE
:102370000A168A11D53003178D0001308F0083169D
:1023800003136D08831203178D0703188F0A0A12AF
:102390008A1503139B220A168A1101300317940031
:1023A00002309500150BD529D82940309600D9293F
:1023B000960101301402960716088038970098019C
:1023C000170899000A1203139E250A16573003179F
:1023D0008D0003308F000A128A15031366200A1637
:1023E0008A11831686168312861A412A02308316B2
:1023F000ED00FA3083120317A2000A1203138A2594
:102400000A168316ED0BF929043083120317910085
:10241000B93090009301143092000A128A15031308
:1024200060250A168A11831667086B02031D1B2A92
:102430000130EC00422A03106B0D2B3E8400831305
:10244000840A0008EE0084030008ED0083120317DD
:10245000A300A401A601A5010A128A150313C42230
:102460000A168A1183166D0883120317A300A401AC
:10247000A6018030A5000A128A150313C4220A1689
:102480008A11831679290030F80083128A110A16FE
:10249000552F83166D08F83E0318D42C083E83127E
:1024A0001D2D603003178D0003308F000A128A152E
:1024B000031366200A168A118316D42C6930031779
:1024C0008D0003308F000A128A15031366200A1646
:1024D0008A118316D42C733003178D0003308F00BC
:1024E0000A128A15031366200A168A118316D42C41
:1024F0007C3003178D0003308F000A128A150313F6
:1025000066200A168A118316D42C853003178D0095
:1025100003308F000A128A15031366200A168A11E7
:102520008316D42C8316EE01EF016E088312031775
:1025300090000E3091000A128A15031381270A16A3
:102540008A117808031790000C3093000A128A153C
:10255000031300200A168A110E3003178D00033072
:102560008F0010088D0703188F0A0A128A150313AB
:102570009B220A168A11013003179400023095003D
:10258000150BC32AC62A40309600C72A960101308F
:1025900014029607160880389700980117089900CA
:1025A0000A1203139E250A16573003178D000330B5
:1025B0008F000A128A15031366200A168A118316E1
:1025C000EF08031DB02C0A128A158312E6220A16A0
:1025D0008A11831606168312061A572B0230031728
:1025E0009000FA30A2000A1203138A250A16031774
:1025F000900BF12A04309100B9309000930114300F
:1026000092000A128A15031360250A168A1183168E
:10261000EE0A6E086902031CEE016E0883120317AE
:1026200090000E3091000A128A15031381270A16B2
:102630008A117808031790000C3093000A128A154B
:10264000031300200A168A110E3003178D00033081
:102650008F0010088D0703188F0A0A128A150313BA
:102660009B220A168A11013003179400023095004C
:10267000150B3B2B3E2B403096003F2B9601013033
:1026800014029607160880389700980117089900D9
:102690000A1203139E250A16573003178D000330C4
:1026A0008F000A128A15031366200A168A118316F0
:1026B00086168312861AAE2C023003179000FA3069
:1026C000A2000A1203138A250A160317900B5F2B28
:1026D00004309100B93090009301143092000A1236
:1026E0008A15031360250A168A11831669086E027B
:1026F000031D7D2B0130EF00AF2C6E08003A8312D2
:102700000319892B013A0319BD2B033A0319F12B45
:10271000242C9C3003178D0003308F000A128A1579
:1027200003130C210A168A110B08F7008B130317E9
:102730008D0131308C0083168C130C1555308D00B3
:10274000AA308D008C148C18A32B0C1177088312DF
:1027500003138B040A300317A2000A1203138A25FD
:102760000A16A53003178D0003308F000A128A1550
:10277000031366200A168A11242CAD3003178D002E
:1027800003308F000A128A1503130C210A168A11CE
:102790000B08F7008B1303178D0132308C00831662
:1027A0008C130C1555308D00AA308D008C148C18AC
:1027B000D72B0C117708831203138B040A300317ED
:1027C000A2000A1203138A250A16B63003178D00D9
:1027D00003308F000A128A15031366200A168A1125
:1027E000242CBC3003178D0003308F000A128A1589
:1027F00003130C210A168A110B08F7008B13031719
:102800008D0133308C0083168C130C1555308D00E0
:10281000AA308D008C148C180B2C0C1177088312A5
:1028200003138B040A300317A2000A1203138A252C
:102830000A16C53003178D0003308F000A128A155F
:10284000031366200A168A110C3003179400023015
:102850009500150B2C2C2F2C40309600302C960117
:10286000013014029607160880389700980117085F
:1028700099000A1203139E250A16543003178D007F
:1028800003308F000A128A15031366200A168A1174
:102890000A128A15E6220A168A11831686168312F0
:1028A000861A602C023003179000FA30A2000A1238
:1028B00003138A250A160317900B552C622C031359
:1028C000482C0317831603136E0883120317900016
:1028D0000E3091000A128A15031381270A168A11F5
:1028E0007808031790000C3093000A128A1503131E
:1028F00000200A168A110E3003178D0003308F0056
:1029000010088D0703188F0A0A128A1503139B22D9
:102910000A168A1101300317940002309500150B36
:10292000922C952C40309600962C96010130140282
:1029300096071608803897009801170899000A1220
:1029400003139E250A16573003178D0003308F009E
:102950000A128A15031366200A168A118316E02AC2
:10296000D42C83168811083083128806881DC42C45
:102970008D3003178D0003308F000A128A15031360
:1029800066200A168A11CF2C943003178D0003306D
:102990008F000A128A15031366200A168A118316FD
:1029A000D42C8316D42C83166D08073C0319192DDB
:1029B0000C3083120317940002309500150BE12CA4
:1029C000E42C40309600E52C960101301402960765
:1029D0001608803897009801170899000A12031307
:1029E0009E250A16543003178D0003308F000A12FB
:1029F0008A15031366200A168A110A128A15E6221E
:102A00000A168A11831686168312861A152D02302D
:102A100003179000FA30A2000A1203138A250A163F
:102A20000317900B0A2D172D0313FD2C0317831684
:102A3000031383128A110A162A2E0A148A100A1501
:102A40008207512A5E2A6B2A782A852A922AB12C7B
:102A5000D12C0A128A15E6220A168A118316EB0176
:102A6000EC016B08831203179000113091000A12D9
:102A70008A15031381270A168A1178088316ED0038
:102A80000C308312031793000A128A1503130020D7
:102A90000A168A11753003178D0002308F008316D5
:102AA00003136D08831203178D0703188F0A0A1288
:102AB0008A1503139B220A168A110130031794000A
:102AC00002309500150B652D682D40309600692D5C
:102AD0009601013014029607160880389700980175
:102AE000170899000A1203139E250A165730031778
:102AF0008D0003308F000A128A15031366200A1610
:102B00008A118316EC08031D7D2E06168312061A01
:102B1000FC2D02308316ED00FA3083120317A20059
:102B20000A1203138A250A168316ED0B8C2D043026
:102B3000831203179100B930900093011430920072
:102B40000A128A15031360250A168A118316EB0AE6
:102B50006B086802031CEB016B08831203179000DB
:102B6000113091000A128A15031381270A168A115F
:102B700078088316ED000C308312031793000A12B5
:102B80008A15031300200A168A11753003178D0069
:102B900002308F00831603136D08831203178D070D
:102BA00003188F0A0A128A1503139B220A168A1128
:102BB00001300317940002309500150BE02DE32D32
:102BC00040309600E42D9601013014029607160855
:102BD000803897009801170899000A1203139E2560
:102BE0000A16573003178D0003308F000A128A151A
:102BF000031366200A168A11831686168312861A14
:102C00007B2E02308316ED00FA3083120317A200E8
:102C10000A1203138A250A168316ED0B042E0430BC
:102C2000831203179100B930900093011430920081
:102C30000A128A15031360250A168A11831668087A
:102C40006B02031D262E0130EC007C2E6B08ED007C
:102C50008312492A83166B088312031790001130E0
:102C600091000A128A15031381270A168A1178081F
:102C70008316ED000C308312031793000A128A1595
:102C8000031300200A168A11753003178D000230D5
:102C90008F00831603136D08831203178D07031823
:102CA0008F0A0A128A1503139B220A168A11013011
:102CB0000317940002309500150B5F2E622E4030F2
:102CC0009600632E9601013014029607160880388C
:102CD00097009801170899000A1203139E250A16F7
:102CE000573003178D0003308F000A128A15031323
:102CF00066200A168A118316822D0030F80083128E
:102D00008A110A165A2F03081F3983005730F7001B
:102D10002030840083138001840AF70B8B2EF80186
:102D2000F901FA01FB01FC01FD01FE015030F70041
:102D3000A030840083138001840AF70B9B2E60303F
:102D4000F7001030840083178001840AF70BA42E4B
:102D500083136030F7009030840083178001840A69
:102D6000F70BAE2E8313A0018316031787150830C7
:102D70000313990002309A00A63098009030831215
:102D800098008316061083120614FC01FB01FD0156
:102D9000FE018316A001A101A201A301A401A501C6
:102DA000A601A701A801A901AA01AB01AC01AD01CF
:102DB000AE01AF01B001B1010230E5000830E6001C
:102DC000E7000730E8000330E900EA0103170908CB
:102DD000C039890003131F129F12003003178800A7
:102DE000831287018801890183134A300313AB00E2
:102DF000AC014930AD00AE014830AF00B0012C301D
:102E0000B100B2012830B300B4012930B500B601D9
:102E10002A30B700B8012B30B900BA01BB01BC01A0
:102E200002308316EB00FA3083120317A2000A1255
:102E300003138A250A168316EB0B132F30309500E7
:102E40008113323086008C16C03083128B040A1234
:102E5000F02E0A16813003178D0005308F000A12FC
:102E60008A15031366200A168A11831688118312A5
:102E700088150A128A155E290A168A1183166A08AD
:102E8000FC3E03185F2F043E8312612F0A128A153D
:102E9000B32E0A168A1178088316EA005F2F0028DD
:102EA00078088316EA005F2F2E2978088316EA0037
:102EB0005F2F292D78088316EA005F2F83163F2F96
:102EC00063000A148A140A158207462F4F2F542FC5
:022ED000592F78
:04400E00E22FFF3E60
:00000001FF
;PIC16F887
;CRC=6147  CREATED="12-dic.-17 20:22"
