:040000004FEF11F0BD
:08000800046ED8CF05F0E0CF33
:1000100006F00001E9CF0CF0EACF07F0E1CF08F0DD
:10002000E2CF09F0D9CF0AF0DACF0BF0F3CF12F01C
:10003000F4CF13F0FACF14F000C00EF001C00FF0AF
:1000400002C010F003C011F09DAA2AEF00F09EBA82
:10005000D9EF05F00EC000F00FC001F010C002F0A3
:1000600011C003F00CC0E9FF07C0EAFF078E08C00B
:10007000E1FF09C0E2FF0AC0D9FF0BC0DAFF12C0DE
:10008000F3FF13C0F4FF14C0FAFF045006C0E0FFF2
:1000900005C0D8FF1000F76AA60FF66E000EF72213
:1000A0000900F55012002B4950442C00F76ABC0F90
:1000B000F66E000EF7220900F5501200434D443A47
:1000C000F76AD00FF66E000EF7220900F550120005
:1000D0004F4B0D0A0000F76AE60FF66E000EF7228E
:1000E0000900F55012004E6F20417000F76AFC0FB6
:1000F000F66E000EF7220900F55012002B43574A06
:1001000041503A00F76A140FF66E010EF72209000B
:10011000F5501200434F4E4E454354454400F76A94
:100120002E0FF66E010EF7220900F550120046411F
:10013000494C000041542B43495053454E443D2502
:10014000632C31320D0A000041542B434950434C7B
:100150004F53453D25630D0A000041542B43575131
:1001600041500A0D000041542B43495053454E4421
:100170003D25632C31320D0A000041542B43495078
:10018000434C4F53453D25630D0A000041542B431A
:10019000575341505F4445463D25732C312C340D57
:1001A0000A0041542B43495053454E443D25632C8E
:1001B00031320D0A000041542B434950434C4F53F8
:1001C000453D25630D0A000041542B4349505345DA
:1001D0004E443D25632C31320D0A000041542B431F
:1001E0004950434C4F53453D25630D0A000041548F
:1001F0002B43574D4F44453D25630D0A00004154A4
:100200002B43574A41503F0D0A0041542B43574A54
:1002100041503D25730041542B43574D4F44453DBC
:1002200025630D0A000041542B4349504D55583D5C
:10023000310D0A0041542B43495053455256455203
:100240003D312C38300D0A00456E63656E64657271
:10025000204D616E75616C004170616761646F2053
:100260004D616E75616C2000436F6E6669677572D3
:100270006163696F6E202000000000000000000034
:1002800000000000000000004F6E202D3E20536152
:100290006C6964612031004F6E202D3E2053616CEB
:1002A0006964612032004F6E202D3E2053616C69DD
:1002B00064612033004F6E202D3E2053616C6964D1
:1002C000612034004F6E202D3E2053616C696461C3
:1002D0002035004F6E202D3E2053616C69646120F3
:1002E00036004F6E202D3E2053616C6964612037CB
:1002F000004F6E202D3E2053616C696461203800F0
:1003000053414C4952202020202020202020000052
:1003100000000000000000000000000000004F6628
:1003200066202D3E2053616C6964612031004F6668
:1003300066202D3E2053616C6964612032004F6657
:1003400066202D3E2053616C6964612033004F6646
:1003500066202D3E2053616C6964612034004F6635
:1003600066202D3E2053616C6964612035004F6624
:1003700066202D3E2053616C6964612036004F6613
:1003800066202D3E2053616C6964612037004F6602
:1003900066202D3E2053616C696461203800534112
:1003A0004C49522020202020202020202000000026
:1003B00000000000000000000000000000004553A5
:1003C000544143494F4E20495020202020200045D1
:1003D00053544143494F4E20535349442020200059
:1003E0004150205353494420202020202020202009
:1003F000004150204B455920202020202020202043
:100400002000415020495020202020202020202062
:10041000202000436F6E66204163636573736F2015
:10042000526564004F6E2F4F6666204261636B6CAD
:10043000696768740053414C4952202020202020D5
:10044000202020202000000000000000000000000C
:100450000000000000000000457374616369F36EE2
:1004600020202020200041636365737320506F6952
:100470006E7420004573746163696F6E202B204198
:10048000500053414C4952202020202020202000A1
:1004900000000000000000000000000000005341C8
:1004A0004C4952005B5349475D2020202020205BAF
:1004B000454E545D000041542B43494653520D0AAA
:1004C00000000C43617267616E646F2E2E2E000077
:1004D00041542B43494653520D0A00000C436172AC
:1004E00067616E646F2E2E2E000041542B43574AD5
:1004F00041503F0D0A000C43617267616E646F2EBC
:100500002E2E00000C446573686162696C69746129
:10051000646F000041542B43575341503F0D0A0074
:100520000C43617267616E646F2E2E2E00000C44C6
:100530006573686162696C697461646F000041543D
:100540002B43575341503F0D0A000C4361726761C2
:100550006E646F2E2E2E00000C4465736861626914
:100560006C697461646F00000C4261636B6C696755
:100570006874204F6E000C4261636B6C696768742D
:10058000204F6666000041542B43574D4F44455F52
:100590004445463D310D0A000C436F6E6669672085
:1005A000436C69656E74650041542B43574D4F444D
:1005B000455F4445463D320D0A000C436F6E666947
:1005C00067204150000041542B43574D4F44455F35
:1005D0004445463D330D0A000C436F6E6669672043
:1005E000436C69656E74654150000101396B3A6B6B
:1005F0002E51FB0FD8B072D0050F0001EEEF03F0C3
:10060000010EEA6E2F0EE96EF2CF3BF1F29E000E64
:1006100057DD0A000900F550EE6E0009FBE101010B
:100620003BBFF28E040E396F010E3A6F57D0010EA8
:10063000EA6E2F0EE96EF2CF3BF1F29E000E4BDD1B
:100640000A000900F550EE6E0009FBE101013BBF15
:10065000F28E050E396F42D0010EEA6E2F0EE96E52
:10066000F2CF3BF1F29E000E41DD0A000900F55089
:10067000EE6E0009FBE101013BBFF28E070E396F00
:100680002DD0010EEA6E2F0EE96EF2CF3BF1F29EF5
:10069000000E38DD0A000900F550EE6E0009FBE19E
:1006A00001013BBFF28E090E396F18D0010EEA6EC0
:1006B0002F0EE96EF2CF3BF1F29E000E30DD0A0004
:1006C0000900F550EE6E0009FBE101013BBFF28E1F
:1006D000040E396F010E3A6F01D001016C50060D06
:1006E000F3503C6B3B6F036A2E513B25016E3C512E
:1006F000032201506F0FE96E000E0320EA6E036AB9
:10070000EF502F0FE96E010E0320EA6EEF502D5DC2
:100710003DE16C50060DF3503C6B3B6F036A2E516C
:100720003B25016E3C51032201506F0FE96E000E14
:100730000320EA6EEF2A6C50060DF3503C6B3B6FC2
:10074000036A2E513B25016E3C51032201506F0F6D
:10075000E96E000E0320EA6E3951EF5C14E16D5032
:10076000060DF3503C6B3B6F036A2E513B25016E27
:100770003C51032201506F0FE96E000E0320EA6E18
:10078000010EEF6E02D02E5300E126D06C50060D04
:10079000F3503C6B3B6F036A2E513B25016E3C517D
:1007A000032201506F0FE96E000E0320EA6EEF6A1C
:1007B0003A2D12D06D50060DF3503C6B3B6F036A1F
:1007C0002E513B25016E3C51032201506F0FE96E03
:1007D000000E0320EA6EEF6A00011200E824F76AB7
:1007E000F736F70FF66E070EF7220A00F550FA6E8D
:1007F0000800F550F96E000658062E068206AC0673
:10080000CB2D2BD001012D5122080EE10001D15139
:10081000310803E0D151320804E1060ECB6FCC6BF6
:1008200001D0CC6B19D001010001D15131080AE18E
:10083000036ACC518B0FE96E000E0320EA6E2DC1C6
:10084000EFFF09D0036ACC517B0FE96E000E032045
:10085000EA6E2DC1EFFFCC2B18D0CB51050815E166
:1008600001012D51220806E1060E0001CB6FCC6B71
:100870000CD00101036A0001CC518B0FE96E000E10
:100880000320EA6E2DC1EFFFCC2B01012D51220870
:100890000AE10001CB51FB0F05E2050F56EF04F012
:1008A000CB2BCC6B01010001A9EF05F0E824F76A1E
:1008B000F736C70FF66E080EF7220A00F550FA6EEB
:1008C0000800F550F96EA008A008A008A008A0082C
:1008D000CD2D12D001012D5122080CE0036A000138
:1008E000CE519B0FE96E000E0320EA6E2DC1EFFF83
:1008F000CE2B010118D00001CD51030813E10101F5
:100900002D5122080DE0036A0001CE51AB0FE96EB4
:10091000000E0320EA6E2DC1EFFFCE2B03D00101A4
:100920000001CE6B01012D5122080AE10001CD51D9
:10093000FC0F05E2040FA3EF04F0CD2BCE6B0101F9
:100940000001B3EF05F0E824F76AF736610FF66EA1
:10095000090EF7220A00F550FA6E0800F550F96EFC
:100960003A093A093A093A09CF2D0FD001012D5120
:1009700022080CE0036A0001D051BB0FE96E000EA3
:100980000320EA6E2DC1EFFFD02B01012D5122086B
:1009900009E10001CF5103E0010A01E002D0CF2BB1
:1009A000D06B01010001BDEF05F0050E01012F6FB5
:1009B000652C13D02D512C0802E12E530BE0036A55
:1009C00069502C0FE96E000E0320EA6E2DC1EFFF77
:1009D000692A02D0696A656A19D0036A6950F2CF40
:1009E00030F1F29E00014BEC00F0010130BFF28EBD
:1009F000016E2D5D0AE12E5308E1692A2F51695CD1
:100A000003E1010E656E696A01D0696A0001CAEFEF
:100A100005F0040E01012F6F642C15D02D512C0808
:100A200002E12E530BE0036A68502E0FE96E000EB0
:100A30000320EA6E2DC1EFFF682A04D0686A646A59
:100A4000010E666E19D0036A6850F2CF30F1F29E43
:100A5000000156EC00F0010130BFF28E016E2D5DF9
:100A60000AE12E5308E1682A2F51685C03E1010E68
:100A7000646E686A01D0686A0001D0EF05F0662CE8
:100A800021D001012D513A0802E12E5317E0036AEB
:100A90006A50300FE96E000E0320EA6E2DC1EFFFA1
:100AA000636A6AC062F06A5207E12D512C0804E1C2
:100AB0002E5302E16A6A01D06A2A04D06A6A666A21
:100AC000010E676E0001D6EF05F06B50010A0DE0D4
:100AD000030A12E0010A25E0060A38E0030A40E0B2
:100AE000010A48E0030A50E04FD02CC12DF101016A
:100AF0002E6B00017ADD5BD02CC12DF1020E0101BD
:100B00002E6F000172DD2CC12DF1010E01012E6F3F
:100B100000016BDD2CC12DF101012E6B000165DDA3
:100B200046D02CC12DF1030E01012E6F00015DDDB9
:100B30002CC12DF1040E01012E6F000156DD2CC1D8
:100B40002DF101012E6B000150DD31D02CC12DF1B2
:100B500057D62CC12DF101012E6B000146DD27D0A7
:100B60002CC12DF1B5D62CC12DF101012E6B000148
:100B70003CDD1DD02CC12DF1F7D62CC12DF101018A
:100B80002E6B000132DD13D001012E6B2CC12DF133
:100B900000010BD701012E6B2CC12DF1000139D7BB
:100BA00001012E6B2CC12DF1000169D76B6AE2EFB8
:100BB00005F09EAAFED7AECF2BF101012BC12CF17F
:100BC000000183D79E9A2AEF00F00C436F6E66698E
:100BD000677572616E646F2E2E2E0000010EEA6E34
:100BE000210EE96EEF500DE0060E016E006A002E38
:100BF000FED7012EFBD77B0E006E002EFED7EF2E08
:100C0000F3D7120001011AB102D08C9801D08C8860
:100C100095981AB302D08C9A01D08C8A959A1AB5FD
:100C200002D08C9C01D08C8C959C1AB702D08C9EE3
:100C300001D08C8E959E00008C809590020E006EE7
:100C4000002EFED700D000008C909590000112007D
:100C500001011B6B9588000E83B8010E1B13958A4A
:100C6000000E83BA010E006ED890003600501B13A0
:100C7000958C000E83BC010E006E00360036FC0E13
:100C8000001600501B13958E000E83BE010E006EE1
:100C9000003600360036F80E001600501B131BC13C
:100CA00001F0000112009588958A958C958E8C82B2
:100CB000959200008C8095900000CADF01C01AF167
:100CC0008C90959000008C80959000D000D0000012
:100CD000BFDF01C019F18C9095909598959A959CDD
:100CE000959E01011A39006EF00E00160050191180
:100CF000016E000182EF06F09590959495928C9488
:100D00009594D1D701C019F1010101AE02D00001C3
:100D1000F8D7175302E18C9401D08C84959400008D
:100D20008C92959200008C9095901839196F0F0E47
:100D3000191719C11AF1000165DF010118510F0BD4
:100D4000196F1A6F00015EDF1200280E01010B6F90
:100D50000C0E0C6F010E0D6F060E0E6F8C909590A1
:100D60008C9495948C9295929598959A959C959E35
:100D70009590959495920F0E216F00012FDF010E33
:100D800001010A6F0A5103080CE3030E1A6F0001F8
:100D900039DF050E0101216F000120DF01010A2B5F
:100DA000F1D7020E1A6F00012DDF050E0101216F30
:100DB000000114DF01010A6B0A51030811E3036A01
:100DC0000A510B0FE96E010E0320EA6EEFCF0FF10F
:100DD000176B0FC118F100018FDF01010A2BECD74F
:100DE0000001D7EF11F00101142D01D003D0400E06
:100DF000156F01D0156B010E135D15271551800974
:100E0000166F176B186F000177DF12000101125186
:100E1000070A000107E00B0A0CE0060A16E0020AC6
:100E20001CE022D0010E0101136F146F0001DBDF03
:100E300022D00101176B010E186F00015DDF020E59
:100E40000101216F0001CADE16D0010E0101136FEE
:100E5000020E146F0001C7DF0ED00101176B100ED8
:100E6000186F000149DF07D0010E0101176F12C191
:100E700018F1000141DF12000900F5520CE0F6CF35
:100E800010F1F7CF11F1F5CF12F1C0DF10C1F6FF6D
:100E900011C1F7FFF1D712000900F6CF21F1F7CF0A
:100EA00022F1F5509EA8FED7AD6E21C1F6FF22C1FA
:100EB000F7FF0101202F01D002D00001EDD7000182
:100EC00012000900F5520DE0F6CF20F1F7CF21F125
:100ED000F5509EA8FED7AD6E20C1F6FF21C1F7FFE9
:100EE000F0D7120001010D6B0E6B6D50060DF35023
:100EF000106B0F6F6F0E0F25E96E000E1021EA6E5A
:100F0000EF5252E10E2B6D50060DF350106B0F6F28
:100F1000036A0E510F25016E1051032201506F0F0D
:100F2000E96E000E0320EA6EEF2C39D06C50060DEE
:100F3000F350106B0F6F036A0E510F25016E1051A5
:100F4000032201506F0FE96E000E0320EA6EEF6A74
:100F50006D50060DF350106B0F6F036A0E510F2585
:100F6000016E1051032201506F0FE96E000E032035
:100F7000EA6EEF6A0E51040803E00E5105080DE118
:100F80006D50060DF350106B0F6F6F0E0F25E96E4D
:100F9000000E1021EA6E010EEF6E0EC10DF16E50C3
:100FA0000E5D01E30E6BA1D76D50060DF350106B73
:100FB0000F6F6F0E0F25E96E000E1021EA6EEF6ABB
:100FC0006B6A0A0E216F000109DE01010DC101F0FB
:100FD00000011200EF5210E0EACF21F1E9CF20F139
:100FE000EF509EA8FED7AD6E21C1EAFF20C1E9FFF8
:100FF000E92AD8B4EA2AEED71200F2CF0CF1F29E19
:10100000AA6AA96AA69CA69EA680A85001010CBF48
:10101000F28E0001D16F0A0E0101216F0001DEDDA9
:10102000D151310A05E0030A03E0010A01E001D0D1
:101030001CD0F250006EF29EAA6AA96A330EA86E06
:10104000A69CA69EA6840F01550EA76EAA0EA76E9B
:10105000A682A6B2FED7A6940050F2120A0E010193
:10106000216F0001BBDD330ED16FEE0EF66E010E67
:10107000F76E0A0E0101206F00010EDFD1519EA80C
:10108000FED7AD6E0D0E9EA8FED7AD6E0A0E9EA8C1
:10109000FED7AD6E010E6B6E320E0101216F0001A5
:1010A0009DDDFE0EF66E010EF76E0BDF020E6B6E0F
:1010B00019DF01C00AF101010A510208D8A475D054
:1010C0000B6B036A0B51D20FE96E000E0320EA6E20
:1010D000EF500A0835E0036A0B51D20FE96E000E9B
:1010E0000320EA6E010E0B250E6FF2CF0FF1F29E78
:1010F000AA6A0EC1A9FFA69CA69EA680A8500FBFF3
:10110000F28EEF6E0A0E216F000168DD036A0101A5
:101110000B51D20FE96E000E0320EA6EEF3C03D0B4
:10112000050E0A6F0DD0036A0B51D20FE96E000E47
:101130000320EA6EEF500A0801E102D00B2BC1D761
:101140000A51050812E00A0EF66E020EF76E090E3D
:10115000206F0001A1DEEA6AD20EE96E3BDF030ECA
:101160006B6EC0DE01C00AF101010A51040803E000
:101170000A5105081AE1160EF66E020EF76E0A0EF7
:10118000206F000189DE0401B5519EA8FED7AD6E27
:101190000D0E9EA8FED7AD6E0A0E9EA8FED7AD6EB0
:1011A000010E6B6E00019EDE0101260EF66E020E30
:1011B000F76E000186DE040E01010C6FFA0E216F3E
:1011C00000010CDD01010C2FF9D7340EF66E020E72
:1011D000F76E000176DE040E01010C6FFA0E216F2E
:1011E0000001FCDC01010C2FF9D7040E6B6E00012D
:1011F000E1EF11F0010E0101136F020E146F0001F7
:10120000F2DDA40EF66E040EF76E36DE120001015A
:101210002251070B006E2231016E013201321F0E86
:10122000011601502425E96E000E2521EA6E016A9F
:10123000012A002A01D00136002EFDD7235303E0F6
:101240000150EF1203D0011E0150EF1600011200F1
:1012500001010F6B106B7B0E116F220E126F630E6C
:10126000136F6D0E146F640E156F220E166F3A0E0B
:10127000176F220E186F6F0E196F6B0E1A6F220EFA
:101280001B6F7D0E1C6F1D6B672C4DD22E504F08AF
:1012900054E12F50500851E1300E315C106F305046
:1012A000300A000103E0010A23E044D0D890010194
:1012B0001035036A160FE96E000E0320EA6EECCFBC
:1012C00021F1ED52EFCF20F120C122F1236B0F0E5F
:1012D000256F890E246F00019ADF20C122F10101E0
:1012E000236B0F0E256F920E246F000190DF22D02A
:1012F000D89001011035036A160FE96E000E032025
:10130000EA6EECCF21F1ED52EFCF20F120C122F1B6
:10131000010E236F0F0E256F890E246F000177DFFA
:1013200020C122F10101236B0F0E256F920E246F55
:1013300000016DDF010E01010F6F2E504E08D8A481
:10134000C2D02F504308D8A4BED01E6B635203E115
:101350001E51625C2AE3010E1E25206F036A1E5196
:10136000300FE96E000E0320EA6EEFCF21F1F2504C
:10137000006EF29EAA6A20C1A9FF21C1A8FFA69C07
:10138000A69EA6840F01550EA76EAA0EA76EA68272
:10139000A6B2FED7A6940050F2120A0E0101216FE8
:1013A00000011CDC01011E2BD1D7010E1E25206F70
:1013B000F250006EF29EAA6A20C1A9FF0D0EA86E1F
:1013C000A69CA69EA6840F01550EA76EAA0EA76E18
:1013D000A682A6B2FED7A6940050F2120A0E010110
:1013E000216F0001EEEC05F0020E01011E25206FB9
:1013F000F250006EF29EAA6A20C1A9FF0A0EA86EE2
:10140000A69CA69EA6840F01550EA76EAA0EA76ED7
:10141000A682A6B2FED7A6940050F2120A0E0101CF
:10142000216F0001EEEC05F0340EF66E010EF76E42
:101430000B0E0101206F00012FDD2C509EA8FED75E
:10144000AD6E410EF66E010EF76E050E0101206FB6
:10145000000122DD3C0E0101216F0001EEEC05F0E0
:10146000010EEA6E110EE96EB5DD6E0E0101216FFF
:101470000001EEEC05F0480EF66E010EF76E0C0E54
:101480000101206F000108DD2C509EA8FED7AD6E33
:101490000D0E9EA8FED7AD6E0A0E9EA8FED7AD6EAD
:1014A0005A0EF66E010EF76E0CDD040E0101206F70
:1014B000FA0E216F0001EEEC05F00101202FF8D7A4
:1014C000FF00010E0F6F2E5041086CE12F505008A5
:1014D00069E1660EF66E010EF76E0B0E206F0001CD
:1014E000DBDC2C509EA8FED7AD6E730EF66E010E9F
:1014F000F76E050E0101206F0001CEDC3C0E0101EC
:10150000216F0001EEEC05F0010EEA6E110EE96E9E
:1015100061DD6E0E0101216F0001EEEC05F07A0E27
:10152000F66E010EF76E0C0E0101206F0001B4DCA7
:101530002C509EA8FED7AD6E0D0E9EA8FED7AD6EA8
:101540000A0E9EA8FED7AD6E060E0101206FFA0EA0
:10155000216F0001EEEC05F00101202FF8D78C0E71
:10156000F66E010EF76E0D0E206F000195DCEA6A33
:10157000300EE96E2FDD9B0EF66E010EF76E060E35
:101580000101206F000188DC040E0101206FFA0EBA
:10159000216F0001EEEC05F00101202FF8D7FF00CC
:1015A000010E0F6F2E504E0864E12F504D0861E17F
:1015B000F250006EF29EAA6AA96A30C0A8FFA69CEB
:1015C000A69EA6840F01550EA76EAA0EA76EA68230
:1015D000A6B2FED7A6940050F2120A0E0101216FA6
:1015E0000001EEEC05F0140E0101216F0001EEEC9C
:1015F00005F0A20EF66E010EF76E0B0E0101206FC4
:1016000000014ADC2C509EA8FED7AD6EAF0EF66EE0
:10161000010EF76E050E0101206F00013DDC320E58
:101620000101216F0001EEEC05F0010EEA6E110ED2
:10163000E96ED0DC640E0101216F0001EEEC05F0D3
:10164000B60EF66E010EF76E0C0E0101206F000152
:1016500023DC2C509EA8FED7AD6E0D0E9EA8FED7A3
:10166000AD6E0A0E9EA8FED7AD6EFF00010E010101
:101670000F6F140E216F0001EEEC05F0C80EF66E30
:10168000010EF76E0B0E0101206F000105DC2C50DE
:101690009EA8FED7AD6ED50EF66E010EF76E050E46
:1016A0000101206F00014CEC07F0320E0101216FA7
:1016B0000001EEEC05F0010EEA6E110EE96E8ADC17
:1016C000640E0101216F0001EEEC05F0DC0EF66EF8
:1016D000010EF76E0C0E0101206F00014CEC07F0BB
:1016E0002C509EA8FED7AD6E0D0E9EA8FED7AD6EF7
:1016F0000A0E9EA8FED7AD6E01011F6B635203E177
:101700001F51625C0AE3036A1F51300FE96E000E3D
:101710000320EA6EEF6A1F2BF1D72E6A2F6A2C6A1C
:10172000676A636A626A0FC101F000011200D8B2F1
:1017300004D0010EEA6E250EE96E006A016A026AA3
:10174000036A0101256B266B276B286B245123113B
:10175000221121112CE0200E296FD8901D371E3741
:101760001F37203725372637273728372451285D5C
:1017700008E12351275D05E12251265D02E1215157
:10178000255D0FE32151255F2251D8A0223D265F20
:101790002351D8A0233D275F2451D8A0243D285FA2
:1017A000D8800036013602360336292FD6D725C118
:1017B000EFFF26C1ECFF27C1ECFF28C1ECFF0001C1
:1017C0004CEF0CF00101256B266B010E276FDA6AD6
:1017D000D96A2A6F1D0E296F010EEA6E210EE96E7D
:1017E0002AC1E2FF29C1E1FF27C128F1D890E550C5
:1017F000EE02F3502523F4502623282FF7D725C1D6
:10180000DEFF26C125F1266BD8B0262B292BD8B4B4
:101810002A2B272B27510508DFE1000164EF0CF08C
:10182000030E01011E5F0AE3010EEA6E1E0EE96E51
:10183000EF5004E001D000D0EF2EFDD700011200E0
:101840000101146B136B166B156B105304E10F51F0
:101850001308D8B097D010514E08D8A093D004E107
:101860000F512008D8A08ED01C6B010E1B6F860E66
:101870001A6FA00E196FD8921CC120F11BC11FF165
:101880001AC11EF119C11DF1246B236B10C122F185
:101890000FC121F100014BD703C01CF102C01BF1A5
:1018A00001C01AF100C019F11CC120F11BC11FF1C8
:1018B0001AC11EF119C11DF10101246B236B226BAA
:1018C000050E216F00017ED703C01CF102C01BF181
:1018D00001C01AF100C019F11AC118F119C117F1AC
:1018E00093948A8418C11DF101011D2B1D07D8B4E2
:1018F00005D01E69000194DF0101F8D717C11EF160
:1019000000018EDF010117511527185116239394FA
:101910008A9418C11DF11D2B1D07D8B405D01E696E
:1019200000017EDF0101F8D717C11EF1000178DF49
:1019300001011751152718511623190E1527000EEE
:1019400016231651020811E2FF0A03E11551E708B8
:101950000CE2E80E155F030E165B132BD8B4142BA4
:10196000190E1527000E1623ECD71451125D0AE349
:10197000D8B402D00001B4D71151135DD8B002D051
:101980000001AED70001120001010A6B0B6B0A5176
:10199000100DF350036A0C6F0C0E126F000106EC71
:1019A00007F0480EF66E020EF76E01010C51F62696
:1019B000000EF72200013CEC07F01CDC01010B5388
:1019C00054E1000145DC938881B832D0020E010158
:1019D0000C6FFA0E216F0001EEEC05F001010C2FE7
:1019E000F8D7040E106FB90E0F6F126B140E116F33
:1019F000000126DF01010A2B0A51045D01E20A6B96
:101A00000A51100DF350036A0C6F0C0E126F000197
:101A100006EC07F0480EF66E020EF76E01010C514F
:101A2000F626000EF72200013CEC07F0FAEC08F075
:101A3000938A81BA18D0020E01010C6FFA0E216F41
:101A40000001EEEC05F001010C2FF8D7040E106F29
:101A5000B90E0F6F126B140E116F0001F1DE010E43
:101A600001010B6F0001AAD70101010E0A25016EC9
:101A70000001EBEF11F001010A6B0B6B0A510F0D26
:101A8000F350036A0C6F0C0E126F000106EC07F0A6
:101A9000880EF66E020EF76E01010C51F626000E4E
:101AA000F72200013CEC07F0FAEC08F001010B53BF
:101AB000D8A47BD0000128EC09F0938881B832D0FB
:101AC000020E01010C6FFA0E216F0001EEEC05F021
:101AD00001010C2FF8D7040E106FB90E0F6F126BA7
:101AE000140E116F0001ACDE01010A2B0A51055DD5
:101AF00001E20A6B0A510F0DF350036A0C6F0C0ED2
:101B0000126F000106EC07F0880EF66E020EF76EFB
:101B100001010C51F626000EF72200013CEC07F003
:101B2000FAEC08F0938A81BA3ED0020E01010C6FE4
:101B3000FA0E216F0001EEEC05F001010C2FF8D731
:101B4000040E106FB90E0F6F126B140E116F00019F
:101B500077DE010105510A5D03E1010E0B6F24D010
:101B6000D8900A35036A160FE96E000E0320EA6E5C
:101B7000ECCF0DF1ED52EFCF0CF10CC122F1010EC3
:101B8000236F0F0E256F890E246F000107EC09F0FB
:101B90000CC122F10101236B0F0E256F920E246FF1
:101BA000000107EC09F0010182D7000E016E00016F
:101BB000F1EF11F001010A6B0B6B0A51100DF3509C
:101BC000036A0C6F0C0E126F000106EC07F01E0E7C
:101BD000F66E030EF76E01010C51F626000EF72289
:101BE00000013CEC07F0FAEC08F001010B53D8A41B
:101BF0007AD0000128EC09F0938881B832D0020E27
:101C000001010C6FFA0E216F0001EEEC05F00101ED
:101C10000C2FF8D7040E106FB90E0F6F126B140E45
:101C2000116F00010DDE01010A2B0A51065D01E270
:101C30000A6B0A51100DF350036A0C6F0C0E126FF1
:101C4000000106EC07F01E0EF66E030EF76E0101A2
:101C50000C51F626000EF72200013CEC07F0FAECDE
:101C600008F0938A81BA3DD0020E01010C6FFA0E82
:101C7000216F0001EEEC05F001010C2FF8D7040EE6
:101C8000106FB90E0F6F126B140E116F0001D8DDBB
:101C9000010106510A5D03E1010E0B6F23D0D890BC
:101CA0000A35036A160FE96E000E0320EA6EECCFC8
:101CB0000DF1ED52EFCF0CF10CC122F1236B0F0EA1
:101CC000256F890E246F000107EC09F00CC122F189
:101CD0000101236B0F0E256F920E246F000107EC9C
:101CE00009F0010183D7000E016E0001F7EF11F03A
:101CF000EF5210E0EACF0EF1E9CF0DF1EFCF12F184
:101D000006EC07F00EC1EAFF0DC1E9FFE92AD8B4DD
:101D1000EA2AEED712000C0E0101136F020E146FA7
:101D20000001F3EC06F09E0EF66E040EF76E3CEC2E
:101D300007F028EC09F0938A81BA0DD0020E010158
:101D40000F6FFA0E216F0001EEEC05F001010F2F6D
:101D5000F8D703D00001EDD7010100011200010105
:101D60000D6B0E6B0D510E0DF350036A0F6F0C0EC1
:101D7000126F000106EC07F0580EF66E040EF76EB7
:101D800001010F51F626000EF72200013CEC07F08E
:101D9000FAEC08F001010E53D8A4F2D0000128ECAF
:101DA00009F0938881B832D0020E01010F6FFA0E4C
:101DB000216F0001EEEC05F001010F2FF8D7040EA2
:101DC000106FB90E0F6F126B140E116F000138DD1A
:101DD00001010D2B0D51085D01E20D6B0D510E0D32
:101DE000F350036A0F6F0C0E126F000106EC07F040
:101DF000580EF66E040EF76E01010F51F626000E16
:101E0000F72200013CEC07F0FAEC08F0938A81BA63
:101E1000B5D0020E01010F6FFA0E216F0001EEEC3A
:101E200005F001010F2FF8D7040E106FB90E0F6FD8
:101E3000126B140E116F000103DD010108510D5DDD
:101E400003E1010E0E6F9BD00D51000A000105E069
:101E5000010A2BE0030A51E077D0860EF66E050EDC
:101E6000F76E61EC07F0F250006EF29EAA6AA96A62
:101E7000310EA86EA69CA69EA6840F01550EA76ED5
:101E8000AA0EA76EA682A6B2FED7A6940050F212A2
:101E90000A0E0101216F0001EEEC05F0980EF66EBE
:101EA000050EF76E3CEC07F04FD0A80EF66E050E4F
:101EB000F76E61EC07F0F250006EF29EAA6AA96A12
:101EC000320EA86EA69CA69EA6840F01550EA76E84
:101ED000AA0EA76EA682A6B2FED7A6940050F21252
:101EE0000A0E0101216F0001EEEC05F0BA0EF66E4C
:101EF000050EF76E3CEC07F027D0C60EF66E050E09
:101F0000F76E61EC07F0F250006EF29EAA6AA96AC1
:101F1000330EA86EA69CA69EA6840F01550EA76E32
:101F2000AA0EA76EA682A6B2FED7A6940050F21201
:101F30000A0E0101216F0001EEEC05F0D80EF66EDD
:101F4000050EF76E3CEC07F0E6DE01010D510E0DBB
:101F5000F350036A0F6F0C0E126F000106EC07F0CE
:101F6000580EF66E040EF76E01010F51F626000EA4
:101F7000F72200013CEC07F0FAEC08F001010BD766
:101F800000017CEF10F001010C51F80FD8B0CCD05B
:101F9000080F00019DEF10F0B60EF66E040EF76EFE
:101FA00061EC07F0050E6B6EC20EF66E040EF76E56
:101FB0003CEC07F072EC07F00C0E0101126F00010F
:101FC00006EC07F0EA6A7B0EE96E92DECB6B01014C
:101FD000ABD0D00EF66E040EF76E61EC07F0050E76
:101FE0006B6EDC0EF66E040EF76E3CEC07F072ECD6
:101FF00007F00C0E0101126F000106EC07F0EA6A0F
:102000008B0EE96E75DECB6B01018ED0D15132089B
:102010001CE0EA0EF66E040EF76E61EC07F0070E98
:102020006B6EF60EF66E040EF76E3CEC07F072EC7B
:1020300007F00C0E0101126F000106EC07F0EA6ACE
:10204000BB0EE96E55DECF6B06D0040EF66E050EA4
:10205000F76E3CEC07F0010167D0D15131081CE06C
:10206000140EF66E050EF76E61EC07F0060E6B6E41
:10207000200EF66E050EF76E3CEC07F072EC07F0E2
:102080000C0E0101126F000106EC07F0EA6A9B0ECC
:10209000E96E2EDECD6B06D02E0EF66E050EF76EB7
:1020A0003CEC07F0010140D0D15131081CE03E0E5C
:1020B000F66E050EF76E61EC07F0060E6B6E4A0EBB
:1020C000F66E050EF76E3CEC07F072EC07F00C0EA6
:1020D0000101126F000106EC07F0EA6AAB0EE96E2F
:1020E00007DECD6B06D0580EF66E050EF76E3CEC93
:1020F00007F0010119D033D6010116D095968C76E0
:1021000083A607D0680EF66E050EF76E3CEC07F05E
:1021100006D0760EF66E050EF76E3CEC07F0010168
:1021200003D0010101D001010C51070803E00001B7
:10213000F2DD010100012FEF11F0F2CF0DF0F29E60
:10214000E824F76AF7365F0FF66E210EF7220A00D1
:10215000F550FA6E0800F5500DBEF28EF96ED21FE2
:102160000C205A20A820981FF620FC20222128ECC1
:1021700009F001010A6B0B6B0A51110DF350036A50
:102180000C6F0C0E126F000106EC07F0BE0EF66E1F
:10219000030EF76E01010C51F626000EF722000126
:1021A0003CEC07F0FAEC08F001010B5373E1938863
:1021B00081B833D0020E0C6FFA0E216F0001EEECE5
:1021C00005F001010C2FF8D7040E106FB90E0F6F38
:1021D000126B140E116F000120EC0CF001010A2BA0
:1021E0000A51075D01E20A6B0A51110DF350036AAF
:1021F0000C6F0C0E126F000106EC07F0BE0EF66EAF
:10220000030EF76E01010C51F626000EF7220001B5
:102210003CEC07F0FAEC08F00101938A81BA39D05E
:10222000020E0C6FFA0E216F0001EEEC05F00101B9
:102230000C2FF8D7040E106FB90E0F6F126B140E1F
:10224000116F000120EC0CF0010107510A5D03E160
:10225000010E0B6F1ED00AC10CF1000194D60101D2
:102260000A51110DF350036A0C6F0C0E126F00012E
:1022700006EC07F0BE0EF66E030EF76E01010C5170
:10228000F626000EF72200013CEC07F0FAEC08F00D
:1022900001018BD7000E016E0001FCEF11F0F86A0E
:1022A000D09E078EB886080EAF6E020EB06EA60ED8
:1022B000AC6E900EAB6E93908A80636A626A646AB9
:1022C000656A666A676A686A696A6A6A6B6A010E41
:1022D0006C6E6D6A050E6E6ECB6BCC6BCD6BCE6B80
:1022E000CF6BD06B020E0101046F080E056F066FF5
:1022F000070E076F030E086F096BC150C00B0F0963
:10230000C16E070EB46E21D0120016227C217C20F3
:102310007C047C007C017C027C037C00000C406F10
:10232000000780302E302E302E3009C0000780305C
:102330002E302E302E3019C00003804B45590DC071
:1023400000058053534944000000000EF86E230E30
:10235000F76E080EF66E0900F550006E000A13E0E5
:102360000900F550016EE8BE05D00F0BEA6E0900BA
:10237000F5CFE9FF01BC090001AC0900F5CFEEFF84
:10238000004EE9D7F9D7F86A020E0A6FFA0E216FEC
:102390000001EEEC05F001010A2FF8D7F19E320E94
:1023A000936E9D8AC00EF2120001A5EF06F0CA0ED0
:1023B000F66E0B0EF76E3CEC07F095968C86FDEFF3
:1023C00007F001010951FC0F1CE2040F000103EFAB
:1023D00012F0C4EF0CF001C009F1010112D03BEF83
:1023E0000DF001C009F101010CD0DAEF0DF001C0D0
:1023F00009F1010106D0BBD601C009F1010101D0EC
:102400000101E0D70300F2CF0DF0F29EE824F76A55
:10241000F7362B0FF66E240EF7220A00F550FA6EEF
:102420000800F5500DBEF28EF96ED223DE23EA23AA
:02243000F62391
:020000040030CA
:0E00000000C21E1E008781000FC00FE00F40DF
:00000001FF
;PIC18F4620
;CRC=1541  CREATED="18-dic.-17 00:10"
