:0400000022EF15F0E6
:08000800046ED8CF05F0E0CF33
:1000100006F00001E9CF0CF0EACF07F0E1CF08F0DD
:10002000E2CF09F0D9CF0AF0DACF0BF0F3CF12F01C
:10003000F4CF13F0FACF14F000C00EF001C00FF0AF
:1000400002C010F003C011F09DAA2AEF00F09EBA82
:10005000DEEF05F00EC000F00FC001F010C002F09E
:1000600011C003F00CC0E9FF07C0EAFF078E08C00B
:10007000E1FF09C0E2FF0AC0D9FF0BC0DAFF12C0DE
:10008000F3FF13C0F4FF14C0FAFF045006C0E0FFF2
:1000900005C0D8FF1000F2CF0DF0F29EF76AB00F46
:1000A000F66E000EF7220900F5500DBEF28E12001A
:1000B000227C217C207C047C007C017C027C037CF3
:1000C000F76AD00FF66E000EF7220900F550120005
:1000D0002B4950442C00F76AE60FF66E000EF7220B
:1000E0000900F5501200434D443AF76AFA0FF66ED4
:1000F000000EF7220900F55012004F4B0D0A0000C8
:10010000F76A100FF66E010EF7220900F550120083
:100110004E6F20415000F76A260FF66E010EF7224F
:100120000900F55012002B43574A41503A00F76A34
:100130003E0FF66E010EF7220900F5501200434FF4
:100140004E4E454354454400F76A580FF66E010E73
:10015000F7220900F55012004641494C0000415475
:100160002B43495053454E443D25632C25750D0ABC
:10017000000041542B434950434C4F53453D2563A8
:100180000D0A000041542B43495053454E443D2530
:10019000632C25750D0A000041542B434950434CF4
:1001A0004F53453D25630D0A000041542B435751E1
:1001B00041500A0D000041542B43495053454E44D1
:1001C0003D25632C25750D0A000041542B434950F1
:1001D000434C4F53453D25630D0A000041542B43CA
:1001E000575341505F4445463D25732C312C340D07
:1001F0000A0041542B43495053454E443D25632C3E
:1002000025750D0A000041542B434950434C4F5370
:10021000453D25630D0A000041542B434950534589
:100220004E443D25632C25750D0A000041542B4397
:100230004950434C4F53453D25630D0A000041543E
:100240002B43574D4F44453D25630D0A0000415453
:100250002B43574A41503F0D0A0041542B43574A04
:1002600041503D2573004C616E7A6120636F6D6172
:100270006E646F205061726120636F6E656374619C
:10028000727365206120756E6120726564200D0AAD
:10029000000053696E2072656420656E746F6E6332
:1002A000657320616374697661204D6F646F2041CE
:1002B00050200D0A000041542B43574D4F44453DFB
:1002C00025630D0A000041542B4349504D55583DBC
:1002D000310D0A0041542B43495053455256455263
:1002E0003D312C38300D0A00456E63656E646572D1
:1002F000204D616E75616C004170616761646F20B3
:100300004D616E75616C2000436F6E666967757232
:100310006163696F6E202000000000000000000093
:1003200000000000000000004553544143494F4E77
:100330002049502020202020004553544143494F5C
:100340004E2053534944202020004150205353490C
:1003500044202020202020202020004150204B45F8
:1003600059202020202020202020200041502049FA
:1003700050202020202020202020202000436F6EAD
:1003800066204163636573736F2052656400426F3A
:100390007272617220612046616272696361004F0E
:1003A0006E2F4F6666204261636B6C6967687400EC
:1003B00053414C4952202020202020202020202062
:1003C00000004573746163696F6E20202020200057
:1003D00041636365737320506F696E7420004573C9
:1003E000746163696F6E202B2041500053414C496A
:1003F00052202020202020202000000000000000AB
:10040000000000000000000053414C4952005B53C3
:1004100049475D2020202020205B454E545D000090
:100420000C4F6E202D3E202573000C4F6E202D3E6C
:10043000202573000C4F66662D3E202573000C4F5F
:1004400066662D3E2025730041542B434946535286
:100450000D0A00000C43617267616E646F2E2E2ED0
:10046000000041542B43494653520D0A00000C43EF
:10047000617267616E646F2E2E2E000041542B4313
:10048000574A41503F0D0A000C43617267616E6428
:100490006F2E2E2E00000C446573686162696C69D2
:1004A0007461646F000041542B43575341503F0D1A
:1004B0000A000C43617267616E646F2E2E2E00007D
:1004C0000C446573686162696C697461646F0000F3
:1004D00041542B43575341503F0D0A000C43617266
:1004E00067616E646F2E2E2E00000C446573686188
:1004F00062696C697461646F00000C426F727261B2
:100500006E646F2045454550524F4D000C426F724E
:1005100072616E646F205245440041542B43575121
:1005200041500A0D000041542B5253540A0D000053
:1005300041542B43575341505F4445463D224B7233
:100540006976657220536D617274486F6D65222CF7
:10055000226B72697665723536313036222C312C39
:10056000340D0A000C4261636B6C69676874204F3C
:100570006E000C4261636B6C69676874204F66663D
:10058000000041542B43574D4F44455F4445463D81
:10059000310D0A000C436F6E66696720436C696514
:1005A0006E74650041542B43574D4F44455F44459D
:1005B000463D320D0A000C436F6E6669672041505C
:1005C000000041542B43574D4F44455F4445463D41
:1005D000330D0A000C436F6E66696720436C6965D2
:1005E0006E74654150000C5265696E696369616E95
:1005F000646F00000101C96BCA6BBE51FB0FD8B01C
:1006000072D0050F0001F3EF03F0010EEA6EBF0E8A
:10061000E96EF2CFCBF1F29E000E67DD0A00090011
:10062000F550EE6E0009FBE10101CBBFF28E040E26
:10063000C96F010ECA6F57D0010EEA6EBF0EE96E88
:10064000F2CFCBF1F29E000E5BDD0A000900F550FF
:10065000EE6E0009FBE10101CBBFF28E050EC96F02
:1006600042D0010EEA6EBF0EE96EF2CFCBF1F29EE0
:10067000000E51DD0A000900F550EE6E0009FBE1A5
:100680000101CBBFF28E070EC96F2DD0010EEA6EAD
:10069000BF0EE96EF2CFCBF1F29E000E48DD0A00EC
:1006A0000900F550EE6E0009FBE10101CBBFF28EAF
:1006B000090EC96F18D0010EEA6EBF0EE96EF2CFB7
:1006C000CBF1F29E000E40DD0A000900F550EE6EFF
:1006D0000009FBE10101CBBFF28E040EC96F010ED0
:1006E000CA6F01D001015C50060DF350CC6BCB6F8B
:1006F000036ABE51CB25016ECC51032201505F0F1E
:10070000E96E000E0320EA6E036AEF50BF0FE96E38
:10071000010E0320EA6EEF50BD5D3DE15C50060D19
:10072000F350CC6BCB6F036ABE51CB25016ECC511D
:10073000032201505F0FE96E000E0320EA6EEF2ADC
:100740005C50060DF350CC6BCB6F036ABE51CB25CA
:10075000016ECC51032201505F0FE96E000E0320A1
:10076000EA6EC951EF5C14E15D50060DF350CC6B9D
:10077000CB6F036ABE51CB25016ECC5103220150D1
:100780005F0FE96E000E0320EA6E010EEF6E02D0DD
:10079000BE5300E126D05C50060DF350CC6BCB6FFE
:1007A000036ABE51CB25016ECC51032201505F0F6D
:1007B000E96E000E0320EA6EEF6ACA2D12D05D507A
:1007C000060DF350CC6BCB6F036ABE51CB25016E87
:1007D000CC51032201505F0FE96E000E0320EA6E38
:1007E000EF6A00011200E824F76AF736010FF66E8F
:1007F000080EF7220A00F550FA6E0800F550F96E5F
:100800000A06620638068C06B606BB2D2BD00101FF
:10081000BD5122080EE10001C151310803E0C15170
:10082000320804E1060EBB6FBC6B01D0BC6B19D063
:1008300001010001C15131080AE1036ABC517B0F7B
:10084000E96E000E0320EA6EBDC1EFFF09D0036A16
:10085000BC516B0FE96E000E0320EA6EBDC1EFFFC5
:10086000BC2B18D0BB51050815E10101BD51220870
:1008700006E1060E0001BB6FBC6B0CD00101036AE0
:100880000001BC517B0FE96E000E0320EA6EBDC172
:10089000EFFFBC2B0101BD5122080AE10001BB5151
:1008A000FB0F05E2050F5BEF04F0BB2BBC6B0101F6
:1008B0000001AEEF05F0E824F76AF736D10FF66EC7
:1008C000080EF7220A00F550FA6E0800F550F96E8E
:1008D000AA08AA08AA08AA08AA08BD2D12D00101D0
:1008E000BD5122080CE0036A0001BE518B0FE96E76
:1008F000000E0320EA6EBDC1EFFFBE2B010118D030
:100900000001BD51030813E10101BD5122080DE0B2
:10091000036A0001BE519B0FE96E000E0320EA6ED0
:10092000BDC1EFFFBE2B03D001010001BE6B010171
:10093000BD5122080AE10001BD51FC0F05E2040F80
:10094000A8EF04F0BD2BBE6B01010001B8EF05F06C
:10095000E824F76AF7366B0FF66E090EF7220A00E5
:10096000F550FA6E0800F550F96E4409440944093F
:100970004409BF2D0FD00101BD5122080CE0036ACC
:100980000001C051AB0FE96E000E0320EA6EBDC13D
:10099000EFFFC02B0101BD51220809E10001BF5149
:1009A00003E0010A01E002D0BF2BC06B010100018E
:1009B000C2EF05F0050E0101BF6F552C13D0BD51DC
:1009C0002C0802E1BE530BE0036A59501C0FE96E7C
:1009D000000E0320EA6EBDC1EFFF592A02D0596A0A
:1009E000556A19D0036A5950F2CFC0F1F29E000146
:1009F00060EC00F00101C0BFF28E016EBD5D0AE146
:100A0000BE5308E1592ABF51595C03E1010E556EEE
:100A1000596A01D0596A0001CFEF05F0040E0101B7
:100A2000BF6F542C15D0BD512C0802E1BE530BE012
:100A3000036A58501E0FE96E000E0320EA6EBDC116
:100A4000EFFF582A04D0586A546A010E566E19D026
:100A5000036A5850F2CFC0F1F29E00016BEC00F037
:100A60000101C0BFF28E016EBD5D0AE1BE5308E117
:100A7000582ABF51585C03E1010E546E586A01D0E8
:100A8000586A0001D5EF05F0562C21D00101BD5167
:100A90003A0802E1BE5317E0036A5A50200FE96E8C
:100AA000000E0320EA6EBDC1EFFF536A5AC052F038
:100AB0005A5207E1BD512C0804E1BE5302E15A6AC3
:100AC00001D05A2A04D05A6A566A010E576E0001A4
:100AD000DBEF05F05B50010A0DE0030A12E0010AAA
:100AE00025E0060A38E0030A40E0010A48E0030A6C
:100AF00050E04FD0BCC1BDF10101BE6B00017ADDF9
:100B00005BD0BCC1BDF1020E0101BE6F000172DD00
:100B1000BCC1BDF1010E0101BE6F00016BDDBCC1A6
:100B2000BDF10101BE6B000165DD46D0BCC1BDF168
:100B3000030E0101BE6F00015DDDBCC1BDF1040EFD
:100B40000101BE6F000156DDBCC1BDF10101BE6BEC
:100B5000000150DD31D0BCC1BDF157D6BCC1BDF1E3
:100B60000101BE6B000146DD27D0BCC1BDF1B5D689
:100B7000BCC1BDF10101BE6B00013CDD1DD0BCC19B
:100B8000BDF1F7D6BCC1BDF10101BE6B000132DD84
:100B900013D00101BE6BBCC1BDF100010BD7010137
:100BA000BE6BBCC1BDF1000139D70101BE6BBCC138
:100BB000BDF1000169D75B6AE7EF05F09EAAFED799
:100BC000AECFBBF10101BBC1BCF1000183D79E9A3E
:100BD0002AEF00F041542B5253540D0A00000C49E7
:100BE0006E696369616E646F2E2E2E000101B5512E
:100BF000070B006EB531016E013201321F0E011676
:100C00000150B725E96E000EB821EA6E016A012A8B
:100C1000002A01D00136002EFDD7B65303E0015063
:100C2000EF1203D0011E0150EF1600011200010E59
:100C3000EA6EB40EE96EEF500DE0060E016E006A2A
:100C4000002EFED7012EFBD77B0E006E002EFED7A6
:100C5000EF2EF3D712000900F5520DE0F6CFB3F1F5
:100C6000F7CFB4F1F5509EA8FED7AD6EB3C1F6FF35
:100C7000B4C1F7FFF0D7120001017BB102D08C980C
:100C800001D08C8895987BB302D08C9A01D08C8A45
:100C9000959A7BB502D08C9C01D08C8C959C7BB7AF
:100CA00002D08C9E01D08C8E959E00008C809590F9
:100CB000020E006E002EFED700D000008C909590A2
:100CC0000001120001017C6B9588000E83B8010EB3
:100CD0007C13958A000E83BA010E006ED890003600
:100CE00000507C13958C000E83BC010E006E003604
:100CF0000036FC0E001600507C13958E000E83BE4D
:100D0000010E006E003600360036F80E0016005058
:100D10007C137CC101F0000112009588958A958CA6
:100D2000958E8C82959200008C8095900000CADF91
:100D300001C07BF18C90959000008C80959000D044
:100D400000D00000BFDF01C07AF18C90959095989B
:100D5000959A959C959E01017B39006EF00E0016C8
:100D600000507A11016E0001BCEF06F09590959449
:100D700095928C949594D1D701C07AF1010101AE7E
:100D800002D00001F8D7785302E18C9401D08C8412
:100D9000959400008C92959200008C9095907939F2
:100DA0007A6F0F0E7A177AC17BF1000165DF0101BE
:100DB00079510F0B7A6F7B6F00015EDF1200280EF6
:100DC00001016B6F0C0E6C6F010E6D6F060E6E6F76
:100DD0008C9095908C9495948C9295929598959AE8
:100DE000959C959E9590959495920F0EB46F0001E9
:100DF0001EDF010E01016A6F6A5103080CE3030E46
:100E00007B6F000139DF050E0101B46F00010FDFB8
:100E100001016A2BF1D7020E7B6F00012DDF050E59
:100E20000101B46F000103DF01016A6B6A5103081D
:100E300011E3036A6A516B0FE96E010E0320EA6E3B
:100E4000EFCF6FF1786B6FC179F100018FDF010196
:100E50006A2BECD7000110EF16F00101752D01D0BF
:100E600003D0400E766F01D0766B010E745D76274D
:100E700076518009776F786B796F000177DF120008
:100E800001017351070A000107E00B0A0CE0060A92
:100E900016E0020A1CE022D0010E0101746F756F8A
:100EA0000001DBDF22D00101786B010E796F0001B8
:100EB0005DDF020E0101B46F0001B9DE16D0010E34
:100EC0000101746F020E756F0001C7DF0ED00101C2
:100ED000786B100E796F000149DF07D0010E010118
:100EE000786F73C179F1000141DF12000900F552FA
:100EF0000CE0F6CF71F1F7CF72F1F5CF73F1C0DFEF
:100F000071C1F6FF72C1F7FFF1D712000900F6CFE9
:100F1000B4F1F7CFB5F1F5509EA8FED7AD6EB4C1D0
:100F2000F6FFB5C1F7FF0101B32F01D002D00001D8
:100F3000EDD70001120001016E6B6F6B5D50060D65
:100F4000F350716B706F5F0E7025E96E000E7121AA
:100F5000EA6EEF5252E16F2B5D50060DF350716B4C
:100F6000706F036A6F517025016E71510322015039
:100F70005F0FE96E000E0320EA6EEF2C39D05C5053
:100F8000060DF350716B706F036A6F517025016E1F
:100F90007151032201505F0FE96E000E0320EA6ECB
:100FA000EF6A5D50060DF350716B706F036A6F51FD
:100FB0007025016E7151032201505F0FE96E000E22
:100FC0000320EA6EEF6A6F51040803E06F510508D1
:100FD0000DE15D50060DF350716B706F5F0E702563
:100FE000E96E000E7121EA6E010EEF6E6FC16EF1B7
:100FF0005E506F5D01E36F6BA1D75D50060DF3503E
:10100000716B706F5F0E7025E96E000E7121EA6ED4
:10101000EF6A5B6A0A0EB46F000109DE01016EC15E
:1010200001F000011200EF5210E0EACFB4F1E9CF75
:10103000B3F1EF509EA8FED7AD6EB4C1EAFFB3C1C5
:10104000E9FFE92AD8B4EA2AEED7120093908A90F1
:10105000080E016E00D00000018E10D0019E01012B
:101060006E330001D8B08A80D8A08A90018C06D057
:10107000019C012EF4D700D000008A80A70EE96EF3
:10108000E92EFED700D001BEE9D701BCF1D753EF5E
:1010900008F00900F5520CE0F6CF6CF1F7CF6DF1D6
:1010A000F5CF6EF1D3D76CC1F6FF6DC1F7FFF1D765
:1010B000120001016A6BF2CF6CF1F29EAA6AA96A72
:1010C000A69CA69EA680A8506CBFF28E0001C16FA0
:1010D0000A0E0101B46F0001AADDC151310A05E019
:1010E000030A03E0010A01E001D01CD0F250006EB7
:1010F000F29EAA6AA96A330EA86EA69CA69EA68432
:101100000F01550EA76EAA0EA76EA682A6B2FED735
:10111000A6940050F2120A0E0101B46F000187DD9F
:10112000330EC16F3E0EF66E020EF76E0A0E01010F
:10113000B36F0001EBDEC1519EA8FED7AD6E0D0E60
:101140009EA8FED7AD6E0A0E9EA8FED7AD6E010E0C
:101150005B6E320E0101B46F000169DD4E0EF66E5A
:10116000020EF76E78DD020E5B6EE5DE01C06AF1FD
:1011700001016A510208D8A481D06B6B036A6B51DC
:10118000C20FE96E000E0320EA6EEF500A0835E048
:10119000036A6B51C20FE96E000E0320EA6E010E66
:1011A0006B256E6FF2CF6FF1F29EAA6A6EC1A9FF36
:1011B000A69CA69EA680A8506FBFF28EEF6E0A0E68
:1011C000B46F000134DD036A01016B51C20FE96E97
:1011D000000E0320EA6EEF3C03D0050E6A6F0DD0BF
:1011E000036A6B51C20FE96E000E0320EA6EEF50E6
:1011F0000A0801E102D06B2BC1D76A51050817E03C
:101200005A0EF66E020EF76E090EB36F00017EDE07
:10121000EA6AC20EE96E07DF030E5B6E660EF66EBB
:10122000020EF76E36DF87DE01C06AF101016A51F6
:10123000040803E06A51050821E1920EF66E020EE1
:10124000F76E000126DFB60EF66E020EF76E0A0E7E
:101250000101B36F00015ADE0401C8519EA8FED7F8
:10126000AD6E0D0E9EA8FED7AD6E0A0E9EA8FED7DF
:10127000AD6E010E5B6E00015EDE0101C60EF66E04
:10128000020EF76E0001E7DC040E01016C6FFA0E2E
:10129000B46F0001CCDC01016C2FF9D7D40EF66ECF
:1012A000020EF76E0001D7DC040E01016C6FFA0E1E
:1012B000B46F0001BCDC01016C2FF9D7040E5B6E2A
:1012C000000124EF16F001016A6B6B69F2CF6EF139
:1012D000F29EAA6AA96AA69CA69EA680A8506EBF86
:1012E000F28E6A6F6A3D01D059D06A6B6C6B6C519B
:1012F000070848E36C510A0DF350280F6A6FF2CFCC
:101300006EF1F29EAA6A6AC1A9FFA69CA69EA6805B
:10131000A8506EBFF28E6B6F0A0EB46F000187DCAF
:1013200001016B3D01D02CD06D6B6D51090828E394
:101330006C510B0DF3506F6B6E6F036A6D516E2520
:10134000016E6F5103220150F40FE96E000E03206D
:10135000EA6E6D516A25706FF2CF71F1F29EAA6A42
:1013600070C1A9FFA69CA69EA680A85071BFF28E50
:10137000EF6E0A0EB46F00015ADC01016D2BD5D758
:101380006C2BB5D70C0E4C6F530E4D6F410E4E6F3C
:101390004C0E4F6F490E506F520E516F000126EFE9
:1013A00016F0010E0101746F020E756F000155DD1C
:1013B0000E0EF66E040EF76E99DD12000101B651A5
:1013C000016AB55D03E2B5C100F00CD0006A080EF9
:1013D000B76FB5370036B651005CD8B0006E013635
:1013E000B72FF7D7000112000150B3C1B5F1640E59
:1013F0000101B66F0001E2DF00C0B3F10150300E11
:1014000008E10101B4A30ED0B4B70CD0B4B9200EDA
:1014100004D00101B497B499B481012601509EA86B
:10142000FED7AD6EB3C1B5F10A0EB66F0001C6DFCF
:1014300000C0B3F10150300E08E10101B4B70BD088
:10144000B4A109D0B4B9200E0001012601509EA814
:10145000FED7AD6E0101300EB327B3519EA8FED763
:10146000AD6E000112000101716B726B736B746BD6
:101470000C0E756F7B0E766F220E776F630E786F92
:101480006D0E796F640E7A6F220E7B6F3A0E7C6F51
:10149000220E7D6F6F0E7E6F6B0E7F6F220E806F40
:1014A0007D0E816F826B572CADEF0EF01E505208EF
:1014B0005BE11F50530858E11E0EB46F000117EC9A
:1014C00006F05E0EF66E010EF76E0B0E0101B36FA5
:1014D00000011CDD1C509EA8FED7AD6E2C0E9EA8F0
:1014E000FED7AD6E75C1B3F11B0E0101B46F0001E3
:1014F0007BDF0D0E9EA8FED7AD6E0A0E9EA8FED70E
:10150000AD6E3C0E0101B46F000117EC06F0010E48
:10151000EA6E760EE96E87DD780E0101B46F000188
:1015200017EC06F0720EF66E010EF76E0C0E01014E
:10153000B36F0001EBDC1C509EA8FED7AD6E0D0E04
:101540009EA8FED7AD6E0A0E9EA8FED7AD6E020E07
:101550000101B36FFA0EB46F000117EC06F0010140
:10156000B32FF8D7010E716F1E504F085EE11F5068
:1015700050085BE1300E215C726F2050300A000190
:1015800003E0010A29E050D0D89001017235036AC6
:10159000F2CFB3F1F29E00014BEC00F00900F5CF61
:1015A00003F00101B3BFF28EB36F03C0B4F1B56FA6
:1015B000B66B0F0EB86F890EB76F0001F6EC05F031
:1015C000B3C1B5F10101B66B0F0EB86F920EB76FD4
:1015D0000001F6EC05F028D0D89001017235036ABD
:1015E000F2CFB3F1F29E00014BEC00F00900F5CF11
:1015F00003F00101B3BFF28EB36F03C0B4F1B56F56
:10160000010EB66F0F0EB86F890EB76F0001F6ECC2
:1016100005F0B3C1B5F10101B66B0F0EB86F920EB4
:10162000B76F0001F6EC05F001011E504E08D8A47A
:1016300004D11F504308D8A400D1010E746F745117
:101640001B081EE3F250006EF29EAA6A74C1A9FF45
:10165000A868A69CA69EA6840F01550EA76EAA0E8A
:10166000A76EA682A6B2FED7A6940050F2120A0E6A
:101670000101B46F000117EC06F00101742BDFD7F4
:10168000AF6B535203E1AF51525C2BE3010EAF2518
:10169000B36F036AAF51200FE96E000E0320EA6EAC
:1016A000EFCFB4F1F250006EF29EAA6AB3C1A9FF67
:1016B000B4C1A8FFA69CA69EA6840F01550EA76ED6
:1016C000AA0EA76EA682A6B2FED7A6940050F2126A
:1016D0000A0E0101B46F000117EC06F00101AF2BF7
:1016E000D0D7010EAF25B36FF250006EF29EAA6AFA
:1016F000B3C1A9FF0D0EA86EA69CA69EA6840F01DD
:10170000550EA76EAA0EA76EA682A6B2FED7A69405
:101710000050F2120A0E0101B46F000117EC06F03E
:10172000020E0101AF25B36FF250006EF29EAA6A5D
:10173000B3C1A9FF0A0EA86EA69CA69EA6840F019F
:10174000550EA76EAA0EA76EA682A6B2FED7A694C5
:101750000050F2120A0E0101B46F000117EC06F0FE
:101760001E0E0101B46F000117EC06F0840EF66E38
:10177000010EF76E0B0E0101B36F000186EC07F04E
:101780001C509EA8FED7AD6E2C0E9EA8FED7AD6E47
:1017900075C1B3F11B0E0101B46F000125DE0D0E02
:1017A0009EA8FED7AD6E0A0E9EA8FED7AD6E3C0E6B
:1017B0000101B46F000117EC06F0010EEA6E760E1F
:1017C000E96E31DC780E0101B46F000117EC06F010
:1017D000980EF66E010EF76E0C0E0101B36F00014C
:1017E00086EC07F01C509EA8FED7AD6E0D0E9EA88D
:1017F000FED7AD6E0A0E9EA8FED7AD6E020E010199
:10180000B36FFA0EB46F000117EC06F00101B32FAD
:10181000F8D7AA0EF66E010EF76E00012BEC06F05B
:10182000040E0101B36FFA0EB46F000117EC06F05D
:101830000101B32FF8D7010E716F1E504108D8A4D3
:1018400082D01F505008D8A47ED0140EB46F00016F
:1018500017EC06F0B60EF66E010EF76E0B0E0101D8
:10186000B36F000186EC07F01C509EA8FED7AD6E4A
:101870002C0E9EA8FED7AD6E75C1B3F11B0E0101F3
:10188000B46F0001B1DD0D0E9EA8FED7AD6E0A0E3D
:101890009EA8FED7AD6E320E0101B46F000117ECA9
:1018A00006F0010EEA6E760EE96E13EC08F0640E97
:1018B0000101B46F000117EC06F0CA0EF66E010EBE
:1018C000F76E0C0E0101B36F000186EC07F01C509F
:1018D0009EA8FED7AD6E0D0E9EA8FED7AD6E0A0E69
:1018E0009EA8FED7AD6E020E0101B36FFA0EB46F63
:1018F000000117EC06F00101B32FF8D7DC0EF66EED
:10190000010EF76E0D0EB36F000186EC07F0EA6A68
:10191000200EE96E13EC08F0EB0EF66E010EF76E7A
:10192000060E0101B36F000186EC07F0040E010101
:10193000B36FFA0EB46F000117EC06F00101B32F7C
:10194000F8D7010E716F1E504E08D8A476D01F50E4
:101950004D0873E1F250006EF29EAA6AA96A20C097
:10196000A8FFA69CA69EA6840F01550EA76EAA0EE0
:10197000A76EA682A6B2FED7A6940050F2120A0E57
:101980000101B46F000117EC06F0140E0101B46FF1
:10199000000117EC06F0F20EF66E010EF76E0B0E5C
:1019A0000101B36F000186EC07F01C509EA8FED722
:1019B000AD6E2C0E9EA8FED7AD6E75C1B3F11B0E99
:1019C0000101B46F000110DD0D0E9EA8FED7AD6EB3
:1019D0000A0E9EA8FED7AD6E320E0101B46F000153
:1019E00017EC06F0010EEA6E760EE96E13EC08F0C5
:1019F000640E0101B46F000117EC06F0060EF66EDE
:101A0000020EF76E0C0E0101B36F000186EC07F0B9
:101A10001C509EA8FED7AD6E0D0E9EA8FED7AD6ED3
:101A20000A0E9EA8FED7AD6E640E0101B46F0001D0
:101A300017EC06F0010E0101716F1E504F08D8A47B
:101A400096D01F505308D8A492D07B0E766F220EEA
:101A5000776F300E786F220E796F3A0E7A6F000E24
:101A600084B4010E300F7B6F2C0E7C6F220E7D6FC5
:101A7000310E7E6F220E7F6F3A0E806F000E84B2A1
:101A8000010E300F816F2C0E826F220E836F320E8B
:101A9000846F220E856F3A0E866F000E84B0010EA1
:101AA000300F876F2C0E886F220E896F330E8A6F6E
:101AB000220E8B6F3A0E8C6F000E80B8010E300F25
:101AC0008D6F2C0E8E6F220E8F6F340E906F220E44
:101AD000916F3A0E926F000E80B0010E300F936F2F
:101AE0002C0E946F220E956F350E966F220E976F07
:101AF0003A0E986F000E80B2010E300F996F2C0EC7
:101B00009A6F220E9B6F360E9C6F220E9D6F3A0EBF
:101B10009E6F000E80B4010E300F9F6F2C0EA06FD1
:101B2000220EA16F370EA26F220EA36F3A0EA46F82
:101B3000000E80B6010E300FA56F2C0EA66F220E80
:101B4000A76F4D0EA86F220EA96F3A0EAA6FF2CFA3
:101B5000B3F1F29EAA6AA96AA69CA69EA680A85086
:101B6000B3BFF28EAB6F7D0EAC6F370E756F1E502C
:101B70004E08D8A472D01F504F086FE1B06BB16B04
:101B8000300E205C726F72510A0DF350280FB06F47
:101B90000A0EB025B16FB0C174F1B0515224016E7C
:101BA000000E5320036E0150035203E10150745D97
:101BB00029E2732B036A7351200FE96E000E032094
:101BC000EA6EEFCFB3F1F250006EF29EAA6A74C1D2
:101BD000A9FFB3C1A8FFA69CA69EA6840F01550E1F
:101BE000A76EAA0EA76EA682A6B2FED7A694005034
:101BF000F2120A0E0101B46F000117EC06F00101A8
:101C0000742BCBD7B0515224B36F000E5320B46F56
:101C1000010EB325746F7451B15D1EE3F250006E76
:101C2000F29EAA6A74C1A9FFA868A69CA69EA68473
:101C30000F01550EA76EAA0EA76EA682A6B2FED7FA
:101C4000A6940050F2120A0E0101B46F000117ECC5
:101C500006F00101742BDFD7736B715356E1140E3C
:101C6000B46F000117EC06F0180EF66E020EF76E58
:101C70000B0E0101B36F000186EC07F01C509EA80B
:101C8000FED7AD6E2C0E9EA8FED7AD6E75C1B3F11A
:101C90001B0E0101B46F0001F4EC09F00D0E9EA8BB
:101CA000FED7AD6E0A0E9EA8FED7AD6E320E0101B4
:101CB000B46F000117EC06F0010EEA6E760EE96EC5
:101CC00013EC08F0640E0101B46F000117EC06F08C
:101CD0002C0EF66E020EF76E0C0E0101B36F0001B2
:101CE00086EC07F01C509EA8FED7AD6E0D0E9EA888
:101CF000FED7AD6E0A0E9EA8FED7AD6E640E010132
:101D0000B46F000117EC06F00101B26B535203E10E
:101D1000B251525C0AE3036AB251200FE96E000E21
:101D20000320EA6EEF6AB22BF1D7B26BB2513808DA
:101D30000AE3036AB251760FE96E010E0320EA6EE0
:101D4000EF6AB22BF3D71E6A1F6A1C6A576A536A7E
:101D5000526A712D02D0716BFF0071C101F0000158
:101D60001200D8B204D0010EEA6E860EE96E006A47
:101D7000016A026A036A0101866B876B886B896B53
:101D800085518411831182112CE0200E8A6FD89026
:101D90007E377F378037813786378737883789376F
:101DA0008551895D08E18451885D05E18351875D36
:101DB00002E18251865D0FE38251865F8351D8A094
:101DC000833D875F8451D8A0843D885F8551D8A02A
:101DD000853D895FD88000360136023603368A2F6A
:101DE000D6D786C1EFFF87C1ECFF88C1ECFF89C160
:101DF000ECFF000166EF0FF00101866B876B010EAF
:101E0000886FDA6AD96A8B6F7E0E8A6F010EEA6E6E
:101E1000820EE96E8BC1E2FF8AC1E1FF88C189F1C0
:101E2000D890E550EE02F3508623F4508723892F93
:101E3000F7D786C1DEFF87C186F1876BD8B0872BC5
:101E40008A2BD8B48B2B882B88510508DFE1000141
:101E50007EEF0FF0030E01017F5F0AE3010EEA6ED1
:101E60007F0EE96EEF5004E001D000D0EF2EFDD7D9
:101E7000000112000101756B746B776B766B715307
:101E800004E170511308D8B097D071514E08D8A012
:101E900093D004E170512008D8A08ED07D6B010E44
:101EA0007C6F860E7B6FA00E7A6FD8927DC181F118
:101EB0007CC180F17BC17FF17AC17EF1856B846B3F
:101EC00071C183F170C182F100014BD703C07DF174
:101ED00002C07CF101C07BF100C07AF17DC181F1CB
:101EE0007CC180F17BC17FF17AC17EF10101856BFC
:101EF000846B836B050E826F00017ED703C07DF17A
:101F000002C07CF101C07BF100C07AF17BC179F1A4
:101F10007AC178F193948A8479C17EF101017E2B94
:101F20007E07D8B405D07F69000194DF0101F8D79E
:101F300078C17FF100018EDF010178517627795158
:101F4000772393948A9479C17EF17E2B7E07D8B44F
:101F500005D07F6900017EDF0101F8D778C17FF1EC
:101F6000000178DF01017851762779517723190E26
:101F70007627000E77237751020811E2FF0A03E16A
:101F80007651E7080CE2E80E765F030E775B742B60
:101F9000D8B4752B190E7627000E7723ECD7755120
:101FA000735D0AE3D8B402D00001B4D77251745DF6
:101FB000D8B002D00001AED70001120001016A6B57
:101FC0006B6B6A51100DF350036A6C6F0C0E736FDC
:101FD000000140EC07F0E80EF66E020EF76E01010C
:101FE0006C51F626000EF722000176EC07F0D1ECDA
:101FF00009F001016B5355E1000133EC0AF09388BD
:1020000081B832D0020E01016C6FFA0EB46F00017C
:1020100017EC06F001016C2FF8D7040E716FB90EA2
:10202000706F736B140E726F000124DF01016A2B55
:102030006A51625D01E26A6B6A51100DF350036AE6
:102040006C6F0C0E736F000140EC07F0E80EF66E3B
:10205000020EF76E01016C51F626000EF722000108
:1020600076EC07F0D1EC09F0938A81BA18D0020E11
:1020700001016C6FFA0EB46F000117EC06F001015C
:102080006C2FF8D7040E716FB90E706F736B140E4E
:10209000726F0001EFDE010E01016B6F0001A9D725
:1020A0000101010E6A25016E000134EF16F00900EE
:1020B000F6CF6FF1F7CF70F1F5CF73F140EC07F089
:1020C0006FC1F6FF70C1F7FF01016E2F01D002D082
:1020D0000001EDD700011200EF5210E0EACF6FF1DE
:1020E000E9CF6EF1EFCF73F140EC07F06FC1EAFF7B
:1020F0006EC1E9FFE92AD8B4EA2AEED7120001013D
:102100006A6B6B6B6A510B0DF350036AF40F016E2F
:10211000000E032201C06CF103C06DF1200EF66EBB
:10212000040EF76E070E6E6F0001C1DF6DC1EAFF8E
:102130006CC1E9FFD1DFD1EC09F001016B53D8A4E8
:1021400082D0000133EC0AF0938881B835D0020EBA
:1021500001016C6FFA0EB46F000117EC06F001017B
:102160006C2FF8D7040E716FB90E706F736B140E6D
:10217000726F00017FDE01016A2B6A51635D01E22B
:102180006A6B6A510B0DF350036AF40F016E000E77
:10219000032201C06CF103C06DF12A0EF66E040E2D
:1021A000F76E070E6E6F000182DF6DC1EAFF6CC132
:1021B000E9FF92DFD1EC09F0938A81BA42D0020E96
:1021C00001016C6FFA0EB46F000117EC06F001010B
:1021D0006C2FF8D7040E716FB90E706F736B140EFD
:1021E000726F000147DE010163516A5D03E1010E78
:1021F0006B6F28D0D8906A35036AF2CF6CF1F29EEB
:1022000000014BEC00F00900F5CF03F001016CBFB9
:10221000F28E6C6F03C06DF1B56F010EB66F0F0ECD
:10222000B86F890EB76F0001F6EC05F06CC1B5F11F
:102230000101B66B0F0EB86F920EB76F0001F6EC8E
:1022400005F001017BD7000E016E00013AEF16F098
:1022500001016A6B6B6B6A510B0DF350036AF40F4B
:10226000016E000E032201C06CF103C06DF1340E4B
:10227000F66E040EF76E070E6E6F000118DF6DC16B
:10228000EAFF6CC1E9FF28DFD1EC09F001016B53D3
:10229000D8A481D0000133EC0AF0938881B835D0FE
:1022A000020E01016C6FFA0EB46F000117EC06F01C
:1022B00001016C2FF8D7040E716FB90E706F736B3C
:1022C000140E726F0001D6DD01016A2B6A51645D44
:1022D00001E26A6B6A510B0DF350036AF40F016E51
:1022E000000E032201C06CF103C06DF13E0EF66ECC
:1022F000040EF76E070E6E6F0001D9DE6DC1EAFFA6
:102300006CC1E9FFE9DED1EC09F0938A81BA41D0D2
:10231000020E01016C6FFA0EB46F000117EC06F0AB
:1023200001016C2FF8D7040E716FB90E706F736BCB
:10233000140E726F00019EDD010164516A5D03E1BC
:10234000010E6B6F27D0D8906A35036AF2CF6CF11B
:10235000F29E00014BEC00F00900F5CF03F0010103
:102360006CBFF28E6C6F03C06DF1B56FB66B0F0E64
:10237000B86F890EB76F0001F6EC05F06CC1B5F1CE
:102380000101B66B0F0EB86F920EB76F0001F6EC3D
:1023900005F001017CD7000E016E000140EF16F040
:1023A0000101706B0C0E746F020E756F00012DEC45
:1023B00007F0080EF66E040EF76E76EC07F00101DA
:1023C000705316E1000133EC0AF0938A81BA0ED003
:1023D000020E0101716FFA0EB46F000117EC06F0E6
:1023E0000101712FF8D7010E706F0001E8D70101CC
:1023F0000001120001016E6B6F6B6E510E0DF350F8
:10240000036A706F0C0E736F000140EC07F0C20E90
:10241000F66E030EF76E01017051F626000EF722DC
:10242000000176EC07F0D1EC09F001016F53D8A45C
:10243000F6D0000133EC0AF0938881B832D0020E56
:102440000101706FFA0EB46F000117EC06F0010184
:10245000702FF8D7040E716FB90E706F736B140E76
:10246000726F000107DD01016E2B6E51665D01E2A6
:102470006E6B6E510E0DF350036A706F0C0E736F1E
:10248000000140EC07F0C20EF66E030EF76E01017C
:102490007051F626000EF722000176EC07F0D1EC21
:1024A00009F0938A81BAB9D0020E0101706FFA0E59
:1024B000B46F000117EC06F00101702FF8D7040E7D
:1024C000716FB90E706F736B140E726F0001D2DCF6
:1024D000010166516E5D03E1010E6F6F9DD06E517B
:1024E000FC0FD8B082D0040F000112EF13F0820E5F
:1024F000F66E050EF76E2BEC06F0F250006EF29EB3
:10250000AA6AA96A310EA86EA69CA69EA6840F018F
:10251000550EA76EAA0EA76EA682A6B2FED7A694E7
:102520000050F2120A0E0101B46F000117EC06F020
:10253000940EF66E050EF76E76EC07F0010155D09D
:10254000A40EF66E050EF76E2BEC06F0F250006E40
:10255000F29EAA6AA96A320EA86EA69CA69EA684BE
:102560000F01550EA76EAA0EA76EA682A6B2FED7C1
:10257000A6940050F2120A0E0101B46F000117EC8C
:1025800006F0B60EF66E050EF76E76EC07F001015A
:102590002CD0C20EF66E050EF76E2BEC06F0F25044
:1025A000006EF29EAA6AA96A330EA86EA69CA69E29
:1025B000A6840F01550EA76EAA0EA76EA682A6B21C
:1025C000FED7A6940050F2120A0E0101B46F00016A
:1025D00017EC06F0D40EF66E050EF76E76EC07F0EB
:1025E000010103D0010101D001016E51030814E083
:1025F0000001D6DEE60EF66E050EF76E76EC07F0FD
:102600000C0E0101706FFA0EB46F000117EC06F0AA
:102610000101702FF8D7FF00000107D70101000169
:1026200048EF14F0F2CF0DF0F29EE824F76AF73687
:10263000490FF66E260EF7220A00F550FA6E0800D2
:10264000F5500DBEF28EF96EEE2440259225E4255C
:1026500001016C51F70FD8B033D1090F00016CEFB5
:1026600014F0480EF66E040EF76E2BEC06F0050E15
:102670005B6E540EF66E040EF76E76EC07F09BEC74
:1026800007F00C0E0101736F000140EC07F0EA6ADD
:102690006B0EE96E21DDBB6B010112D1620EF66E8D
:1026A000040EF76E2BEC06F0050E5B6E6E0EF66EEA
:1026B000040EF76E76EC07F09BEC07F00C0E0101B0
:1026C000736F000140EC07F0EA6A7B0EE96E04DDEF
:1026D000BB6B0101F5D0C15132081CE07C0EF66ED7
:1026E000040EF76E2BEC06F0070E5B6E880EF66E8E
:1026F000040EF76E76EC07F09BEC07F00C0E010170
:10270000736F000140EC07F0EA6AAB0EE96EE4DC9F
:10271000BF6B06D0960EF66E040EF76E76EC07F0E1
:102720000101CED0C15131081CE0A60EF66E040E98
:10273000F76E2BEC06F0060E5B6EB20EF66E040E14
:10274000F76E76EC07F09BEC07F00C0E0101736F4F
:10275000000140EC07F0EA6A8B0EE96EBDDCBD6B50
:1027600006D0C00EF66E040EF76E76EC07F001018F
:10277000A7D0C15131081CE0D00EF66E040EF76EE2
:102780002BEC06F0060E5B6EDC0EF66E040EF76E9A
:1027900076EC07F09BEC07F00C0E0101736F000163
:1027A00040EC07F0EA6A9B0EE96E96DCBD6B06D042
:1027B000EA0EF66E040EF76E76EC07F0010180D09B
:1027C000FA0EF66E040EF76E76EC07F001016D6BF3
:1027D0006D516E081EE3F250006EF29EAA6A6DC142
:1027E000A9FFA868A69CA69EA6840F01550EA76EF9
:1027F000AA0EA76EA682A6B2FED7A6940050F21229
:102800000A0E0101B46F000117EC06F001016D2BF7
:10281000DFD70C0EF66E050EF76E000176EC07F0B2
:102820001A0EF66E050EF76E2BEC06F0040E010183
:102830006E6FFA0EB46F000117EC06F001016E2FF7
:10284000F8D7260EF66E050EF76E00012BEC06F09B
:10285000080E01016E6FFA0EB46F000117EC06F05E
:1028600001016E2FF8D7300EF66E050EF76E0001DF
:102870002BEC06F0080E01016E6FFA0EB46F00012A
:1028800017EC06F001016E2FF8D7FF0019D0B2D572
:10289000010116D095968C7683A607D0640EF66E4D
:1028A000050EF76E76EC07F006D0720EF66E050E8A
:1028B000F76E76EC07F0010103D0010101D00101B0
:1028C0006C51080806E06C51050803E0000168DD62
:1028D0000101000102EF15F0F2CF0DF0F29EE824A5
:1028E000F76AF736FD0FF66E280EF7220A00F5504C
:1028F000FA6E0800F5500DBEF28EF96E9C26D626B3
:102900002427722762268E28C0279428BA2801011E
:102910006A6B6B6B6A51110DF350036A6C6F0C0E8E
:10292000736F000140EC07F0280EF66E030EF76E91
:1029300001016C51F626000EF722000176EC07F03B
:10294000D1EC09F001016B53D8A477D0000133EC2E
:102950000AF0938881B833D0020E01016C6FFA0E31
:10296000B46F000117EC06F001016C2FF8D7040ECC
:10297000716FB90E706F736B140E726F00013AECC9
:102980000FF001016A2B6A51655D01E26A6B6A51C1
:10299000110DF350036A6C6F0C0E736F000140EC65
:1029A00007F0280EF66E030EF76E01016C51F62645
:1029B000000EF722000176EC07F0D1EC09F0938AC3
:1029C00081BA39D0020E01016C6FFA0EB46F0001AA
:1029D00017EC06F001016C2FF8D7040E716FB90ED9
:1029E000706F736B140E726F00013AEC0FF00101FF
:1029F00065516A5D03E1010E6B6F1ED06AC16CF117
:102A0000000126D601016A51110DF350036A6C6F63
:102A10000C0E736F000140EC07F0280EF66E030EEB
:102A2000F76E01016C51F626000EF722000176ECDC
:102A300007F0D1EC09F0010186D7000E016E00010C
:102A400045EF16F0F86AD09E078EB8862A0EAF6E54
:102A5000000EB06EA60EAC6E900EAB6E93908A8098
:102A6000536A526A546A556A566A576A586A596A6A
:102A70005A6A5B6A010E5C6E5D6A050E5E6EBB6B28
:102A8000BC6BBD6BBE6BBF6BC06B020E0101626F96
:102A9000080E636F646F656F030E666F676BC150DE
:102AA000C00B0F09C16E070EB46E4DD002001600A8
:102AB000000C405F000780302E302E302E3009C0D1
:102AC000000780302E302E302E3009C0000FC0207D
:102AD0000180000FC0200180000FC0200180005D38
:102AE00000F44F757470757420312020004F757498
:102AF00070757420322020004F7574707574203307
:102B00002020004F757470757420342020004F759C
:102B10007470757420352020004F757470757420A2
:102B2000362020004F757470757420372020004FB8
:102B30007574707574203820200053414C4952053B
:102B4000C0200CC00000000EF86E2A0EF76EAC0E0E
:102B5000F66E0900F550006E000A13E00900F5500A
:102B6000016EE8BE05D00F0BEA6E0900F5CFE9FF54
:102B700001BC090001AC0900F5CFEEFF004EE9D71A
:102B8000F9D7F86AF19E320E936E93968A969394D3
:102B90008A9495968C86686B6851070829E3D890CB
:102BA0006835036AF2CF6AF1F29E00014BEC00F047
:102BB0000900F5CF03F001016ABFF28E6A6F03C00E
:102BC0006BF1B56FB66B0F0EB86F890EB76F000162
:102BD000F6EC05F06AC1B5F10101B66B0F0EB86FE6
:102BE000920EB76F0001F6EC05F00101682BD4D707
:102BF0009D8AC00EF212040E6A6FFA0EB46F0001C5
:102C000017EC06F001016A2FF8D793968A86D40E46
:102C1000F66E0B0EF76E00012BEC06F0DFEF06F000
:102C2000DE0EF66E0B0EF76E76EC07F0140E010159
:102C30006A6FFA0EB46F000117EC06F001016A2FFB
:102C4000F8D7000159EF08F063EF09F0010E010118
:102C5000696F692D20D06751FC0F1CE2040F000141
:102C60004CEF16F0DEEF0FF001C067F1010112D05A
:102C70007FEF10F001C067F101010CD028EF11F0D7
:102C800001C067F1010106D042D601C067F1010120
:102C900001D00101DED70300F2CF0DF0F29EE8244F
:102CA000F76AF736BD0FF66E2C0EF7220A00F550C4
:102CB000FA6E0800F5500DBEF28EF96E642C702C81
:042CC0007C2C882CB4
:020000040030CA
:0E00000000C21E1E008781000FC00FE00F40DF
:00000001FF
;PIC18F4620
;CRC=196B  CREATED="24-dic.-17 00:43"
