:100000000E308A00732E0000FF00030E8301A10052
:100010000A08A0008A010408A2007708A300780853
:10002000A4007908A5007A08A60003170D08031399
:10003000A70003170F080313A80003170C080313E6
:10004000A90003170E080313AA00831383128C3030
:100050008400801E2D288C1A4E2822088400230834
:10006000F7002408F8002508F9002608FA002708F8
:1000700003178D000313280803178F0003132908A3
:1000800003178C0003132A0803178E00031320089C
:100090008A00210E8300FF0E7F0E09008A110A12CA
:1000A0005A2B0A108A100A1182074F344B340D3430
:1000B0000A340A108A100A1182074E346F34203431
:1000C000413450340A108A100A1182072B34433409
:1000D00057344A34413450343A340A108A100A11E1
:1000E000820743344F344E344E3445344334543411
:1000F000453444340A108A100A11820746344134C8
:1001000049344C3445346E34633465346E3464346D
:100110006534723420344D3461346E347534613456
:100120006C34003441347034613467346134643485
:100130006F3420344D3461346E34753461346C3432
:100140002034003443346F346E3466346934673499
:10015000753472346134633469346F346E342034EE
:1001600020340034003400340034003400340034CF
:1001700000340034003400340034003400340034DF
:10018000003400344F346E3420342D343E34203467
:10019000533461346C346934643461342034313420
:1001A00000344F346E3420342D343E3420345334F4
:1001B00061346C3469346434613420343234003452
:1001C0004F346E3420342D343E3420345334613473
:1001D0006C346934643461342034333400344F3443
:1001E0006E3420342D343E342034533461346C3436
:1001F0006934643461342034343400344F346E3420
:1002000020342D343E342034533461346C3469341A
:10021000643461342034353400344F346E34203447
:100220002D343E342034533461346C3469346434B6
:1002300061342034363400344F346E3420342D345D
:100240003E342034533461346C3469346434613462
:100250002034373400344F346E3420342D343E345F
:100260002034533461346C34693464346134203460
:1002700038340034533441344C344934523420340B
:1002800020342034203420342034203420342034CE
:1002900000340034003400340034003400340034BE
:1002A00000340034003400340034003400340034AE
:1002B0004F346634663420342D343E342034533485
:1002C00061346C3469346434613420343134003442
:1002D0004F346634663420342D343E342034533465
:1002E00061346C3469346434613420343234003421
:1002F0004F346634663420342D343E342034533445
:1003000061346C34693464346134203433340034FF
:100310004F346634663420342D343E342034533424
:1003200061346C34693464346134203434340034DE
:100330004F346634663420342D343E342034533404
:1003400061346C34693464346134203435340034BD
:100350004F346634663420342D343E3420345334E4
:1003600061346C346934643461342034363400349C
:100370004F346634663420342D343E3420345334C4
:1003800061346C346934643461342034373400347B
:100390004F346634663420342D343E3420345334A4
:1003A00061346C346934643461342034383400345A
:1003B000533441344C3449345234203420342034C2
:1003C00020342034203420342034203420340034AD
:1003D000003400340034003400340034003400347D
:1003E000003400340034003400340034003400346D
:1003F0005634453452342034493450342034203477
:10040000203420342034203420342034203420344C
:100410000034563445345234203453345334493440
:100420004434203420342034203420342034203408
:100430002034003456344534523420344B3445345F
:1004400059342034203420342034203420342034D3
:1004500020342034003443346F346E346634203416
:100460004134633463346534733473346F3420340B
:1004700052346534643400344F346E342F344F3486
:100480006634663420344234613463346B346C3403
:1004900069346734683474340034533441344C3430
:1004A0004934523420342034203420342034203451
:1004B00020342034203420342034003400340034FC
:1004C000003400340034003400340034003400348C
:1004D0000034003400340034003400340034453437
:1004E000733474346134633469346F346E3420345B
:1004F00020342034203420340034413463346334D5
:10050000653473347334203450346F3469346E344A
:1005100074342034003445347334743461346334B7
:1005200069346F346E3420342B34203441345034E9
:100530000034533441344C34493452342034203460
:10054000203420342034203420342034003400344B
:1005500000340034003400340034003400340034FB
:1005600000340034003400340034D320CC24520052
:10057000DB29C9235D1020102010A02D4527D42E83
:1005800000008C183919AE18361C2E18AE18000150
:100590008C21B023B32F552745008C18B219B420F5
:1005A000FA1000010C21E1316B36E933683AA027DB
:1005B0006E000C21E1316B36E933683AA0276633CF
:1005C0000001412AAB21D7264F22C52FC422C61EC7
:1005D000B1060A008C216F37E63467104336E932E2
:1005E0006E3A6500412AAB21D7264F22C52FC4227F
:1005F000C61EB2060A008C216F37E6346710412808
:100600000001412AAB21D7264F22C52FC422C61E86
:10061000B3060A008C216F37E63467104336E9329F
:100620006E3AE5205000412A2B29532A0D0500007F
:10063000412AAB21D7264F22C51EA5390D05000042
:10064000412AAB2157254128BF060A00412AAB2188
:1006500057254128BD127300412AAB214928CD2AD4
:10066000D81EB1060A00412AAB214928D322522BB9
:100670004529BD182C1CB0060A0004308316BE00A4
:1006800083124D085120F80083163D02031D562B9E
:100690008312CD0A83163E0883124D02031D532B8D
:1006A0000130C800542BC801592B83168312CD0189
:1006B000C80108008C1E5A2B1A088316BB003B0881
:1006C000BC0083124608013A03196D2B033A031943
:1006D000732B013A0319AF2BEB2B83163C08BD009B
:1006E00083123D23EC2B83163C08BD000530BE0071
:1006F00083124E085920F80083163D02031D8C2BEF
:100700008312CE0A83163E0883124E02031D8A2BE3
:100710000130C9008E2B83168312CE0183163C084C
:10072000BD000730BE0083124F086220F800831618
:100730003D02031DA72B8312CF0A83163E088312A6
:100740004F02031DA52B0130CA00A92B831683126B
:10075000CF0183163C08BD0083123D23EC2B83168A
:100760003C08BD000930BE00831250086D20F8001F
:1007700083163D02031DC82B8312D00A83163E0840
:1007800083125002031DC62B0130CB00CA2B8316E7
:100790008312D00183163C08BD000430BE008312D2
:1007A00051087A20F80083163D02031DE32B8312C3
:1007B000D10A83163E0883125102031DE12B01303A
:1007C000CC00E52B83168312D10183163C08BD00B3
:1007D00083123D23EC2BC6018C128A110A122D289C
:1007E000A0308400831300080319032C0630F8009E
:1007F000F701F70BF92BF80BF82B7B30F700F70B11
:10080000FF2B800BF62B08008316081008118810A8
:1008100083120811831608110816881608178817FE
:10082000831288148316881000008312081483161C
:1008300008100000A801081600308312081A0130C1
:100840008316A804881600308312881A0130F70036
:100850000310F70D77088316A804081700308312D9
:10086000081B0130F700F70DF70DFC30F70577088E
:100870008316A804881700308312881B0130F70004
:10088000F70DF70DF70DF830F70577088316A80474
:100890002808F8007808A7008312081083160810AB
:1008A00000008312081483160810562C572C0000E1
:1008B000A801081600308312081A01308316A80414
:1008C000881600308312881A0130F7000310F70DE4
:1008D00077088316A804081700308312081B01301C
:1008E000F700F70DF70DFC30F70577088316A8041D
:1008F000881700308312881B0130F700F70DF70DC1
:10090000F70DF830F70577088316A8042808F800D3
:100910007808A6008312081083160810081288129F
:1009200008138813270EF700F030F7057708260420
:10093000F8007808A600A61B0C2CA408031DA42C04
:1009400083120811A62C831683120815831608112A
:10095000000083128810831688100000831208108C
:1009600083160810250EA6000F30A6052608A7003E
:100970002718BE2C83120812C02C83168312081667
:1009800083160812A718C82C83128812CA2C831643
:1009900083128816831688122719D22C8312081303
:1009A000D42C83168312081783160813A719DC2C7E
:1009B00083128813DE2C83168312881783168813FC
:1009C000000083120814831608100230F700F70B9A
:1009D000E72CEA2C00008312081083160810250863
:1009E0000F39A6002608A7002718FA2C8312081230
:1009F000FC2C83168312081683160812A718042DE0
:100A000083128812062D8316831288168316881285
:100A100027190E2D83120813102D83168312081721
:100A200083160813A719182D831288131A2D8316FD
:100A30008312881783168813000083120814831604
:100A400008100230F700F70B232D262D000083122B
:100A5000081083160810831208002830F3000C30A9
:100A6000F4000130F5000630F60008108316081077
:100A700083120811831608118312881083168810B8
:100A800008128812081388130810081188100F30F4
:100A9000A0008312F0230130F2007208033C031C13
:100AA000912D03308316A70027185A2D83120812A0
:100AB0005C2D83168312081683160812A718642D5E
:100AC00083128812662D8316831288168316881265
:100AD00027196E2D83120813702D831683120817A1
:100AE00083160813A719782D831288137A2D83167D
:100AF0008312881783168813000083120814831644
:100B000008100230F700F70B832D862D00008312AA
:100B10000810831608100530A0008312F023F20A93
:100B20004D2D02308316A70027189A2D8312081224
:100B30009C2D83168312081683160812A718A42D5D
:100B400083128812A62D83168312881683168812A4
:100B50002719AE2D83120813B02D831683120817A0
:100B600083160813A719B82D83128813BA2D83167C
:100B700083128817831688130000831208148316C3
:100B800008100230F700F70BC32DC62D00008312AA
:100B90000810831608100530A0008312F023F2011C
:100BA0007208033C031CE22D733072078400831328
:100BB0000008FB008316A4017B08A500831204240F
:100BC000F20AD02D8A150A12182FF501C808031D44
:100BD000072E4A0BF02DCF01CA010130F500062E79
:100BE000490BF72DCE01C9010230F500062E4B0B43
:100BF000FE2DD001CB010330F500062E4C0B062E46
:100C0000D101CC010130C8000430F500E62DC80147
:100C10007508F80008000B08FB008B1383160317F8
:100C20008C170C1400000000FB1F1B2E83120313F3
:100C30008B178316031783120C087F3903195B2E59
:100C4000FB000D08FC000F08FD007B0803130C1EC1
:100C5000272E99007C0803178D007D088F00031351
:100C60000B08FE008B13831603178C170C1400005F
:100C70000000FE1F402E831203138B1783160317E9
:100C800083120C0D0E0D7F3903195B2EFB000D082E
:100C9000FC000F08FD007B0803130C1E4D2E99006D
:100CA0007C0803178D007D088F008D0A03198F0AB9
:100CB00003130B2E0317031308007E08073A0319CA
:100CC0006B2E0B3A0319822E063A03198E2E023A26
:100CD0000319A62EAD2E01308316A000A100210B12
:100CE000722E752E4030A200762EA2010130200215
:100CF000A20722088038A300A4012308A5008312BC
:100D00000424B42E8316A4010130A5008312042408
:100D100002308316A0008312F023B42E0130831614
:100D2000A0000230A100210B962E992E4030A20087
:100D30009A2EA20101302002A20722088038A300C7
:100D4000A4012308A50083120424B42E8316A40151
:100D50001030A50083120424B42E01308316A400A1
:100D60007E08A5008312042408000B08FC008B13E6
:100D7000831603178C170C1400000000FC1FC52EEF
:100D8000831203138B178316031783128C0803191E
:100D9000DC2E0D08FC000F08FD000C08FE000313FC
:100DA0005D267C0803178D007D088F008D0A0319CE
:100DB0008F0A0313B52E0317031308000B08FB005B
:100DC0008B13831603178C170C1400000000FB1FF5
:100DD000EE2E831203138B178316031783120C084E
:100DE0007F3903192C2FFB000D08FC000F08FD00B4
:100DF0007B08FE0003135D267C0803178D007D0829
:100E00008F0003130B08FE008B13831603178C1738
:100E10000C1400000000FE1F122F831203138B1707
:100E20008316031783120C0D0E0D7F3903192C2F17
:100E3000FB000D08FC000F08FD007B08FE000313FB
:100E40005D267C0803178D007D088F008D0A03192D
:100E50008F0A0313DE2E031703130800F201F301B8
:100E6000720EF700F030F7057708F4000C30FE0042
:100E70005D26823003178D0000308F0074088D07C7
:100E800003188F0A0313B52601308316A000023021
:100E9000A100210B4C2F4F2F4030A200502FA20158
:100EA00001302002A20722088038A300A4012308F1
:100EB000A50083120424B83003178D0002308F0080
:100EC0000313DE26F308031DCF2F831606168312A5
:100ED000061AB42F0230F400FA308316A0008312F1
:100EE000F023F40B6C2F0430FC00B930FB00FE0142
:100EF0001430FD008A1554228A11F20A7208410248
:100F0000031CF201720EF700F030F7057708F400C9
:100F10000C30FE005D26823003178D0000308F00FC
:100F200074088D0703188F0A0313B5260130831642
:100F3000A0000230A100210B9E2FA12F4030A20063
:100F4000A22FA20101302002A20722088038A300AC
:100F5000A4012308A50083120424B83003178D00D0
:100F600002308F000313DE26831686168312861A3C
:100F7000CE2F0230F400FA308316A0008312F02343
:100F8000F40BBB2F0430FC00B930FB00FE01143021
:100F9000FD008A1554228A110130F300622F0130BE
:100FA0007207F8008A150A12262FF701F8017B084C
:100FB00003107C18F707F70CF80CFC18F707F70C70
:100FC000F80C7C19F707F70CF80CFC19F707F70C6D
:100FD000F80C7C1AF707F70CF80CFC1AF707F70C5B
:100FE000F80C7C1BF707F70CF80CFC1BF707F70C49
:040FF000F80C0800F1
:101000003330F200F301F6015230F50018300317C7
:101010008D0003308F0003100A30FB0003130B0810
:101020008316A00083128B13831603178C170C14DE
:10103000000000000313A01F202883128B178316C3
:1010400003185A28831203170C087F3983160313D9
:10105000A000831203170D0883160313A100831247
:1010600003170F0883160313A200200883120C1E17
:101070003728990083162108831203178D008316E1
:1010800003132208831203178F0003130B08831620
:10109000A30083128B13831603178C170C14000004
:1010A00000000313A31F572883128B178316FB0B13
:1010B0005A288628831203170C0D0E0D7F398316CC
:1010C0000313A000831203170D0883160313A10056
:1010D000831203170F0883160313A200200883123C
:1010E0000C1E7028990083162108831203178D00A7
:1010F000831603132208831203178F008D0A031926
:101100008F0A0310FB0B0E28831603137508840047
:1011100083137618831780080319A328FC01040899
:10112000FB007C10831B7C14000883120C1E962885
:1011300099007B08840083137C188317840A0319A1
:10114000850A83168B280D3083120C1EA528990062
:101150000A300C1EA92899000130F8007808C60052
:101160008A11E5258A15203003178D0003308F0082
:101170008A1103130B268A150230F8007808C6007E
:101180008A11E5258A157808F4007408023C031DCD
:10119000272AF6015430F500263003178D0003305E
:1011A0008F0003100930FB0003130B088316A00007
:1011B00083128B13831603178C170C140000000086
:1011C0000313A01FE62883128B1783160318202908
:1011D000831203170C087F3983160313A0008312B0
:1011E00003170D0883160313A100831203170F08BA
:1011F00083160313A200200883120C1EFD289900F9
:1012000083162108831203178D0083160313220807
:10121000831203178F0003130B088316A300831296
:101220008B13831603178C170C1400000000031394
:10123000A31F1D2983128B178316FB0B20294C2912
:10124000831203170C0D0E0D7F3983160313A000B4
:10125000831203170D0883160313A10083120317CB
:101260000F0883160313A200200883120C1E3629D0
:10127000990083162108831203178D008316031328
:101280002208831203178F008D0A03198F0A031097
:10129000FB0BD42883160313750884008313761878
:1012A0008317800803196929FC010408FB007C10DE
:1012B000831B7C14000883120C1E5C2999007B0898
:1012C000840083137C188317840A0319850A831604
:1012D00051290330F80078088312C6008A11E525E9
:1012E0008A157808F4007408043C031D272AF601C7
:1012F0007230F500183003178D0003308F00031093
:101300000A30FB0003130B088316A00083128B1313
:10131000831603178C170C14000000000313A01F82
:10132000942983128B1783160318CE29831203176F
:101330000C087F3983160313A000831203170D08CE
:1013400083160313A100831203170F0883160313D8
:10135000A200200883120C1EAB29990083162108D5
:10136000831203178D0083160313220883120317B9
:101370008F0003130B088316A30083128B138316AD
:1013800003178C170C14000000000313A31FCB29B4
:1013900083128B178316FB0BCE29FA2983120317AE
:1013A0000C0D0E0D7F3983160313A0008312031753
:1013B0000D0883160313A100831203170F08831669
:1013C0000313A200200883120C1EE429990083163F
:1013D0002108831203178D0083160313220883123A
:1013E00003178F008D0A03198F0A0310FB0B822944
:1013F00083160313750884008313761883178008F7
:101400000319172AFC010408FB007C10831B7C14C1
:10141000000883120C1E0A2A99007B08840083139B
:101420007C188317840A0319850A8316FF290D3057
:1014300083120C1E192A99000A300C1E1D2A9900CD
:101440000130F8007808C6008A11E5258A152C308D
:1014500003178D0003308F008A1103130B268A15A2
:101460000430F500FA308316A0008A118312F023AD
:101470008A15F50B322A333003178D0003308F00A5
:101480008A1103130B268A150430F500FA308316EF
:10149000A0008A118312F0238A15F50B462A033027
:1014A000F8008A150A121E2F8316A101A001A301BC
:1014B000A201FC08031D602A7B08133C0318A12B22
:1014C0007C084E3C031CA12B031D6A2A7B08203C90
:1014D000031CA12BA9010130A8008630A700A03071
:1014E000A60083102908AD002808AC002708AB002F
:1014F0002608AA00B101B0017C08AF007B08AE004D
:101500008318852AB23084008313F701F801F901AA
:10151000FA01B201B301B401B501310830042F045E
:101520002E040319C32A2030B6000310AA0DAB0DF8
:10153000AC0DAD0DB20DB30DB40DB50D31083502C6
:10154000031DAC2A30083402031DAC2A2F083302D5
:10155000031DAC2A2E083202031CBD2A2E08B2023B
:101560002F08031C2F0FB3023008031C300FB402E6
:101570003108031C310FB5020314F70DF80DF90DF6
:10158000FA0DB60B952A32088000840A33088000D1
:10159000840A34088000840A350880007A08A9008B
:1015A0007908A8007808A7007708A6002908AD00E8
:1015B0002808AC002708AB002608AA00B101B0013A
:1015C000AF010530AE002030B600B201B301B40166
:1015D000B5012D08FA002C08F9002B08F8002A089C
:1015E000F7000310771C022B2E08B2072F080318F0
:1015F0002F0FB30730080318300FB4073108031852
:10160000310FB507B50CB40CB30CB20CFA0CF90CD5
:10161000F80CF70CB60BF12A7A08A9007908A80093
:101620007808A7007708A6002708A5002608A400C8
:1016300006118312061583162508AA00AA0AAA0312
:101640000319332BFF30AB000330AB02031C322BEA
:10165000AB308400831300080319322B302B302B5E
:10166000800B2F2B1F2B2408AB000330AB02031C75
:10167000432BAB308400831300080319432B412B09
:10168000412B800B402B2408A20725080318250FA7
:10169000A30706118312061183162508AA00AA0AB9
:1016A000AA030319642BFF30AB000330AB02031C09
:1016B000632BAB308400831300080319632B612B69
:1016C000612B800B602B502B2408AB000330AB0246
:1016D000031C742BAB308400831300080319742B94
:1016E000722B722B800B712B2408A207250803187C
:1016F000250FA3071930A2070318A30A2308023CE9
:101700000318972BFF3A031D892B2208E73C031887
:10171000972BE830A2020330031C0430A302A00A76
:101720000319A10A1930A2070318A30A7E2B210866
:101730007E02031CA12B031D182B7D082002031C15
:10174000182B8312080076080739F700760CF8008A
:10175000F80CF80C1F30F80578087C078400831318
:101760007D188317F801F80AF70AB72BF80DF70B65
:10177000B62BFB080319BF2B78088004C22BF8098D
:10178000780880050800F201F3017208FB000F30B1
:10179000FC008A11D5278A157808F4000C30FE0069
:1017A0008A115D268A15C23003178D0000308F0024
:1017B00074088D0703188F0A8A110313B5268A153A
:1017C00001308316A0000230A100210BE82BEB2B87
:1017D0004030A200EC2BA20101302002A207220817
:1017E0008038A300A4012308A5008A1183120424D1
:1017F0008A15B83003178D0002308F008A11031349
:10180000DE268A15F308031D972C8316061683120D
:10181000061A5F2C0230F400FA308316A0008A11F9
:101820008312F0238A15F40B0C2C0430FC00B93021
:10183000FB00FE011430FD005422F20A720842023D
:10184000031CF2017208FB000F30FC008A11D5273F
:101850008A157808F4000C30FE008A115D268A157E
:10186000C23003178D0000308F0074088D070318F5
:101870008F0A8A110313B5268A1501308316A0003A
:101880000230A100210B452C482C4030A200492CED
:10189000A20101302002A20722088038A300A4017F
:1018A0002308A5008A11831204248A15B83003176F
:1018B0008D0002308F008A110313DE268A158316ED
:1018C00086168312861A962C0230F400FA3083169C
:1018D000A0008A118312F0238A15F40B662C0430C1
:1018E000FC00B930FB00FE011430FD005422420818
:1018F0007202031D7E2C0130F300962C0310720D32
:101900002B3E84008313840A0008F500840300083A
:10191000F400F6000130FB00FD01FC01A323740874
:10192000F600FB01FD018030FC00A323022C0030F7
:10193000F8008A150A122B2FF201F301720EF7003C
:10194000F030F7057708F4000C30FE008A115D26B0
:101950008A15583003178D0001308F0074088D07E9
:1019600003188F0A8A110313B5268A1501308316CE
:10197000A0000230A100210BBE2CC12C4030A200DF
:10198000C22CA20101302002A20722088038A30045
:10199000A4012308A5008A11831204248A15B830F3
:1019A00003178D0002308F008A110313DE268A157B
:1019B000F308031D692D831606168312061A322DAD
:1019C0000230F400FA308316A0008A118312F0234B
:1019D0008A15F40BE22C0430FC00B930FB00FE0148
:1019E0001430FD005422F20A72084302031CF20173
:1019F000720EF700F030F7057708F4000C30FE00A7
:101A00008A115D268A15583003178D0001308F002A
:101A100074088D0703188F0A8A110313B5268A15D7
:101A200001308316A0000230A100210B182D1B2DC0
:101A30004030A2001C2DA20101302002A207220882
:101A40008038A300A4012308A5008A11831204246E
:101A50008A15B83003178D0002308F008A110313E6
:101A6000DE268A15831686168312861A682D0230A2
:101A7000F400FA308316A0008A118312F0238A152D
:101A8000F40B392D0430FC00B930FB00FE0114309A
:101A9000FD00542243087202031D512D0130F30052
:101AA000682D0310720D2B3E84008313840A0008F6
:101AB000F50084030008F400F600FB01FD01FC01C1
:101AC000A3237408F600FB01FD018030FC00A32372
:101AD000D82C0030F8008A150A122F2FF201F301DA
:101AE0007208FB001130FC008A11D5278A1578088E
:101AF000F4000C30FE008A115D268A15F8300317B9
:101B00008D0001308F0074088D0703188F0A8A1129
:101B10000313B5268A1501308316A0000230A100F8
:101B2000210B932D962D4030A200972DA20101305C
:101B30002002A20722088038A300A4012308A500E0
:101B40008A11831204248A15B83003178D000230DD
:101B50008F008A110313DE268A15F308031D6E2EEB
:101B6000831606168312061A0A2E0230F400FA3083
:101B70008316A0008A118312F0238A15F40BB72D67
:101B80000430FC00B930FB00FE011430FD0054228B
:101B9000F20A72084402031CF2017208FB001130C1
:101BA000FC008A11D5278A157808F4000C30FE0055
:101BB0008A115D268A15F83003178D0001308F00D9
:101BC00074088D0703188F0A8A110313B5268A1526
:101BD00001308316A0000230A100210BF02DF32D5F
:101BE0004030A200F42DA20101302002A2072208F9
:101BF0008038A300A4012308A5008A1183120424BD
:101C00008A15B83003178D0002308F008A11031334
:101C1000DE268A15831686168312861A6D2E0230EA
:101C2000F400FA308316A0008A118312F0238A157B
:101C3000F40B112E0430FC00B930FB00FE0114300F
:101C4000FD00542244087202031D292E0130F300C6
:101C50006D2E7208F4000A168A1100280A128A15DD
:101C60007208FB001130FC008A11D5278A1578080C
:101C7000F4000C30FE008A115D268A15F830031737
:101C80008D0001308F0074088D0703188F0A8A11A8
:101C90000313B5268A1501308316A0000230A10077
:101CA000210B532E562E4030A200572EA201013098
:101CB0002002A20722088038A300A4012308A5005F
:101CC0008A11831204248A15B83003178D0002305C
:101CD0008F008A110313DE268A15AD2D0030F8001F
:101CE0008A150A12332F03081F398300831603173E
:101CF000871508300313990002309A00A630980027
:101D00009030831298008316061083120614023056
:101D1000C1000830C200C3000530C4000330C50054
:101D2000C601C701C801C901CA01CB01CC01CD015F
:101D3000CE01CF01D001D101F101831603170908AB
:101D4000C039890003131F129F1200300317880047
:101D5000831287018801890183134A300313AB0082
:101D6000AC014930AD00AE014830AF00B0012C30BD
:101D7000B100B2012830B300B4012930B500B6017A
:101D80002A30B700B8012B30B900BA01BB01BC0141
:101D90003130D200D3012230D4005530D5004E303E
:101DA000D6004530D7005F30D8004330D9003030FE
:101DB000DA003630DB004530DC002230DD002C302C
:101DC000DE002230DF003030E000E1003930E20098
:101DD0003830E3003630E4003330E5003430E600DC
:101DE000E7003230E8003030E900EA003730EB003D
:101DF000EC003130ED002230EE000D30EF000A3003
:101E0000F0000230F200FA308316A0008A1183122B
:101E1000F0238A15F20B032F3030831695008113BF
:101E2000323086008C16C03083128B048A112D2D1F
:101E30008A15831688118312881500287108FC3EC4
:101E40000318352F043E372F8A112E2F8A15780854
:101E5000F100352FC32B7808F100352F9C2C780822
:101E6000F100352F6E2D7808F1001E2F63000A1443
:0E1E70008A140A158207242F2A2F2E2F322FB4
:102000007408FA3E0318872A063E8A2AC13003174D
:102010008D0002308F000A120313DE260A160C30E0
:102020008316A0000230A100210B17281A28403087
:10203000A2001B28A20101302002A207220880383A
:10204000A300A4012308A5000A12831204240A167F
:10205000B53003178D0002308F000A120313DE26FD
:102060000A16831686168312861A42280230FB004F
:10207000FA308316A0000A128312F0230A16FB0B13
:10208000382843283128872AC83003178D000230AA
:102090008F000A120313DE260A160C308316A000E6
:1020A0000230A100210B552858284030A2005928A1
:1020B000A20101302002A20722088038A300A40157
:1020C0002308A5000A12831204240A16B530031748
:1020D0008D0002308F000A120313DE260A168316C3
:1020E00086168312861A80280230FB00FA30831687
:1020F000A0000A128312F0230A16FB0B762881280F
:102100006F28872ACD3003178D0002308F000A1206
:102110000313DE260A160C308316A0000230A1003D
:10212000210B932896284030A2009728A201013065
:102130002002A20722088038A300A4012308A500DA
:102140000A12831204240A16B53003178D000230D8
:102150008F000A120313DE260A16831686168312D0
:10216000861ABE280230FB00FA308316A0000A123D
:102170008312F0230A16FB0BB428BF28AD28872A48
:10218000F501F6017508FB000E30FC000A12D52798
:102190000A167808FB000C30FE000A125D260A16AB
:1021A0006F3003178D0002308F007B088D070318F6
:1021B0008F0A0A120313B5260A1601308316A000EF
:1021C0000230A100210BE528E8284030A200E928D0
:1021D000A20101302002A20722088038A300A40136
:1021E0002308A5000A12831204240A16B830031724
:1021F0008D0002308F000A120313DE260A16F6083D
:10220000031D372A831606168312061A6029023028
:10221000FB00FA308316A0000A128312F0230A167C
:10222000FB0B09290430FC00B930FB00FE0114301F
:10223000FD000A128A1554220A168A11F50A750839
:102240004502031CF5017508FB000E30FC000A1264
:10225000D5270A167808FB000C30FE000A125D260E
:102260000A166F3003178D0002308F007B088D0730
:1022700003188F0A0A120313B5260A1601308316B3
:10228000A0000230A100210B462949294030A200BC
:102290004A29A20101302002A20722088038A300A7
:1022A000A4012308A5000A12831204240A16B830D8
:1022B00003178D0002308F000A120313DE260A1660
:1022C000831686168312861A362A0230FB00FA30ED
:1022D0008316A0000A128312F0230A16FB0B67294B
:1022E0000430FC00B930FB00FE011430FD000A127E
:1022F0008A1554220A168A1145087502031D83297E
:102300000130F600362A750803198D29013A0319A0
:10231000A029033A0319B329C529E13003178D0019
:1023200002308F000A1203130B260A16EA30031735
:102330008D0002308F000A120313DE260A16C5290B
:10234000F23003178D0002308F000A1203130B26A0
:102350000A16FB3003178D0002308F000A12031398
:10236000DE260A16C529013003178D0003308F00C1
:102370000A1203130B260A160A3003178D000330C6
:102380008F000A120313DE260A160C308316A000F3
:102390000230A100210BCD29D0294030A200D12943
:1023A000A20101302002A20722088038A300A40164
:1023B0002308A5000A12831204240A16B530031755
:1023C0008D0002308F000A120313DE260A168316D0
:1023D00086168312861AF8290230FB00FA3083161B
:1023E000A0000A128312F0230A16FB0BEE29F9292A
:1023F000E7297508FB000E30FC000A12D5270A16E3
:102400007808FB000C30FE000A125D260A166F30B9
:1024100003178D0002308F007B088D0703188F0A89
:102420000A120313B5260A1601308316A0000230E3
:10243000A100210B1C2A1F2A4030A200202AA20141
:1024400001302002A20722088038A300A40123083B
:10245000A5000A12831204240A16B83003178D004F
:1024600002308F000A120313DE260A16FF28872A7D
:1024700083168811083083128806881D492AD230B5
:1024800003178D0002308F000A120313DE260A168E
:10249000522AD93003178D0002308F000A1203131D
:1024A000DE260A160C308316A0000230A100210B94
:1024B0005A2A5D2A4030A2005E2AA2010130200281
:1024C000A20722088038A300A4012308A5000A124D
:1024D000831204240A16B53003178D0002308F00D2
:1024E0000A120313DE260A16831686168312861A2C
:1024F000852A0230FB00FA308316A0000A128312EC
:10250000F0230A16FB0B7B2A862A742A872A8A154F
:102510000A122E2E0A108A140A118207062844284D
:082520008228C028382A872A0E
:04400E00E22FFF3E60
:00000001FF
;PIC16F887
;CRC=FEAA  CREATED="04-dic.-17 21:32"
