:0400000080EF14F089
:08000800046ED8CF05F0E0CF33
:1000100006F00001E9CF0CF0EACF07F0E1CF08F0DD
:10002000E2CF09F0D9CF0AF0DACF0BF0F3CF12F01C
:10003000F4CF13F0FACF14F000C00EF001C00FF0AF
:1000400002C010F003C011F09DAA2AEF00F09EBA82
:10005000B4EF05F00EC000F00FC001F010C002F0C8
:1000600011C003F00CC0E9FF07C0EAFF078E08C00B
:10007000E1FF09C0E2FF0AC0D9FF0BC0DAFF12C0DE
:10008000F3FF13C0F4FF14C0FAFF045006C0E0FFF2
:1000900005C0D8FF1000F2CF0DF0F29EF76AB00F46
:1000A000F66E000EF7220900F5500DBEF28E12001A
:1000B000227C217C207C047C007C017C027C037CF3
:1000C000F76AD00FF66E000EF7220900F550120005
:1000D0002B4950442C00F76AE60FF66E000EF7220B
:1000E0000900F5501200434D443AF76AFA0FF66ED4
:1000F000000EF7220900F55012004F4B0D0A0000C8
:10010000F76A100FF66E010EF7220900F550120083
:100110004E6F20417000F76A260FF66E010EF7222F
:100120000900F55012002B43574A41503A00F76A34
:100130003E0FF66E010EF7220900F5501200434FF4
:100140004E4E454354454400F76A580FF66E010E73
:10015000F7220900F55012004641494C0000415475
:100160002B43495053454E443D25632C25750D0ABC
:10017000000041542B434950434C4F53453D2563A8
:100180000D0A000041542B43495053454E443D2530
:10019000632C25750D0A000041542B434950434CF4
:1001A0004F53453D25630D0A000041542B435751E1
:1001B00041500A0D000041542B43495053454E44D1
:1001C0003D25632C25750D0A000041542B434950F1
:1001D000434C4F53453D25630D0A000041542B43CA
:1001E000575341505F4445463D25732C312C340D07
:1001F0000A0041542B43495053454E443D25632C3E
:1002000025750D0A000041542B434950434C4F5370
:10021000453D25630D0A000041542B434950534589
:100220004E443D25632C25750D0A000041542B4397
:100230004950434C4F53453D25630D0A000041543E
:100240002B5253540D0A000041542B43574D4F4439
:10025000453D25630D0A000041542B43574A415048
:100260003F0D0A0041542B43574A41503D2573002E
:1002700041542B43574D4F44453D25630D0A000023
:1002800041542B4349504D55583D310D0A004154BE
:100290002B4349505345525645523D312C38300D71
:1002A0000A00456E63656E646572204D616E75610E
:1002B0006C004170616761646F204D616E75616CA7
:1002C0002000436F6E66696775726163696F6E20A7
:1002D00020000000000000000000000000000000FE
:1002E00000004553544143494F4E2049502020209F
:1002F0002020004553544143494F4E205353494415
:100300002020200041502053534944202020202009
:1003100020202020004150204B4559202020202023
:100320002020202020004150204950202020202043
:1003300020202020202000436F6E662041636365EB
:1003400073736F2052656400426F72726172206134
:100350002046616272696361004F6E2F4F666620AE
:100360004261636B6C696768740053414C49522069
:1003700020202020202020202020000045737461B0
:100380006369F36E2020202020004163636573734E
:1003900020506F696E7420004573746163696F6EDD
:1003A000202B2041500053414C4952202020202036
:1003B00020202000000000000000000000000000DD
:1003C000000053414C4952005B5349475D202020B7
:1003D0002020205B454E545D00000C4F6E202D3ECA
:1003E000202573000C4F6E202D3E202573000C4FEE
:1003F00066662D3E202573000C4F66662D3E202537
:10040000730041542B43494653520D0A00000C43DC
:10041000617267616E646F2E2E2E000041542B4373
:10042000494653520D0A00000C43617267616E64C5
:100430006F2E2E2E000041542B43574A41503F0D42
:100440000A000C43617267616E646F2E2E2E0000ED
:100450000C446573686162696C697461646F000063
:1004600041542B43575341503F0D0A000C436172D6
:1004700067616E646F2E2E2E00000C4465736861F8
:1004800062696C697461646F000041542B43575377
:1004900041503F0D0A000C43617267616E646F2E1C
:1004A0002E2E00000C446573686162696C6974618A
:1004B000646F00000C426F7272616E646F2045457C
:1004C0004550524F4D000C426F7272616E646F2046
:1004D0005245440041542B43575141500A0D0000EE
:1004E00041542B5253540A0D000041542B4357538F
:1004F00041505F4445463D224B72697665722053F8
:100500006D617274486F6D65222C226B726976651D
:10051000723536313036222C312C340D0A000C4223
:1005200061636B6C69676874204F6E000C42616395
:100530006B6C69676874204F6666000041542B43FA
:10054000574D4F44455F4445463D310D0A000C432D
:100550006F6E66696720436C69656E74650041540F
:100560002B43574D4F44455F4445463D320D0A00ED
:100570000C436F6E666967204150000041542B4365
:10058000574D4F44455F4445463D330D0A000C43EB
:100590006F6E66696720436C69656E7465415000D3
:1005A0000101C66BC76BBB51FB0FD8B072D0050FF2
:1005B0000001C9EF03F0010EEA6EBC0EE96EF2CF46
:1005C000C8F1F29E000E91DD0A000900F550EE6EB2
:1005D0000009FBE10101C8BFF28E040EC66F010ED7
:1005E000C76F57D0010EEA6EBC0EE96EF2CFC8F1AC
:1005F000F29E000E85DD0A000900F550EE6E00093E
:10060000FBE10101C8BFF28E050EC66F42D0010E9C
:10061000EA6EBC0EE96EF2CFC8F1F29E000E7BDDF1
:100620000A000900F550EE6E0009FBE10101C8BFA8
:10063000F28E070EC66F2DD0010EEA6EBC0EE96E6B
:10064000F2CFC8F1F29E000E72DD0A000900F550EB
:10065000EE6E0009FBE10101C8BFF28E090EC66F04
:1006600018D0010EEA6EBC0EE96EF2CFC8F1F29E10
:10067000000E6ADD0A000900F550EE6E0009FBE18C
:100680000101C8BFF28E040EC66F010EC76F01D004
:1006900001015C50060DF350C96BC86F036ABB5172
:1006A000C825016EC951032201505F0FE96E000E8B
:1006B0000320EA6E036AEF50BC0FE96E010E0320BF
:1006C000EA6EEF50BA5D3DE15C50060DF350C96B28
:1006D000C86F036ABB51C825016EC951032201507E
:1006E0005F0FE96E000E0320EA6EEF2A5C50060DE4
:1006F000F350C96BC86F036ABB51C825016EC9515D
:10070000032201505F0FE96E000E0320EA6EC6510E
:10071000EF5C14E15D50060DF350C96BC86F036ABE
:10072000BB51C825016EC951032201505F0FE96E0C
:10073000000E0320EA6E010EEF6E02D0BB5300E103
:1007400026D05C50060DF350C96BC86F036ABB51CD
:10075000C825016EC951032201505F0FE96E000EDA
:100760000320EA6EEF6AC72D12D05D50060DF350DC
:10077000C96BC86F036ABB51C825016EC9510322FA
:1007800001505F0FE96E000E0320EA6EEF6A000170
:100790001200E824F76AF736AD0FF66E070EF7225F
:1007A0000A00F550FA6E0800F550F96EB6050E060F
:1007B000E40538066206BB2D2BD00101BA51220890
:1007C0000EE10001C151310803E0C151320804E1DA
:1007D000060EBB6FBC6B01D0BC6B19D001010001D0
:1007E000C15131080AE1036ABC517B0FE96E000E6A
:1007F0000320EA6EBAC1EFFF09D0036ABC516B0F48
:10080000E96E000E0320EA6EBAC1EFFFBC2B18D0D0
:10081000BB51050815E10101BA51220806E1060E97
:100820000001BB6FBC6B0CD00101036A0001BC511D
:100830007B0FE96E000E0320EA6EBAC1EFFFBC2BFE
:100840000101BA5122080AE10001BB51FB0F05E288
:10085000050F31EF04F0BB2BBC6B0101000184EFED
:1008600005F0E824F76AF7367D0FF66E080EF722DA
:100870000A00F550FA6E0800F550F96E5608560851
:10088000560856085608BD2D12D00101BA5122084B
:100890000CE0036A0001BE518B0FE96E000E0320CD
:1008A000EA6EBAC1EFFFBE2B010118D00001BD51A5
:1008B000030813E10101BA5122080DE0036A0001A7
:1008C000BE519B0FE96E000E0320EA6EBAC1EFFF26
:1008D000BE2B03D001010001BE6B0101BA512208F9
:1008E0000AE10001BD51FC0F05E2040F7EEF04F0A8
:1008F000BD2BBE6B010100018EEF05F0E824F76A05
:10090000F736170FF66E090EF7220A00F550FA6E49
:100910000800F550F96EF008F008F008F008BF2D57
:100920000FD00101BA5122080CE0036A0001C05146
:10093000AB0FE96E000E0320EA6EBAC1EFFFC02BC9
:100940000101BA51220809E10001BF5103E0010A87
:1009500001E002D0BF2BC06B0101000198EF05F050
:10096000050E0101BC6F552C13D0BA512C0802E1C1
:10097000BB530BE0036A59501C0FE96E000E0320B5
:10098000EA6EBAC1EFFF592A02D0596A556A19D0E6
:10099000036A5950F2CFBDF1F29E000160EC00F005
:1009A0000101BDBFF28E016EBA5D0AE1BB5308E1E1
:1009B000592ABC51595C03E1010E556E596A01D0A8
:1009C000596A0001A5EF05F0040E0101BC6F542C1B
:1009D00015D0BA512C0802E1BB530BE0036A585002
:1009E0001E0FE96E000E0320EA6EBAC1EFFF582A0F
:1009F00004D0586A546A010E566E19D0036A5850D2
:100A0000F2CFBDF1F29E00016BEC00F00101BDBF21
:100A1000F28E016EBA5D0AE1BB5308E1582ABC515F
:100A2000585C03E1010E546E586A01D0586A000107
:100A3000ABEF05F0562C21D00101BA513A0802E182
:100A4000BB5317E0036A5A50200FE96E000E0320D3
:100A5000EA6EBAC1EFFF536A5AC052F05A5207E128
:100A6000BA512C0804E1BB5302E15A6A01D05A2A58
:100A700004D05A6A566A010E576E0001B1EF05F0B4
:100A80005B50010A0DE0030A12E0010A25E0060AA4
:100A900038E0030A40E0010A48E0030A50E04FD082
:100AA000B9C1BAF10101BB6B00017ADD5BD0B9C1FC
:100AB000BAF1020E0101BB6F000172DDB9C1BAF1DA
:100AC000010E0101BB6F00016BDDB9C1BAF101017B
:100AD000BB6B000165DD46D0B9C1BAF1030E01015F
:100AE000BB6F00015DDDB9C1BAF1040E0101BB6F3E
:100AF000000156DDB9C1BAF10101BB6B000150DD47
:100B000031D0B9C1BAF157D6B9C1BAF10101BB6B45
:100B1000000146DD27D0B9C1BAF1B5D6B9C1BAF1E5
:100B20000101BB6B00013CDD1DD0B9C1BAF1F7D6A4
:100B3000B9C1BAF10101BB6B000132DD13D0010173
:100B4000BB6BB9C1BAF100010BD70101BB6BB9C1D5
:100B5000BAF1000139D70101BB6BB9C1BAF100018B
:100B600069D75B6ABDEF05F09EAAFED7AECFB8F19C
:100B70000101B8C1B9F1000183D79E9A2AEF00F0B4
:100B80000C496E696369616E646F2E2E2E00010E32
:100B9000EA6EB10EE96EEF500DE0060E016E006ACE
:100BA000002EFED7012EFBD77B0E006E002EFED747
:100BB000EF2EF3D712000101686BF2CF6BF1F29EBA
:100BC000AA6AA96AA69CA69EA680A8506BBFF28EB0
:100BD000686F683D01D044D0686B696B6951070844
:100BE00033E369510A0DF350280F686F6A6B6A513D
:100BF000090828E369510B0DF3506C6B6B6F036AA6
:100C00006A516B25016E6C5103220150F40FE96E9D
:100C1000000E0320EA6E6A5168256D6FF2CF6EF107
:100C2000F29EAA6A6DC1A9FFA69CA69EA680A850A6
:100C30006EBFF28EEF6E0A0EB16F0001A8DF0101E8
:100C40006A2BD5D7692BCAD70C0E4C6F530E4D6F3C
:100C5000410E4E6F4C0E4F6F490E506F520E516F3A
:100C6000000124EF15F0010179B102D08C9801D078
:100C70008C88959879B302D08C9A01D08C8A959AF9
:100C800079B502D08C9C01D08C8C959C79B702D020
:100C90008C9E01D08C8E959E00008C809590020ECB
:100CA000006E002EFED700D000008C9095900001C1
:100CB000120001017A6B9588000E83B8010E7A1339
:100CC000958A000E83BA010E006ED890003600504F
:100CD0007A13958C000E83BC010E006E0036003630
:100CE000FC0E001600507A13958E000E83BE010E86
:100CF000006E003600360036F80E001600507A13EB
:100D00007AC101F0000112009588958A958C958E24
:100D10008C82959200008C8095900000CADF01C003
:100D200079F18C90959000008C80959000D000D047
:100D30000000BFDF01C078F18C9095909598959A4E
:100D4000959C959E01017939006EF00E00160050B9
:100D50007811016E0001B3EF06F09590959495928D
:100D60008C949594D1D701C078F1010101AE02D0E5
:100D70000001F8D7765302E18C9401D08C849594CD
:100D800000008C92959200008C9095907739786F46
:100D90000F0E781778C179F1000165DF01017751F5
:100DA0000F0B786F796F00015EDF1200280E0101D2
:100DB000696F0C0E6A6F010E6B6F060E6C6F8C9074
:100DC00095908C9495948C9295929598959A959CE3
:100DD000959E9590959495920F0EB16F0001D7DE78
:100DE000010E0101686F685103080CE3030E796F6F
:100DF000000139DF050E0101B16F0001C8DE0101FC
:100E0000682BF1D7020E796F00012DDF050E01016D
:100E1000B16F0001BCDE0101686B6851030811E38A
:100E2000036A6851690FE96E010E0320EA6EEFCF85
:100E30006DF1766B6DC177F100018FDF0101682BD9
:100E4000ECD700012CEF15F00101732D01D003D078
:100E5000400E746F01D0746B010E725D7427745173
:100E60008009756F766B776F000177DF12000101E3
:100E70007151070A000107E00B0A0CE0060A16E0B0
:100E8000020A1CE022D0010E0101726F736F000193
:100E9000DBDF22D00101766B010E776F00015DDF91
:100EA000020E0101B16F000172DE16D0010E0101C8
:100EB000726F020E736F0001C7DF0ED00101766BF7
:100EC000100E776F000149DF07D0010E0101766F28
:100ED00071C177F1000141DF12000900F5520CE009
:100EE000F6CF6FF1F7CF70F1F5CF71F1C0DF6FC1C1
:100EF000F6FF70C1F7FFF1D712000900F5520DE0BF
:100F0000F6CFB0F1F7CFB1F1F5509EA8FED7AD6E98
:100F1000B0C1F6FFB1C1F7FFF0D712000900F6CF5C
:100F2000B1F1F7CFB2F1F5509EA8FED7AD6EB1C1C9
:100F3000F6FFB2C1F7FF0101B02F01D002D00001CE
:100F4000EDD70001120001016C6B6D6B5D50060D59
:100F5000F3506F6B6E6F5F0E6E25E96E000E6F21A2
:100F6000EA6EEF5252E16D2B5D50060DF3506F6B40
:100F70006E6F036A6D516E25016E6F510322015031
:100F80005F0FE96E000E0320EA6EEF2C39D05C5043
:100F9000060DF3506F6B6E6F036A6D516E25016E17
:100FA0006F51032201505F0FE96E000E0320EA6EBD
:100FB000EF6A5D50060DF3506F6B6E6F036A6D51F3
:100FC0006E25016E6F51032201505F0FE96E000E16
:100FD0000320EA6EEF6A6D51040803E06D510508C5
:100FE0000DE15D50060DF3506F6B6E6F5F0E6E2559
:100FF000E96E000E6F21EA6E010EEF6E6DC16CF1AD
:101000005E506D5D01E36D6BA1D75D50060DF35031
:101010006F6B6E6F5F0E6E25E96E000E6F21EA6ECC
:10102000EF6A5B6A0A0EB16F0001B1DD01016CC1AC
:1010300001F000011200EF5210E0EACFB1F1E9CF68
:10104000B0F1EF509EA8FED7AD6EB1C1EAFFB0C1BE
:10105000E9FFE92AD8B4EA2AEED712003E0EF66E6E
:10106000020EF76E4ADF0C0E01016A6FFA0EB16FC5
:1010700000018DDD01016A2FF9D7F2CF6AF1F29EEE
:10108000AA6AA96AA69CA69EA680A8506ABFF28EEC
:101090000001C16F0A0E0101B16F000178DDC1517D
:1010A000310A05E0030A03E0010A01E001D01CD087
:1010B000F250006EF29EAA6AA96A330EA86EA69C30
:1010C000A69EA6840F01550EA76EAA0EA76EA68235
:1010D000A6B2FED7A6940050F2120A0E0101B16F1B
:1010E000000155DD330EC16F480EF66E020EF76E2D
:1010F0000A0E0101B06F000111DFC1519EA8FED799
:10110000AD6E0D0E9EA8FED7AD6E0A0E9EA8FED740
:10111000AD6E010E5B6E320E0101B16F000137DD65
:10112000580EF66E020EF76EE8DE020E5B6E0BDFF7
:1011300001C068F1010168510208D8A475D0696B3B
:10114000036A6951C20FE96E000E0320EA6EEF5088
:101150000A0835E0036A6951C20FE96E000E0320E8
:10116000EA6E010E69256C6FF2CF6DF1F29EAA6AEC
:101170006CC1A9FFA69CA69EA680A8506DBFF28E4A
:10118000EF6E0A0EB16F000102DD036A01016951C1
:10119000C20FE96E000E0320EA6EEF3C03D0050E8D
:1011A000686F0DD0036A6951C20FE96E000E03200B
:1011B000EA6EEF500A0801E102D0692BC1D76851ED
:1011C000050812E0640EF66E020EF76E090EB06F9F
:1011D0000001A4DEEA6AC20EE96E2DDF030E5B6E2B
:1011E000B2DE01C068F101016851040803E06851F2
:1011F00005081AE1700EF66E020EF76E0A0EB06F59
:1012000000018CDE0401C6519EA8FED7AD6E0D0E06
:101210009EA8FED7AD6E0A0E9EA8FED7AD6E010E3B
:101220005B6E000190DE0101800EF66E020EF76E1D
:10123000000163DE040E01016A6FFA0EB16F000156
:10124000A6DC01016A2FF9D78E0EF66E020EF76E3C
:10125000000153DE040E01016A6FFA0EB16F000146
:1012600096DC01016A2FF9D7040E5B6E000136EFA0
:1012700015F0010E0101726F020E736F0001E4DDC3
:10128000C80EF66E030EF76E28DE12000101B35190
:10129000016AB25D03E2B2C100F00CD0006A080E30
:1012A000B46FB2370036B351005CD8B0006E01366F
:1012B000B42FF7D7000112000150B0C1B2F1640E93
:1012C0000101B36F0001E2DF00C0B0F10150300E48
:1012D00008E10101B1A30ED0B1B70CD0B1B9200E15
:1012E00004D00101B197B199B181012601509EA8A6
:1012F000FED7AD6EB0C1B2F10A0EB36F0001C6DF0A
:1013000000C0B0F10150300E08E10101B1B70BD0BF
:10131000B1A109D0B1B9200E0001012601509EA84B
:10132000FED7AD6E0101300EB027B0519EA8FED79A
:10133000AD6E000112000101B251070B006EB23117
:10134000016E013201321F0E01160150B425E96E03
:10135000000EB521EA6E016A012A002A01D0013689
:10136000002EFDD7B35303E00150EF1203D0011E4E
:101370000150EF160001120001016E6B6F6B706B74
:10138000716B0C0E726F7B0E736F220E746F630E97
:10139000756F6D0E766F640E776F220E786F3A0E52
:1013A000796F220E7A6F6F0E7B6F6B0E7C6F220E41
:1013B0007D6F7D0E7E6F7F6B572C2EEF0EF01E50D3
:1013C00052085BE11F50530858E11E0EB16F000137
:1013D000C7EC05F05E0EF66E010EF76E0B0E010106
:1013E000B06F00019BDD1C509EA8FED7AD6E2C0E89
:1013F0009EA8FED7AD6E72C1B0F11B0E0101B16F98
:1014000000015ADF0D0E9EA8FED7AD6E0A0E9EA8F3
:10141000FED7AD6E3C0E0101B16F0001C7EC05F0C7
:10142000010EEA6E730EE96E06DE780E0101B16FF1
:101430000001C7EC05F0720EF66E010EF76E0C0E91
:101440000101B06F00016ADD1C509EA8FED7AD6E91
:101450000D0E9EA8FED7AD6E0A0E9EA8FED7AD6EED
:10146000020E0101B06FFA0EB16F0001C7EC05F07A
:101470000101B02FF8D7010E6E6F1E504F085AE1D0
:101480001F50500857E1300E215C6F6F2050300A1A
:10149000000103E0010A27E04CD0D89001016F352C
:1014A000036AF2CFB0F1F29E00014BEC00F00900AC
:1014B000F5CF03F00101B0BFF28EB06F03C0B1F100
:1014C000B26FB36B0F0EB56F890EB46F000133DFCF
:1014D000B0C1B2F10101B36B0F0EB56F920EB46FD4
:1014E000000129DF26D0D89001016F35036AF2CFC1
:1014F000B0F1F29E00014BEC00F00900F5CF03F0D3
:101500000101B0BFF28EB06F03C0B1F1B26F010E36
:10151000B36F0F0EB56F890EB46F00010CDFB0C151
:10152000B2F10101B36B0F0EB56F920EB46F0001F3
:1015300002DF01011E504E08D8A402D11F504308FB
:10154000D8A4FED0010E716F71511B081EE3F2503A
:10155000006EF29EAA6A71C1A9FFA868A69CA69E09
:10156000A6840F01550EA76EAA0EA76EA682A6B27C
:10157000FED7A6940050F2120A0E0101B16F0001CD
:10158000C7EC05F00101712BDFD7AC6B535203E1BF
:10159000AC51525C2BE3010EAC25B06F036AAC5129
:1015A000200FE96E000E0320EA6EEFCFB1F1F2508A
:1015B000006EF29EAA6AB0C1A9FFB1C1A8FFA69CA5
:1015C000A69EA6840F01550EA76EAA0EA76EA68230
:1015D000A6B2FED7A6940050F2120A0E0101B16F16
:1015E0000001C7EC05F00101AC2BD0D7010EAC25F2
:1015F000B06FF250006EF29EAA6AB0C1A9FF0D0E44
:10160000A86EA69CA69EA6840F01550EA76EAA0ED4
:10161000A76EA682A6B2FED7A6940050F2120A0EBA
:101620000101B16F0001C7EC05F0020E0101AC250C
:10163000B06FF250006EF29EAA6AB0C1A9FF0A0E06
:10164000A86EA69CA69EA6840F01550EA76EAA0E94
:10165000A76EA682A6B2FED7A6940050F2120A0E7A
:101660000101B16F0001C7EC05F01E0E0101B16F61
:101670000001C7EC05F0840EF66E010EF76E0B0E3E
:101680000101B06F00014ADC1C509EA8FED7AD6E70
:101690002C0E9EA8FED7AD6E72C1B0F11B0E0101DB
:1016A000B16F000109DE0D0E9EA8FED7AD6E0A0EC9
:1016B0009EA8FED7AD6E3C0E0101B16F0001C7ECD4
:1016C00005F0010EEA6E730EE96EB5DC780E0101CD
:1016D000B16F0001C7EC05F0980EF66E010EF76EC3
:1016E0000C0E0101B06F000119DC1C509EA8FED742
:1016F000AD6E0D0E9EA8FED7AD6E0A0E9EA8FED74B
:10170000AD6E020E0101B06FFA0EB16F0001C7ECB1
:1017100005F00101B02FF8D7AA0EF66E010EF76E94
:1017200000017DEC07F0040E0101B06FFA0EB16FFD
:101730000001C7EC05F00101B02FF8D7010E6E6F64
:101740001E504108D8A480D01F505008D8A47CD087
:10175000140EB16F0001C7EC05F0B60EF66E010E67
:10176000F76E0B0E0101B06F00018EEC07F01C50FC
:101770009EA8FED7AD6E2C0E9EA8FED7AD6E72C190
:10178000B0F11B0E0101B16F000196DD0D0E9EA898
:10179000FED7AD6E0A0E9EA8FED7AD6E320E0101C9
:1017A000B16F0001C7EC05F0010EEA6E730EE96E31
:1017B00042DC640E0101B16F0001C7EC05F0CA0EF6
:1017C000F66E010EF76E0C0E0101B06F00018EEC8B
:1017D00007F01C509EA8FED7AD6E0D0E9EA8FED73A
:1017E000AD6E0A0E9EA8FED7AD6E020E0101B06F5F
:1017F000FA0EB16F0001C7EC05F00101B02FF8D768
:10180000DC0EF66E010EF76E0D0EB06F00018EEC61
:1018100007F0EA6A200EE96E0EDCEB0EF66E010EA2
:10182000F76E060E0101B06F00018EEC07F0040E9A
:101830000101B06FFA0EB16F0001C7EC05F00101B4
:10184000B02FF8D7010E6E6F1E504E08D8A476D078
:101850001F504D0873E1F250006EF29EAA6AA96A09
:1018600020C0A8FFA69CA69EA6840F01550EA76EB9
:10187000AA0EA76EA682A6B2FED7A6940050F212B8
:101880000A0E0101B16F0001C7EC05F0140E010151
:10189000B16F0001C7EC05F0F20EF66E010EF76EA7
:1018A0000B0E0101B06F00018EEC07F01C509EA8DA
:1018B000FED7AD6E2C0E9EA8FED7AD6E72C1B0F1F4
:1018C0001B0E0101B16F0001F7DC0D0E9EA8FED7C3
:1018D000AD6E0A0E9EA8FED7AD6E320E0101B16F3D
:1018E0000001C7EC05F0010EEA6E730EE96E1BEC09
:1018F00008F0640E0101B16F0001C7EC05F0060E9F
:10190000F66E020EF76E0C0E0101B06F00018EEC48
:1019100007F01C509EA8FED7AD6E0D0E9EA8FED7F8
:10192000AD6E0A0E9EA8FED7AD6E640E0101B16FBA
:101930000001C7EC05F0010E01016E6F1E504F084B
:10194000D8A496D01F505308D8A492D07B0E736FA2
:10195000220E746F300E756F220E766F3A0E776F0F
:10196000000E84B4010E300F786F2C0E796F220EAA
:101970007A6F310E7B6F220E7C6F3A0E7D6F000EF8
:1019800084B2010E300F7E6F2C0E7F6F220E806F9F
:10199000320E816F220E826F3A0E836F000E84B07A
:1019A000010E300F846F2C0E856F220E866F330E62
:1019B000876F220E886F3A0E896F000E80B8010E75
:1019C000300F8A6F2C0E8B6F220E8C6F340E8D6F42
:1019D000220E8E6F3A0E8F6F000E80B0010E300F08
:1019E000906F2C0E916F220E926F350E936F220E18
:1019F000946F3A0E956F000E80B2010E300F966F05
:101A00002C0E976F220E986F360E996F220E9A6FDA
:101A10003A0E9B6F000E80B4010E300F9C6F2C0E9F
:101A20009D6F220E9E6F370E9F6F220EA06F3A0E93
:101A3000A16F000E80B6010E300FA26F2C0EA36FA7
:101A4000220EA46F4D0EA56F220EA66F3A0EA76F41
:101A5000F2CFB0F1F29EAA6AA96AA69CA69EA680C1
:101A6000A850B0BFF28EA86F7D0EA96F370E726FAF
:101A70001E504E08D8A472D01F504F086FE1AD6BB6
:101A8000AE6B300E205C6F6F6F510A0DF350280F54
:101A9000AD6F0A0EAD25AE6FADC171F1AD515224DF
:101AA000016E000E5320036E0150035203E10150FA
:101AB000715D29E2702B036A7051200FE96E000EF0
:101AC0000320EA6EEFCFB0F1F250006EF29EAA6AE8
:101AD00071C1A9FFB0C1A8FFA69CA69EA6840F0154
:101AE000550EA76EAA0EA76EA682A6B2FED7A69422
:101AF0000050F2120A0E0101B16F0001C7EC05F0AF
:101B00000101712BCBD7AD515224B06F000E532081
:101B1000B16F010EB025716F7151AE5D1EE3F250D1
:101B2000006EF29EAA6A71C1A9FFA868A69CA69E33
:101B3000A6840F01550EA76EAA0EA76EA682A6B2A6
:101B4000FED7A6940050F2120A0E0101B16F0001F7
:101B5000C7EC05F00101712BDFD7706B6E5356E1B6
:101B6000140EB16F0001C7EC05F0180EF66E020EF0
:101B7000F76E0B0E0101B06F00018EEC07F01C50E8
:101B80009EA8FED7AD6E2C0E9EA8FED7AD6E72C17C
:101B9000B0F11B0E0101B16F00015CEC09F00D0EFC
:101BA0009EA8FED7AD6E0A0E9EA8FED7AD6E320E71
:101BB0000101B16F0001C7EC05F0010EEA6E730E72
:101BC000E96E1BEC08F0640E0101B16F0001C7EC77
:101BD00005F02C0EF66E020EF76E0C0E0101B06FC2
:101BE00000018EEC07F01C509EA8FED7AD6E0D0EC6
:101BF0009EA8FED7AD6E0A0E9EA8FED7AD6E640EEF
:101C00000101B16F0001C7EC05F00101AF6B535248
:101C100003E1AF51525C0AE3036AAF51200FE96E52
:101C2000000E0320EA6EEF6AAF2BF1D7AF6BAF5116
:101C300038080AE3036AAF51730FE96E010E0320FF
:101C4000EA6EEF6AAF2BF3D71E6A1F6A1C6A576AE7
:101C5000536A526A6E2D02D06E6BFF006EC101F0A6
:101C600000011200D8B204D0010EEA6E840EE96EB3
:101C7000006A016A026A036A0101846B856B866BE4
:101C8000876B83518211811180112CE0200E886FA7
:101C9000D8907C377D377E377F37843785378637D6
:101CA00087378351875D08E18251865D05E1815167
:101CB000855D02E18051845D0FE38051845F815135
:101CC000D8A0813D855F8251D8A0823D865F835137
:101CD000D8A0833D875FD8800036013602360336B0
:101CE000882FD6D784C1EFFF85C1ECFF86C1ECFFFA
:101CF00087C1ECFF0001E7EF0EF00101846B856BFB
:101D0000010E866FDA6AD96A896F7C0E886F010EC0
:101D1000EA6E800EE96E89C1E2FF88C1E1FF86C1EB
:101D200087F1D890E550EE02F3508423F4508523D8
:101D3000872FF7D784C1DEFF85C184F1856BD8B0CA
:101D4000852B882BD8B4892B862B86510508DFE19B
:101D50000001FFEF0EF0030E01017D5F0AE3010EAB
:101D6000EA6E7D0EE96EEF5004E001D000D0EF2E58
:101D7000FDD7000112000101736B726B756B746B00
:101D80006F5304E16E511308D8B097D06F514E08CD
:101D9000D8A093D004E16E512008D8A08ED07B6BE0
:101DA000010E7A6F860E796FA00E786FD8927BC184
:101DB0007FF17AC17EF179C17DF178C17CF1836BCD
:101DC000826B6FC181F16EC180F100014BD703C0FE
:101DD0007BF102C07AF101C079F100C078F17BC1DA
:101DE0007FF17AC17EF179C17DF178C17CF1010189
:101DF000836B826B816B050E806F00017ED703C001
:101E00007BF102C07AF101C079F100C078F179C1AB
:101E100077F178C176F193948A8477C17CF10101DE
:101E20007C2B7C07D8B405D07D69000194DF0101CB
:101E3000F8D776C17DF100018EDF0101765174275C
:101E40007751752393948A9477C17CF17C2B7C071E
:101E5000D8B405D07D6900017EDF0101F8D776C1D5
:101E60007DF1000178DF01017651742777517523E8
:101E7000190E7427000E75237551020811E2FF0A2E
:101E800003E17451E7080CE2E80E745F030E755B22
:101E9000722BD8B4732B190E7427000E7523ECD750
:101EA0007351715D0AE3D8B402D00001B4D7705108
:101EB000725DD8B002D00001AED70001120001015E
:101EC000686B696B6851100DF350036A6A6F0C0EF2
:101ED000716F000137EC07F0A20EF66E020EF76E7E
:101EE00001016A51F626000EF72200016DEC07F0A1
:101EF00039EC09F00101695355E10001BCEC09F02E
:101F0000938881B832D0020E01016A6FFA0EB16F68
:101F10000001C7EC05F001016A2FF8D7040E6F6FBE
:101F2000B90E6E6F716B140E706F000124DF01012A
:101F3000682B6851625D01E2686B6851100DF350C7
:101F4000036A6A6F0C0E716F000137EC07F0A20E86
:101F5000F66E020EF76E01016A51F626000EF722A8
:101F600000016DEC07F039EC09F0938A81BA18D0C2
:101F7000020E01016A6FFA0EB16F0001C7EC05F0A5
:101F800001016A2FF8D7040E6F6FB90E6E6F716B77
:101F9000140E706F0001EFDE010E0101696F000188
:101FA000A9D70101010E6825016E000140EF15F06F
:101FB0000900F6CF6DF1F7CF6EF1F5CF71F137EC87
:101FC00007F06DC1F6FF6EC1F7FF01016C2F01D064
:101FD00002D00001EDD700011200EF5210E0EACF6D
:101FE0006DF1E9CF6CF1EFCF71F137EC07F06DC116
:101FF000EAFF6CC1E9FFE92AD8B4EA2AEED7120059
:102000000101686B696B68510B0DF350036AF40FA3
:10201000016E000E032201C06AF103C06BF1DA0EFB
:10202000F66E030EF76E070E6C6F0001C1DF6BC119
:10203000EAFF6AC1E9FFD1DF39EC09F00101695318
:10204000D8A482D00001BCEC09F0938881B835D0C7
:10205000020E01016A6FFA0EB16F0001C7EC05F0C4
:1020600001016A2FF8D7040E6F6FB90E6E6F716B96
:10207000140E706F00017FDE0101682B6851635DF3
:1020800001E2686B68510B0DF350036AF40F016EA7
:10209000000E032201C06AF103C06BF1E40EF66E7C
:1020A000030EF76E070E6C6F000182DF6BC1EAFF53
:1020B0006AC1E9FF92DF39EC09F0938A81BA42D014
:1020C000020E01016A6FFA0EB16F0001C7EC05F054
:1020D00001016A2FF8D7040E6F6FB90E6E6F716B26
:1020E000140E706F000147DE01016351685D03E16A
:1020F000010E696F28D0D8906835036AF2CF6AF173
:10210000F29E00014BEC00F00900F5CF03F0010155
:102110006ABFF28E6A6F03C06BF1B26F010EB36FCC
:102120000F0EB56F890EB46F00019BEC09F06AC108
:10213000B2F10101B36B0F0EB56F920EB46F0001D7
:102140009BEC09F001017BD7000E016E000146EF08
:1021500015F00101686B696B68510B0DF350036A50
:10216000F40F016E000E032201C06AF103C06BF18F
:10217000EE0EF66E030EF76E070E6C6F000118DFA1
:102180006BC1EAFF6AC1E9FF28DF39EC09F0010100
:102190006953D8A481D00001BCEC09F0938881B8C0
:1021A00035D0020E01016A6FFA0EB16F0001C7EC63
:1021B00005F001016A2FF8D7040E6F6FB90E6E6F2C
:1021C000716B140E706F0001D6DD0101682B685130
:1021D000645D01E2686B68510B0DF350036AF40F04
:1021E000016E000E032201C06AF103C06BF1F80E0C
:1021F000F66E030EF76E070E6C6F0001D9DE6BC131
:10220000EAFF6AC1E9FFE9DE39EC09F0938A81BA95
:1022100041D0020E01016A6FFA0EB16F0001C7ECE6
:1022200005F001016A2FF8D7040E6F6FB90E6E6FBB
:10223000716B140E706F00019EDD01016451685DC9
:1022400003E1010E696F27D0D8906835036AF2CF99
:102250006AF1F29E00014BEC00F00900F5CF03F0AB
:1022600001016ABFF28E6A6F03C06BF1B26FB36B8C
:102270000F0EB56F890EB46F00019BEC09F06AC1B7
:10228000B2F10101B36B0F0EB56F920EB46F000186
:102290009BEC09F001017CD7000E016E00014CEFB0
:1022A00015F00C0E0101726F020E736F000124EC29
:1022B00007F0C20EF66E030EF76E6DEC07F0BCEC85
:1022C00009F0938A81BA0DD0020E01016E6FFA0EE9
:1022D000B16F0001C7EC05F001016E2FF8D703D0F4
:1022E0000001EDD701010001120001016C6B6D6B63
:1022F0006C510E0DF350036A6E6F0C0E716F00017E
:1023000037EC07F07C0EF66E030EF76E01016E518E
:10231000F626000EF72200016DEC07F039EC09F00B
:1023200001016D53D8A4F2D00001BCEC09F09388F0
:1023300081B832D0020E01016E6FFA0EB16F00014A
:10234000C7EC05F001016E2FF8D7040E6F6FB90EC0
:102350006E6F716B140E706F00010DDD01016C2B3F
:102360006C51665D01E26C6B6C510E0DF350036AAB
:102370006E6F0C0E716F000137EC07F07C0EF66E7D
:10238000030EF76E01016E51F626000EF7220001D2
:102390006DEC07F039EC09F0938A81BAB5D0020EE2
:1023A00001016E6FFA0EB16F0001C7EC05F001017B
:1023B0006E2FF8D7040E6F6FB90E6E6F716B140E1F
:1023C000706F0001D8DC010166516C5D03E1010E04
:1023D0006D6F9BD06C51000A000105E0010A2BE0F3
:1023E000030A51E077D03C0EF66E050EF76E7DECD9
:1023F00007F0F250006EF29EAA6AA96A310EA86E2A
:10240000A69CA69EA6840F01550EA76EAA0EA76EC7
:10241000A682A6B2FED7A6940050F2120A0E0101BF
:10242000B16F0001C7EC05F04E0EF66E050EF76EAB
:102430006DEC07F04FD05E0EF66E050EF76E7DEC7C
:1024400007F0F250006EF29EAA6AA96A320EA86ED8
:10245000A69CA69EA6840F01550EA76EAA0EA76E77
:10246000A682A6B2FED7A6940050F2120A0E01016F
:10247000B16F0001C7EC05F0700EF66E050EF76E39
:102480006DEC07F027D07C0EF66E050EF76E7DEC36
:1024900007F0F250006EF29EAA6AA96A330EA86E87
:1024A000A69CA69EA6840F01550EA76EAA0EA76E27
:1024B000A682A6B2FED7A6940050F2120A0E01011F
:1024C000B16F0001C7EC05F08E0EF66E050EF76ECB
:1024D0006DEC07F0E6DE01016C510E0DF350036A5E
:1024E0006E6F0C0E716F000137EC07F07C0EF66E0C
:1024F000030EF76E01016E51F626000EF722000161
:102500006DEC07F039EC09F001010BD70001A9EFE0
:1025100013F001016A51F70FD8B033D1090F000150
:10252000CAEF13F0020EF66E040EF76E7DEC07F0A4
:10253000050E5B6E0E0EF66E040EF76E6DEC07F078
:10254000A3EC07F00C0E0101716F000137EC07F0EE
:10255000EA6A6B0EE96E41DDBB6B010112D11C0E04
:10256000F66E040EF76E7DEC07F0050E5B6E280E1E
:10257000F66E040EF76E6DEC07F0A3EC07F00C0E90
:102580000101716F000137EC07F0EA6A7B0EE96E1A
:1025900024DDBB6B0101F5D0C15132081CE0360EC1
:1025A000F66E040EF76E7DEC07F0070E5B6E420EC2
:1025B000F66E040EF76E6DEC07F0A3EC07F00C0E50
:1025C0000101716F000137EC07F0EA6AAB0EE96EAA
:1025D00004DDBF6B06D0500EF66E040EF76E6DEC88
:1025E00007F00101CED0C15131081CE0600EF66E3B
:1025F000040EF76E7DEC07F0060E5B6E6C0EF66E49
:10260000040EF76E6DEC07F0A3EC07F00C0E010161
:10261000716F000137EC07F0EA6A8B0EE96EDDDCC2
:10262000BD6B06D07A0EF66E040EF76E6DEC07F0F9
:102630000101A7D0C15131081CE08A0EF66E040ECC
:10264000F76E7DEC07F0060E5B6E960EF66E040ECE
:10265000F76E6DEC07F0A3EC07F00C0E0101716F43
:10266000000137EC07F0EA6A9B0EE96EB6DCBD6B41
:1026700006D0A40EF66E040EF76E6DEC07F00101A5
:1026800080D0B40EF66E040EF76E6DEC07F001010B
:102690006B6B6B516E081EE3F250006EF29EAA6ADD
:1026A0006BC1A9FFA868A69CA69EA6840F01550E23
:1026B000A76EAA0EA76EA682A6B2FED7A694005059
:1026C000F2120A0E0101B16F0001C7EC05F0010121
:1026D0006B2BDFD7C60EF66E040EF76E00016DECA5
:1026E00007F0D40EF66E040EF76E7DEC07F0040EC4
:1026F00001016C6FFA0EB16F0001C7EC05F001012A
:102700006C2FF8D7E00EF66E040EF76E00017DEC2C
:1027100007F0080E01016C6FFA0EB16F0001C7ECF3
:1027200005F001016C2FF8D7EA0EF66E040EF76E75
:1027300000017DEC07F0080E01016C6FFA0EB16F1D
:102740000001C7EC05F001016C2FF8D7FF0019D08C
:10275000CCD5010116D095968C7683A607D01E0E97
:10276000F66E050EF76E6DEC07F006D02C0EF66EC9
:10277000050EF76E6DEC07F0010103D0010101D0E9
:1027800001016A51080803E000018BDD010100012D
:1027900060EF14F0F2CF0DF0F29EE824F76AF736FE
:1027A000B90FF66E270EF7220A00F550FA6E0800F0
:1027B000F5500DBEF28EF96E5E259825E62534267D
:1027C00024255027822656277C270101686B696BD8
:1027D0006851110DF350036A6A6F0C0E716F00019E
:1027E00037EC07F0E20EF66E020EF76E01016A5149
:1027F000F626000EF72200016DEC07F039EC09F027
:1028000001016953D8A477D00001BCEC09F093888A
:1028100081B833D0020E01016A6FFA0EB16F000168
:10282000C7EC05F001016A2FF8D7040E6F6FB90EDF
:102830006E6F716B140E706F0001BBEC0EF0010136
:10284000682B6851655D01E2686B6851110DF350AA
:10285000036A6A6F0C0E716F000137EC07F0E20E2D
:10286000F66E020EF76E01016A51F626000EF7228F
:1028700000016DEC07F039EC09F0938A81BA39D088
:10288000020E01016A6FFA0EB16F0001C7EC05F08C
:1028900001016A2FF8D7040E6F6FB90E6E6F716B5E
:1028A000140E706F0001BBEC0EF001016551685D04
:1028B00003E1010E696F1ED068C16AF1000129D6DB
:1028C00001016851110DF350036A6A6F0C0E716FAC
:1028D000000137EC07F0E20EF66E020EF76E010112
:1028E0006A51F626000EF72200016DEC07F039EC74
:1028F00009F0010186D7000E016E000151EF15F0BD
:10290000F86AD09E078EB8862A0EAF6E000EB06EA3
:10291000A60EAC6E900EAB6E93908A80536A526A8C
:10292000546A556A566A576A586A596A5A6A5B6A9B
:10293000010E5C6E5D6A050E5E6EBB6BBC6BBD6BA3
:10294000BE6BBF6BC06B020E0101626F080E636F3E
:10295000646F656F030E666F676BC150C00B0F0924
:10296000C16E070EB46E44D002001600000C405F2A
:10297000000780302E302E302E3009C00007803006
:102980002E302E302E302AC0005D00F44F7574704A
:10299000757420312020004F7574707574203220BA
:1029A00020004F757470757420332020004F7574AB
:1029B00070757420342020004F7574707574203544
:1029C0002020004F757470757420362020004F75DC
:1029D0007470757420372020004F757470757420E2
:1029E0003820200053414C495205C0200CC0000043
:1029F000000EF86E290EF76E680EF66E0900F5509F
:102A0000006E000A13E00900F550016EE8BE05D023
:102A10000F0BEA6E0900F5CFE9FF01BC090001AC1C
:102A20000900F5CFEEFF004EE9D7F9D7F86A040E9A
:102A3000686FFA0EB16F0001C7EC05F00101682F55
:102A4000F8D70001DBEF05F0F19E320E936E9D8A00
:102A5000C00EF212D6EF06F0800EF66E0B0EF76E79
:102A60006DEC07F095968C862EEF08F0010167510A
:102A7000FC0F1CE2040F000158EF15F05FEF0FF0A0
:102A800001C067F1010112D000EF10F001C067F141
:102A900001010CD0A9EF10F001C067F1010106D0CF
:102AA00094D601C067F1010101D00101E0D7030014
:102AB000F2CF0DF0F29EE824F76AF736D50FF66EE6
:102AC0002A0EF7220A00F550FA6E0800F5500DBEE6
:0C2AD000F28EF96E7C2A882A942AA02A33
:020000040030CA
:0E00000000C21E1E008781000FC00FE00F40DF
:00000001FF
;PIC18F4620
;CRC=DB58  CREATED="21-dic.-17 22:25"
