:1000000016308A00712E0000FF00030E8301A1004C
:100010000A08A0008A010408A2007708A300780853
:10002000A4007908A5007A08A60003170D08031399
:10003000A70003170F080313A80003170C080313E6
:10004000A90003170E080313AA00831383128C3030
:100050008400801E2D288C1A4E2822088400230834
:10006000F7002408F8002508F9002608FA002708F8
:1000700003178D000313280803178F0003132908A3
:1000800003178C0003132A0803178E00031320089C
:100090008A00210E8300FF0E7F0E09008A110A12CA
:1000A000B32B0A108A100A1182074F344B340D34D7
:1000B0000A340A108A100A1182074E346F34203431
:1000C000413450340A108A100A1182072B34433409
:1000D00057344A34413450343A340A108A100A11E1
:1000E000820743344F344E344E3445344334543411
:1000F000453444340A108A100A11820746344134C8
:1001000049344C340A108A100A118207453452349B
:1001100052344F3452340A108A100A1182072B3499
:100120004934503444342C340A108A100A1182079E
:1001300043344D3444343A34412A2B29532A0D0593
:100140000000412AAB21D7264F22C51EA5310D053F
:100150000000412AAB2157254128BF060A00412A49
:10016000AB2157254128BD127300412AAB214928F4
:10017000CD2AD81EB1060A00412AAB214928D32234
:10018000522B4529BD182C1CB0060A00412AAB2170
:100190004928D3224E22BD12631631190D050001E4
:1001A000412AAB2149284326CF29C51EA5310D057B
:1001B0000001412AAB21D72841288A060001412AA3
:1001C000AB214928D3224E22BD12631631190D05E9
:1001D0000001412AAB2149284326CF29C51EA5315C
:1001E0000D050001412AAB214928D3224E22BD1220
:1001F000631631190D050001412AAB214928432618
:10020000CF29C51EA5310D05000045346E34633479
:1002100065346E3464346534723420344D34613462
:100220006E34753461346C3400344134703461346C
:100230006734613464346F3420344D3461346E3447
:10024000753461346C342034003443346F346E348C
:1002500066346934673475347234613463346934B4
:100260006F346E34203420340034003400340034D1
:1002700000340034003400340034003400340034DE
:10028000003400340034003400344F346E342034F1
:100290002D343E342034533461346C346934643446
:1002A00061342034313400344F346E3420342D34F2
:1002B0003E342034533461346C34693464346134F2
:1002C0002034323400344F346E3420342D343E34F4
:1002D0002034533461346C346934643461342034F0
:1002E000333400344F346E3420342D343E342034D3
:1002F000533461346C3469346434613420343434BC
:1003000000344F346E3420342D343E342034533492
:1003100061346C34693464346134203435340034ED
:100320004F346E3420342D343E3420345334613411
:100330006C346934643461342034363400344F34DE
:100340006E3420342D343E342034533461346C34D4
:100350006934643461342034373400344F346E34BB
:1003600020342D343E342034533461346C346934B9
:1003700064346134203438340034533441344C34E0
:100380004934523420342034203420342034203472
:10039000203420342034003400340034003400345D
:1003A00000340034003400340034003400340034AD
:1003B0000034003400344F346634663420342D3435
:1003C0003E342034533461346C34693464346134E1
:1003D0002034313400344F346634663420342D34C4
:1003E0003E342034533461346C34693464346134C1
:1003F0002034323400344F346634663420342D34A3
:100400003E342034533461346C34693464346134A0
:100410002034333400344F346634663420342D3481
:100420003E342034533461346C3469346434613480
:100430002034343400344F346634663420342D3460
:100440003E342034533461346C3469346434613460
:100450002034353400344F346634663420342D343F
:100460003E342034533461346C3469346434613440
:100470002034363400344F346634663420342D341E
:100480003E342034533461346C3469346434613420
:100490002034373400344F346634663420342D34FD
:1004A0003E342034533461346C3469346434613400
:1004B000203438340034533441344C3449345234C9
:1004C000203420342034203420342034203420348C
:1004D000203420340034003400340034003400343C
:1004E000003400340034003400340034003400346C
:1004F0000034003400345634453452342034493406
:10050000503420342034203420342034203420341B
:1005100020342034203400345634453452342034CE
:100520005334533449344434203420342034203478
:1005300020342034203420340034563445345234AE
:1005400020344B3445345934203420342034203482
:1005500020342034203420342034003443346F34A9
:100560006E34663420344134633463346534733418
:1005700073346F34203452346534643400344F346F
:100580006E342F344F346634663420344234613450
:1005900063346B346C3469346734683474340034D5
:1005A000533441344C3449345234203420342034D0
:1005B000203420342034203420342034203420349B
:1005C000003400340034003400340034003400348B
:1005D000003400340034003400340034003400347B
:1005E0000034003445347334743461346334693412
:1005F0006F346E34203420342034203420340034DE
:100600004134633463346534733473342034503488
:100610006F3469346E3474342034003445347334A8
:1006200074346134633469346F346E3420342B3461
:100630002034413450340034533441344C34493440
:1006400052342034203420342034203420342034D8
:1006500020340034003400340034003400340034DA
:1006600000340034003400340034003400340034EA
:10067000D320CC245200DB29C9235D102010201088
:10068000A02D4527D42E00008C183919AE18361C21
:100690002E18AE1800018C21B023B32F552745002A
:1006A0008C18B219B420FA1000010C21E1316B361C
:1006B000E933683AA0276E000C21E1316B36E9334B
:1006C000683AA02766330001412AAB21D7264F2282
:1006D000C52FC422C61EB1060A008C216F37E6342E
:1006E00067104336E9326E3A6500412AAB21D726BE
:1006F0004F22C52FC422C61EB2060A008C216F37B6
:10070000E634671041280001412AAB21D7264F2249
:10071000C52FC422C61EB3060A008C216F37E634EB
:1007200067104336E9326E3AE52050000430031773
:10073000E500031349085120F80003176402031D64
:10074000AF2B0313C90A0317650803134902031DDE
:10075000AC2B0130C300AD2BC301B22B0317031325
:10076000C901C30108008C1EB32B1A080317E2004D
:100770000313C208031D662C03176208E30003136A
:100780004108013A0319CB2B033A0319D12B013A43
:1007900003190D2C642C03176308E400031396233C
:1007A000652C03176308E4000530E50003134A08CD
:1007B0005920F80003176402031DEA2B0313CA0A29
:1007C0000317650803134A02031DE82B0130C40018
:1007D000EC2B03170313CA0103176308E400073067
:1007E000E50003134B086220F80003176402031DA1
:1007F000052C0313CB0A0317650803134B02031DD3
:10080000032C0130C500072C03170313CB0103177A
:100810006308E40003139623652C03176308E400C0
:100820000930E50003134C086D20F800031764023B
:10083000031D262C0313CC0A0317650803134C026F
:10084000031D242C0130C600282C03170313CC01F0
:1008500003176308E4000430E50003134D087A2011
:10086000F80003176402031D412C0313CD0A03177C
:10087000650803134D02031D3F2C0130C700432CB4
:1008800003170313CD0103176308E4000530E500E7
:1008900003134E088220F80003176402031D5C2C2A
:1008A0000313CE0A0317650803134E02031D5A2CC7
:1008B0000130C8005E2C03170313CE010317630831
:1008C000E40003139623652CC101112D0317E401E5
:1008D0006208E3000530E5000313570B872C03176C
:1008E00063082C3C031D772CE4080319832C50303B
:1008F00003135B078400831303176308800003134B
:10090000DB0A862C03170313DB01D701A02C5B083D
:100910008B20F80003176302031D9E2CE408031DBF
:100920009E2C0313DB0A0317650803135B02031DE8
:100930009C2C0130D700DB01A02C03170313DB0133
:100940000317E4016208E3000430E5000313560BCB
:10095000C32C031763082C3C031DB12CE4080319B6
:10096000BD2C523003135A07840083130317630806
:1009700080000313DA0AC22C03170313DA01D6012D
:100980000130D800DC2C5A089420F80003176302C9
:10099000031DDA2CE408031DDA2C0313DA0A03170B
:1009A000650803135A02031DD82C0130D600DA0162
:1009B000DC2C03170313DA010317E4016208E300D8
:1009C0000313580B112D031763083A3C031DEB2C3E
:1009D000E40803190C2D103003135C0784008317FF
:1009E0000317630880000313D5015C08D400DC08FA
:1009F000031D092D031763082C3C0319012D031354
:100A0000092DE4080319062D0313092D0313DC0136
:100A10000A2DDC0A112D03170313DC01D801013064
:100A2000D9008C128A110A122D285930840083179C
:100A300000080319282D0630F800F701F70B1E2DCA
:100A4000F80B1D2D7B30F700F70B242D800B1B2D91
:100A500008008316081008118810831208118316E5
:100A60000811081688160817881783128814831629
:100A700088100000831208148316081000008312E7
:100A80000317D30183160313081600308312081AC4
:100A900001300317D3048316031388160030831222
:100AA000881A0130F7000310F70D77080317D304F5
:100AB00083160313081700308312081B0130F70058
:100AC000F70DF70DFC30F70577080317D3048316ED
:100AD0000313881700308312881B0130F700F70DCD
:100AE000F70DF70DF830F70577080317D30453080F
:100AF000F8007808D20003130810831608100000CD
:100B00008312081483160810852D862D0000831289
:100B10000317D30183160313081600308312081A33
:100B200001300317D3048316031388160030831291
:100B3000881A0130F7000310F70D77080317D30464
:100B400083160313081700308312081B0130F700C7
:100B5000F70DF70DFC30F70577080317D30483165C
:100B60000313881700308312881B0130F700F70D3C
:100B7000F70DF70DF830F70577080317D30453087E
:100B8000F8007808D1000313081083160810081223
:100B900088120813881383120317520EF700F030DF
:100BA000F70577085104F8007808D100D11FDB2D34
:100BB00083160313312DCF08031DE22D03130811F3
:100BC000E42D031703130815831608110000831280
:100BD00088108316881000008312081083160810EE
:100BE00083120317500ED1000F30D1055108D200E7
:100BF0005218FE2D03130812002E031703130816B4
:100C00008316081283120317D2180A2E03138812B0
:100C10000C2E0317031388168316881283120317EA
:100C20005219162E03130813182E0317031308174F
:100C30008316081383120317D219222E0313881365
:100C4000242E0317031388178316881300008312BA
:100C50000814831608100230F700F70B2D2E302EE3
:100C6000000083120810831608108312031750081F
:100C70000F39D1005108D2005218422E0313081226
:100C8000442E031703130816831608128312031742
:100C9000D2184E2E03138812502E031703138816F2
:100CA000831688128312031752195A2E031308133E
:100CB0005C2E0317031308178316081383120317F8
:100CC000D219662E03138813682E0317031388178F
:100CD000831688130000831208148316081002304C
:100CE000F700F70B712E742E000083120810831684
:100CF00008108312080028300317C3000C30C4000A
:100D00000130C5000630C600031308108316081012
:100D10008312081183160811831288108316881015
:100D200008128812081388130810081188100F3051
:100D300083120317D9000313152501300317C200CE
:100D40004208033C031CEC2E0330D2005218AC2E98
:100D500003130812AE2E0317031308168316081286
:100D600083120317D218B82E03138812BA2E031752
:100D70000313881683168812831203175219C42E80
:100D800003130813C62E031703130817831608133B
:100D900083120317D219D02E03138813D22E0317F0
:100DA0000313881783168813000083120814831610
:100DB00008100230F700F70BDB2EDE2E0000831246
:100DC000081083160810053083120317D900031387
:100DD00015250317C20AA02E0230D2005218F42E95
:100DE00003130812F62E03170313081683160812AE
:100DF00083120317D218002F03138812022F031730
:100E000003138816831688128312031752190C2FA6
:100E1000031308130E2F0317031308178316081361
:100E200083120317D219182F031388131A2F0317CD
:100E3000031388178316881300008312081483167F
:100E400008100230F700F70B232F262F0000831223
:100E5000081083160810053083120317D9000313F6
:100E600015250317C2014208033C031C452F4330DC
:100E70004207840083170008C700CF014708D0004D
:100E8000031329250317C20A332F03138A110A16E5
:100E9000EA2E0B080317D90003138B1383160317CD
:100EA0008C170C14000000008312D91F5A2F031353
:100EB0008B1703170318822F0C087F39D9000D08F0
:100EC000DA000F08DB00590803130C1E652F990088
:100ED00003175A088D005B088F0003130B080317D4
:100EE000DC0003138B13831603178C170C140000FC
:100EF00000008312DC1F7F2F03138B170317D80BFF
:100F0000822F9D2F0C0D0E0D7F39D9000D08DA00B0
:100F10000F08DB00590803130C1E8C2F99000317D0
:100F20005A088D005B088F008D0A03198F0A031081
:100F3000D80B9B2F9D2F0313492F03130800031772
:100F4000C5010313C308031DD62F450BAE2FCB01DC
:100F5000C50101300317C500D42F0313440BB72F6D
:100F6000CA01C40102300317C500D42F0313460B76
:100F7000C02FCC01C60103300317C500D42F0313C3
:100F8000470BCB2FCD01C7010130C300043003173D
:100F9000C500D42F0313480BD52FCE01C801013053
:100FA000C30005300317C5000313A22FC301C101FD
:100FB00003174508F8000313080003175A080739F8
:100FC000F7005A0CF800F80CF80C1F30F8057808F8
:100FD0005C07840083135D188317F801F80AF70A89
:100FE000F22FF80DF70BF12FDB080319FA2F780811
:0E0FF0008004FD2FF80978088005031308001F
:101000000B080317D80003138B13831603178C17D1
:101010000C14000000008312D81F112803138B1733
:1010200003170C087F3903195028D8000D08D90080
:101030000F08DA00580803130C1E1C289900031728
:1010400059088D005A088F0003130B080317DB00A3
:1010500003138B13831603178C170C140000000066
:101060008312DB1F362803138B1703170C0D0E0D8D
:101070007F3903195028D8000D08D9000F08DA006D
:10108000580803130C1E42289900031759088D00B5
:101090005A088F008D0A03198F0A031300280317BB
:1010A0000313080033300317C2008D0183168C131D
:1010B0000C1483120C080313CF000A300317D90055
:1010C0008A11031315258A154F08013A0319782848
:1010D000303A03197828333A03197B28303A031938
:1010E0007B28313A03197E28303A03197E287E285E
:1010F0003130CF009D283230CF009D280B08F700FB
:101100008B1303178D0133308C0083168C130C1551
:1011100055308D00AA308D008C148C188D280C1140
:101120007708831203138B040A300317D9008A113E
:10113000031315258A153330CF004F080317C50058
:10114000A1308D0000308F0003100A30D8008A11C2
:10115000031349278A150317450803130C1EAE28ED
:1011600099000D300C1EB22899000A300C1EB628CA
:1011700099000130F8007808C1008A119F278A156C
:10118000A93003178D0000308F00031300200230B8
:10119000F8007808C1008A119F278A15780803177C
:1011A000C3004308023C031D7029C401A03044075A
:1011B0008400831300080A3C03190729A030440760
:1011C0008400831301304407C70047088D0083164D
:1011D0008C130C1483120C0880000A30D9008A1179
:1011E000031315258A15A0300317440784008313C1
:1011F000000FFD280530C3000729A03044078400F4
:10120000831300080A3C03190729C40AD628430897
:10121000053C03194529C601A030C500AF308D003B
:1012200000308F0003100930D8008A1103134927BA
:101230008A1503174508840083134618831780080E
:1012400003193A29D9010408D8005910831B5914ED
:10125000000803130C1E2A2999000317580884005C
:10126000831359188317840A031D39290313850A28
:1012700003171F290330F80078080313C1008A11EF
:101280009F278A1578080317C3004308043C0319F5
:101290004D294308053C031D70294208C500A130B3
:1012A0008D0000308F0003100A30D8008A1103131C
:1012B00049278A150317450803130C1E5D29990059
:1012C0000D300C1E612999000A300C1E6529990009
:1012D0000130F8007808C1008A119F278A1503178A
:1012E000B5308D0000308F00031300200430031749
:1012F000C500FA30D9008A11031315258A15031782
:10130000C50B7929BC308D0000308F0003130020FD
:1013100004300317C500FA30D9008A1103131525CC
:101320008A150317C50B8B290330F800013003130E
:10133000C2008A110A16F22E03174A08073A03134D
:101340000319AC290B3A0319C529063A0319D52903
:10135000023A0319EF29F82901300317CB00CC001A
:101360004C0BB329B6294030CD00B729CD0101304F
:101370004B02CD074D088038CE00CF014E08D0007B
:101380008A11031329258A15012A0317CF01013079
:10139000D0008A11031329258A1502300317D900BA
:1013A0008A11031315258A15012A01300317CB0072
:1013B0000230CC004C0BDD29E0294030CD00E12982
:1013C000CD0101304B02CD074D088038CE00CF0152
:1013D0004E08D0008A11031329258A15012A031704
:1013E000CF011030D0008A11031329258A15012A54
:1013F00001300317CF004A08D0008A1103132925B2
:101400008A1508000B080317C80003138B138316F3
:1014100003178C170C14000000008312C81F132A36
:1014200003138B1703178C080319292A0D08C8000A
:101430000F08C9000C08CA0003139C2103174808B1
:101440008D0049088F008D0A03198F0A0313022AA1
:101450000317031308000B080317C70003138B13AC
:10146000831603178C170C14000000008312C71F8B
:101470003C2A03138B1703170C087F390319792AA9
:10148000C7000D08C8000F08C9004708CA000313A9
:101490009C21031748088D0049088F0003130B088F
:1014A0000317CA0003138B13831603178C170C142E
:1014B000000000008312CA1F602A03138B17031752
:1014C0000C0D0E0D7F390319792AC7000D08C800CD
:1014D0000F08C9004708CA0003139C2103174808D6
:1014E0008D0049088F008D0A03198F0A03132B2AD8
:1014F0000317031308000317C701C8017B30C90095
:101500002230CA006330CB006D30CC006430CD0097
:101510002230CE003A30CF002230D0006F30D100E0
:101520006B30D2002230D3007D30D400D5010313BC
:10153000590B152D52084F3C031DF32A5308503CFC
:10154000031DF32A303003171102C8001008303A87
:1015500003130319AF2A013A0319CF2AEF2A031004
:101560000317480D2B3E84008313840A0008D9001A
:1015700084030008D800DA00DB01DD01DC018A11F8
:101580000313DD278A1503175808DA00DB01DD0194
:101590008030DC008A110313DD278A15EF2A03103F
:1015A0000317480D2B3E84008313840A0008D900DA
:1015B00084030008D800DA000130DB00DD01DC0123
:1015C0008A110313DD278A1503175808DA00DB0197
:1015D000DD018030DC008A110313DD278A1501301C
:1015E0000317C700031352084E3C031DFD2B53087D
:1015F000433C031DFD2B0317D6010313D508031D20
:10160000072B0317560803135402031C342B013015
:1016100003175607D80010305607840083170008B8
:10162000D90003130B08F7008B13031758088D001C
:1016300059088C0083168C130C1555308D00AA3078
:101640008D008C148C18222B0C1177088312031335
:101650008B040A300317D9008A11031315258A1544
:101660000317D60AFD2A0313013003175607D800C3
:1016700003130B08F7008B13031758088D000D3068
:101680008C0083168C130C1555308D00AA308D00FC
:101690008C148C18492B0C117708831203138B04BC
:1016A0000A300317D9008A11031315258A15023051
:1016B00003175607D80003130B08F7008B13031703
:1016C00058088D000A308C0083168C130C15553089
:1016D0008D00AA308D008C148C186C2B0C1177089F
:1016E000831203138B040A300317D9008A110313E2
:1016F00015258A1514300317D9008A1103131525EF
:101700008A15C63003178D0000308F0003100B3090
:10171000D8008A11031349278A1550080C1E8E2BF6
:101720009900CC3003178D0000308F000314053072
:10173000D8008A11031349278A1532300317D900BC
:101740008A11031315258A154930840083178008F0
:101750000319C42B0317D9010408D8005910831B9F
:101760005914000803130C1EB32B990003175808D3
:101770008400831359188317840A031DC22B031393
:10178000850A03170313A72B64300317D9008A11A6
:10179000031315258A15D03003178D0000308F00F4
:1017A00003100C30D8008A11031349278A155008FA
:1017B0000C1ED82B99000D300C1EDC2B99000A3022
:1017C0000C1EE02B9900D93003178D0000308F00DC
:1017D0000313002004300317D800FA30D9008A110F
:1017E000031315258A150317D80BED2B8A01031354
:1017F000002801300317C700031352084E3C031D95
:10180000912C53084D3C031D912C0B08F7008B13B2
:1018100003178D0110088C0083168C130C1555309E
:101820008D00AA308D008C148C18142C0C117708A4
:10183000831203138B040A300317D9008A11031390
:1018400015258A1514300317D9008A11031315259D
:101850008A15DF3003178D0000308F0003100B3026
:10186000D8008A11031349278A1550080C1E362CFC
:101870009900E53003178D0000308F000314053008
:10188000D8008A11031349278A1532300317D9006B
:101890008A11031315258A1549308400831780089F
:1018A00003196C2C0317D9010408D8005910831BA5
:1018B0005914000803130C1E5B2C990003175808D9
:1018C0008400831359188317840A031D6A2C031399
:1018D000850A031703134F2C64300317D9008A11AC
:1018E000031315258A15E93003178D0000308F008A
:1018F00003100C30D8008A11031349278A155008A9
:101900000C1E802C99000D300C1E842C99000A307E
:101910000C1E882C99008A01002801300317C7008B
:10192000031314300317D9008A11031315258A15E0
:10193000F23003178D0000308F0003100B30D800F9
:101940008A11031349278A1550080C1EA52C9900EB
:10195000F83003178D0000308F0003140530D800D5
:101960008A11031349278A1532300317D9008A11C7
:10197000031315258A15493084008317800803193D
:10198000DB2C0317D9010408D8005910831B591404
:10199000000803130C1ECA2C990003175808840072
:1019A000831359188317840A031DD92C0313850A3E
:1019B00003170313BE2C64300317D9008A110313D5
:1019C00015258A15FC3003178D0000308F00031099
:1019D0000C30D8008A11031349278A1550080C1EB1
:1019E000EF2C99000D300C1EF32C99000A300C1EC0
:1019F000F72C99000317D7010313D508031D062DF3
:101A00000317570803135402031C0F2D103003173C
:101A10005707840083178001D70AFC2C0313D201D7
:101A2000D301D001D901D501D40103174708F8002B
:101A3000031308000317CC01CB01CE01CD01C80868
:101A4000031D262D4708133C03186B2E48084E3CF7
:101A5000031C6B2E031D302D4708203C031C6B2EEE
:101A6000D4010130D3008630D200A030D1008310E1
:101A70005408D8005308D7005208D6005108D500A2
:101A8000DC01DB014808DA004708D90083184B2D38
:101A90005D3084008317F701F801F901FA01DD01D7
:101AA000DE01DF01E0015C085B045A0459040319FC
:101AB000892D2030E1000310D50DD60DD70DD80D9E
:101AC000DD0DDE0DDF0DE00D5C086002031D722DE3
:101AD0005B085F02031D722D5A085E02031D722D02
:101AE00059085D02031C832D5908DD025A08031CA6
:101AF0005A0FDE025B08031C5B0FDF025C08031C4D
:101B00005C0FE0020314F70DF80DF90DFA0DE10B6F
:101B10005B2D5D088000840A5E088000840A5F08EF
:101B20008000840A600880007A08D4007908D30015
:101B30007808D2007708D1005408D8005308D7009D
:101B40005208D6005108D500DC01DB01DA0105306E
:101B5000D9002030E100DD01DE01DF01E00158089D
:101B6000FA005708F9005608F8005508F700031066
:101B7000771CC82D5908DD075A0803185A0FDE07CD
:101B80005B0803185B0FDF075C0803185C0FE007B6
:101B9000E00CDF0CDE0CDD0CFA0CF90CF80CF70C89
:101BA000E10BB72D7A08D4007908D3007808D20069
:101BB0007708D1005208D0005108CF0083160313D4
:101BC00006118312061503175008D500D50AD50350
:101BD0000319FB2DFF30D6000330D602031CFA2D6B
:101BE00056308400831700080319FA2DF82DF82DBC
:101BF000800BF72DE72D4F08D6000330D602031CCB
:101C00000B2E563084008317000803190B2E092E63
:101C1000092E800B082E4F08CD0750080318500FCF
:101C2000CE078316031306118312061103175008FB
:101C3000D500D50AD50303192E2EFF30D600033068
:101C4000D602031C2D2E563084008317000803197A
:101C50002D2E2B2E2B2E800B2A2E1A2E4F08D6001F
:101C60000330D602031C3E2E563084008317000832
:101C700003193E2E3C2E3C2E800B3B2E4F08CD07E9
:101C800050080318500FCE071930CD070318CE0A9D
:101C90004E08023C0318612EFF3A031D532E4D08D7
:101CA000E73C0318612EE830CD020330031C0430FA
:101CB000CE02CB0A0319CC0A1930CD070318CE0A7D
:101CC000482E4C084A02031C6B2E031DDE2D4908CA
:101CD0004B02031CDE2D031308000317C201C301CE
:101CE000420EF700F030F7057708C4000C30CA0048
:101CF00003139C21053003178D0001308F00440829
:101D00008D0703188F0A0313022201300317CB003B
:101D10000230CC004C0B8D2E902E4030CD00912EF9
:101D2000CD0101304B02CD074D088038CE00CF01E8
:101D30004E08D0008A11031329258A153B3003175A
:101D40008D0003308F0003132B220317C308031DDC
:101D5000252F03137B22831606168312061A052FDE
:101D600002300317C400FA30D9008A110313152575
:101D70008A150317C40BB32E0430C800B930C7004E
:101D8000CA011430C90003131A250317C20A4208F6
:101D900003135D020318CF2E0317C20103130317A9
:101DA000420EF700F030F7057708C4000C30CA0087
:101DB00003139C21053003178D0001308F00440868
:101DC0008D0703188F0A0313022201300317CB007B
:101DD0000230CC004C0BED2EF02E4030CD00F12E19
:101DE000CD0101304B02CD074D088038CE00CF0128
:101DF0004E08D0008A11031329258A153B3003179A
:101E00008D0003308F0003132B2283168616831256
:101E1000861A232F02300317C400FA30D9008A1122
:101E2000031315258A150317C40B0D2F0430C800A2
:101E3000B930C700CA011430C90003131A25013094
:101E40000317C3000313A52E031701304207F80040
:101E500003138A110A16FD2EF701F801031747082C
:101E600003104818F707F70CF80CC818F707F70C19
:101E7000F80C4819F707F70CF80CC819F707F70C16
:101E8000F80C481AF707F70CF80CC81AF707F70C04
:101E9000F80C481BF707F70CF80CC81BF707F70CF2
:061EA000F80C031308001A
:102000000317C201C3014208C7000F30C8000A12FB
:102010008A1503132C270A168A1178080317C4009F
:102020000C30CA000A128A1503139C210A168A1161
:10203000453003178D0001308F0044088D070318C9
:102040008F0A0A128A15031302220A168A11013016
:102050000317CB000230CC004C0B2F283228403025
:10206000CD003328CD0101304B02CD074D0880381B
:10207000CE00CF014E08D0000A12031329250A16FC
:102080003B3003178D0003308F000A128A150313AB
:102090002B220A168A110317C308031D0D290A12E1
:1020A0008A1503137B220A168A11831606168312D9
:1020B000061AC62802300317C400FA30D9000A12E3
:1020C000031315250A160317C40B5D280430C80036
:1020D000B930C700CA011430C9000A128A150313A7
:1020E0001A250A168A110317C20A420803135E0250
:1020F00003187D280317C201031303174208C70002
:102100000F30C8000A128A1503132C270A168A11E9
:1021100078080317C4000C30CA000A128A1503138A
:102120009C210A168A11453003178D0001308F005B
:1021300044088D0703188F0A0A128A150313022216
:102140000A168A1101300317CB000230CC004C0B69
:10215000AA28AD284030CD00AE28CD0101304B0279
:10216000CD074D088038CE00CF014E08D0000A12AE
:10217000031329250A163B3003178D0003308F0007
:102180000A128A1503132B220A168A118316861641
:102190008312861A0B2902300317C400FA30D900C3
:1021A0000A12031315250A160317C40BCE28043090
:1021B000C800B930C700CA011430C9000A128A1514
:1021C00003131A250A168A115E0803174202031D1B
:1021D000EC280130C3000C290310420D2B3E840073
:1021E0008313840A0008C50084030008C400DA00D1
:1021F0000130DB00DD01DC010A120313DD270A16C2
:1022000003174408DA00DB01DD018030DC000A122C
:102210000313DD270A1603174C280030F8000313B8
:102220008A110A16032F0317C201C301420EF700D9
:10223000F030F7057708C4000C30CA000A128A157E
:1022400003139C210A168A11DB3003178D0001301D
:102250008F0044088D0703188F0A0A128A1503138A
:1022600002220A168A1101300317CB000230CC007B
:102270004C0B3B293E294030CD003F29CD01013098
:102280004B02CD074D088038CE00CF014E08D0005C
:102290000A12031329250A163B3003178D00033059
:1022A0008F000A128A1503132B220A168A110317AC
:1022B000C308031D112A0A128A1503137B220A166A
:1022C0008A11831606168312061ACB2902300317C9
:1022D000C400FA30D9000A12031315250A16031791
:1022E000C40B69290430C800B930C700CA011430D2
:1022F000C9000A128A1503131A250A168A11031730
:10230000C20A420803135F02031889290317C20196
:1023100003130317420EF700F030F7057708C400E7
:102320000C30CA000A128A1503139C210A168A115E
:10233000DB3003178D0001308F0044088D07031830
:102340008F0A0A128A15031302220A168A11013013
:102350000317CB000230CC004C0BAF29B229403020
:10236000CD00B329CD0101304B02CD074D08803897
:10237000CE00CF014E08D0000A12031329250A16F9
:102380003B3003178D0003308F000A128A150313A8
:102390002B220A168A11831686168312861A0F2A92
:1023A00002300317C400FA30D9000A1203131525AE
:1023B0000A160317C40BD3290430C800B930C7006C
:1023C000CA011430C9000A128A1503131A250A1605
:1023D0008A115F0803174202031DF1290130C3006F
:1023E000102A0310420D2B3E84008313840A000838
:1023F000C50084030008C400DA00DB01DD01DC0154
:102400000A120313DD270A1603174408DA00DB015A
:10241000DD018030DC000A120313DD270A160317E2
:1024200058290030F80003138A110A16072F0317E2
:102430004408FA3E0318222D063E0313262D44308D
:1024400003178D0003308F000A128A1503132B2205
:102450000A168A110C300317CB000230CC004C0B4B
:10246000322A352A4030CD00362ACD0101304B02C8
:10247000CD074D088038CE00CF014E08D0000A129B
:10248000031329250A16383003178D0003308F00F7
:102490000A128A1503132B220A168A110A128A15A8
:1024A0007B220A168A11831686168312861A662ADA
:1024B00002300317C700FA30D9000A12031315259A
:1024C0000A160317C70B5B2A682A03134E2A031741
:1024D000222D4B3003178D0003308F000A128A150E
:1024E00003132B220A168A110C300317CB0002307B
:1024F000CC004C0B7C2A7F2A4030CD00802ACD01B5
:1025000001304B02CD074D088038CE00CF014E0878
:10251000D0000A12031329250A16383003178D003C
:1025200003308F000A128A1503132B220A168A1110
:102530000A128A157B220A168A11831686168312BE
:10254000861AB02A02300317C700FA30D9000A12DF
:10255000031315250A160317C70BA52AB22A03135E
:10256000982A0317222D503003178D0003308F0057
:102570000A128A1503132B220A168A110C3003172C
:10258000CB000230CC004C0BC62AC92A4030CD000B
:10259000CA2ACD0101304B02CD074D088038CE004C
:1025A000CF014E08D0000A12031329250A1638302D
:1025B00003178D0003308F000A128A1503132B2294
:1025C0000A168A110A128A157B220A168A118316A4
:1025D00086168312861AFA2A02300317C700FA30C9
:1025E000D9000A12031315250A160317C70BEF2A81
:1025F000FC2A0313E22A0317222D0317C501C60183
:102600004508C7000E30C8000A128A1503132C278C
:102610000A168A1178080317C7000C30CA000A127C
:102620008A1503139C210A168A11F23003178D00B4
:1026300002308F0047088D0703188F0A0A128A1587
:10264000031302220A168A1101300317CB0002304D
:10265000CC004C0B2C2B2F2B4030CD00302BCD0140
:1026600001304B02CD074D088038CE00CF014E0817
:10267000D0000A12031329250A163B3003178D00D8
:1026800003308F000A128A1503132B220A168A11AF
:102690000317C608031DC12C0A128A1503137B22D7
:1026A0000A168A11831606168312061AC32B0230E5
:1026B0000317C700FA30D9000A12031315250A16AA
:1026C0000317C70B5A2B0430C800B930C700CA0122
:1026D0001430C9000A128A1503131A250A168A1122
:1026E0000317C50A45080313610203187A2B031761
:1026F000C501031303174508C7000E30C8000A12AE
:102700008A1503132C270A168A1178080317C700A5
:102710000C30CA000A128A1503139C210A168A116A
:10272000F23003178D0002308F0047088D07031821
:102730008F0A0A128A15031302220A168A1101301F
:102740000317CB000230CC004C0BA72BAA2B403038
:10275000CD00AB2BCD0101304B02CD074D088038A9
:10276000CE00CF014E08D0000A12031329250A1605
:102770003B3003178D0003308F000A128A150313B4
:102780002B220A168A11831686168312861ABF2CEC
:1027900002300317C700FA30D9000A1203131525B7
:1027A0000A160317C70BCB2B0430C800B930C7007B
:1027B000CA011430C9000A128A1503131A250A1611
:1027C0008A11610803174502031DE92B0130C60079
:1027D000C02C4508003A03130319F52B013A0319DD
:1027E0000C2C033A0319232C392C643003178D0069
:1027F00003308F000A128A15031300200A168A116B
:102800006D3003178D0003308F000A128A150313F1
:102810002B220A168A11392C753003178D000330CC
:102820008F000A128A15031300200A168A117E30BF
:1028300003178D0003308F000A128A1503132B2211
:102840000A168A11392C843003178D0003308F004B
:102850000A128A15031300200A168A118D300317F5
:102860008D0003308F000A128A1503132B220A16DB
:102870008A110C300317CB000230CC004C0B412CDA
:10288000442C4030CD00452CCD0101304B02CD070A
:102890004D088038CE00CF014E08D0000A12031335
:1028A00029250A16383003178D0003308F000A12CD
:1028B0008A1503132B220A168A110A128A157B2203
:1028C0000A168A11831686168312861A752C023010
:1028D0000317C700FA30D9000A12031315250A1688
:1028E0000317C70B6A2C772C03135D2C03174508BD
:1028F000C7000E30C8000A128A1503132C270A16C7
:102900008A1178080317C7000C30CA000A128A150A
:1029100003139C210A168A11F23003178D0002302E
:102920008F0047088D0703188F0A0A128A150313B0
:1029300002220A168A1101300317CB000230CC00A4
:102940004C0BA32CA62C4030CD00A72CCD01013080
:102950004B02CD074D088038CE00CF014E08D00085
:102960000A12031329250A163B3003178D00033082
:102970008F000A128A1503132B220A168A110317D5
:10298000492B222D83168811083083128806881D52
:10299000D52C553003178D0003308F000A128A158D
:1029A00003132B220A168A11E02C5C3003178D00CA
:1029B00003308F000A128A1503132B220A168A117C
:1029C0000C300317CB000230CC004C0BE82CEB2C66
:1029D0004030CD00EC2CCD0101304B02CD074D082D
:1029E0008038CE00CF014E08D0000A1203132925EB
:1029F0000A16383003178D0003308F000A128A152B
:102A000003132B220A168A110A128A157B220A1630
:102A10008A11831686168312861A1C2D023003171C
:102A2000C700FA30D9000A12031315250A16031736
:102A3000C70B112D1E2D0313042D0317222D031771
:102A4000222D031703138A110A16202E0A148A1046
:102A50000A1582071F2A692AB32AFD2AC22C1F2DB4
:102A60000A128A157B220A168A110317C201C301B2
:102A70004208C7001130C8000A128A1503132C2718
:102A80000A168A1178080317C4000C30CA000A120B
:102A90008A1503139C210A168A117B3003178D00B7
:102AA00002308F0044088D0703188F0A0A128A1516
:102AB000031302220A168A1101300317CB000230D9
:102AC000CC004C0B642D672D4030CD00682DCD011E
:102AD00001304B02CD074D088038CE00CF014E08A3
:102AE000D0000A12031329250A163B3003178D0064
:102AF00003308F000A128A1503132B220A168A113B
:102B00000317C308031D6B2E8316031306168312C7
:102B1000061AF62D02300317C400FA30D9000A1243
:102B2000031315250A160317C40B8D2D0430C80096
:102B3000B930C700CA011430C9000A128A1503133C
:102B40001A250A168A110317C20A420803136002E3
:102B50000318AD2D0317C201031303174208C70062
:102B60001130C8000A128A1503132C270A168A117D
:102B700078080317C4000C30CA000A128A15031320
:102B80009C210A168A117B3003178D0002308F00BA
:102B900044088D0703188F0A0A128A1503130222AC
:102BA0000A168A1101300317CB000230CC004C0BFF
:102BB000DA2DDD2D4030CD00DE2DCD0101304B0270
:102BC000CD074D088038CE00CF014E08D0000A1244
:102BD000031329250A163B3003178D0003308F009D
:102BE0000A128A1503132B220A168A1183168616D7
:102BF0008312861A692E02300317C400FA30D900F6
:102C00000A12031315250A160317C40BFE2D0430F0
:102C1000C800B930C700CA011430C9000A128A15A9
:102C200003131A250A168A11600803174202031DAE
:102C30001C2E0130C3006A2E4208C4000313172A59
:102C400003174208C7001130C8000A128A1503137F
:102C50002C270A168A1178080317C4000C30CA0002
:102C60000A128A1503139C210A168A117B30031756
:102C70008D0002308F0044088D0703188F0A0A1256
:102C80008A15031302220A168A1101300317CB009A
:102C90000230CC004C0B4D2E502E4030CD00512E2A
:102CA000CD0101304B02CD074D088038CE00CF0159
:102CB0004E08D0000A12031329250A163B300317C9
:102CC0008D0003308F000A128A1503132B220A1677
:102CD0008A110317812D0030F80003138A110A1698
:102CE0000B2F03081F39830083160317871508303D
:102CF0000313990002309A00A63098009030831296
:102D000098008316061083120614C101C201C30184
:102D1000C401C501C601C701C801C901CA01CB016F
:102D2000CC01CD01CE01D501D401D601D701D80106
:102D3000D901DA01DB01DC010230DD000830DE0000
:102D4000DF000530E0000330E100E20183160317E5
:102D50000908C039890003131F129F12003003179E
:102D60008800831287018801890183134A30031385
:102D7000AB00AC014930AD00AE014830AF00B0014E
:102D80002C30B100B2012830B300B4012930B500B5
:102D9000B6012A30B700B8012B30B900BA01BB0127
:102DA000BC0102300317C200FA30D9000A12031323
:102DB00015250A160317C20BD42E303083160313C1
:102DC00095008113323086008C16C03083128B043C
:102DD0000A127B2E0A1683168811831288150A128E
:102DE0008A1552280A168A116208FC3E03180D2F14
:102DF000043E0F2F0A128A156D2E0A168A117808C2
:102E0000E2000D2F00287808E2000D2F1329780822
:102E1000E2000D2F302D7808E200F42E63000A1432
:0E2E20008A140A158207FA2E022F062F0A2F97
:04400E00E22FFF3E60
:00000001FF
;PIC16F887
;CRC=FC69  CREATED="10-dic.-17 16:03"
