:100000000E308A009F2E0000FF00030E8301A10026
:100010000A08A0008A010408A2007708A300780853
:10002000A4007908A5007A08A60003170D08031399
:10003000A70003170F080313A80003170C080313E6
:10004000A90003170E080313AA00831383128C3030
:100050008400801E2D288C1A4E2822088400230834
:10006000F7002408F8002508F9002608FA002708F8
:1000700003178D000313280803178F0003132908A3
:1000800003178C0003132A0803178E00031320089C
:100090008A00210E8300FF0E7F0E09008A110A12CA
:1000A0001B2B0A108A100A11820743344D34443442
:1000B0003A3445346E34633465346E3464346534B4
:1000C000723420344D3461346E34753461346C34A0
:1000D00000344134703461346734613464346F34D3
:1000E00020344D3461346E34753461346C342034D2
:1000F000003443346F346E34663469346734753495
:1001000072346134633469346F346E342034203493
:10011000003400340034003400340034003400343F
:10012000003400340034003400340034003400342F
:1001300000344F346E3420342D343E342034533464
:1001400061346C34693464346134203431340034C3
:100150004F346E3420342D343E34203453346134E3
:100160006C346934643461342034323400344F34B4
:100170006E3420342D343E342034533461346C34A6
:100180006934643461342034333400344F346E3491
:1001900020342D343E342034533461346C3469348B
:1001A000643461342034343400344F346E342034B9
:1001B0002D343E342034533461346C346934643427
:1001C00061342034353400344F346E3420342D34CF
:1001D0003E342034533461346C34693464346134D3
:1001E0002034363400344F346E3420342D343E34D1
:1001F0002034533461346C346934643461342034D1
:10020000373400344F346E3420342D343E342034AF
:10021000533461346C346934643461342034383498
:100220000034533441344C34493452342034203473
:10023000203420342034203420342034203400343E
:10024000003400340034003400340034003400340E
:1002500000340034003400340034003400344F34AF
:100260006634663420342D343E34203453346134C3
:100270006C346934643461342034313400344F34A4
:100280006634663420342D343E34203453346134A3
:100290006C346934643461342034323400344F3483
:1002A0006634663420342D343E3420345334613483
:1002B0006C346934643461342034333400344F3462
:1002C0006634663420342D343E3420345334613463
:1002D0006C346934643461342034343400344F3441
:1002E0006634663420342D343E3420345334613443
:1002F0006C346934643461342034353400344F3420
:100300006634663420342D343E3420345334613422
:100310006C346934643461342034363400344F34FE
:100320006634663420342D343E3420345334613402
:100330006C346934643461342034373400344F34DD
:100340006634663420342D343E34203453346134E2
:100350006C346934643461342034383400345334B8
:1003600041344C3449345234203420342034203445
:10037000203420342034203420342034003400341D
:1003800000340034003400340034003400340034CD
:100390000034003400340034003400340034563467
:1003A00045345234203449345034203420342034FD
:1003B00020342034203420342034203420340034BD
:1003C000563445345234203453345334493444344D
:1003D000203420342034203420342034203420347D
:1003E000003456344534523420344B344534593477
:1003F000203420342034203420342034203420345D
:100400002034003443346F346E3466342034413445
:10041000633463346534733473346F34203452344A
:100420006534643400344F346E342F344F346634C2
:10043000663420344234613463346B346C34693450
:100440006734683474340034533441344C344934A0
:1004500052342034203420342034203420342034CA
:10046000203420342034203400340034003400346C
:1004700000340034003400340034003400340034DC
:100480000034003400340034003400344534733414
:1004900074346134633469346F346E3420342034FE
:1004A00020342034203400344134633463346534E0
:1004B00073347334203450346F3469346E3474348C
:1004C0002034003445347334743461346334693413
:1004D0006F346E3420342B342034413450340034A3
:1004E000533441344C344934523420342034203491
:1004F00020342034203420342034003400340034BC
:10050000003400340034003400340034003400344B
:100510000034003400340034D320CC245200DB29D2
:10052000C9235D1020102010A02D4527D42E0000D7
:100530008C183919AE18361C2E18AE1800018C21F3
:10054000B023B32F552745008C18B219B420FA10E8
:1005500000010C21E1316B36E933683AA0276E00C7
:100560000C21E1316B36E933683AA027663300018C
:10057000412AAB21D7264F22C52FC422C61EB10661
:100580000A008C216F37E63467104336E9326E3A41
:100590006500412AAB21D7264F22C52FC422C61E93
:1005A000B2060A008C216F37E6346710412800013B
:1005B000412AAB21D7264F22C52FC422C61EB3061F
:1005C0000A008C216F37E63467104336E9326E3A01
:1005D000E5205000412A2B29532A0D050000412A0D
:1005E000AB21D7264F22C51EA5390D050000412A93
:1005F000AB2157254128BF060A00412AAB215725C8
:100600004128BD127300412AAB214928CD2AD81EAA
:10061000B1060A00412AAB214928D322522B452991
:10062000BD182C1CB0060A00C337ED306E326F1DAA
:10063000A01273100A008C1E1B2B1A088316C4000C
:100640008312C70803199B2B8316C6014408C500F3
:100650000430C7007C0B852B4508F7004608FA00DC
:100660007A08031D392B40307702831203193A2B85
:1006700083167D2B8316A001FC0172308400831346
:10068000800803197A2BC9010408C8004910831B8C
:1006900049140008CA000610831206100830F8003A
:1006A000512B0000F817642BF8138316CA0C831221
:1006B00003180614031C06107817642B7813F80B24
:1006C000552B622B00000614A7308400840B662B88
:1006D000692BF81B542B781B5E2B8316480884006B
:1006E000831349188317840A031D792B8312850A03
:1006F0008316402B0130FE00842B723020078400CB
:10070000831345088000A00A9A2B200883125120E9
:10071000F80083164502031D992BC608031D992B6B
:10072000A00A47082002031D982B0130FC00A001FD
:100730009A2BA00183128C128A110A122D28AD3037
:100740008400831300080319B22B0630F800F70168
:10075000F70BA82BF80BA72B7B30F700F70BAE2B72
:10076000800BA52B080083163418BA2B83120812AD
:10077000BC2B83168312081683160812B418C42BD8
:1007800083128812C62B831683128816831688124A
:100790003419CE2B83120813D02B8316831208171B
:1007A00083160813B419D82B83128813DA2B8316F7
:1007B0008312881783168813000083120814831687
:1007C00008100230F700F70BE32BE62B0000831232
:1007D00008108316081083120800831608100811E9
:1007E0008810831208118316081108168816081736
:1007F0008817831288148316881000008312081447
:10080000831608100000B501081600308312081A7C
:1008100001308316B504881600308312881A01301F
:10082000F7000310F70D77088316B504081700309A
:100830008312081B0130F700F70DF70DFC30F705A8
:1008400077088316B504881700308312881B01309F
:10085000F700F70DF70DF70DF830F7057708831659
:10086000B5043508F8007808B40083120810831620
:100870000810000083120814831608103F2C402C27
:100880000000B501081600308312081A01308316E3
:10089000B504881600308312881A0130F70003105F
:1008A000F70D77088316B504081700308312081B6C
:1008B0000130F700F70DF70DFC30F70577088316C8
:1008C000B504881700308312881B0130F700F70D3C
:1008D000F70DF70DF830F70577088316B5043508DE
:1008E000F8007808B3008312081083160810081265
:1008F000881208138813340EF700F030F7057708D4
:100900003304F8007808B300B31BF52BB108031DBE
:100910008D2C831208118F2C8316831208158316D1
:1009200008110000831288108316881000008312BB
:10093000081083160810320EB3000F30B3053308C9
:10094000B4008312B323831632080F39B300B40006
:100950008312B323080028308316A5000C30A600AC
:100960000130A7000630A800831208108316081073
:1009700083120811831608118312881083168810B9
:1009800008128812081388130810081188100F30F5
:10099000AD0083129F2301308316A4002408033C7A
:1009A000031CDE2C0330B4008312B32305308316FE
:1009B000AD0083129F238316A40ACE2C0230B4000C
:1009C0008312B32305308316AD0083129F23831651
:1009D000A4012408033C031CFB2CA530240784003D
:1009E00083130008A900B1012908B2008312ED2386
:1009F0008316A40AE92C83128A150A124A2F831639
:100A0000A7018312C808031D2B2D4A0B0E2DCF0101
:100A1000CA0101308316A700292D8312490B172D17
:100A2000CE01C90102308316A700292D83124B0B7A
:100A3000202DD001CB0103308316A700292D83126E
:100A40004C0B2A2DD101CC010130C8000430831693
:100A5000A7008312022DC801C60183162708F800DB
:100A6000831208000B088316A90083128B138316C8
:100A700003178C170C14000000000313A91F432D4B
:100A800083128B178316831203170C087F390319FF
:100A9000A62D83160313A900831203170D088316CE
:100AA0000313AA00831203170F0883160313AB0066
:100AB000290883120C1E5A2D990083162A088312C6
:100AC00003178D00831603132B08831203178F005F
:100AD00003130B088316AC0083128B1383160317C2
:100AE0008C170C14000000000313AC1F7A2D831226
:100AF0008B178316831203170C0D0E0D7F39031904
:100B0000A62D83160313A900831203170D0883165D
:100B10000313AA00831203170F0883160313AB00F5
:100B2000290883120C1E922D990083162A0883121D
:100B300003178D00831603132B08831203178F00EE
:100B40008D0A03198F0A0313322D031703130800AC
:100B500083162C08073A83120319B82D0B3A031990
:100B6000CF2D063A0319DB2D023A0319F32DFA2D86
:100B700001308316AD00AE002E0BBF2DC22D4030CC
:100B8000AF00C32DAF0101302D02AF072F08803811
:100B9000B000B1013008B2008312ED23012E83169C
:100BA000B1010130B2008312ED2302308316AD0093
:100BB00083129F23012E01308316AD000230AE0058
:100BC0002E0BE32DE62D4030AF00E72DAF010130B5
:100BD0002D02AF072F088038B000B1013008B200F5
:100BE0008312ED23012E8316B1011030B20083125F
:100BF000ED23012E01308316B1002C08B2008312C0
:100C0000ED2308000B088316AA0083128B138316AA
:100C100003178C170C14000000000313AA1F132ED7
:100C200083128B178316831203178C0803193B2E2C
:100C30000D0883160313AA00831203170F088316E7
:100C40000313AB00831203170C0883160313AC00C5
:100C50008312A82583162A08831203178D00831692
:100C600003132B08831203178F008D0A03198F0AB1
:100C70000313022E0317031308000B088316A900A1
:100C800083128B13831603178C170C1400000000BB
:100C90000313A91F4E2E83128B178316831203177B
:100CA0000C087F390319AF2E83160313A900831292
:100CB00003170D0883160313AA00831203170F08E6
:100CC00083160313AB002908AC008312A8258316F2
:100CD0002A08831203178D00831603132B0883122F
:100CE00003178F0003130B088316AC0083128B13BA
:100CF000831603178C170C14000000000313AC1F9D
:100D0000842E83128B178316831203170C0D0E0D7E
:100D10007F390319AF2E83160313A900831203171B
:100D20000D0883160313AA00831203170F088316F6
:100D30000313AB002908AC008312A82583162A08E8
:100D4000831203178D00831603132B0883120317D6
:100D50008F008D0A03198F0A03133D2E0317031307
:100D600008008316AE01AD01B001AF01AA08031D52
:100D7000BD2E2908133C0318FE2F2A084E3C031CE5
:100D8000FE2F031DC72E2908203C031CFE2FB60191
:100D90000130B5008630B400A030B30083103608AF
:100DA000BA003508B9003408B8003308B700BE01EE
:100DB000BD012A08BC002908BB008318E22EBF3001
:100DC00084008313F701F801F901FA01BF01C001A2
:100DD000C101C2013E083D043C043B040319202F1D
:100DE0002030C3000310B70DB80DB90DBA0DBF0DFB
:100DF000C00DC10DC20D3E084202031D092F3D0862
:100E00004102031D092F3C084002031D092F3B0826
:100E10003F02031C1A2F3B08BF023C08031C3C0F77
:100E2000C0023D08031C3D0FC1023E08031C3E0FDB
:100E3000C2020314F70DF80DF90DFA0DC30BF22ED3
:100E40003F088000840A40088000840A410880002E
:100E5000840A420880007A08B6007908B50078084C
:100E6000B4007708B3003608BA003508B900340872
:100E7000B8003308B700BE01BD01BC010530BB009E
:100E80002030C300BF01C001C101C2013A08FA000D
:100E90003908F9003808F8003708F7000310771C04
:100EA0005F2F3B08BF073C0803183C0FC0073D08F5
:100EB00003183D0FC1073E0803183E0FC207C20CBE
:100EC000C10CC00CBF0CFA0CF90CF80CF70CC30BDE
:100ED0004E2F7A08B6007908B5007808B400770874
:100EE000B3003408B2003308B100061183120615AE
:100EF00083163208B700B70AB7030319902FFF30E3
:100F0000B8000330B802031C8F2FB830840083135D
:100F1000000803198F2F8D2F8D2F800B8C2F7C2F86
:100F20003108B8000330B802031CA02FB830840089
:100F3000831300080319A02F9E2F9E2F800B9D2F37
:100F40003108AF0732080318320FB00706118312B9
:100F5000061183163208B700B70AB7030319C12F69
:100F6000FF30B8000330B802031CC02FB830840033
:100F7000831300080319C02FBE2FBE2F800BBD2F77
:100F8000AD2F3108B8000330B802031CD12FB830A0
:100F90008400831300080319D12FCF2FCF2F800B8C
:100FA000CE2F3108AF0732080318320FB0071930BF
:100FB000AF070318B00A3008023C0318F42FFF3AB9
:100FC000031DE62F2F08E73C0318F42FE830AF028B
:100FD0000330031C0430B002AD0A0319AE0A193005
:100FE000AF070318B00ADB2F2E082C02031CFE2FBC
:100FF000031D752F2B082D02031C752F831208006B
:1010000033308316A400A501A8015230A700EF30A9
:10101000831203178D0002308F0003100A308316ED
:101020000313A90083120B088316AA0083128B13E3
:10103000831603178C170C14000000000313AA1F5B
:10104000242883128B17831603185E288312031734
:101050000C087F3983160313AA00831203170D08A7
:1010600083160313AB00831203170F0883160313B1
:10107000AC002A0883120C1E3B28990083162B080B
:10108000831203178D00831603132C088312031792
:101090008F0003130B088316AD0083128B13831686
:1010A00003178C170C14000000000313AD1F5B28FE
:1010B00083128B178316A90B5E288A2883120317C5
:1010C0000C0D0E0D7F3983160313AA00831203172C
:1010D0000D0883160313AB00831203170F08831642
:1010E0000313AC002A0883120C1E7428990083167F
:1010F0002B08831203178D00831603132C08831209
:1011000003178F008D0A03198F0A03108316031328
:10111000A90B122827088400831328188317800836
:101120000319AA28AA010408A9002A10831B2A145B
:10113000000883120C1E9A2899008316290884003F
:1011400083132A188317840A031DA9288312850A8A
:1011500083168F280D3083120C1EAC2899000A309C
:101160000C1EB02899000130F8007808C6008A11DA
:10117000FF248A15F73003178D0002308F008A1183
:10118000031332258A150230F8007808C6008A1148
:10119000FF248A1578088316A6002608023C031D42
:1011A0003D2AA8015430A700FD30831203178D009B
:1011B00002308F000310093083160313A900831235
:1011C0000B088316AA0083128B13831603178C1740
:1011D0000C14000000000313AA1FF12883128B17C0
:1011E000831603182B29831203170C087F398316E3
:1011F0000313AA00831203170D0883160313AB0011
:10120000831203170F0883160313AC002A088312F6
:101210000C1E0829990083162B08831203178D00D2
:10122000831603132C08831203178F0003130B0874
:101230008316AD0083128B13831603178C170C14BF
:10124000000000000313AD1F282983128B1783169B
:10125000A90B2B295729831203170C0D0E0D7F396B
:1012600083160313AA00831203170D0883160313B2
:10127000AB00831203170F0883160313AC002A0870
:1012800083120C1E4129990083162B088312031721
:101290008D00831603132C08831203178F008D0A09
:1012A00003198F0A031083160313A90BDF282708DD
:1012B0008400831328188317800803197729AA014B
:1012C0000408A9002A10831B2A14000883120C1E8C
:1012D0006729990083162908840083132A18831725
:1012E000840A031D76298312850A83165C2903303C
:1012F000F80078088312C6008A11FF248A1578083E
:101300008316A6002608043C031D3D2AA801A4302C
:10131000A700EF30831203178D0002308F000310F7
:101320000A3083160313A90083120B088316AA0040
:1013300083128B13831603178C170C140000000004
:101340000313AA1FA62983128B1783160318E029FB
:10135000831203170C087F3983160313AA00831224
:1013600003170D0883160313AB00831203170F082E
:1013700083160313AC002A0883120C1EBD299900A2
:1013800083162B08831203178D00831603132C0872
:10139000831203178F0003130B088316AD0083120B
:1013A0008B13831603178C170C1400000000031313
:1013B000AD1FDD2983128B178316A90BE0290C2A98
:1013C000831203170C0D0E0D7F3983160313AA0029
:1013D000831203170D0883160313AB008312031740
:1013E0000F0883160313AC002A0883120C1EF6297B
:1013F000990083162B08831203178D00831603139D
:101400002C08831203178F008D0A03198F0A03100B
:1014100083160313A90B9429270884008313281823
:101420008317800803192C2AAA010408A9002A108E
:10143000831B2A14000883120C1E1C2A9900831691
:101440002908840083132A188317840A031D2B2A72
:101450008312850A8316112A0D3083120C1E2E2A40
:1014600099000A300C1E322A99000130F8007808E1
:10147000C6008A11FF248A158316033083120317CE
:101480008D0003308F008A11031332258A15043032
:101490008316A700FA30AD008A1183129F238A15A4
:1014A0008316A70B4A2A0A30831203178D000330D4
:1014B0008F008A11031332258A1504308316A70082
:1014C000FA30AD008A1183129F238A158316A70B69
:1014D000602A0330F80001308312C7008A150A120F
:1014E000502F8316A401A501240EF700F030F70554
:1014F0007708A6000C30AC008A118312A8258A1543
:10150000593003178D0000308F008316031326080F
:10151000831203178D0703188F0A8A1103130226FB
:101520008A1501308316AD000230AE002E0B992AC9
:101530009C2A4030AF009D2AAF0101302D02AF0739
:101540002F088038B000B1013008B2008A11831230
:10155000ED238A158F3003178D0002308F008A111A
:1015600003133D268A158316A508031D3E2B061678
:101570008312061A1C2B02308316A600FA30AD0027
:101580008A1183129F238A158316A60BBE2A043064
:10159000AA00B930A900AC011430AB008A11831243
:1015A000B1268A158316A40A24088312410203185F
:1015B000DC2A8316A40183128316240EF700F03070
:1015C000F7057708A6000C30AC008A118312A82515
:1015D0008A15593003178D0000308F0083160313CE
:1015E0002608831203178D0703188F0A8A11031325
:1015F00002268A1501308316AD000230AE002E0B94
:10160000022B052B4030AF00062BAF0101302D021D
:10161000AF072F088038B000B1013008B2008A113E
:101620008312ED238A158F3003178D0002308F004F
:101630008A1103133D268A15831686168312861A8D
:101640003C2B02308316A600FA30AD008A118312BB
:101650009F238A158316A60B242B0430AA00B930C9
:10166000A900AC011430AB008A118312B1268A158F
:1016700001308316A5008312B32A83160130240794
:10168000F80083128A150A12592FF701F801831600
:10169000290803102A18F707F70CF80CAA18F707FF
:1016A000F70CF80C2A19F707F70CF80CAA19F7072A
:1016B000F70CF80C2A1AF707F70CF80CAA1AF70718
:1016C000F70CF80C2A1BF707F70CF80CAA1BF70706
:1016D000F70CF80C83120800831628080739F70066
:1016E000280CF800F80CF80C1F30F80578082A07C9
:1016F000840083132B188317F801F80AF70A812B4B
:10170000F80DF70B802BA9080319892B78088004A2
:101710008C2BF80978088005831208008316A40131
:10172000A5012408A9000F30AA00831245237808D8
:101730008316A6000C30AC008A118312A8258A15E6
:10174000993003178D0000308F008316031326088D
:10175000831203178D0703188F0A8A1103130226B9
:101760008A1501308316AD000230AE002E0BB92B66
:10177000BC2B4030AF00BD2BAF0101302D02AF07B5
:101780002F088038B000B1013008B2008A118312EE
:10179000ED238A158F3003178D0002308F008A11D8
:1017A00003133D268A158316A508031D802C0616F3
:1017B0008312061A3F2C02308316A600FA30AD00C1
:1017C0008A1183129F238A158316A60BDE2B043001
:1017D000AA00B930A900AC011430AB008A11831201
:1017E000B1268A158316A40A24088312420203181C
:1017F000FC2B8316A401831283162408A9000F3042
:10180000AA008312452378088316A6000C30AC008A
:101810008A118312A8258A15993003178D0000308C
:101820008F00831603132608831203178D070318EE
:101830008F0A8A11031302268A1501308316AD0020
:101840000230AE002E0B252C282C4030AF00292C66
:10185000AF0101302D02AF072F088038B000B10171
:101860003008B2008A118312ED238A158F300317D6
:101870008D0002308F008A1103133D268A158316CE
:1018800086168312861A7E2C02308316A600FA3042
:10189000AD008A1183129F238A158316A60B472C4D
:1018A0000430AA00B930A900AC011430AB008A1191
:1018B0008312B1268A15420883162402031D632C65
:1018C0000130A5007F2C0310240D2B3E84008313D0
:1018D000840A0008A70084030008A600A8000130BD
:1018E000A900AB01AA0183126C2383162608A80065
:1018F000A901AB018030AA0083126C238316D42B7C
:101900000030F80083128A150A125E2F8316A40194
:10191000A501240EF700F030F7057708A6000C307B
:10192000AC008A118312A8258A152F3003178D0069
:1019300001308F00831603132608831203178D07C7
:1019400003188F0A8A11031302268A1501308316A1
:10195000AD000230AE002E0BAE2CB12C4030AF00EB
:10196000B22CAF0101302D02AF072F088038B00034
:10197000B1013008B2008A118312ED238A158F302D
:1019800003178D0002308F008A1103133D268A153C
:101990008316A508031D712D06168312061A312D14
:1019A00002308316A600FA30AD008A1183129F23FD
:1019B0008A158316A60BD32C0430AA00B930A900CF
:1019C000AC011430AB008A118312B1268A1583163C
:1019D000A40A2408831243020318F12C8316A401DD
:1019E00083128316240EF700F030F7057708A6005F
:1019F0000C30AC008A118312A8258A152F300317EA
:101A00008D0001308F0083160313260883120317FD
:101A10008D0703188F0A8A11031302268A150130D5
:101A20008316AD000230AE002E0B172D1A2D40305C
:101A3000AF001B2DAF0101302D02AF072F088038FA
:101A4000B000B1013008B2008A118312ED238A156B
:101A50008F3003178D0002308F008A1103133D264B
:101A60008A15831686168312861A6F2D0230831606
:101A7000A600FA30AD008A1183129F238A158316BF
:101A8000A60B392D0430AA00B930A900AC011430DE
:101A9000AB008A118312B1268A15430883162402EB
:101AA000031D552D0130A500702D0310240D2B3E74
:101AB00084008313840A0008A70084030008A6009A
:101AC000A800A901AB01AA0183126C238316260882
:101AD000A800A901AB018030AA0083126C238316F1
:101AE000C92C0030F80083128A150A12632F83165E
:101AF000A401A5012408A9001130AA0083124523DE
:101B000078088316A6000C30AC008A118312A82531
:101B10008A15CF3003178D0001308F008316031311
:101B20002608831203178D0703188F0A8A110313DF
:101B300002268A1501308316AD000230AE002E0B4E
:101B4000A22DA52D4030AF00A62DAF0101302D02F2
:101B5000AF072F088038B000B1013008B2008A11F9
:101B60008312ED238A158F3003178D0002308F000A
:101B70008A1103133D268A158316A508031D992E85
:101B800006168312061A282E02308316A600FA3093
:101B9000AD008A1183129F238A158316A60BC72DC9
:101BA0000430AA00B930A900AC011430AB008A118E
:101BB0008312B1268A158316A40A240883124402CC
:101BC0000318E52D8316A401831283162408A900A7
:101BD0001130AA008312452378088316A6000C3022
:101BE000AC008A118312A8258A15CF3003178D0007
:101BF00001308F00831603132608831203178D0705
:101C000003188F0A8A11031302268A1501308316DE
:101C1000AD000230AE002E0B0E2E112E4030AF0064
:101C2000122EAF0101302D02AF072F088038B0000F
:101C3000B1013008B2008A118312ED238A158F306A
:101C400003178D0002308F008A1103133D268A1579
:101C5000831686168312861A972E02308316A600E4
:101C6000FA30AD008A1183129F238A158316A60BC2
:101C7000302E0430AA00B930A900AC011430AB00FA
:101C80008A118312B1268A15440883162402031D83
:101C90004C2E0130A500982E2408A6000A168A11A1
:101CA000831200280A128A1583162408A90011300D
:101CB000AA008312452378088316A6000C30AC00D6
:101CC0008A118312A8258A15CF3003178D000130A1
:101CD0008F00831603132608831203178D0703183A
:101CE0008F0A8A11031302268A1501308316AD006C
:101CF0000230AE002E0B7D2E802E4030AF00812EA4
:101D0000AF0101302D02AF072F088038B000B101BC
:101D10003008B2008A118312ED238A158F30031721
:101D20008D0002308F008A1103133D268A15831619
:101D3000BD2D0030F80083128A150A12682F03089F
:101D40001F39830083160317871508300313990082
:101D500002309A00A63098009030831298008316C3
:101D60000610831206140230C1000830C200C300FE
:101D70000530C4000330C500C601C701C801C90150
:101D8000CA01CB01CC01CD01CE01CF01D001D101DF
:101D9000FC01FD01FE018316A001A101A201A30126
:101DA00003170908C039890003131F129F1200305E
:101DB00003178800831287018801890183134A3041
:101DC0000313AB00AC014930AD00AE014830AF00A9
:101DD000B0012C30B100B2012830B300B401293079
:101DE000B500B6012A30B700B8012B30B900BA01EE
:101DF000BB01BC013130D200D3012230D4005530B8
:101E0000D5004E30D6004530D7005F30D800433083
:101E1000D9003030DA003630DB004530DC002230CB
:101E2000DD002C30DE002230DF003030E000E10049
:101E30003930E2003830E3003630E4003330E5007A
:101E40003430E600E7003230E8003030E900EA00E4
:101E50003730EB00EC003130ED002230EE000D3079
:101E6000EF000A30F00002308316A400FA30AD0013
:101E70008A1183129F238A158316A40B362F3030C4
:101E800095008113323086008C16C03083128B048B
:101E90008A11AB2C8A1583168811831288150028A5
:101EA00083162308FC3E03186D2F043E83126F2F08
:101EB000712A78088316A3006D2F8E2B780883165D
:101EC000A3006D2F862C78088316A3006D2F772D25
:101ED00078088316A3006D2F8316512F63000A1410
:0E1EE0008A140A158207582F5D2F622F672F74
:1020000083162608FA3E0318C12A063E8312C52A03
:10201000983003178D0002308F000A1203133D26FB
:102020000A160C308316AD000230AE002E0B1928B4
:102030001C284030AF001D28AF0101302D02AF0732
:102040002F088038B000B1013008B2000A128312A4
:10205000ED230A168C3003178D0002308F000A1210
:1020600003133D260A16831686168312861A4628FF
:1020700002308316A900FA30AD000A1283129F23A2
:102080000A168316A90B3B28482883123328831687
:10209000C12A9F3003178D0002308F000A120313EC
:1020A0003D260A160C308316AD000230AE002E0B12
:1020B0005A285D284030AF005E28AF0101302D0264
:1020C000AF072F088038B000B1013008B2000A1203
:1020D0008312ED230A168C3003178D0002308F0017
:1020E0000A1203133D260A16831686168312861AD1
:1020F000872802308316A900FA30AD000A12831235
:102100009F230A168316A90B7C288928831274281A
:102110008316C12AA43003178D0002308F000A12E3
:1021200003133D260A160C308316AD000230AE00B4
:102130002E0B9B289E284030AF009F28AF01013016
:102140002D02AF072F088038B000B1013008B2006F
:102150000A128312ED230A168C3003178D00023009
:102160008F000A1203133D260A1683168616831261
:10217000861AC82802308316A900FA30AD000A1268
:1021800083129F230A168316A90BBD28CA2883121F
:10219000B5288316C12A8316A701A8012708A9001C
:1021A0000E30AA000A128A15831245230A168A11D4
:1021B00078088316A9000C30AC000A128312A825F7
:1021C0000A16463003178D0002308F008316031362
:1021D0002908831203178D0703188F0A0A120313A5
:1021E00002260A1601308316AD000230AE002E0B17
:1021F000FA28FD284030AF00FE28AF0101302D0243
:10220000AF072F088038B000B1013008B2000A12C1
:102210008312ED230A168F3003178D0002308F00D2
:102220000A1203133D260A168316A808031D6B2AFB
:1022300006168312061A842902308316A900FA3082
:10224000AD000A1283129F230A168316A90B1F29B9
:102250000430AA00B930A900AC011430AB000A1256
:102260008312B1260A168316A70A2708831245028D
:1022700003183D298316A701831283162708A90096
:102280000E30AA000A128A15831245230A168A11F3
:1022900078088316A9000C30AC000A128312A82516
:1022A0000A16463003178D0002308F008316031381
:1022B0002908831203178D0703188F0A0A120313C4
:1022C00002260A1601308316AD000230AE002E0B36
:1022D0006A296D294030AF006E29AF0101302D020F
:1022E000AF072F088038B000B1013008B2000A12E1
:1022F0008312ED230A168F3003178D0002308F00F2
:102300000A1203133D260A16831686168312861AAE
:10231000692A02308316A900FA30AD000A1283122E
:102320009F230A168316A90B8C290430AA00B93002
:10233000A900AC011430AB000A128312B1260A16B0
:10234000450883162702031DA8290130A8006A2A20
:102350002708003A83120319B429013A0319C7293F
:10236000033A0319DA29EC29B83003178D0002303B
:102370008F000A12031332250A16C13003178D008D
:1023800002308F000A1203133D260A16EC29C930C9
:1023900003178D0002308F000A12031332250A162C
:1023A000D23003178D0002308F000A1203133D262E
:1023B0000A16EC29D83003178D0002308F000A125C
:1023C000031332250A16E13003178D0002308F0007
:1023D0000A1203133D260A160C308316AD00023094
:1023E000AE002E0BF429F7294030AF00F829AF01D9
:1023F00001302D02AF072F088038B000B10130083E
:10240000B2000A128312ED230A168C3003178D00D6
:1024100002308F000A1203133D260A168316861611
:102420008312861A212A02308316A900FA30AD00E1
:102430000A1283129F230A168316A90B162A232A2F
:1024400083120E2A83162708A9000E30AA000A124A
:102450008A15831245230A168A1178088316A90063
:102460000C30AC000A128312A8250A164630031756
:102470008D0002308F00831603132908831203177F
:102480008D0703188F0A0A12031302260A16013059
:102490008316AD000230AE002E0B4F2A522A403078
:1024A000AF00532AAF0101302D02AF072F0880384B
:1024B000B000B1013008B2000A128312ED230A16EF
:1024C0008F3003178D0002308F000A1203133D2650
:1024D0000A1683161529C12A83168811083083121B
:1024E0008806881D7D2AA93003178D0002308F00D1
:1024F0000A1203133D260A16862AB03003178D00F0
:1025000002308F000A1203133D260A160C30831680
:10251000AD000230AE002E0B8E2A912A4030AF0063
:10252000922AAF0101302D02AF072F088038B0008A
:10253000B1013008B2000A128312ED230A168C3062
:1025400003178D0002308F000A1203133D260A166E
:10255000831686168312861ABB2A02308316A900B8
:10256000FA30AD000A1283129F230A168316A90BB4
:10257000B02ABD2A8312A82A8316C12A8316C12A2B
:10258000831683128A150A12522E0A108A140A110F
:0E2590008207082849288A28CB286C2ABE2AF0
:04400E00E22FFF3E60
:00000001FF
;PIC16F887
;CRC=3F12  CREATED="06-dic.-17 00:41"
