:1000000013308A00EC2B0000FF00030E8301A100D7
:100010000A08A0008A010408A2007708A300780853
:10002000A4007908A5007A08A60003170D08031399
:10003000A70003170F080313A80003170C080313E6
:10004000A90003170E080313AA00831383128C3030
:100050008400801E2D288C1A4E2822088400230834
:10006000F7002408F8002508F9002608FA002708F8
:1000700003178D000313280803178F0003132908A3
:1000800003178C0003132A0803178E00031320089C
:100090008A00210E8300FF0E7F0E09008A110A12CA
:1000A000462B0A108A100A1182074F344B340D3444
:1000B0000A340A108A100A1182074E346F34203431
:1000C000413450340A108A100A1182072B34433409
:1000D00057344A34413450343A340A108A100A11E1
:1000E000820743344F344E344E3445344334543411
:1000F000453444340A108A100A11820746344134C8
:1001000049344C3443346C34693465346E3474345B
:1001100065342034203420342034203400344134F9
:1001200063346334653473347334203450346F343F
:1001300069346E347434003443346C346934653457
:100140006E347434653420342B34203441345034CC
:100150000034533441344C34493452342034203444
:10016000203420342034203420340034003400344F
:1001700000340034003400340034003400340034DF
:10018000003400340034D320CC245200DB29C923AE
:100190005D1020102010A02D4527D42E00008C21AA
:1001A0006F37E63467104336E9326E3A65008C21CA
:1001B0006F37E6346710412800018C216F37E63431
:1001C00067104336E9326E3AE52050008C18391931
:1001D000AE18361C2E18AE1800018C21B023B32F98
:1001E000552745008C18B219B420FA1000010C21D3
:1001F000E1316B36E933683AA0276E000C21E1311A
:100200006B36E933683AA0276633000145346E3413
:10021000633465346E3464346534723420344D3460
:1002200061346E34753461346C340034413470346C
:1002300061346734613464346F3420344D34613454
:100240006E34753461346C342034003443346F348C
:100250006E346634693467347534723461346334AF
:1002600069346F346E342034203400340034003468
:1002700000340034003400340034003400340034DE
:100280000034003400340034003400344F346E3411
:1002900020342D343E342034533461346C3469348A
:1002A000643461342034313400344F346E342034BB
:1002B0002D343E342034533461346C346934643426
:1002C00061342034323400344F346E3420342D34D1
:1002D0003E342034533461346C34693464346134D2
:1002E0002034333400344F346E3420342D343E34D3
:1002F0002034533461346C346934643461342034D0
:10030000343400344F346E3420342D343E342034B1
:10031000533461346C34693464346134203435349A
:1003200000344F346E3420342D343E342034533472
:1003300061346C34693464346134203436340034CC
:100340004F346E3420342D343E34203453346134F1
:100350006C346934643461342034373400344F34BD
:100360006E3420342D343E342034533461346C34B4
:1003700069346434613420343834003453344134C3
:100380004C34493452342034203420342034203446
:10039000203420342034203400340034003400343D
:1003A00000340034003400340034003400340034AD
:1003B00000340034003400344F3466346634203462
:1003C0002D343E342034533461346C346934643415
:1003D00061342034313400344F3466346634203490
:1003E0002D343E342034533461346C3469346434F5
:1003F00061342034323400344F346634663420346F
:100400002D343E342034533461346C3469346434D4
:1004100061342034333400344F346634663420344D
:100420002D343E342034533461346C3469346434B4
:1004300061342034343400344F346634663420342C
:100440002D343E342034533461346C346934643494
:1004500061342034353400344F346634663420340B
:100460002D343E342034533461346C346934643474
:1004700061342034363400344F34663466342034EA
:100480002D343E342034533461346C346934643454
:1004900061342034373400344F34663466342034C9
:1004A0002D343E342034533461346C346934643434
:1004B0006134203438340034533441344C344934BA
:1004C000523420342034203420342034203420345A
:1004D000203420342034003400340034003400341C
:1004E000003400340034003400340034003400346C
:1004F000003400340034003456344534523420344F
:1005000049345034203420342034203420342034F2
:1005100020342034203420340034563445345234CE
:100520002034533453344934443420342034203478
:1005300020342034203420342034003456344534E0
:10054000523420344B344534593420342034203450
:1005500020342034203420342034203400344334F8
:100560006F346E346634203441346334633465341C
:10057000733473346F34203452346534643400344B
:100580004F346E342F344F34663466342034423462
:10059000613463346B346C34693467346834743474
:1005A0000034533441344C344934523420342034F0
:1005B000203420342034203420342034203420349B
:1005C000203400340034003400340034003400346B
:1005D000003400340034003400340034003400347B
:1005E000003400340034412A2B29532A0D05000021
:1005F000412AAB21D7264F22C51EA5390D05000083
:10060000412AAB2157254128BF060A00412AAB21C8
:1006100057254128BD127300412AAB214928CD2A14
:10062000D81EB1060A00412AAB214928D322522BF9
:100630004529BD182C1CB0060A0004308316E000C2
:10064000831268085120F80083165F02031D3E2BB9
:100650005F30831268078400831383165F0880006D
:100660008312E80A8316600883126802031D3B2B7D
:100670000130E3003C2BE301452B83168312E80194
:10068000E301DF01E001E101E20108008C1E462BDD
:100690001A088316DD005D08DE0083125E08013A49
:1006A0000319592B033A03195F2B013A0319A52BA0
:1006B000EB2B83165E08DF0083121D23EC2B8316C1
:1006C0005E08DF000530E000831269085920F80059
:1006D00083165F02031D7D2B831269085920F800E1
:1006E00083168312E90A8316600883126902031DC8
:1006F0007B2B0130E4007F2B83168312E9018316E4
:100700005E08DF000730E00083126A086220F8000C
:1007100083165F02031D9D2B83126A086220F80076
:1007200083168312EA0A8316600883126A02031D85
:100730009B2B0130E5009F2B83168312EA01831661
:100740005E08DF0083121D23EC2B83165E08DF009A
:100750000930E00083126B086D20F80083165F02F9
:10076000031DC32B83126B086D20F80083168312C0
:10077000EB0A8316600883126B02031DC12B013044
:10078000E600C52B83168312EB0183165E08DF009B
:100790000430E00083126C087A20F80083165F02B0
:1007A000031DE32B83126C087A20F8008316831252
:1007B000EC0A8316600883126C02031DE12B0130E2
:1007C000E700E52B83168312EC0183165E08DF0039
:1007D00083121D23EC2BDE018C128A110A122D28A4
:1007E000C6308400831300080319032C0630F80078
:1007F000F701F70BF92BF80BF82B7B30F700F70B11
:10080000FF2B800BF62B08008316081008118810A8
:1008100083120811831608110816881608178817FE
:10082000831288148316881000008312081483161C
:1008300008100000CE01081600308312081A01309B
:100840008316CE04881600308312881A0130F70010
:100850000310F70D77088316CE04081700308312B3
:10086000081B0130F700F70DF70DFC30F70577088E
:100870008316CE04881700308312881B0130F700DE
:10088000F70DF70DF70DF830F70577088316CE044E
:100890004E08F8007808CD0083120810831608105F
:1008A00000008312081483160810562C572C0000E1
:1008B000CE01081600308312081A01308316CE04C8
:1008C000881600308312881A0130F7000310F70DE4
:1008D00077088316CE04081700308312081B0130F6
:1008E000F700F70DF70DFC30F70577088316CE04F7
:1008F000881700308312881B0130F700F70DF70DC1
:10090000F70DF830F70577088316CE044E08F80087
:100910007808CC0083120810831608100812881279
:10092000081388134D0EF700F030F70577084C04D4
:10093000F8007808CC00CC1B0C2CCA08031DA42C92
:1009400083120811A62C831683120815831608112A
:10095000000083128810831688100000831208108C
:10096000831608104B0ECC000F30CC054C08CD0080
:100970004D18BE2C83120812C02C83168312081641
:1009800083160812CD18C82C83128812CA2C83161D
:1009900083128816831688124D19D22C83120813DD
:1009A000D42C83168312081783160813CD19DC2C58
:1009B00083128813DE2C83168312881783168813FC
:1009C000000083120814831608100230F700F70B9A
:1009D000E72CEA2C000083120810831608104B083D
:1009E0000F39CC004C08CD004D18FA2C8312081298
:1009F000FC2C83168312081683160812CD18042DBA
:100A000083128812062D8316831288168316881285
:100A10004D190E2D83120813102D831683120817FB
:100A200083160813CD19182D831288131A2D8316D7
:100A30008312881783168813000083120814831604
:100A400008100230F700F70B232D262D000083122B
:100A50000810831608108312080028308316BE0081
:100A60000C30BF000130C0000630C10083120810F6
:100A70008316081083120811831608118312881038
:100A8000831688100812881208138813081008119A
:100A900088100F30C6008312F02301308316BD008A
:100AA0003D08033C031C942D0330CD004D185C2DF4
:100AB000831208125E2D83168312081683160812FD
:100AC000CD18662D83128812682D8316831288161E
:100AD000831688124D19702D83120813722D8316F8
:100AE0008312081783160813CD197A2D83128813E1
:100AF0007C2D8316831288178316881300008312B7
:100B00000814831608100230F700F70B852D882D86
:100B1000000083120810831608100530C6008312E7
:100B2000F0238316BD0A502D0230CD004D189C2DA8
:100B3000831208129E2D831683120816831608123C
:100B4000CD18A62D83128812A82D8316831288161D
:100B5000831688124D19B02D83120813B22D8316F7
:100B60008312081783160813CD19BA2D8312881320
:100B7000BC2D8316831288178316881300008312F6
:100B80000814831608100230F700F70BC52DC82D86
:100B9000000083120810831608100530C600831267
:100BA000F0238316BD013D08033C031CE52DBE3038
:100BB0003D07840083130008C200CA014208CB002D
:100BC000831204248316BD0AD32D83128A110A16B8
:100BD000C02C8316C0018312E308031D152E650B7C
:100BE000F82DEA01E50101308316C000132E8312AF
:100BF000640B012EE901E40102308316C000132EBC
:100C00008312660B0A2EEB01E60103308316C00047
:100C1000132E8312670B142EEC01E7010130E30061
:100C200004308316C0008312EC2DE30183164008C4
:100C3000F8008312080083164508073A8312031947
:100C40002B2E0B3A0319422E063A03194E2E023A66
:100C50000319662E6D2E01308316C600C700470BA0
:100C6000322E352E4030C800362EC80101304602E3
:100C7000C80748088038C900CA014908CB00831258
:100C80000424742E8316CA010130CB00831204247D
:100C900002308316C6008312F023742E01308316AF
:100CA000C6000230C700470B562E592E4030C800F0
:100CB0005A2EC80101304602C80748088038C900CA
:100CC000CA014908CB0083120424742E8316CA017A
:100CD0001030CB0083120424742E01308316CA0016
:100CE0004508CB008312042408000B088316C300B8
:100CF00083128B13831603178C170C14000000004B
:100D00000313C31F862E83128B17831683120317B8
:100D10008C080319AE2E0D0883160313C30083122B
:100D200003170F0883160313C400831203170C085C
:100D300083160313C50083121B26831643088312F0
:100D400003178D00831603134408831203178F00C3
:100D50008D0A03198F0A0313752E03170313080056
:100D60000B088316C20083128B13831603178C178C
:100D70000C14000000000313C21FC12E83128B1736
:100D80008316831203170C087F390319222F831649
:100D90000313C200831203170D0883160313C30045
:100DA000831203170F0883160313C4004208C500FB
:100DB00083121B2683164308831203178D008316A4
:100DC00003134408831203178F0003130B088316C1
:100DD000C50083128B13831603178C170C140000A5
:100DE00000000313C51FF72E83128B17831683127F
:100DF00003170C0D0E0D7F390319222F83160313D1
:100E0000C200831203170D0883160313C300831255
:100E100003170F0883160313C4004208C50083128A
:100E20001B2683164308831203178D0083160313B2
:100E30004408831203178F008D0A03198F0A0313C6
:100E4000B02E0317031308008316BD01BE013D0E2B
:100E5000F700F030F7057708BF000C30C5008312AB
:100E60001B26063003178D0001308F0083160313F5
:100E70003F08831203178D0703188F0A0313752683
:100E800001308316C6000230C700470B482F4B2F96
:100E90004030C8004C2FC80101304602C80748083E
:100EA0008038C900CA014908CB0083120424C63027
:100EB00003178D0000308F000313B0268316BE0881
:100EC000031DDD2F06168312061ABD2F023083166E
:100ED000BF00FA30C6008312F0238316BF0B692FC0
:100EE0000430C300B930C200C5011430C4008A15F3
:100EF0008312BF238A118316BD0A3D0883125A024A
:100F00000318852F8316BD01831283163D0EF7004B
:100F1000F030F7057708BF000C30C50083121B26A0
:100F2000063003178D0001308F00831603133F082E
:100F3000831203178D0703188F0A031375260130D8
:100F40008316C6000230C700470BA72FAA2F4030D8
:100F5000C800AB2FC80101304602C80748088038D6
:100F6000C900CA014908CB0083120424C630031704
:100F70008D0000308F000313B0268316861683126F
:100F8000861ADB2F02308316BF00FA30C6008312A8
:100F9000F0238316BF0BC52F0430C300B930C20045
:100FA000C5011430C4008A158312BF238A11013091
:100FB0008316BE0083125E2F831601303D07F800B2
:080FC00083128A110A16D22CDB
:1010000033308316BD00BE01C1016D30C000F83021
:10101000831203178D0002308F0003100A308316ED
:101020000313C20083120B088316C30083128B13B1
:10103000831603178C170C14000000000313C31F42
:10104000242883128B17831603185E288312031734
:101050000C087F3983160313C300831203170D088E
:1010600083160313C400831203170F088316031398
:10107000C500430883120C1E3B28990083164408C0
:10108000831203178D008316031345088312031779
:101090008F0003130B088316C60083128B1383166D
:1010A00003178C170C14000000000313C61F5B28E5
:1010B00083128B178316C20B5E288A2883120317AC
:1010C0000C0D0E0D7F3983160313C3008312031713
:1010D0000D0883160313C400831203170F08831629
:1010E0000313C500430883120C1E7428990083164D
:1010F0004408831203178D008316031345088312D7
:1011000003178F008D0A03198F0A03108316031328
:10111000C20B1228400884008313411883178008EB
:101120000319AA28C3010408C2004310831B4314F7
:10113000000883120C1E9A28990083164208840026
:10114000831343188317840A031DA9288312850A71
:1011500083168F280D3083120C1EAC2899000A309C
:101160000C1EB02899000130F8007808DE008A11C2
:10117000E9258A15003003178D0003308F00031313
:101180000B088316C00083128B13831603178C176A
:101190000C14000000000313C01FD12883128B170A
:1011A0008316831203170C087F390319322983161B
:1011B0000313C000831203170D0883160313C10025
:1011C000831203170F0883160313C200400883120B
:1011D0000C1EE828990083164108831203178D001E
:1011E000831603134208831203178F0003130B089F
:1011F0008316C30083128B13831603178C170C14EA
:10120000000000000313C31F082983128B178316E5
:10121000831203170C0D0E0D7F3903193229831623
:101220000313C000831203170D0883160313C100B4
:10123000831203170F0883160313C200400883129A
:101240000C1E2029990083164108831203178D0074
:10125000831603134208831203178F008D0A0319A4
:101260008F0ABF280230F80078080313DE008A11C5
:10127000E9258A1578088316BF003F08023C031D44
:10128000AD2AC101A030C0000630831203178D00C3
:1012900003308F000310093083160313C20083123A
:1012A0000B088316C30083128B13831603178C1746
:1012B0000C14000000000313C31F612983128B1755
:1012C000831603189B29831203170C087F39831692
:1012D0000313C300831203170D0883160313C400FE
:1012E000831203170F0883160313C50043088312E4
:1012F0000C1E7829990083164408831203178D0069
:10130000831603134508831203178F0003130B087A
:101310008316C60083128B13831603178C170C14C5
:10132000000000000313C61F982983128B17831631
:10133000C20B9B29C729831203170C0D0E0D7F3991
:1013400083160313C300831203170D0883160313B8
:10135000C400831203170F0883160313C500430844
:1013600083120C1EB12999008316440883120317B7
:101370008D00831603134508831203178F008D0A0F
:1013800003198F0A031083160313C20B4F29400859
:10139000840083134118831780080319E729C301C8
:1013A0000408C2004310831B4314000883120C1E60
:1013B000D7299900831642088400831343188317A2
:1013C000840A031DE6298312850A8316CC2903307B
:1013D000F80078088312DE008A11E9258A1578085A
:1013E0008316BF003F08043C031DAD2AC101BD3078
:1013F000C000F830831203178D0002308F000310F5
:101400000A3083160313C20083120B088316C3002D
:1014100083128B13831603178C170C140000000023
:101420000313C31F162A83128B1783160318502A1F
:10143000831203170C087F3983160313C30083122A
:1014400003170D0883160313C400831203170F0834
:1014500083160313C500430883120C1E2D2A99001E
:1014600083164408831203178D008316031345085F
:10147000831203178F0003130B088316C600831211
:101480008B13831603178C170C1400000000031332
:10149000C61F4D2A83128B178316C20B502A7C2A33
:1014A000831203170C0D0E0D7F3983160313C3002F
:1014B000831203170D0883160313C4008312031746
:1014C0000F0883160313C500430883120C1E662AF7
:1014D000990083164408831203178D0083160313A3
:1014E0004508831203178F008D0A03198F0A031012
:1014F00083160313C20B042A400884008313411887
:101500008317800803199C2AC3010408C2004310F2
:10151000831B4314000883120C1E8C2A9900831627
:1015200042088400831343188317840A031D9B2AEF
:101530008312850A8316812A0D3083120C1E9E2A7F
:1015400099000A300C1EA22A99000130F800780890
:10155000DE008A11E9258A1583160C3083120317E1
:101560008D0003308F0003130B088316C000831215
:101570008B13831603178C170C1400000000031341
:10158000C01FC52A83128B178316831203170C08FA
:101590007F390319262B83160313C0008312031708
:1015A0000D0883160313C100831203170F08831657
:1015B0000313C200400883120C1EDC2A9900831614
:1015C0004108831203178D00831603134208831208
:1015D00003178F0003130B088316C30083128B13AA
:1015E000831603178C170C14000000000313C31F8D
:1015F000FC2A83128B178316831203170C0D0E0D12
:101600007F390319262B83160313C0008312031797
:101610000D0883160313C100831203170F088316E6
:101620000313C200400883120C1E142B990083166A
:101630004108831203178D00831603134208831297
:1016400003178F008D0A03198F0AB32A04308316FB
:101650000313C000FA30C6008A118312F0238A15E2
:101660008316C00B2A2B1330831203178D0003300F
:101670008F0003130B088316C00083128B1383168D
:1016800003178C170C14000000000313C01F4B2B12
:1016900083128B178316831203170C087F390319E3
:1016A000AC2B83160313C000831203170D08831697
:1016B0000313C100831203170F0883160313C2001C
:1016C000400883120C1E622B990083164108831276
:1016D00003178D00831603134208831203178F002C
:1016E00003130B088316C30083128B13831603178F
:1016F0008C170C14000000000313C31F822B8312ED
:101700008B178316831203170C0D0E0D7F390319E7
:10171000AC2B83160313C000831203170D08831626
:101720000313C100831203170F0883160313C200AB
:10173000400883120C1E9A2B9900831641088312CD
:1017400003178D00831603134208831203178F00BB
:101750008D0A03198F0A392B043083160313C00036
:10176000FA30C6008A118312F0238A158316C00B43
:10177000B02B0330F80083128A110A16C82C831686
:10178000C701C601C901C801C308031DCB2B42080C
:10179000133C03180C2D43084E3C031C0C2D031D59
:1017A000D52B4208203C031C0C2DCF010130CE006C
:1017B0008630CD00A030CC0083104F08D3004E08F7
:1017C000D2004D08D1004C08D000D701D601430803
:1017D000D5004208D4008318F02BD830840083133E
:1017E000F701F801F901FA01D801D901DA01DB01A9
:1017F000570856045504540403192E2C2030DC00DD
:101800000310D00DD10DD20DD30DD80DD90DDA0D99
:10181000DB0D57085B02031D172C56085A02031DE7
:10182000172C55085902031D172C54085802031C85
:10183000282C5408D8025508031C550FD902560805
:10184000031C560FDA025708031C570FDB02031460
:10185000F70DF80DF90DFA0DDC0B002C580880007F
:10186000840A59088000840A5A088000840A5B08A8
:1018700080007A08CF007908CE007808CD0077087C
:10188000CC004F08D3004E08D2004D08D1004C08C0
:10189000D000D701D601D5010530D4002030DC00BE
:1018A000D801D901DA01DB015308FA005208F90026
:1018B0005108F8005008F7000310771C6D2C5408ED
:1018C000D80755080318550FD90756080318560F9F
:1018D000DA0757080318570FDB07DB0CDA0CD90CB3
:1018E000D80CFA0CF90CF80CF70CDC0B5C2C7A0811
:1018F000CF007908CE007808CD007708CC004D08DD
:10190000CB004C08CA0006118312061583164B083B
:10191000D000D00AD00303199E2CFF30D100033031
:10192000D102031C9D2CD1308400831300080319BD
:101930009D2C9B2C9B2C800B9A2C8A2C4A08D10026
:101940000330D102031CAE2CD13084008313000875
:101950000319AE2CAC2CAC2C800BAB2C4A08C8075E
:101960004B0803184B0FC907061183120611831683
:101970004B08D000D00AD0030319CF2CFF30D10080
:101980000330D102031CCE2CD13084008313000815
:101990000319CE2CCC2CCC2C800BCB2CBB2C4A0886
:1019A000D1000330D102031CDF2CD130840083131B
:1019B00000080319DF2CDD2CDD2C800BDC2C4A0801
:1019C000C8074B0803184B0FC9071930C80703187D
:1019D000C90A4908023C0318022DFF3A031DF42CE2
:1019E0004808E73C0318022DE830C8020330031C06
:1019F0000430C902C60A0319C70A1930C8070318F8
:101A0000C90AE92C47084502031C0C2D031D832C31
:101A100044084602031C832C83120800F701F801D6
:101A20008316420803104318F707F70CF80CC31885
:101A3000F707F70CF80C4319F707F70CF80CC31964
:101A4000F707F70CF80C431AF707F70CF80CC31A52
:101A5000F707F70CF80C431BF707F70CF80CC31B40
:101A6000F707F70CF80C83120800831641080739B2
:101A7000F700410CF800F80CF80C1F30F805780856
:101A800043078400831344188317F801F80AF70A00
:101A90004A2DF80DF70B492DC2080319522D78086D
:101AA0008004552DF80978088005831208008316F4
:101AB000BD01BE013D08C2000F30C30083120E25D8
:101AC00078088316BF000C30C5008A1183121B26CC
:101AD0008A15463003178D0001308F0083160313DB
:101AE0003F08831203178D0703188F0A8A11031307
:101AF00075268A1501308316C6000230C700470BD1
:101B0000822D852D4030C800862DC8010130460247
:101B1000C80748088038C900CA014908CB008A11A3
:101B2000831204248A15C63003178D0000308F00FD
:101B30008A110313B0268A158316BE08031D452E8D
:101B400006168312061A062E02308316BF00FA30DC
:101B5000C6008A118312F0238A158316BF0BA72DA6
:101B60000430C300B930C200C5011430C400831270
:101B7000BF238316BD0A3D0883125C020318C32DE0
:101B80008316BD01831283163D08C2000F30C300C7
:101B900083120E2578088316BF000C30C5008A1109
:101BA00083121B268A15463003178D0001308F00E3
:101BB000831603133F08831203178D0703188F0A38
:101BC0008A11031375268A1501308316C600023068
:101BD000C700470BEC2DEF2D4030C800F02DC80199
:101BE00001304602C80748088038C900CA014908C0
:101BF000CB008A11831204248A15C63003178D0086
:101C000000308F008A110313B0268A1583168616BA
:101C10008312861A432E02308316BF00FA30C600A4
:101C20008A118312F0238A158316BF0B0E2E0430FF
:101C3000C300B930C200C5011430C4008312BF23F1
:101C40005C0883163D02031D282E0130BE00442E81
:101C500003103D0D2B3E84008313840A0008C0004E
:101C600084030008BF00C1000130C200C401C301E9
:101C70008312352583163F08C100C201C40180309C
:101C8000C3008312352583169D2D0030F800831282
:101C90008A110A16D92C8316BD01BE013D0EF7002C
:101CA000F030F7057708BF000C30C5008A118312A9
:101CB0001B268A15DC3003178D0001308F00831638
:101CC00003133F08831203178D0703188F0A8A1125
:101CD000031375268A1501308316C6000230C7002B
:101CE000470B732E762E4030C800772EC801013086
:101CF0004602C80748088038C900CA014908CB0015
:101D00008A11831204248A15C63003178D0000300F
:101D10008F008A110313B0268A158316BE08031D8F
:101D2000322F06168312061AF42E02308316BF00D5
:101D3000FA30C6008A118312F0238A158316BF0B6E
:101D4000982E0430C300B930C200C5011430C4005D
:101D50008312BF238316BD0A3D0883125D02031858
:101D6000B42E8316BD01831283163D0EF700F030AA
:101D7000F7057708BF000C30C5008A1183121B26B7
:101D80008A15DC3003178D0001308F008316031392
:101D90003F08831203178D0703188F0A8A11031354
:101DA00075268A1501308316C6000230C700470B1E
:101DB000DA2EDD2E4030C800DE2EC801013046028A
:101DC000C80748088038C900CA014908CB008A11F1
:101DD000831204248A15C63003178D0000308F004B
:101DE0008A110313B0268A15831686168312861A63
:101DF000302F02308316BF00FA30C6008A118312DA
:101E0000F0238A158316BF0BFC2E0430C300B930B3
:101E1000C200C5011430C4008312BF235D088316BD
:101E20003D02031D162F0130BE00312F03103D0D62
:101E30002B3E84008313840A0008C000840300083A
:101E4000BF00C100C201C401C3018312352583163E
:101E50003F08C100C201C4018030C3008312352590
:101E600083168E2E0030F80083128A110A16E12C98
:1020000083163F08FA3E0318AA2A063E8312AE2A18
:10201000E63003178D0000308F000A120313B0263C
:102020000A160C308316C6000230C700470B192869
:102030001C284030C8001D28C80101304602C807CE
:1020400048088038C900CA014908CB000A12831227
:1020500004240A16C33003178D0000308F000A12C3
:102060000313B0260A16831686168312861A46288C
:1020700002308316C200FA30C6000A128312F0231F
:102080000A168316C20B3B2848288312332883166E
:10209000AA2AED3003178D0000308F000A120313B7
:1020A000B0260A160C308316C6000230C700470B54
:1020B0005A285D284030C8005E28C8010130460219
:1020C000C80748088038C900CA014908CB000A126D
:1020D000831204240A16C33003178D0000308F00CA
:1020E0000A120313B0260A16831686168312861A5E
:1020F000872802308316C200FA30C6000A12831203
:10210000F0230A168316C20B7C28892883127428B0
:102110008316AA2AF23003178D0000308F000A12AE
:102120000313B0260A160C308316C6000230C7000F
:10213000470B9B289E284030C8009F28C8010130CB
:102140004602C80748088038C900CA014908CB00C0
:102150000A12831204240A16C33003178D000030BC
:102160008F000A120313B0260A16831686168312EE
:10217000861AC82802308316C200FA30C6000A1236
:102180008312F0230A168316C20BBD28CA288312B5
:10219000B5288316AA2A8316C001C1014008C200CF
:1021A0000D30C3000A128A1583120E250A168A11F1
:1021B00078088316C2000C30C5000A1283121B2651
:1021C0000A16823003178D0000308F008316031328
:1021D0004208831203178D0703188F0A0A1203138C
:1021E00075260A1601308316C6000230C700470B59
:1021F000FA28FD284030C800FE28C80101304602F8
:10220000C80748088038C900CA014908CB000A122B
:10221000831204240A16C63003178D0000308F0085
:102220000A120313B0260A168316C108031D542A86
:1022300006168312061A862902308316C200FA3067
:10224000C6000A128312F0230A168316C20B1F2936
:102250000430C300B930C200C5011430C4000A12F2
:102260008A158312BF230A168A118316C00A4008F2
:102270008312590203183F298316C0018312831663
:102280004008C2000D30C3000A128A1583120E25C1
:102290000A168A1178088316C2000C30C5000A128B
:1022A00083121B260A16823003178D0000308F0020
:1022B000831603134208831203178D0703188F0A2E
:1022C0000A12031375260A1601308316C60002305F
:1022D000C700470B6C296F294030C8007029C8011E
:1022E00001304602C80748088038C900CA014908B9
:1022F000CB000A12831204240A16C63003178D007D
:1023000000308F000A120313B0260A1683168616B1
:102310008312861A522A02308316C200FA30C6008F
:102320000A128312F0230A168316C20B8E29043078
:10233000C300B930C200C5011430C4000A128A15A6
:102340008312BF230A168A11590883164002031DFF
:10235000AC290130C100532A4008003A8312031906
:10236000B829013A0319C229033A0319CC29D529FE
:10237000CF3003178D0000308F000A120313B026F0
:102380000A16D529D73003178D0000308F000A12A6
:102390000313B0260A16D529DD3003178D0000304F
:1023A0008F000A120313B0260A160C308316C600DB
:1023B0000230C700470BDD29E0294030C800E12981
:1023C000C80101304602C80748088038C900CA0160
:1023D0004908CB000A12831204240A16C3300317DB
:1023E0008D0000308F000A120313B0260A168316E0
:1023F00086168312861A0A2A02308316C200FA3021
:10240000C6000A128312F0230A168316C20BFF2994
:102410000C2A8312F72983164008C2000D30C3002E
:102420000A128A1583120E250A168A117808831655
:10243000C2000C30C5000A1283121B260A16823015
:1024400003178D0000308F00831603134208831298
:1024500003178D0703188F0A0A12031375260A162D
:1024600001308316C6000230C700470B382A3B2ACA
:102470004030C8003C2AC80101304602C80748085D
:102480008038C900CA014908CB000A12831204240B
:102490000A16C63003178D0000308F000A1203138E
:1024A000B0260A1683161529AA2A83168811083021
:1024B00083128806881D662AF73003178D000030C6
:1024C0008F000A120313B0260A166F2AFE30031774
:1024D0008D0000308F000A120313B0260A160C304C
:1024E0008316C6000230C700470B772A7A2A40308D
:1024F000C8007B2AC80101304602C8074808803856
:10250000C900CA014908CB000A12831204240A1622
:10251000C33003178D0000308F000A120313B0265A
:102520000A16831686168312861AA42A0230831688
:10253000C200FA30C6000A128312F0230A1683166C
:10254000C20B992AA62A8312912A8316AA2A8316D5
:10255000AA2A831683128A110A169D2B0A108A143E
:102560000A118207082849288A28CB28552AA72A31
:102570008316BD01BE013D08C2001130C3000A121E
:102580008A1583120E250A168A1178088316BF0051
:102590000C30C5000A1283121B260A167C30031762
:1025A0008D0002308F00831603133F088312031738
:1025B0008D0703188F0A0A12031375260A160130B5
:1025C0008316C6000230C700470BE72AEA2A4030CC
:1025D000C800EB2AC80101304602C8074808803805
:1025E000C900CA014908CB000A12831204240A1642
:1025F000C63003178D0000308F000A120313B02677
:102600000A168316BE08031DE62B06168312061A49
:10261000732B02308316BF00FA30C6000A128312F1
:10262000F0230A168316BF0B0C2B0430C300B930FD
:10263000C200C5011430C4000A128A158312BF23D8
:102640000A168A118316BD0A3D0883125B0203181D
:102650002C2B8316BD01831283163D08C200113056
:10266000C3000A128A1583120E250A168A117808E9
:102670008316BF000C30C5000A1283121B260A16EF
:102680007C3003178D0002308F00831603133F0840
:10269000831203178D0703188F0A0A120313752676
:1026A0000A1601308316C6000230C700470B592BAB
:1026B0005C2B4030C8005D2BC80101304602C807C2
:1026C00048088038C900CA014908CB000A128312A1
:1026D00004240A16C63003178D0000308F000A123A
:1026E0000313B0260A16831686168312861AE42B65
:1026F00002308316BF00FA30C6000A128312F0239C
:102700000A168316BF0B7B2B0430C300B930C200FE
:10271000C5011430C4000A128A158312BF230A1699
:102720008A115B0883163D02031D992B0130BE0000
:10273000E52B3D08BF008312002883163D08C20028
:102740001130C3000A128A1583120E250A168A1147
:1027500078088316BF000C30C5000A1283121B26AE
:102760000A167C3003178D0002308F008316031386
:102770003F08831203178D0703188F0A0A120313E9
:1027800075260A1601308316C6000230C700470BB3
:10279000CA2BCD2B4030C800CE2BC80101304602D9
:1027A000C80748088038C900CA014908CB000A1286
:1027B000831204240A16C63003178D0000308F00E0
:1027C0000A120313B0260A168316022B0030F800F3
:1027D00083128A110A16E72C03081F398300831617
:1027E0000317871508300313990002309A00A630AA
:1027F00098009030831298008316061083120614F6
:102800000330D9000230DA000530DB000830DC008C
:10281000DD00DE01E301E401E501E601E701E80195
:10282000E901EA01EB01EC01EF0183160317090846
:10283000C039890003131F129F120030031788004C
:10284000831287018801890183134A300313AB0087
:10285000AC014930AD00AE014830AF00B0012C30C2
:10286000B100B2012830B300B4012930B500B6017F
:102870002A30B700B8012B30B900BA01BB01BC0146
:10288000B930C1003B30C2005E30C3003830C400F4
:102890003430C5003530C6003830C7003230C8008B
:1028A0006630C9002F30CA00BD30CB002C30CC00C0
:1028B0003A30CD002A30CE00DC30CF002730D000B7
:1028C0009F30D1002530D2008230D3002330D40095
:1028D0008430D5002130D600A330D7001F30D80077
:1028E0003130ED00EE0122308316A0005530A100FA
:1028F0004E30A2004530A3005F30A4004330A50055
:102900003030A6003630A7004530A8002230A9009C
:102910002C30AA002230AB003030AC00AD00393092
:10292000AE003830AF003630B0003330B100343054
:10293000B200B3003230B4003030B500B6003730EA
:10294000B700B8003130B9002230BA000D30BB00FA
:102950000A30BC000230BD00FA30C6000A128312F1
:10296000F0230A168316BD0BAC2C30309500811372
:10297000323086008C16C03083128B040A122D2D43
:102980000A1683168811831288150A128A150028E0
:102990000A168A116F08FC3E0318E92C043EEB2C42
:1029A0000A12242F0A167808EF00E92C0A128A1559
:1029B000572D0A168A117808EF00E92C0A128A1599
:1029C0004B2E0A168A117808EF00E92CB82A7808ED
:1029D000EF00CA2C63000A108A100A158207D02C57
:0629E000D62CDE2CE62CD3
:04400E00E22FFF3E60
:00000001FF
;PIC16F887
;CRC=71D6  CREATED="03-dic.-17 19:27"
