:0400000036EF12F0D5
:08000800046ED8CF05F0E0CF33
:1000100006F00001E9CF0CF0EACF07F0E1CF08F0DD
:10002000E2CF09F0D9CF0AF0DACF0BF0F3CF12F01C
:10003000F4CF13F0FACF14F000C00EF001C00FF0AF
:1000400002C010F003C011F09DAA2AEF00F09EBA82
:1000500006EF06F00EC000F00FC001F010C002F075
:1000600011C003F00CC0E9FF07C0EAFF078E08C00B
:10007000E1FF09C0E2FF0AC0D9FF0BC0DAFF12C0DE
:10008000F3FF13C0F4FF14C0FAFF045006C0E0FFF2
:1000900005C0D8FF1000F2CF0DF0F29EF76AB00F46
:1000A000F66E000EF7220900F5500DBEF28E12001A
:1000B000227C217C207C047C007C017C027C037CF3
:1000C000F76AD00FF66E000EF7220900F550120005
:1000D0002B4950442C00F76AE60FF66E000EF7220B
:1000E0000900F5501200434D443AF76AFA0FF66ED4
:1000F000000EF7220900F55012004F4B0D0A0000C8
:10010000F76A100FF66E010EF7220900F550120083
:100110004E6F20417000F76A260FF66E010EF7222F
:100120000900F55012002B43574A41503A00F76A34
:100130003E0FF66E010EF7220900F5501200434FF4
:100140004E4E454354454400F76A580FF66E010E73
:10015000F7220900F55012004641494C0000415475
:100160002B43495053454E443D25632C31320D0AF3
:10017000000041542B434950434C4F53453D2563A8
:100180000D0A000041542B43575141500A0D000005
:1001900041542B43495053454E443D25632C313245
:1001A0000D0A000041542B434950434C4F53453DE9
:1001B00025630D0A000041542B43575341505F44BF
:1001C00045463D25732C312C340D0A0041542B43F8
:1001D000495053454E443D25632C31320D0A0000F1
:1001E00041542B434950434C4F53453D25630D0A21
:1001F000000041542B43495053454E443D25632C48
:1002000031370D0A000041542B434950434C4F53A2
:10021000453D25630D0A000041542B434950534589
:100220004E443D25632C31320D0A000041542B43CE
:100230004950434C4F53453D25630D0A000041543E
:100240002B5253540D0A000041542B43574D4F4439
:10025000453D25630D0A000041542B43574A415048
:100260003F0D0A0041542B43574A41503D2573002E
:1002700041542B43574D4F44453D25630D0A000023
:1002800041542B4349504D55583D310D0A004154BE
:100290002B4349505345525645523D312C38300D71
:1002A0000A00456E63656E646572204D616E75610E
:1002B0006C004170616761646F204D616E75616CA7
:1002C0002000436F6E66696775726163696F6E20A7
:1002D00020000000000000000000000000000000FE
:1002E00000004F6E202D3E2053616C696461203107
:1002F000004F6E202D3E2053616C696461203200F6
:100300004F6E202D3E2053616C6964612033004F95
:100310006E202D3E2053616C6964612034004F6E65
:10032000202D3E2053616C6964612035004F6E20A2
:100330002D3E2053616C6964612036004F6E202D84
:100340003E2053616C6964612037004F6E202D3E62
:100350002053616C69646120380053414C4952203C
:10036000202020202020202000000000000000008D
:1003700000000000000000004F6666202D3E205364
:10038000616C6964612031004F6666202D3E205308
:10039000616C6964612032004F6666202D3E2053F7
:1003A000616C6964612033004F6666202D3E2053E6
:1003B000616C6964612034004F6666202D3E2053D5
:1003C000616C6964612035004F6666202D3E2053C4
:1003D000616C6964612036004F6666202D3E2053B3
:1003E000616C6964612037004F6666202D3E2053A2
:1003F000616C69646120380053414C4952202020CF
:10040000202020202020200000000000000000000C
:1004100000000000000000004553544143494F4E86
:100420002049502020202020004553544143494F6B
:100430004E2053534944202020004150205353491B
:1004400044202020202020202020004150204B4507
:100450005920202020202020202020004150204909
:1004600050202020202020202020202000436F6EBC
:1004700066204163636573736F20526564004F6E3D
:100480002F4F6666204261636B6C69676874005326
:10049000414C4952202020202020202020202000D4
:1004A000000000000000000000000000000000004C
:1004B0000000457374616369F36E202020202000E2
:1004C00041636365737320506F696E7420004573D8
:1004D000746163696F6E202B2041500053414C4979
:1004E00052202020202020202000000000000000BA
:1004F000000000000000000053414C4952005B53D3
:1005000049475D2020202020205B454E545D00009F
:1005100041542B43494653520D0A00000C4361726B
:1005200067616E646F2E2E2E000041542B434946A6
:1005300053520D0A00000C43617267616E646F2EA6
:100540002E2E000041542B43574A41503F0D0A00C4
:100550000C43617267616E646F2E2E2E00000C4496
:100560006573686162696C697461646F000041540D
:100570002B43575341503F0D0A000C436172676192
:100580006E646F2E2E2E00000C44657368616269E4
:100590006C697461646F000041542B4357534150A0
:1005A0003F0D0A000C43617267616E646F2E2E2E40
:1005B00000000C446573686162696C697461646F02
:1005C00000000C4261636B6C69676874204F6E00B9
:1005D0000C4261636B6C69676874204F666600004B
:1005E00041542B43574D4F44455F4445463D310DE3
:1005F0000A000C436F6E66696720436C69656E7410
:10060000650041542B43574D4F44455F4445463D9B
:10061000320D0A000C436F6E66696720415000007E
:1006200041542B43574D4F44455F4445463D330DA0
:100630000A000C436F6E66696720436C69656E74CF
:100640006541500001013E6B3F6B3351FB0FD8B049
:1006500072D0050F00011BEF04F0010EEA6E340E9C
:10066000E96EF2CF40F1F29E000E3FDD0A00090074
:10067000F550EE6E0009FBE1010140BFF28E040E61
:100680003E6F010E3F6F57D0010EEA6E340EE96ED9
:10069000F2CF40F1F29E000E33DD0A000900F55062
:1006A000EE6E0009FBE1010140BFF28E050E3E6FC8
:1006B00042D0010EEA6E340EE96EF2CF40F1F29EA6
:1006C000000E29DD0A000900F550EE6E0009FBE17D
:1006D000010140BFF28E070E3E6F2DD0010EEA6E73
:1006E000340EE96EF2CF40F1F29E000E20DD0A00DA
:1006F0000900F550EE6E0009FBE1010140BFF28EEA
:10070000090E3E6F18D0010EEA6E340EE96EF2CF7C
:1007100040F1F29E000E18DD0A000900F550EE6E61
:100720000009FBE1010140BFF28E040E3E6F010E95
:100730003F6F01D001015C50060DF350416B406FDB
:10074000036A33514025016E4151032201505F0F6E
:10075000E96E000E0320EA6E036AEF50340FE96E73
:10076000010E0320EA6EEF50325D3DE15C50060D54
:10077000F350416B406F036A33514025016E415184
:10078000032201505F0FE96E000E0320EA6EEF2A8C
:100790005C50060DF350416B406F036A33514025A6
:1007A000016E4151032201505F0FE96E000E0320DC
:1007B000EA6E3E51EF5C14E15D50060DF350416B63
:1007C000406F036A33514025016E415103220150AD
:1007D0005F0FE96E000E0320EA6E010EEF6E02D08D
:1007E000335300E126D05C50060DF350416B406F4F
:1007F000036A33514025016E4151032201505F0FBE
:10080000E96E000E0320EA6EEF6A3F2D12D05D50B4
:10081000060DF350416B406F036A33514025016E62
:100820004151032201505F0FE96E000E0320EA6E72
:10083000EF6A00011200E824F76AF736510FF66EEE
:10084000080EF7220A00F550FA6E0800F550F96E0E
:100850005A06B2068806DC060607BB2D2BD001011E
:10086000325122080EE10001C151310803E0C151AB
:10087000320804E1060EBB6FBC6B01D0BC6B19D013
:1008800001010001C15131080AE1036ABC517B0F2B
:10089000E96E000E0320EA6E32C1EFFF09D0036A51
:1008A000BC516B0FE96E000E0320EA6E32C1EFFF00
:1008B000BC2B18D0BB51050815E1010132512208AB
:1008C00006E1060E0001BB6FBC6B0CD00101036A90
:1008D0000001BC517B0FE96E000E0320EA6E32C1AD
:1008E000EFFFBC2B0101325122080AE10001BB518C
:1008F000FB0F05E2050F83EF04F0BB2BBC6B01017E
:100900000001D6EF05F0E824F76AF736210FF66EFE
:10091000090EF7220A00F550FA6E0800F550F96E3C
:10092000FA08FA08FA08FA08FA08BD2D12D00101EF
:10093000325122080CE0036A0001BE518B0FE96EB0
:10094000000E0320EA6E32C1EFFFBE2B010118D06A
:100950000001BD51030813E10101325122080DE0ED
:10096000036A0001BE519B0FE96E000E0320EA6E80
:1009700032C1EFFFBE2B03D001010001BE6B0101AC
:10098000325122080AE10001BD51FC0F05E2040FBB
:10099000D0EF04F0BD2BBE6B01010001E0EF05F0CC
:1009A000E824F76AF736BB0FF66E090EF7220A0045
:1009B000F550FA6E0800F550F96E940994099409FF
:1009C0009409BF2D0FD00101325122080CE0036AB7
:1009D0000001C051AB0FE96E000E0320EA6E32C178
:1009E000EFFFC02B01013251220809E10001BF5184
:1009F00003E0010A01E002D0BF2BC06B010100013E
:100A0000EAEF05F0050E0101346F552C13D0325179
:100A10002C0802E133530BE0036A59501C0FE96EB6
:100A2000000E0320EA6E32C1EFFF592A02D0596A44
:100A3000556A19D0036A5950F2CF35F1F29E000180
:100A400060EC00F0010135BFF28E016E325D0AE10B
:100A5000335308E1592A3451595C03E1010E556EB4
:100A6000596A01D0596A0001F7EF05F0040E01013F
:100A7000346F542C15D032512C0802E133530BE063
:100A8000036A58501E0FE96E000E0320EA6E32C151
:100A9000EFFF582A04D0586A546A010E566E19D0D6
:100AA000036A5850F2CF35F1F29E00016BEC00F072
:100AB000010135BFF28E016E325D0AE1335308E168
:100AC000582A3451585C03E1010E546E586A01D023
:100AD000586A0001FDEF05F0562C21D0010132517A
:100AE0003A0802E1335317E0036A5A50200FE96EC7
:100AF000000E0320EA6E32C1EFFF536A5AC052F073
:100B00005A5207E132512C0804E1335302E15A6A88
:100B100001D05A2A04D05A6A566A010E576E000153
:100B200003EF06F05B50010A0DE0030A12E0010A30
:100B300025E0060A38E0030A40E0010A48E0030A1B
:100B400050E04FD031C132F10101336B00017ADD49
:100B50005BD031C132F1020E0101336F000172DD51
:100B600031C132F1010E0101336F00016BDD31C182
:100B700032F10101336B000165DD46D031C132F144
:100B8000030E0101336F00015DDD31C132F1040E4E
:100B90000101336F000156DD31C132F10101336BC8
:100BA000000150DD31D031C132F157D631C132F1BF
:100BB0000101336B000146DD27D031C132F1B5D6DA
:100BC00031C132F10101336B00013CDD1DD031C177
:100BD00032F1F7D631C132F10101336B000132DD60
:100BE00013D00101336B31C132F100010BD7010188
:100BF000336B31C132F1000139D70101336B31C19F
:100C000032F1000169D75B6A0FEF06F09EAAFED7AA
:100C1000AECF30F1010130C131F1000183D79E9A8E
:100C20002AEF00F00C436F6E6669677572616E643F
:100C30006F2E2E2E0000010EEA6E260EE96EEF508A
:100C40000DE0060E016E006A002EFED7012EFBD7C6
:100C50007B0E006E002EFED7EF2EF3D7120001019F
:100C60000AB102D08C9801D08C8895980AB302D032
:100C70008C9A01D08C8A959A0AB502D08C9C01D0AE
:100C80008C8C959C0AB702D08C9E01D08C8E959E40
:100C900000008C809590020E006E002EFED700D0D2
:100CA00000008C9095900001120001010B6B95885B
:100CB000000E83B8010E0B13958A000E83BA010E45
:100CC000006ED890003600500B13958C000E83BC3C
:100CD000010E006E00360036FC0E001600500B139D
:100CE000958E000E83BE010E006E00360036003673
:100CF000F80E001600500B130BC101F0000112009A
:100D00009588958A958C958E8C82959200008C8022
:100D100095900000CADF01C00AF18C909590000008
:100D20008C80959000D000D00000BFDF01C009F199
:100D30008C9095909598959A959C959E01010A396D
:100D4000006EF00E001600500911016E0001AFEFA9
:100D500006F09590959495928C949594D1D701C076
:100D600009F1010101AE02D00001F8D7075302E1F9
:100D70008C9401D08C84959400008C929592000004
:100D80008C9095900839096F0F0E091709C10AF167
:100D9000000165DF010108510F0B096F0A6F0001A7
:100DA0005EDF1200280EFB6F0C0EFC6F010EFD6F54
:100DB000060EFE6F8C9095908C9495948C929592E3
:100DC0009598959A959C959E9590959495920F0ED1
:100DD0000101266F00012FDF010EFA6FFA5103089F
:100DE0000CE3030E01010A6F000139DF050E01015A
:100DF000266F000120DFFA2BF1D7020E01010A6FE6
:100E000000012DDF050E0101266F000114DFFA6BD2
:100E1000FA51030811E3036AFA51FB0FE96E000E61
:100E20000320EA6EEFCFFFF00101076BFFC008F16E
:100E300000018FDFFA2BECD7B4EF12F00101042D83
:100E400001D003D0400E056F01D0056B010E035D8C
:100E5000052705518009066F076B086F000179DFD0
:100E6000120001010251070A000107E00B0A0CE021
:100E7000060A16E0020A1CE022D0010E0101036FEF
:100E8000046F0001DBDF22D00101076B010E086F48
:100E900000015FDF020E0101266F0001CCDE16D0DB
:100EA000010E0101036F020E046F0001C7DF0ED0B7
:100EB0000101076B100E086F00014BDF07D0010E18
:100EC0000101076F02C108F1000143DF12000900B0
:100ED000F5520CE0F6CF00F1F7CF01F1F5CF02F1BA
:100EE000C0DF00C1F6FF01C1F7FFF1D71200090012
:100EF000F5520DE0F6CF25F1F7CF26F1F5509EA87B
:100F0000FED7AD6E25C1F6FF26C1F7FFF0D7120060
:100F10000900F6CF26F1F7CF27F1F5509EA8FED7AE
:100F2000AD6E26C1F6FF27C1F7FF0101252F01D0C5
:100F300002D00001EDD700011200FD6BFE6B5D5089
:100F4000060DF3500101016B006F5F0E0025E96E85
:100F5000000E0121EA6EEF5260E10001FE2B5D50B0
:100F6000060DF3500101016B006F036A0001FE5191
:100F700001010025016E0151032201505F0FE96E4E
:100F8000000E0320EA6EEF2C41D05C50060DF350AA
:100F9000016B006F036A0001FE5101010025016E23
:100FA0000151032201505F0FE96E000E0320EA6E2B
:100FB000EF6A5D50060DF350016B006F036A00018C
:100FC000FE5101010025016E0151032201505F0F06
:100FD000E96E000E0320EA6EEF6A0001FE5104087C
:100FE00003E0FE5105080FE15D50060DF3500101CD
:100FF000016B006F5F0E0025E96E000E0121EA6EA5
:10100000010EEF6E0001FEC0FDF001015E50000117
:10101000FE5D01E3FE6B93D701015D50060DF350B9
:10102000016B006F5F0E0025E96E000E0121EA6E74
:10103000EF6A5B6A0A0E266F0001FDDDFDC001F05C
:101040001200EF5210E0EACF26F1E9CF25F1EF5080
:101050009EA8FED7AD6E26C1EAFF25C1E9FFE92AA9
:10106000D8B4EA2AEED712003E0EF66E020EF76EE4
:101070003EDF080EFC6FFA0E0101266F0001DBDD7A
:10108000FC2FF9D7F2CFFCF0F29EAA6AA96AA69CBF
:10109000A69EA680A850FCBFF28EC16F0A0E010169
:1010A000266F0001C8DDC151310A05E0030A03E0E3
:1010B000010A01E001D01CD0F250006EF29EAA6A33
:1010C000A96A330EA86EA69CA69EA6840F01550E93
:1010D000A76EAA0EA76EA682A6B2FED7A69400504F
:1010E000F2120A0E0101266F0001A5DD330EC16F59
:1010F000480EF66E020EF76E0A0E0101256F000112
:1011000007DFC1519EA8FED7AD6E0D0E9EA8FED77B
:10111000AD6E0A0E9EA8FED7AD6E010E5B6E320E4E
:101120000101266F000187DD580EF66E020EF76E84
:10113000DEDE020E5B6E01DF01C0FAF0FA5102083A
:10114000D8A475D0FB6B036AFB51C20FE96E000E89
:101150000320EA6EEF500A0835E0036AFB51C20F24
:10116000E96E000E0320EA6E010EFB25FE6FF2CF42
:10117000FFF0F29EAA6AFEC0A9FFA69CA69EA680CA
:10118000A850FFBFF28EEF6E0A0E0101266F00011C
:1011900052DD036AFB51C20FE96E000E0320EA6EB6
:1011A000EF3C03D0050EFA6F0DD0036AFB51C20F5E
:1011B000E96E000E0320EA6EEF500A0801E102D04A
:1011C000FB2BC1D7FA51050812E0640EF66E020E31
:1011D000F76E090E0101256F00019ADEEA6AC20E60
:1011E000E96E2FDF030E5B6EA8DE01C0FAF0FA5144
:1011F000040803E0FA5105081AE1700EF66E020EBB
:10120000F76E0A0E0101256F000182DE0401BE5156
:101210009EA8FED7AD6E0D0E9EA8FED7AD6E0A0E2F
:101220009EA8FED7AD6E010E5B6E000186DE800EBD
:10123000F66E020EF76E5BDE040EFC6FFA0E010115
:10124000266F0001F8DCFC2FF9D78E0EF66E020E29
:10125000F76E4DDE040EFC6FFA0E0101266F0001E1
:10126000EADCFC2FF9D7040E5B6EBEEF12F0010E24
:101270000101036F020E046F0001E0DDFE0EF66E49
:10128000040EF76E24DE120001012751070B006ED9
:101290002731016E013201321F0E0116015029253E
:1012A000E96E000E2A21EA6E016A012A002A01D0A5
:1012B0000136002EFDD7285303E00150EF1203D072
:1012C000011E0150EF1600011200FF6B0101006BBF
:1012D000010E016F7B0E026F220E036F630E046F0F
:1012E0006D0E056F640E066F220E076F3A0E086FC3
:1012F000220E096F6F0E0A6F6B0E0B6F220E0C6FB2
:101300007D0E0D6F0E6B572C17D31E504F085CE1EE
:101310001F50500859E1300E215C006F2050300AF8
:10132000000103E0010A27E04CD0D890010100350C
:10133000036AF2CF24F1F29E00014BEC00F00900A9
:10134000F5CF03F0010124BFF28E246F03C025F115
:10135000276F286B0F0E2A6F890E296F000194DF0B
:1013600024C127F10101286B0F0E2A6F920E296FFD
:1013700000018ADF26D0D89001010035036AF2CF40
:1013800024F1F29E00014BEC00F00900F5CF03F0D0
:10139000010124BFF28E246F03C025F1276F010ED7
:1013A000286F0F0E2A6F890E296F00016DDF24C18F
:1013B00027F10101286B0F0E2A6F920E296F000191
:1013C00063DF010EFF6F01011E504E08D8A4E7D065
:1013D0001F504308D8A4E3D0010E0F6F0F511F0810
:1013E0001DE3F250006EF29EAA6A0FC1A9FFA86821
:1013F000A69CA69EA6840F01550EA76EAA0EA76EE8
:10140000A682A6B2FED7A6940050F2120A0E0101DF
:10141000266F000110DC01010F2BE0D7106B535237
:1014200003E11051525C2BE3010E1025246F036A77
:101430001051200FE96E000E0320EA6EEFCF25F168
:10144000F250006EF29EAA6A24C1A9FF25C1A8FF2E
:10145000A69CA69EA6840F01550EA76EAA0EA76E87
:10146000A682A6B2FED7A6940050F2120A0E01017F
:10147000266F00011BEC06F00101102BD0D7010EE6
:101480001025246FF250006EF29EAA6A24C1A9FFB3
:101490000D0EA86EA69CA69EA6840F01550EA76EE3
:1014A000AA0EA76EA682A6B2FED7A6940050F2128C
:1014B0000A0E0101266F00011BEC06F0020E01016D
:1014C0001025246FF250006EF29EAA6A24C1A9FF73
:1014D0000A0EA86EA69CA69EA6840F01550EA76EA6
:1014E000AA0EA76EA682A6B2FED7A6940050F2124C
:1014F0000A0E0101266F00011BEC06F05E0EF66E6F
:10150000010EF76E0B0E0101256F000101DD1C506D
:101510009EA8FED7AD6E6B0EF66E010EF76E050E31
:101520000101256F0001F4DC3C0E0101266F000172
:101530001BEC06F0010EEA6E020EE96E82DD6E0E05
:101540000101266F00011BEC06F0720EF66E010E13
:10155000F76E0C0E0101256F0001DADC1C509EA80D
:10156000FED7AD6E0D0E9EA8FED7AD6E0A0E9EA8DC
:10157000FED7AD6E840EF66E010EF76EB8DC040E6B
:101580000101246FFA0E266F00011BEC06F0010129
:10159000242FF8D7FF00010E0001FF6F01011E503C
:1015A00041086EE11F5050086BE1900EF66E010E7F
:1015B000F76E0B0E256F0001ABDC1C509EA8FED70A
:1015C000AD6E9D0EF66E010EF76E050E0101256FD4
:1015D00000019EDC3C0E0101266F00011BEC06F0B1
:1015E000010EEA6E020EE96E2CDD6E0E0101266F11
:1015F00000011BEC06F0A40EF66E010EF76E0C0E49
:101600000101256F000184DC1C509EA8FED7AD6E41
:101610000D0E9EA8FED7AD6E0A0E9EA8FED7AD6E2B
:10162000060E0101246FFA0E266F00011BEC06F076
:101630000101242FF8D7B60EF66E010EF76E0D0ECF
:10164000256F000165DCEA6A200EE96EFADCC50E42
:10165000F66E010EF76E060E0101256F000158DCD3
:10166000040E0101246FFA0E266F00011BEC06F038
:101670000101242FF8D7FF00010E0001FF6F0101C7
:101680001E504E0865E11F504D0862E1F250006E99
:10169000F29EAA6AA96A20C0A8FFA69CA69EA6845C
:1016A0000F01550EA76EAA0EA76EA682A6B2FED790
:1016B000A6940050F2120A0E0101266F00011BECE5
:1016C00006F0140E0101266F00011BEC06F0CC0E93
:1016D000F66E010EF76E0B0E0101256F000118DC8E
:1016E0001C509EA8FED7AD6ED90EF66E010EF76E99
:1016F000050E0101256F00010BDC320E0101266F82
:1017000000011BEC06F0010EEA6E020EE96E99DC98
:10171000640E0101266F00011BEC06F0E00EF66E70
:10172000010EF76E0C0E0101256F000188EC07F029
:101730001C509EA8FED7AD6E0D0E9EA8FED7AD6EB6
:101740000A0E9EA8FED7AD6EFF00010EFF6F0101CD
:101750001E504F08D8A492D01F505308D8A48ED042
:10176000000E84B4010E300F116F2C0E126F000E9C
:1017700084B2010E300F136F2C0E146F000E84B064
:10178000010E300F156F2C0E166F000E80B8010E73
:10179000300F176F2C0E186F000E80B0010E300F37
:1017A000196F2C0E1A6F000E80B2010E300F1B6FD6
:1017B0002C0E1C6F000E80B4010E300F1D6F2C0E0E
:1017C0001E6F000E80B6010E300F1F6F2C0E206FA3
:1017D000F2CF24F1F29EAA6AA96AA69CA69EA680D0
:1017E000A85024BFF28E216F140E266F00011BEC4F
:1017F00006F0F20EF66E010EF76E0B0E0101256F6C
:10180000000188EC07F01C509EA8FED7AD6EFF0EBD
:10181000F66E010EF76E050E0101256F000188ECD2
:1018200007F0320E0101266F00011BEC06F0010EDD
:10183000EA6E110EE96E05DC640E0101266F0001EF
:101840001BEC06F0060EF66E020EF76E0C0E010192
:10185000256F000188EC07F01C509EA8FED7AD6EE6
:101860000D0E9EA8FED7AD6E0A0E9EA8FED7AD6ED9
:101870000101016B010E0001FF6F0101012D46D036
:10188000140E266F00011BEC06F0180EF66E020E09
:10189000F76E0B0E0101256F000188EC07F01C505C
:1018A0009EA8FED7AD6E250EF66E020EF76E050EE3
:1018B0000101256F000188EC07F0320E0101266F4F
:1018C00000011BEC06F0010EEA6E020EE96E21EC3F
:1018D00008F0640E0101266F00011BEC06F02C0ECF
:1018E000F66E020EF76E0C0E0101256F000188ECFA
:1018F00007F01C509EA8FED7AD6E0D0E9EA8FED719
:10190000AD6E0A0E9EA8FED7AD6E0101236B535239
:1019100003E12351525C0AE3036A2351200FE96E6D
:10192000000E0320EA6EEF6A232BF1D71E6A1F6AAE
:101930001C6A576A536A526A0001FFC001F0120024
:10194000D8B204D0010EEA6E150EE96E006A016A83
:10195000026A036A0101156B166B176B186B145141
:101960001311121111112CE0200E196FD8900D37A0
:101970000E370F37103715371637173718371451FA
:10198000185D08E11351175D05E11251165D02E182
:101990001151155D0FE31151155F1251D8A0123D81
:1019A000165F1351D8A0133D175F1451D8A0143DF2
:1019B000185FD8800036013602360336192FD6D785
:1019C00015C1EFFF16C1ECFF17C1ECFF18C1ECFF0A
:1019D00000015BEF0DF00101156B166B010E176F27
:1019E000DA6AD96A1A6F0D0E196F010EEA6E110EBE
:1019F000E96E1AC1E2FF19C1E1FF17C118F1D890D1
:101A0000E550EE02F3501523F4501623182FF7D7A4
:101A100015C1DEFF16C115F1166BD8B0162B192BA8
:101A2000D8B41A2B172B17510508DFE1000173EF0B
:101A30000DF0030E01010E5F0AE3010EEA6E0E0EB9
:101A4000E96EEF5004E001D000D0EF2EFDD7000189
:101A500012000101046B036B066B056B005306E17A
:101A60000001FF511308D8B09DD0010100514E086C
:101A7000D8B002D0000196D006E10001FF51200845
:101A8000D8A090D001010C6B010E0B6F860E0A6F6F
:101A9000A00E096FD8920CC110F10BC10FF10AC151
:101AA0000EF109C10DF1146B136B00C112F1FFC0EF
:101AB00011F1000145D703C00CF102C00BF101C0C8
:101AC0000AF100C009F10CC110F10BC10FF10AC1FC
:101AD0000EF109C10DF10101146B136B126B050EB0
:101AE000116F000178D703C00CF102C00BF101C0E7
:101AF0000AF100C009F10AC108F109C107F1939484
:101B00008A8408C10DF101010D2B0D07D8B405D051
:101B10000E6900018EDF0101F8D707C10EF1000147
:101B200088DF0101075105270851062393948A9401
:101B300008C10DF10D2B0D07D8B405D00E690001B9
:101B400078DF0101F8D707C10EF1000172DF010152
:101B50000751052708510623190E0527000E0623F5
:101B60000651020811E2FF0A03E10551E7080CE201
:101B7000E80E055F030E065B032BD8B4042B190E89
:101B80000527000E0623ECD70451025D0AE3D8B402
:101B900002D00001B4D70151035DD8B002D00001DA
:101BA000AED700011200FA6BFB6BFA51100DF35027
:101BB000036AFC6F0C0E0101026F000131EC07F0AB
:101BC000A20EF66E020EF76EFC51F626000EF722FC
:101BD00067EC07F037EC09F0FB5353E165EC09F0D3
:101BE000938881B832D0020EFC6FFA0E0101266F85
:101BF00000011BEC06F0FC2FF8D7040E0101006F6A
:101C0000B90E0001FF6F0101026B140E016F00019C
:101C100020DFFA2BFA51F45D01E2FA6BFA51100D54
:101C2000F350036AFC6F0C0E0101026F000131ECEE
:101C300007F0A20EF66E020EF76EFC51F626000EAD
:101C4000F72267EC07F037EC09F0938A81BA18D0D5
:101C5000020EFC6FFA0E0101266F00011BEC06F06C
:101C6000FC2FF8D7040E0101006FB90E0001FF6FC1
:101C70000101026B140E016F0001EBDE010EFB6F20
:101C8000ABD7010EFA25016EC6EF12F0FA6BFB6BB3
:101C9000FA510F0DF350036AFC6F0C0E0101026F35
:101CA000000131EC07F0E20EF66E020EF76EFC5109
:101CB000F626000EF72267EC07F037EC09F0FB532D
:101CC000D8A47ED065EC09F0938881B832D0020E9A
:101CD000FC6FFA0E0101266F00011BEC06F0FC2FD1
:101CE000F8D7040E0101006FB90E0001FF6F01016A
:101CF000026B140E016F0001ACDEFA2BFA51F55D98
:101D000001E2FA6BFA510F0DF350036AFC6F0C0EEF
:101D10000101026F000131EC07F0E20EF66E020ED7
:101D2000F76EFC51F626000EF72267EC07F037EC51
:101D300009F0938A81BA43D0020EFC6FFA0E0101BA
:101D4000266F00011BEC06F0FC2FF8D7040E0101F2
:101D5000006FB90E0001FF6F0101026B140E016FDD
:101D6000000177DEF551FA5D03E1010EFB6F27D02C
:101D7000D890FA35036AF2CFFCF0F29E4BEC00F0FB
:101D80000900F5CF03F0FCBFF28EFC6F03C0FDF03D
:101D9000E8CF27F1010E0101286F0F0E2A6F890E7F
:101DA000296F000144EC09F0FCC027F10101286B08
:101DB0000F0E2A6F920E296F000144EC09F07FD7B5
:101DC000000E016ECBEF12F0FA6BFB6BFA51100DA7
:101DD000F350036AFC6F0C0E0101026F000131EC3D
:101DE00007F0780EF66E030EF76EFC51F626000E25
:101DF000F72267EC07F037EC09F0FB53D8A47DD04D
:101E000065EC09F0938881B832D0020EFC6FFA0EAF
:101E10000101266F00011BEC06F0FC2FF8D7040E21
:101E20000101006FB90E0001FF6F0101026B140E7A
:101E3000016F00010EDEFA2BFA51F65D01E2FA6B3A
:101E4000FA51100DF350036AFC6F0C0E0101026F82
:101E5000000131EC07F0780EF66E030EF76EFC51C0
:101E6000F626000EF72267EC07F037EC09F0938AAC
:101E700081BA42D0020EFC6FFA0E0101266F0001FA
:101E80001BEC06F0FC2FF8D7040E0101006FB90E11
:101E90000001FF6F0101026B140E016F0001D9DD1B
:101EA000F651FA5D03E1010EFB6F26D0D890FA35AA
:101EB000036AF2CFFCF0F29E4BEC00F00900F5CF84
:101EC00003F0FCBFF28EFC6F03C0FDF0E8CF27F1FA
:101ED0000101286B0F0E2A6F890E296F000144EC57
:101EE00009F0FCC027F10101286B0F0E2A6F920E3A
:101EF000296F000144EC09F080D7000E016ECFEF8E
:101F000012F0EF5210E0EACFFEF0E9CFFDF0EFCF94
:101F100002F131EC07F0FEC0EAFFFDC0E9FFE92A5B
:101F2000D8B4EA2AEED712000C0E0101036F020E9C
:101F3000046F00011EEC07F0F80EF66E040EF76E4B
:101F400067EC07F065EC09F0938A81BA0BD0020EBA
:101F5000FF6FFA0E0101266F00011BEC06F0FF2F48
:101F6000F8D701D0EFD71200FD6BFE6BFD510E0DBF
:101F7000F350036AFF6F0C0E0101026F000131EC98
:101F800007F0B20EF66E040EF76EFF51F626000E45
:101F9000F72267EC07F037EC09F0FE53D8A4EDD038
:101FA00065EC09F0938881B832D0020EFF6FFA0E0B
:101FB0000101266F00011BEC06F0FF2FF8D7040E7D
:101FC0000101006FB90E0001FF6F0101026B140ED9
:101FD000016F00013EDDFD2BFD51F85D01E2FD6B5F
:101FE000FD510E0DF350036AFF6F0C0E0101026FDD
:101FF000000131EC07F0B20EF66E040EF76EFF51E1
:10200000F626000EF72267EC07F037EC09F0938A0A
:1020100081BAB2D0020EFF6FFA0E0101266F0001E5
:102020001BEC06F0FF2FF8D7040E0101006FB90E6C
:102030000001FF6F0101026B140E016F000109DD49
:10204000F851FD5D03E1010EFE6F96D0FD5105E0F4
:10205000010A2BE0030A51E077D0E00EF66E050E80
:10206000F76E77EC07F0F250006EF29EAA6AA96A4A
:10207000310EA86EA69CA69EA6840F01550EA76ED3
:10208000AA0EA76EA682A6B2FED7A6940050F212A0
:102090000A0E0101266F00011BEC06F0F20EF66E2F
:1020A000050EF76E67EC07F04FD0020EF66E060EC7
:1020B000F76E77EC07F0F250006EF29EAA6AA96AFA
:1020C000320EA86EA69CA69EA6840F01550EA76E82
:1020D000AA0EA76EA682A6B2FED7A6940050F21250
:1020E0000A0E0101266F00011BEC06F0140EF66EBD
:1020F000060EF76E67EC07F027D0200EF66E060E80
:10210000F76E77EC07F0F250006EF29EAA6AA96AA9
:10211000330EA86EA69CA69EA6840F01550EA76E30
:10212000AA0EA76EA682A6B2FED7A6940050F212FF
:102130000A0E0101266F00011BEC06F0320EF66E4E
:10214000060EF76E67EC07F0EFDEFD510E0DF35053
:10215000036AFF6F0C0E0101026F000131EC07F002
:10216000B20EF66E040EF76EFF51F626000EF72241
:1021700067EC07F037EC09F010D784EF11F0FC5151
:10218000F80FD8B0C1D0080F8AEF11F0100EF66E1C
:10219000050EF76E77EC07F0050E5B6E1C0EF66E03
:1021A000050EF76E67EC07F09DEC07F00C0E0101D1
:1021B000026F000131EC07F0EA6A6B0EE96EA1DEF6
:1021C000BB6BA2D02A0EF66E050EF76E77EC07F009
:1021D000050E5B6E360EF66E050EF76E67EC07F0B9
:1021E0009DEC07F00C0E0101026F000131EC07F0CD
:1021F000EA6A7B0EE96E85DEBB6B86D0C151320880
:102200001CE0440EF66E050EF76E77EC07F0070E35
:102210005B6E500EF66E050EF76E67EC07F09DECE8
:1022200007F00C0E0101026F000131EC07F0EA6AC1
:10223000AB0EE96E66DEBF6B06D05E0EF66E050E67
:10224000F76E67EC07F060D0C15131081CE06E0EEC
:10225000F66E050EF76E77EC07F0060E5B6E7A0EE3
:10226000F66E050EF76E67EC07F09DEC07F00C0EAE
:102270000101026F000131EC07F0EA6A8B0EE96E92
:1022800040DEBD6B06D0880EF66E050EF76E67EC6D
:1022900007F03AD0C15131081CE0980EF66E050ED9
:1022A000F76E77EC07F0060E5B6EA40EF66E050E69
:1022B000F76E67EC07F09DEC07F00C0E0101026F62
:1022C000000131EC07F0EA6A9B0EE96E1ADEBD6B85
:1022D00006D0B20EF66E050EF76E67EC07F014D05E
:1022E00043D612D095968C7683A607D0C20EF66E92
:1022F000050EF76E67EC07F006D0D00EF66E050EF1
:10230000F76E67EC07F000D0FC51070801E00CDE27
:102310001AEF12F0F2CF0DF0F29EE824F76AF736CA
:10232000390FF66E230EF7220A00F550FA6E0800F8
:10233000F5500DBEF28EF96EC421FC214822942284
:102340008C21E022E422082365EC09F0FA6BFB6B98
:10235000FA51110DF350036AFC6F0C0E0101026F6C
:10236000000131EC07F0180EF66E040EF76EFC510A
:10237000F626000EF72267EC07F037EC09F0FB5366
:1023800071E1938881B833D0020EFC6FFA0E01011F
:10239000266F00011BEC06F0FC2FF8D7040E01019C
:1023A000006FB90E0001FF6F0101026B140E016F87
:1023B000000129EC0DF0FA2BFA51F75D01E2FA6BFE
:1023C000FA51110DF350036AFC6F0C0E0101026FFC
:1023D000000131EC07F0180EF66E040EF76EFC519A
:1023E000F626000EF72267EC07F037EC09F0938A27
:1023F00081BA37D0020EFC6FFA0E0101266F000180
:102400001BEC06F0FC2FF8D7040E0101006FB90E8B
:102410000001FF6F0101026B140E016F000129EC36
:102420000DF0F751FA5D03E1010EFB6F1AD0FAC00F
:10243000FCF0A5D6FA51110DF350036AFC6F0C0E97
:102440000101026F000131EC07F0180EF66E040E68
:10245000F76EFC51F626000EF72267EC07F037EC1A
:1024600009F08DD7000E016ED3EF12F0F86AD09EFE
:10247000078EB886080EAF6E020EB06EA60EAC6E5A
:10248000900EAB6E93908A80536A526A546A556A72
:10249000566A576A586A596A5A6A5B6A010E5C6ED4
:1024A0005D6A050E5E6EBB6BBC6BBD6BBE6BBF6BBE
:1024B000C06B020EF46F080EF56FF66F070EF76F24
:1024C000030EF86FF96BC150C00B0F09C16E070EF8
:1024D000B46E19D002001600000C405F0007803077
:1024E0002E302E302E3009C0000780302E302E3096
:1024F0002E3019C00003804B45590DC00005805394
:10250000534944000000000EF86E240EF76ED40EFE
:10251000F66E0900F550006E000A13E00900F55050
:10252000016EE8BE05D00F0BEA6E0900F5CFE9FF9A
:1025300001BC090001AC0900F5CFEEFF004EE9D760
:10254000F9D7F86A020EFA6FFA0E0101266F000140
:102550001BEC06F0FA2FF8D7F19E320E936E9D8A8F
:10256000C00EF212D2EF06F0240EF66E0C0EF76ECD
:1025700067EC07F095968C8634EF08F0F951FC0F64
:1025800014E2040FD7EF12F0D3EF0DF001C0F9F011
:102590000CD046EF0EF001C0F9F007D015D401C001
:1025A000F9F003D0D1D601C0F9F0E8D70300F2CF9B
:1025B0000DF0F29EE824F76AF736D30FF66E250E7B
:1025C000F7220A00F550FA6E0800F5500DBEF28EA3
:0A25D000F96E882592259C25A425AC
:020000040030CA
:0E00000000C21E1E008781000FC00FE00F40DF
:00000001FF
;PIC18F4620
;CRC=5B6E  CREATED="18-dic.-17 21:23"
