:1000000008308A00002800008C183919AE18361CF8
:100010002E18AE180000CF25203861396110D3208A
:10002000CC2452008C21B023B32F55274500CF2577
:10003000203861396110D320CC2452008C18B219B9
:10004000B420FA100001CF25203861396110D32087
:10005000CC2452000C22E9396131EC32A0266F32F7
:100060006500CF25203861396110D320CC2452009F
:100070008C274B10F030F230A0294126492900018D
:1000800045346E34633465346E34643465347234AC
:1000900020344D3461346E34753461346C34003442
:1000A0004134703461346734613464346F342034E3
:1000B0004D3461346E34753461346C342034003422
:1000C00043346F346E346634693467347534723453
:1000D0006134633469346F346E3420342034003436
:1000E0000034003400340034003400340034003470
:1000F0000034003400340034003400340034003460
:100100004F346E3420342D343E3420345334613433
:100110006C346934643461342034313400344F3405
:100120006E3420342D343E342034533461346C34F6
:100130006934643461342034323400344F346E34E2
:1001400020342D343E342034533461346C346934DB
:10015000643461342034333400344F346E3420340A
:100160002D343E342034533461346C346934643477
:1001700061342034343400344F346E3420342D3420
:100180003E342034533461346C3469346434613423
:100190002034353400344F346E3420342D343E3422
:1001A0002034533461346C34693464346134203421
:1001B000363400344F346E3420342D343E34203401
:1001C000533461346C3469346434613420343734EA
:1001D00000344F346E3420342D343E3420345334C4
:1001E00061346C346934643461342034383400341C
:1001F000533441344C344934523420342034203484
:10020000203420342034203420342034003400348E
:10021000003400340034003400340034003400343E
:100220000034003400340034003400344F34663479
:10023000663420342D343E342034533461346C34ED
:100240006934643461342034313400344F346634DA
:10025000663420342D343E342034533461346C34CD
:100260006934643461342034323400344F346634B9
:10027000663420342D343E342034533461346C34AD
:100280006934643461342034333400344F34663498
:10029000663420342D343E342034533461346C348D
:1002A0006934643461342034343400344F34663477
:1002B000663420342D343E342034533461346C346D
:1002C0006934643461342034353400344F34663456
:1002D000663420342D343E342034533461346C344D
:1002E0006934643461342034363400344F34663435
:1002F000663420342D343E342034533461346C342D
:100300006934643461342034373400344F34663413
:10031000663420342D343E342034533461346C340C
:100320006934643461342034383400345334413413
:100330004C34493452342034203420342034203496
:10034000203420342034203420340034003400346D
:1003500000340034003400340034003400340034FD
:100360000034003400340034003400345634453452
:100370005234203449345034203420342034203452
:1003800020342034203420342034203400345634B7
:1003900045345234203453345334493444342034B3
:1003A00020342034203420342034203420340034CD
:1003B00056344534523420344B3445345934203487
:1003C000203420342034203420342034203420348D
:1003D00000344D346F3464346F342034413463342A
:1003E000633465347334733450346F3469346E3429
:1003F000743400344F346E342F344F3466346634E2
:1004000020344234613463346B346C34693467347F
:10041000683474340034533441344C3449345234E5
:10042000203420342034203420342034203420342C
:1004300020342034203400340034003400340034BC
:10044000003400340034003400340034003400340C
:1004500000340034003400340034573084008313F7
:1004600000080319402A0630F800F701F70B362A76
:10047000F80B352A7B30F700F70B3C2A800B332A28
:1004800008005E18452A0812462A08168316081224
:100490008312DE184D2A88124E2A88168316881277
:1004A00083125E19552A0813562A08178316081353
:1004B0008312DE195D2A88135E2A88178316881333
:1004C000000083120814831608100230F700F70B9F
:1004D000672A6A2A00008312081083160810831204
:1004E0000800DF018316081600308312081A013055
:1004F000DF048316881600308312881A0130F70053
:100500000310F70D7708DF048316081700308312F5
:10051000081B0130F700F70DF70DFC30F7057708E1
:10052000DF048316881700308312881B0130F70020
:10053000F70DF70DF70DF830F7057708DF045F08C2
:10054000F80008008316081008118810831208119B
:10055000831608110816881608178817831288143E
:1005600083168810000083120814831608100000F8
:10057000831271227808DE0008108316081000002C
:100580008312081483160810C52AC62A0000831295
:1005900071227808DD0008108316081008128812EE
:1005A0000813881383125E0EF700F030F705770802
:1005B0005D04F8007808DD00DD1FE02A8316AA2A12
:1005C000DB08031DE52A0811E62A08158316081121
:1005D0000000831288108316881000008312081010
:1005E0008316081083125C0EDD000F30DD055D08F8
:1005F000DE0041225C080F39DD00DE0041220800E8
:100600002830D1000C30D2000130D3000630D400A5
:10061000081083160810831208118316081183121C
:10062000881083168810081288120813881308107F
:10063000081188100F308312D7002D220130D0000E
:100640005008033C031C2C2B0330DE0041220530F4
:10065000D7002D22D00A202B0230DE0041220530A7
:10066000D7002D22D0015008033C031C432B5130EE
:100670005007840083130008D500DB015508DC0017
:10068000A222D00A332B8A150A127828580B492B3C
:100690004C2B4030D9004D2BD90101305702D907DE
:1006A00059088038DA00DB015A08DC00A222080071
:1006B0005608073A0319662B0B3A03196B2B063AB7
:1006C0000319732B023A0319792B7E2B0130D700C3
:1006D000D8004623832BDB010130DC00A22202304C
:1006E000D7002D22832B0130D7000230D8004623BB
:1006F000832BDB011030DC00A222832B0130DB00D6
:100700005608DC00A22208000B08D3008B138316C6
:1007100003178C170C140000000083120313D31B63
:100720008B1703178C080319AE2B0D080313D30086
:1007300003170F080313D40003170C080313D60084
:100740005823530803178D000313540803178F0011
:100750008D0A03198F0A0313842B03170313080050
:100760000330E102031CBE2B6130840083130008B8
:100770000319BE2BBC2BBC2B800BBB2B0800D70155
:10078000D601D901D801D308031DCA2B5208133C46
:100790000318D72C53084E3C031CD72C031DD42B15
:1007A0005208203C031CD72CDF010130DE008630CC
:1007B000DD00A030DC0083105F08E3005E08E2008B
:1007C0005D08E1005C08E000E701E6015308E50090
:1007D0005208E4008318EF2B683084008313F7017C
:1007E000F801F901FA01E801E901EA01EB01670802
:1007F00066046504640403192D2C2030EC000310FA
:10080000E00DE10DE20DE30DE80DE90DEA0DEB0D54
:1008100067086B02031D162C66086A02031D162C5E
:1008200065086902031D162C64086802031C272C46
:100830006408E8026508031C650FE9026608031CEA
:10084000660FEA026708031C670FEB020314F70D3B
:10085000F80DF90DFA0DEC0BFF2B68088000840AE7
:1008600069088000840A6A088000840A6B08800096
:100870007A08DF007908DE007808DD007708DC0000
:100880005F08E3005E08E2005D08E1005C08E0004C
:10089000E701E601E5010530E4002030EC00E80165
:1008A000E901EA01EB016308FA006208F900610856
:1008B000F8006008F7000310771C6C2C6408E80748
:1008C00065080318650FE90766080318660FEA074D
:1008D00067080318670FEB07EB0CEA0CE90CE80C50
:1008E000FA0CF90CF80CF70CEC0B5B2C7A08DF0017
:1008F0007908DE007808DD007708DC005D08DB00A1
:100900005C08DA0083160611831206155B08E00006
:10091000E00AE0030319902CFF30E100B023892C9A
:100920005A08E100B0235A08D8075B0803185B0F88
:10093000D90783160611831206115B08E000E00A4E
:10094000E0030319A72CFF30E100B023A02C5A08C4
:10095000E100B0235A08D8075B0803185B0FD907DA
:100960001930D8070318D90A5908023C0318CD2CAE
:10097000FF3A031DBF2C5808E73C0318CD2CE83084
:10098000D8020330031C0430D902D60A0319D70A4F
:100990001930D8070318D90AB42C57085502031C7C
:1009A000D72C031D822C54085602031C822C0800ED
:1009B000D001D101500EF700F030F7057708D200D2
:1009C0000C30D6005823403003178D0000308F00C4
:1009D0000313520803178D0703188F0A0313842388
:1009E000D108031D392D831606168312061A222DEF
:1009F0000230D200FA30D7002D22D20BFA2C04306C
:100A0000D300B930D200D5011430D400BF23D00AAE
:100A100050084A02031CD001500EF700F030F705D1
:100A20007708D2000C30D6005823403003178D00D1
:100A300000308F000313520803178D0703188F0A25
:100A400003138423831686168312861A382D0230E8
:100A5000D200FA30D7002D22D20B292D0430D3003A
:100A6000B930D200D5011430D400BF230130D100F9
:100A7000F02C01305007F8008A150A128A28F70175
:100A8000F801520803105318F707F70CF80CD318A5
:100A9000F707F70CF80C5319F707F70CF80CD319F4
:100AA000F707F70CF80C531AF707F70CF80CD31AE2
:100AB000F707F70CF80C531BF707F70CF80CD31BD0
:100AC000F707F70CF80C080054080739F700540C26
:100AD000F800F80CF80C1F30F80578085607840069
:100AE000831357188317F801F80AF70A782DF80DC1
:100AF000F70B772DD5080319802D78088004832DF6
:100B0000F809780880050800D001D1015008D2000A
:100B10000F30D3003F257808D2000C30D600582380
:100B2000803003178D0000308F0003135208031725
:100B30008D0703188F0A03138423D108031D042E85
:100B4000831606168312061AD02D0230D200FA3010
:100B5000D7002D22D20BA72D0430D300B930D200FC
:100B6000D5011430D400BF23D00A50084C02031C16
:100B7000D0015008D2000F30D3003F257808D200B2
:100B80000C30D6005823803003178D0000308F00C2
:100B90000313520803178D0703188F0A03138423C6
:100BA000831686168312861A032E0230D200FA307C
:100BB000D7002D22D20BD72D0430D300B930D2006C
:100BC000D5011430D400BF234C085002031DEB2D77
:100BD0000130D100032E0310500D203E84008313FA
:100BE000840A0008D30084030008D200D400013036
:100BF000D500D701D60164255208D400D501D7010C
:100C00008030D60064259D2D0030F8008A150A1228
:100C10009028D001D101500EF700F030F705770889
:100C2000D2000C30D6005823163003178D00013047
:100C30008F000313520803178D0703188F0A03133D
:100C40008423D108031D862E831606168312061AE6
:100C5000532E0230D200FA30D7002D22D20B2B2E89
:100C60000430D300B930D200D5011430D400BF23F2
:100C7000D00A50084D02031CD001500EF700F0308E
:100C8000F7057708D2000C30D6005823163003172A
:100C90008D0001308F000313520803178D070318CE
:100CA0008F0A03138423831686168312861A852ED1
:100CB0000230D200FA30D7002D22D20B5A2E043047
:100CC000D300B930D200D5011430D400BF234D0871
:100CD0005002031D6E2E0130D100852E0310500DE1
:100CE000203E84008313840A0008D3008403000894
:100CF000D200D400D501D701D60164255208D40012
:100D0000D501D7018030D6006425212E0030F800AF
:100D10008A150A1296280B08D3008B138316031723
:100D20008C170C140000000083120313D31B8B17C5
:100D300003170C087F390319DF2E0313D3000317A1
:100D40000D080313D40003170F080313D50053082D
:100D5000D6005823540803178D00031355080317B2
:100D60008F0003130B08D6008B13831603178C1701
:100D70000C140000000083120313D61B8B170317FB
:100D80000C0D0E0D7F390319DF2E0313D30003174B
:100D90000D080313D40003170F080313D5005308DD
:100DA000D6005823540803178D0003135508031762
:100DB0008F008D0A03198F0A03138B2E0317031359
:100DC0000800831686168312861AEE2E0230D30090
:100DD000FA30D7002D22D30BE82EEF2EE12E08009B
:100DE0005208FA3E0318622F063E652F043003179F
:100DF0008D0000308F0003138B260130D7000230A6
:100E0000D80046230B3003178D0000308F000313EA
:100E10008B26E126622F0130D7000230D80046230E
:100E2000123003178D0000308F0003138B26013022
:100E3000D7000230D8004623173003178D0000304A
:100E40008F0003138B26E126622F1E3003178D00BF
:100E500000308F0003138B260130D7000230D800FA
:100E60004623233003178D0000308F0003138B2699
:100E7000E126622F0130D7000230D80046232A3005
:100E800003178D0000308F0003138B260130D7002D
:100E90000230D8004623313003178D0000308F0018
:100EA00003138B26E126622F8316881108308312E4
:100EB0008806383003178D0000308F0003138B260F
:100EC000E126622F8A110A12D92F0A148A140A15F0
:100ED0008207F62E0B2F252F3A2F542F622FD00189
:100EE000D1015008D2001130D3003F257808D2003C
:100EF0000C30D6005823B63003178D0001308F0018
:100F00000313520803178D0703188F0A0313842352
:100F1000D108031DF12F831606168312061ABB2F64
:100F20000230D200FA30D7002D22D20B922F04309B
:100F3000D300B930D200D5011430D400BF23D00A79
:100F400050084B02031CD0015008D2001130D300CE
:100F50003F257808D2000C30D6005823B63003174E
:100F60008D0001308F000313520803178D070318FB
:100F70008F0A03138423831686168312861AF02F92
:100F80000230D200FA30D7002D22D20BC22F04300B
:100F9000D300B930D200D5011430D400BF234B08A0
:100FA0005002031DD62F0130D100F02F5008D2007F
:100FB000F02E5008D2001130D3003F257808D2001F
:100FC0000C30D6005823B63003178D0001308F0047
:100FD0000313520803178D0703188F0A0313842382
:0C0FE000882F0030F8008A150A129C28A7
:1010000003081F3983008316061083120614831603
:101010000610831206140230CA000530CB000830D7
:10102000CC00CD00CE01CF01831603170908C039CB
:10103000890003131F129F120030031788008312C8
:1010400087018801890183134A300313A000A1019D
:101050004930A200A3014830A400A5012C30A6000D
:10106000A7012830A800A9012930AA00AB012A3025
:10107000AC00AD012B30AE00AF01B001B101B93011
:10108000B2003B30B3005E30B4003830B5003430CD
:10109000B6003530B7003830B8003230B9006630AD
:1010A000BA002F30BB00BD30BC002C30BD003A3040
:1010B000BE002A30BF00DC30C0002730C1009F30A6
:1010C000C2002530C3008230C4002330C500843004
:1010D000C6002130C700A330C8001F30C90030301F
:1010E000831695008113323086008A118312002BFB
:1010F0008A150430D000FA30D7008A112D228A15C3
:10110000D00B7B284E08FC3E03189F28043EA128E4
:101110008A11D82C8A157808CE009F288A11842D30
:101120008A157808CE009F288A11092E8A1578081A
:10113000CE009F288A116F2F8A157808CE0082284A
:1011400063000A108A100A11820788288E289428C2
:021150009A28DB
:04400E00E22FFF3E60
:00000001FF
;PIC16F887
;CRC=6E88  CREATED="21-nov.-17 00:51"
