:0400000049EF13F0C1
:08000800046ED8CF05F0E0CF33
:1000100006F00001E9CF0CF0EACF07F0E1CF08F0DD
:10002000E2CF09F0D9CF0AF0DACF0BF0F3CF12F01C
:10003000F4CF13F0FACF14F000C00EF001C00FF0AF
:1000400002C010F003C011F09DAA2AEF00F09EBA82
:1000500067EF05F00EC000F00FC001F010C002F015
:1000600011C003F00CC0E9FF07C0EAFF078E08C00B
:10007000E1FF09C0E2FF0AC0D9FF0BC0DAFF12C0DE
:10008000F3FF13C0F4FF14C0FAFF045006C0E0FFF2
:1000900005C0D8FF1000F2CF0DF0F29EF76AB00F46
:1000A000F66E000EF7220900F5500DBEF28E12001A
:1000B000227C217C207C047C007C017C027C037CF3
:1000C000F76AD00FF66E000EF7220900F550120005
:1000D0002B4950442C00F76AE60FF66E000EF7220B
:1000E0000900F5501200434D443AF76AFA0FF66ED4
:1000F000000EF7220900F55012004F4B0D0A0000C8
:10010000F76A100FF66E010EF7220900F550120083
:100110004E6F20417000F76A260FF66E010EF7222F
:100120000900F55012002B43574A41503A00F76A34
:100130003E0FF66E010EF7220900F5501200434FF4
:100140004E4E454354454400F76A580FF66E010E73
:10015000F7220900F55012004641494C0000415475
:100160002B43495053454E443D25632C25750D0ABC
:10017000000041542B434950434C4F53453D2563A8
:100180000D0A000041542B43575141500A0D000005
:1001900041542B43495053454E443D25632C25750E
:1001A0000D0A000041542B434950434C4F53453DE9
:1001B00025630D0A000041542B43575341505F44BF
:1001C00045463D25732C312C340D0A0041542B43F8
:1001D000495053454E443D25632C25750D0A0000BA
:1001E00041542B434950434C4F53453D25630D0A21
:1001F000000041542B43495053454E443D25632C48
:1002000025750D0A000041542B434950434C4F5370
:10021000453D25630D0A000041542B43574D4F4483
:10022000453D25630D0A000041542B43574A415078
:100230003F0D0A0041542B43574A41503D2573005E
:1002400041542B43574D4F44453D25630D0A000053
:1002500041542B4349504D55583D310D0A004154EE
:100260002B4349505345525645523D312C38300DA1
:100270000A00456E63656E646572204D616E75613E
:100280006C004170616761646F204D616E75616CD7
:100290002000436F6E66696775726163696F6E20D7
:1002A000200000000000000000000000000000002E
:1002B00000004553544143494F4E204950202020CF
:1002C0002020004553544143494F4E205353494445
:1002D000202020004150205353494420202020203A
:1002E00020202020004150204B4559202020202054
:1002F0002020202020004150204950202020202074
:1003000020202020202000436F6E6620416363651B
:1003100073736F20526564004F6E2F4F66662042E4
:1003200061636B6C696768740053414C49522020CB
:10033000202020202020202020000000000000009D
:100340000000000000000000000000004573746120
:100350006369F36E2020202020004163636573737E
:1003600020506F696E7420004573746163696F6E0D
:10037000202B2041500053414C4952202020202066
:10038000202020000000000000000000000000000D
:10039000000053414C4952005B5349475D202020E7
:1003A0002020205B454E545D00000C4F6E202D3EFA
:1003B000202573000C4F6E202D3E202573000C4F1E
:1003C00066662D3E202573000C4F66662D3E202567
:1003D000730041542B43494653520D0A00000C430D
:1003E000617267616E646F2E2E2E000041542B43A4
:1003F000494653520D0A00000C43617267616E64F6
:100400006F2E2E2E000041542B43574A41503F0D72
:100410000A000C43617267616E646F2E2E2E00001D
:100420000C446573686162696C697461646F000093
:1004300041542B43575341503F0D0A000C43617206
:1004400067616E646F2E2E2E00000C446573686128
:1004500062696C697461646F000041542B435753A7
:1004600041503F0D0A000C43617267616E646F2E4C
:100470002E2E00000C446573686162696C697461BA
:10048000646F00000C4261636B6C69676874204F95
:100490006E000C4261636B6C69676874204F66661E
:1004A000000041542B43574D4F44455F4445463D62
:1004B000310D0A000C436F6E66696720436C6965F5
:1004C0006E74650041542B43574D4F44455F44457E
:1004D000463D320D0A000C436F6E6669672041503D
:1004E000000041542B43574D4F44455F4445463D22
:1004F000330D0A000C436F6E66696720436C6965B3
:100500006E74654150000101C56BC66BBA51FB0F9B
:10051000D8B072D0050F00017CEF03F0010EEA6E37
:10052000BB0EE96EF2CFC7F1F29E000EDEDD0A00CF
:100530000900F550EE6E0009FBE10101C7BFF28E24
:10054000040EC56F010EC66F57D0010EEA6EBB0ECA
:10055000E96EF2CFC7F1F29E000ED2DD0A0009006B
:10056000F550EE6E0009FBE10101C7BFF28E050EEA
:10057000C56F42D0010EEA6EBB0EE96EF2CFC7F135
:10058000F29E000EC8DD0A000900F550EE6E00096B
:10059000FBE10101C7BFF28E070EC56F2DD0010E22
:1005A000EA6EBB0EE96EF2CFC7F1F29E000EBFDD20
:1005B0000A000900F550EE6E0009FBE10101C7BF1A
:1005C000F28E090EC56F18D0010EEA6EBB0EE96EF1
:1005D000F2CFC7F1F29E000EB7DD0A000900F55018
:1005E000EE6E0009FBE10101C7BFF28E040EC56F7C
:1005F000010EC66F01D001015C50060DF350C86BAF
:10060000C76F036ABA51C725016EC8510322015052
:100610005F0FE96E000E0320EA6E036AEF50BB0F16
:10062000E96E010E0320EA6EEF50B95D3DE15C50CA
:10063000060DF350C86BC76F036ABA51C725016E28
:10064000C851032201505F0FE96E000E0320EA6ECD
:10065000EF2A5C50060DF350C86BC76F036ABA519E
:10066000C725016EC851032201505F0FE96E000ECD
:100670000320EA6EC551EF5C14E15D50060DF350A6
:10068000C86BC76F036ABA51C725016EC8510322F0
:1006900001505F0FE96E000E0320EA6E010EEF6E4F
:1006A00002D0BA5300E126D05C50060DF350C86B5F
:1006B000C76F036ABA51C725016EC85103220150A2
:1006C0005F0FE96E000E0320EA6EEF6AC62D12D0AE
:1006D0005D50060DF350C86BC76F036ABA51C7254A
:1006E000016EC851032201505F0FE96E000E032016
:1006F000EA6EEF6A00011200E824F76AF736130F7A
:10070000F66E070EF7220A00F550FA6E0800F55053
:10071000F96E1C0574054A059E05C805BB2D2BD036
:100720000101B95122080EE10001C151310803E075
:10073000C151320804E1060EBB6FBC6B01D0BC6B2B
:1007400019D001010001C15131080AE1036ABC510D
:100750007B0FE96E000E0320EA6EB9C1EFFF09D0EE
:10076000036ABC516B0FE96E000E0320EA6EB9C13B
:10077000EFFFBC2B18D0BB51050815E10101B951A1
:10078000220806E1060E0001BB6FBC6B0CD0010114
:10079000036A0001BC517B0FE96E000E0320EA6E74
:1007A000B9C1EFFFBC2B0101B95122080AE10001D8
:1007B000BB51FB0F05E2050FE4EF03F0BB2BBC6B55
:1007C0000101000137EF05F0E824F76AF736E30F7F
:1007D000F66E070EF7220A00F550FA6E0800F55083
:1007E000F96EBC07BC07BC07BC07BC07BD2D12D007
:1007F0000101B95122080CE0036A0001BE518B0FC0
:10080000E96E000E0320EA6EB9C1EFFFBE2B0101B5
:1008100018D00001BD51030813E10101B9512208AC
:100820000DE0036A0001BE519B0FE96E000E03202C
:10083000EA6EB9C1EFFFBE2B03D001010001BE6B10
:100840000101B95122080AE10001BD51FC0F05E286
:10085000040F31EF04F0BD2BBE6B0101000141EF2D
:1008600005F0E824F76AF7367D0FF66E080EF722DA
:100870000A00F550FA6E0800F550F96E5608560851
:1008800056085608BF2D0FD00101B95122080CE0BF
:10089000036A0001C051AB0FE96E000E0320EA6E3F
:1008A000B9C1EFFFC02B0101B951220809E10001D4
:1008B000BF5103E0010A01E002D0BF2BC06B010170
:1008C00000014BEF05F0050E0101BB6F552C13D055
:1008D000B9512C0802E1BA530BE0036A59501C0FBE
:1008E000E96E000E0320EA6EB9C1EFFF592A02D06B
:1008F000596A556A19D0036A5950F2CFBCF1F29E79
:10090000000160EC00F00101BCBFF28E016EB95D28
:100910000AE1BA5308E1592ABB51595C03E1010EBF
:10092000556E596A01D0596A000158EF05F0040E5E
:100930000101BB6F542C15D0B9512C0802E1BA53F8
:100940000BE0036A58501E0FE96E000E0320EA6E9A
:10095000B9C1EFFF582A04D0586A546A010E566E86
:1009600019D0036A5850F2CFBCF1F29E00016BEC33
:1009700000F00101BCBFF28E016EB95D0AE1BA530D
:1009800008E1582ABB51585C03E1010E546E586AC5
:1009900001D0586A00015EEF05F0562C21D001010C
:1009A000B9513A0802E1BA5317E0036A5A50200FCE
:1009B000E96E000E0320EA6EB9C1EFFF536A5AC018
:1009C00052F05A5207E1B9512C0804E1BA5302E13E
:1009D0005A6A01D05A2A04D05A6A566A010E576ED2
:1009E000000164EF05F05B50010A0DE0030A12E01C
:1009F000010A25E0060A38E0030A40E0010A48E05F
:100A0000030A50E04FD0B8C1B9F10101BA6B00013F
:100A10007ADD5BD0B8C1B9F1020E0101BA6F0001F5
:100A200072DDB8C1B9F1010E0101BA6F00016BDDD1
:100A3000B8C1B9F10101BA6B000165DD46D0B8C19A
:100A4000B9F1030E0101BA6F00015DDDB8C1B9F162
:100A5000040E0101BA6F000156DDB8C1B9F1010100
:100A6000BA6B000150DD31D0B8C1B9F157D6B8C169
:100A7000B9F10101BA6B000146DD27D0B8C1B9F167
:100A8000B5D6B8C1B9F10101BA6B00013CDD1DD08A
:100A9000B8C1B9F1F7D6B8C1B9F10101BA6B00011B
:100AA00032DD13D00101BA6BB8C1B9F100010BD727
:100AB0000101BA6BB8C1B9F1000139D70101BA6BB4
:100AC000B8C1B9F1000169D75B6A70EF05F09EAA61
:100AD000FED7AECFB7F10101B7C1B8F1000183D79E
:100AE0009E9A2AEF00F00C436F6E6669677572611B
:100AF0006E646F2E2E2E0000010EEA6EB00EE96EAF
:100B0000EF500DE0060E016E006A002EFED7012E9A
:100B1000FBD77B0E006E002EFED7EF2EF3D7120010
:100B20000101686B696B6951070833E369510A0D6C
:100B3000F350280F686F6A6B6A51090828E36951FE
:100B40000B0DF3506C6B6B6F036A6A516B25016E72
:100B50006C5103220150F40FE96E000E0320EA6E7F
:100B60006A5168256D6FF2CF6EF1F29EAA6A6DC16F
:100B7000A9FFA69CA69EA680A8506EBFF28EEF6E1F
:100B80000A0EB06F0001B8DF01016A2BD5D7692BBF
:100B9000CAD70C0E4C6F530E4D6F410E4E6F4C0E5C
:100BA0004F6F490E506F520E516F0001C3EF13F09B
:100BB000010178B102D08C9801D08C88959878B3D7
:100BC00002D08C9A01D08C8A959A78B502D08C9CF0
:100BD00001D08C8C959C78B702D08C9E01D08C8EE5
:100BE000959E00008C809590020E006E002EFED720
:100BF00000D000008C909590000112000101796BEB
:100C00009588000E83B8010E7913958A000E83BA79
:100C1000010E006ED890003600507913958C000EAE
:100C200083BC010E006E00360036FC0E001600502C
:100C30007913958E000E83BE010E006E00360036CD
:100C40000036F80E00160050791379C101F000014A
:100C500012009588958A958C958E8C8295920000CD
:100C60008C8095900000CADF01C078F18C9095903F
:100C700000008C80959000D000D00000BFDF01C044
:100C800077F18C9095909598959A959C959E0101F9
:100C90007839006EF00E001600507711016E0001D9
:100CA00058EF06F09590959495928C949594D1D7A1
:100CB00001C077F1010101AE02D00001F8D77553F0
:100CC00002E18C9401D08C84959400008C929592D2
:100CD00000008C9095907639776F0F0E771777C15B
:100CE00078F1000165DF010176510F0B776F786FA6
:100CF00000015EDF1200280E0101696F0C0E6A6FA1
:100D0000010E6B6F060E6C6F8C9095908C94959481
:100D10008C9295929598959A959C959E9590959480
:100D200095920F0EB06F0001E7DE010E0101686FB2
:100D3000685103080CE3030E786F000139DF050EDC
:100D40000101B06F0001D8DE0101682BF1D7020E5E
:100D5000786F00012DDF050E0101B06F0001CCDEC0
:100D60000101686B6851030811E3036A6851690F58
:100D7000E96E010E0320EA6EEFCF6DF1756B6DC168
:100D800076F100018FDF0101682BECD70001CBEF7A
:100D900013F00101722D01D003D0400E736F01D00A
:100DA000736B010E715D732773518009746F756BDE
:100DB000766F000177DF120001017051070A000110
:100DC00007E00B0A0CE0060A16E0020A1CE022D03B
:100DD000010E0101716F726F0001DBDF22D0010192
:100DE000756B010E766F00015DDF020E0101B06FC1
:100DF000000182DE16D0010E0101716F020E726FCA
:100E00000001C7DF0ED00101756B100E766F000177
:100E100049DF07D0010E0101756F70C176F1000145
:100E200041DF12000900F5520CE0F6CF6EF1F7CF6A
:100E30006FF1F5CF70F1C0DF6EC1F6FF6FC1F7FF44
:100E4000F1D712000900F6CFB0F1F7CFB1F1F550AC
:100E50009EA8FED7AD6EB0C1F6FFB1C1F7FF01018C
:100E6000AF2F01D002D00001EDD700011200090020
:100E7000F5520DE0F6CFAFF1F7CFB0F1F5509EA8E7
:100E8000FED7AD6EAFC1F6FFB0C1F7FFF0D71200CD
:100E900001016B6B6C6B5D50060DF3506E6B6D6FEB
:100EA0005F0E6D25E96E000E6E21EA6EEF5252E183
:100EB0006C2B5D50060DF3506E6B6D6F036A6C51B9
:100EC0006D25016E6E51032201505F0FE96E000E19
:100ED0000320EA6EEF2C39D05C50060DF3506E6B98
:100EE0006D6F036A6C516D25016E6E5103220150C6
:100EF0005F0FE96E000E0320EA6EEF6A5D50060D8B
:100F0000F3506E6B6D6F036A6C516D25016E6E51FF
:100F1000032201505F0FE96E000E0320EA6EEF6AB4
:100F20006C51040803E06C5105080DE15D50060D9D
:100F3000F3506E6B6D6F5F0E6D25E96E000E6E21C6
:100F4000EA6E010EEF6E6CC16BF15E506C5D01E3F9
:100F50006C6BA1D75D50060DF3506E6B6D6F5F0E1D
:100F60006D25E96E000E6E21EA6EEF6A5B6A0A0E6D
:100F7000B06F0001C1DD01016BC101F00001120081
:100F8000EF5210E0EACFB0F1E9CFAFF1EF509EA8F9
:100F9000FED7AD6EB0C1EAFFAFC1E9FFE92AD8B410
:100FA000EA2AEED71200F2CF6AF1F29EAA6AA96A83
:100FB000A69CA69EA680A85001016ABFF28E0001E1
:100FC000C16F0A0E0101B06F000196DDC151310AF7
:100FD00005E0030A03E0010A01E001D01CD0F25051
:100FE000006EF29EAA6AA96A330EA86EA69CA69EFF
:100FF000A6840F01550EA76EAA0EA76EA682A6B2F2
:10100000FED7A6940050F2120A0E0101B06F000143
:1010100073DD330EC16F180EF66E020EF76E0A0EF8
:101020000101AF6F00010EDFC1519EA8FED7AD6E6A
:101030000D0E9EA8FED7AD6E0A0E9EA8FED7AD6E11
:10104000010E5B6E320E0101B06F000155DD280EFE
:10105000F66E020EF76E0BDF020E5B6E19DF01C03B
:1010600068F1010168510208D8A475D0696B036A60
:101070006951C20FE96E000E0320EA6EEF500A08B4
:1010800035E0036A6951C20FE96E000E0320EA6E73
:10109000010E69256C6FF2CF6DF1F29EAA6A6CC1E8
:1010A000A9FFA69CA69EA680A8506DBFF28EEF6EEB
:1010B0000A0EB06F000120DD036A01016951C20F01
:1010C000E96E000E0320EA6EEF3C03D0050E686F58
:1010D0000DD0036A6951C20FE96E000E0320EA6E5B
:1010E000EF500A0801E102D0692BC1D76851050809
:1010F00012E0340EF66E020EF76E090EAF6F0001AD
:10110000A1DEEA6AC20EE96E3BDF030E5B6EC0DE53
:1011100001C068F101016851040803E06851050845
:101120001AE1400EF66E020EF76E0A0EAF6F000166
:1011300089DE0401C2519EA8FED7AD6E0D0E9EA899
:10114000FED7AD6E0A0E9EA8FED7AD6E010E5B6E89
:1011500000019EDE0101500EF66E020EF76E0001D8
:1011600086DE040E01016A6FFA0EB06F0001C4DC66
:1011700001016A2FF9D75E0EF66E020EF76E0001BE
:1011800076DE040E01016A6FFA0EB06F0001B4DC66
:1011900001016A2FF9D7040E5B6E0001D5EF13F041
:1011A000010E0101716F020E726F0001F2DD980EE7
:1011B000F66E030EF76E36DE12000101B151070B19
:1011C000006EB131016E013201321F0E0116015065
:1011D000B325E96E000EB421EA6E016A012A002AE5
:1011E00001D00136002EFDD7B25303E00150EF12BB
:1011F00003D0011E0150EF16000112000101B2518F
:10120000016AB15D03E2B1C100F00CD0006A080EC2
:10121000B36FB1370036B251005CD8B0006E013602
:10122000B32FF7D7000112000150AFC1B1F1640E26
:101230000101B26F0001E2DF00C0AFF10150300EDA
:1012400008E10101B0A30ED0B0B70CD0B0B9200EA8
:1012500004D00101B097B099B081012601509EA839
:10126000FED7AD6EAFC1B1F10A0EB26F0001C6DF9D
:1012700000C0AFF10150300E08E10101B0B70BD052
:10128000B0A109D0B0B9200E0001012601509EA8DE
:10129000FED7AD6E0101300EAF27AF519EA8FED72D
:1012A000AD6E0001120001016D6B6E6B6F6B706BA8
:1012B0000C0E716F7B0E726F220E736F630E746F64
:1012C0006D0E756F640E766F220E776F3A0E786F23
:1012D000220E796F6F0E7A6F6B0E7B6F220E7C6F12
:1012E0007D0E7D6F7E6B572C62EF0DF01E504F0808
:1012F0005AE11F50500857E1300E215C6E6F2050AC
:10130000300A000103E0010A27E04CD0D890010127
:101310006E35036AF2CFAFF1F29E00014BEC00F0A4
:101320000900F5CF03F00101AFBFF28EAF6F03C02C
:10133000B0F1B16FB26B0F0EB46F890EB36F0001D5
:101340003CDFAFC1B1F10101B26B0F0EB46F920E71
:10135000B36F000132DF26D0D89001016E35036AE9
:10136000F2CFAFF1F29E00014BEC00F00900F5CF97
:1013700003F00101AFBFF28EAF6F03C0B0F1B16FE8
:10138000010EB26F0F0EB46F890EB36F000115DF3F
:10139000AFC1B1F10101B26B0F0EB46F920EB36F1A
:1013A00000010BDF01011E504E08D8A401D11F50CF
:1013B0004308D8A4FDD0010E706F70511B081EE3C6
:1013C000F250006EF29EAA6A70C1A9FFA868A69C9E
:1013D000A69EA6840F01550EA76EAA0EA76EA68222
:1013E000A6B2FED7A6940050F2120A0E0101B06F09
:1013F00000017CEC05F00101702BDFD7AB6B535281
:1014000003E1AB51525C2BE3010EAB25AF6F036AD6
:10141000AB51200FE96E000E0320EA6EEFCFB0F162
:10142000F250006EF29EAA6AAFC1A9FFB0C1A8FF38
:10143000A69CA69EA6840F01550EA76EAA0EA76EA7
:10144000A682A6B2FED7A6940050F2120A0E01019F
:10145000B06F00017CEC05F00101AB2BD0D7010E81
:10146000AB25AF6FF250006EF29EAA6AAFC1A9FF22
:101470000D0EA86EA69CA69EA6840F01550EA76E03
:10148000AA0EA76EA682A6B2FED7A6940050F212AC
:101490000A0E0101B06F00017CEC05F0020E0101A3
:1014A000AB25AF6FF250006EF29EAA6AAFC1A9FFE2
:1014B0000A0EA86EA69CA69EA6840F01550EA76EC6
:1014C000AA0EA76EA682A6B2FED7A6940050F2126C
:1014D0000A0E0101B06F00017CEC05F01E0E010147
:1014E000B06F00017CEC05F05E0EF66E010EF76E3B
:1014F0000B0E0101AF6F0001A5DC1C509EA8FED7AA
:10150000AD6E2C0E9EA8FED7AD6E71C1AFF11B0E55
:101510000101B06F000188DE0D0E9EA8FED7AD6EF2
:101520000A0E9EA8FED7AD6E3C0E0101B06F000101
:101530007CEC05F0010EEA6E720EE96E21DD780E8C
:101540000101B06F00017CEC05F0720EF66E010E29
:10155000F76E0C0E0101AF6F000174DC1C509EA8E9
:10156000FED7AD6E0D0E9EA8FED7AD6E0A0E9EA8DC
:10157000FED7AD6E020E0101AF6FFA0EB06F000123
:101580007CEC05F00101AF2FF8D7840EF66E010E4A
:10159000F76E00016CDC040E0101AF6FFA0EB06F44
:1015A00000017CEC05F00101AF2FF8D7010E6D6F43
:1015B0001E504108D8A47ED01F505008D8A47AD01D
:1015C000140EB06F00017CEC05F0900EF66E010E6B
:1015D000F76E0B0E0101AF6F000134DC1C509EA8AA
:1015E000FED7AD6E2C0E9EA8FED7AD6E71C1AFF1C9
:1015F0001B0E0101B06F000117DE0D0E9EA8FED775
:10160000AD6E0A0E9EA8FED7AD6E320E0101B06F10
:1016100000017CEC05F0010EEA6E720EE96EB0DCA2
:10162000640E0101B06F00017CEC05F0A40EF66EB3
:10163000010EF76E0C0E0101AF6F000103DC1C50B0
:101640009EA8FED7AD6E0D0E9EA8FED7AD6E0A0EFB
:101650009EA8FED7AD6E020E0101AF6FFA0EB06FFD
:1016600000017CEC05F00101AF2FF8D7B60EF66E45
:10167000010EF76E0D0EAF6F000122EC07F0EA6A63
:10168000200EE96E7DDCC50EF66E010EF76E060EBD
:101690000101AF6F000122EC07F0040E0101AF6FF2
:1016A000FA0EB06F00017CEC05F00101AF2FF8D706
:1016B000010E6D6F1E504E08D8A475D01F504D08F6
:1016C00072E1F250006EF29EAA6AA96A20C0A8FFD9
:1016D000A69CA69EA6840F01550EA76EAA0EA76E05
:1016E000A682A6B2FED7A6940050F2120A0E0101FD
:1016F000B06F00017CEC05F0140E0101B06F000129
:101700007CEC05F0CC0EF66E010EF76E0B0E0101AF
:10171000AF6F000122EC07F01C509EA8FED7AD6E03
:101720002C0E9EA8FED7AD6E71C1AFF11B0E01014C
:10173000B06F000179DD0D0E9EA8FED7AD6E0A0ECA
:101740009EA8FED7AD6E320E0101B06F00017CEC99
:1017500005F0010EEA6E720EE96E12DC640E0101F4
:10176000B06F00017CEC05F0E00EF66E010EF76E36
:101770000C0E0101AF6F000122EC07F01C509EA877
:10178000FED7AD6E0D0E9EA8FED7AD6E0A0E9EA8BA
:10179000FED7AD6E640E0101B06F00017CEC05F068
:1017A000010E01016D6F1E504F08D8A496D01F5036
:1017B0005308D8A492D07B0E726F220E736F300E36
:1017C000746F220E756F3A0E766F000E84B4010EA0
:1017D000300F776F2C0E786F220E796F310E7A6F83
:1017E000220E7B6F3A0E7C6F000E84B2010E300F1A
:1017F0007D6F2C0E7E6F220E7F6F320E806F220E59
:10180000816F3A0E826F000E84B0010E300F836F2D
:101810002C0E846F220E856F330E866F220E876F1B
:101820003A0E886F000E80B8010E300F896F2C0EB3
:101830008A6F220E8B6F340E8C6F220E8D6F3A0ED4
:101840008E6F000E80B0010E300F8F6F2C0E906FD8
:10185000220E916F350E926F220E936F3A0E946F97
:10186000000E80B2010E300F956F2C0E966F220E77
:10187000976F360E986F220E996F3A0E9A6F000E80
:1018800080B4010E300F9B6F2C0E9C6F220E9D6F4B
:10189000370E9E6F220E9F6F3A0EA06F000E80B61D
:1018A000010E300FA16F2C0EA26F220EA36F4D0EF2
:1018B000A46F220EA56F3A0EA66FF2CFAFF1F29E83
:1018C000AA6AA96AA69CA69EA680A850AFBFF28E5F
:1018D000A76F7D0EA86F370E716F1E504E08D8A4EB
:1018E00072D01F504F086FE1AC6BAD6B300E205CB7
:1018F0006E6F6E510A0DF350280FAC6F0A0EAC25B7
:10190000AD6FACC170F1AC515224016E000E53208A
:10191000036E0150035203E10150705D29E26F2B09
:10192000036A6F51200FE96E000E0320EA6EEFCFBD
:10193000AFF1F250006EF29EAA6A70C1A9FFAFC16A
:10194000A8FFA69CA69EA6840F01550EA76EAA0E00
:10195000A76EA682A6B2FED7A6940050F2120A0E77
:101960000101B06F00017CEC05F00101702BCBD7B9
:10197000AC515224AF6F000E5320B06F010EAF2553
:10198000706F7051AD5D1EE3F250006EF29EAA6A58
:1019900070C1A9FFA868A69CA69EA6840F01550E3B
:1019A000A76EAA0EA76EA682A6B2FED7A694005076
:1019B000F2120A0E0101B06F00017CEC05F001018A
:1019C000702BDFD76F6B6D5355E1140EB06F0001B4
:1019D0007CEC05F0F20EF66E010EF76E0B0E0101B7
:1019E000AF6F000122EC07F01C509EA8FED7AD6E31
:1019F0002C0E9EA8FED7AD6E71C1AFF11B0E01017A
:101A0000B06F000111DC0D0E9EA8FED7AD6E0A0E60
:101A10009EA8FED7AD6E320E0101B06F00017CECC6
:101A200005F0010EEA6E720EE96EC0EC07F0640E6E
:101A30000101B06F00017CEC05F0060EF66E020E9F
:101A4000F76E0C0E0101AF6F000122EC07F01C5085
:101A50009EA8FED7AD6E0D0E9EA8FED7AD6E0A0EE7
:101A60009EA8FED7AD6E640E0101B06F00017CEC44
:101A700005F00101AE6B535203E1AE51525C0AE333
:101A8000036AAE51200FE96E000E0320EA6EEF6A82
:101A9000AE2BF1D7AE6BAE5138080AE3036AAE51F4
:101AA000720FE96E010E0320EA6EEF6AAE2BF3D7D8
:101AB0001E6A1F6A1C6A576A536A526A6D2D02D0E9
:101AC0006D6BFF006DC101F000011200D8B204D0AF
:101AD000010EEA6E830EE96E006A016A026A036A09
:101AE0000101836B846B856B866B82518111801140
:101AF0007F112CE0200E876FD8907B377C377D37A5
:101B00007E3783378437853786378251865D08E193
:101B10008151855D05E18051845D02E17F51835DE6
:101B20000FE37F51835F8051D8A0803D845F815156
:101B3000D8A0813D855F8251D8A0823D865FD88044
:101B40000036013602360336872FD6D783C1EFFF22
:101B500084C1ECFF85C1ECFF86C1ECFF00011BEFE7
:101B60000EF00101836B846B010E856FDA6AD96A0E
:101B7000886F7B0E876F010EEA6E7F0EE96E88C15B
:101B8000E2FF87C1E1FF85C186F1D890E550EE0202
:101B9000F3508323F4508423862FF7D783C1DEFFCD
:101BA00084C183F1846BD8B0842B872BD8B4882B65
:101BB000852B85510508DFE1000133EF0EF0030EA0
:101BC00001017C5F0AE3010EEA6E7C0EE96EEF50C4
:101BD00004E001D000D0EF2EFDD70001120001017A
:101BE000726B716B746B736B6E5304E16D51130800
:101BF000D8B097D06E514E08D8A093D004E16D5163
:101C00002008D8A08ED07A6B010E796F860E786F7F
:101C1000A00E776FD8927AC17EF179C17DF178C13B
:101C20007CF177C17BF1826B816B6EC180F16DC1FC
:101C30007FF100014BD703C07AF102C079F101C0F6
:101C400078F100C077F17AC17EF179C17DF178C178
:101C50007CF177C17BF10101826B816B806B050E9A
:101C60007F6F00017ED703C07AF102C079F101C015
:101C700078F100C077F178C176F177C175F193946E
:101C80008A8476C17BF101017B2B7B07D8B405D018
:101C90007C69000194DF0101F8D775C17CF1000176
:101CA0008EDF0101755173277651742393948A94C2
:101CB00076C17BF17B2B7B07D8B405D07C69000112
:101CC0007EDF0101F8D775C17CF1000178DF0101E9
:101CD0007551732776517423190E7327000E7423E0
:101CE0007451020811E2FF0A03E17351E7080CE2A4
:101CF000E80E735F030E745B712BD8B4722B190E50
:101D00007327000E7423ECD77251705D0AE3D8B4C8
:101D100002D00001B4D76F51715DD8B002D000017C
:101D2000AED7000112000101686B696B6851100D9C
:101D3000F350036A6A6F0C0E706F0001DCEC06F062
:101D4000720EF66E020EF76E01016A51F626000E53
:101D5000F722000112EC07F0D0EC08F00101695302
:101D600055E1000153EC09F0938881B832D0020E9E
:101D700001016A6FFA0EB06F00017CEC05F0010101
:101D80006A2FF8D7040E6E6FB90E6D6F706B140E5C
:101D90006F6F000124DF0101682B6851625D01E271
:101DA000686B6851100DF350036A6A6F0C0E706F08
:101DB0000001DCEC06F0720EF66E020EF76E010109
:101DC0006A51F626000EF722000112EC07F0D0EC63
:101DD00008F0938A81BA18D0020E01016A6FFA0ED8
:101DE000B06F00017CEC05F001016A2FF8D7040EFA
:101DF0006E6FB90E6D6F706B140E6F6F0001EFDEBA
:101E0000010E0101696F0001A9D70101010E6825CA
:101E1000016E0001DFEF13F00900F6CF6DF1F7CF8F
:101E20006EF1F5CF70F1DCEC06F06DC1F6FF6EC11E
:101E3000F7FF01016C2F01D002D00001EDD70001A6
:101E40001200EF5210E0EACF6DF1E9CF6CF1EFCF65
:101E500070F1DCEC06F06DC1EAFF6CC1E9FFE92A24
:101E6000D8B4EA2AEED712000101686B696B685199
:101E70000B0DF350036AF40F016E000E032201C034
:101E80006AF103C06BF1AA0EF66E030EF76E070E31
:101E90006C6F0001C1DF6BC1EAFF6AC1E9FFD1DFEE
:101EA000D0EC08F001016953D8A482D0000153ECB2
:101EB00009F0938881B835D0020E01016A6FFA0EDD
:101EC000B06F00017CEC05F001016A2FF8D7040E19
:101ED0006E6FB90E6D6F706B140E6F6F00017FDE49
:101EE0000101682B6851635D01E2686B68510B0D5D
:101EF000F350036AF40F016E000E032201C06AF171
:101F000003C06BF1B40EF66E030EF76E070E6C6F26
:101F1000000182DF6BC1EAFF6AC1E9FF92DFD0EC0A
:101F200008F0938A81BA42D0020E01016A6FFA0E5C
:101F3000B06F00017CEC05F001016A2FF8D7040EA8
:101F40006E6FB90E6D6F706B140E6F6F000147DE10
:101F500001016351685D03E1010E696F28D0D890DB
:101F60006835036AF2CF6AF1F29E00014BEC00F093
:101F70000900F5CF03F001016ABFF28E6A6F03C05A
:101F80006BF1B16F010EB26F0F0EB46F890EB36FAC
:101F90000001DDEC08F06AC1B1F10101B26B0F0E76
:101FA000B46F920EB36F0001DDEC08F001017BD736
:101FB000000E016E0001E5EF13F00101686B696B23
:101FC00068510B0DF350036AF40F016E000E0322EB
:101FD00001C06AF103C06BF1BE0EF66E030EF76E20
:101FE000070E6C6F000118DF6BC1EAFF6AC1E9FFE1
:101FF00028DFD0EC08F001016953D8A481D000019A
:1020000053EC09F0938881B835D0020E01016A6F54
:10201000FA0EB06F00017CEC05F001016A2FF8D7D1
:10202000040E6E6FB90E6D6F706B140E6F6F000142
:10203000D6DD0101682B6851645D01E2686B68516F
:102040000B0DF350036AF40F016E000E032201C062
:102050006AF103C06BF1C80EF66E030EF76E070E41
:102060006C6F0001D9DE6BC1EAFF6AC1E9FFE9DEEE
:10207000D0EC08F0938A81BA41D0020E01016A6F58
:10208000FA0EB06F00017CEC05F001016A2FF8D761
:10209000040E6E6FB90E6D6F706B140E6F6F0001D2
:1020A0009EDD01016451685D03E1010E696F27D077
:1020B000D8906835036AF2CF6AF1F29E00014BECCA
:1020C00000F00900F5CF03F001016ABFF28E6A6FDC
:1020D00003C06BF1B16FB26B0F0EB46F890EB36FAB
:1020E0000001DDEC08F06AC1B1F10101B26B0F0E25
:1020F000B46F920EB36F0001DDEC08F001017CD7E4
:10210000000E016E0001EBEF13F00C0E0101716F78
:10211000020E726F0001C9EC06F0920EF66E030E0D
:10212000F76E12EC07F053EC09F0938A81BA0DD0E8
:10213000020E01016D6FFA0EB06F00017CEC05F02C
:1021400001016D2FF8D703D00001EDD70101000187
:10215000120001016B6B6C6B6B510E0DF350036A37
:102160006D6F0C0E706F0001DCEC06F04C0EF66E1D
:10217000030EF76E01016D51F626000EF7220001E5
:1021800012EC07F0D0EC08F001016C53D8A4F2D0A7
:10219000000153EC09F0938881B832D0020E01019E
:1021A0006D6FFA0EB06F00017CEC05F001016D2F30
:1021B000F8D7040E6E6FB90E6D6F706B140E6F6FE3
:1021C00000010DDD01016B2B6B51665D01E26B6B54
:1021D0006B510E0DF350036A6D6F0C0E706F0001A2
:1021E000DCEC06F04C0EF66E030EF76E01016D513D
:1021F000F626000EF722000112EC07F0D0EC08F0F2
:10220000938A81BAB5D0020E01016D6FFA0EB06FDC
:1022100000017CEC05F001016D2FF8D7040E6E6F04
:10222000B90E6D6F706B140E6F6F0001D8DC010179
:1022300066516B5D03E1010E6C6F9BD06B51000A20
:10224000000105E0010A2BE0030A51E077D0A20E5D
:10225000F66E040EF76E37EC07F0F250006EF29E49
:10226000AA6AA96A310EA86EA69CA69EA6840F0132
:10227000550EA76EAA0EA76EA682A6B2FED7A6948A
:102280000050F2120A0E0101B06F00017CEC05F063
:10229000B40EF66E040EF76E12EC07F04FD0C40EBB
:1022A000F66E040EF76E37EC07F0F250006EF29EF9
:1022B000AA6AA96A320EA86EA69CA69EA6840F01E1
:1022C000550EA76EAA0EA76EA682A6B2FED7A6943A
:1022D0000050F2120A0E0101B06F00017CEC05F013
:1022E000D60EF66E040EF76E12EC07F027D0E20E53
:1022F000F66E040EF76E37EC07F0F250006EF29EA9
:10230000AA6AA96A330EA86EA69CA69EA6840F018F
:10231000550EA76EAA0EA76EA682A6B2FED7A694E9
:102320000050F2120A0E0101B06F00017CEC05F0C2
:10233000F40EF66E040EF76E12EC07F0E6DE010105
:102340006B510E0DF350036A6D6F0C0E706F000130
:10235000DCEC06F04C0EF66E030EF76E01016D51CB
:10236000F626000EF722000112EC07F0D0EC08F080
:1023700001010BD7000176EF12F001016A51F80F4D
:10238000D8B0CCD0080F000197EF12F0D20EF66E45
:10239000030EF76E37EC07F0050E5B6EDE0EF66E81
:1023A000030EF76E12EC07F048EC07F00C0E01017B
:1023B000706F0001DCEC06F0EA6A6B0EE96E41DD3D
:1023C000BB6B0101ABD0EC0EF66E030EF76E37EC73
:1023D00007F0050E5B6EF80EF66E030EF76E12EC4C
:1023E00007F048EC07F00C0E0101706F0001DCEC07
:1023F00006F0EA6A7B0EE96E24DDBB6B01018ED02C
:10240000C15132081CE0060EF66E040EF76E37EC72
:1024100007F0070E5B6E120EF66E040EF76E12ECEE
:1024200007F048EC07F00C0E0101706F0001DCECC6
:1024300006F0EA6AAB0EE96E04DDBF6B06D0200E33
:10244000F66E040EF76E12EC07F0010167D0C15171
:1024500031081CE0300EF66E040EF76E37EC07F014
:10246000060E5B6E3C0EF66E040EF76E12EC07F075
:1024700048EC07F00C0E0101706F0001DCEC06F077
:10248000EA6A8B0EE96EDDDCBD6B06D04A0EF66E95
:10249000040EF76E12EC07F0010140D0C151310873
:1024A0001CE05A0EF66E040EF76E37EC07F0060EBF
:1024B0005B6E660EF66E040EF76E12EC07F048ECDB
:1024C00007F00C0E0101706F0001DCEC06F0EA6A07
:1024D0009B0EE96EB6DCBD6B06D0740EF66E040E74
:1024E000F76E12EC07F0010119D033D6010116D0B6
:1024F00095968C7683A607D0840EF66E040EF76E42
:1025000012EC07F006D0920EF66E040EF76E12EC87
:1025100007F0010103D0010101D001016A51070850
:1025200003E00001F2DD0101000129EF13F0F2CF19
:102530000DF0F29EE824F76AF736530FF66E250E7B
:10254000F7220A00F550FA6E0800F5500DBEF28E23
:10255000F96EC62300244E249C248C23EA24F02404
:10256000162553EC09F00101686B696B6851110D78
:10257000F350036A6A6F0C0E706F0001DCEC06F01A
:10258000B20EF66E020EF76E01016A51F626000ECB
:10259000F722000112EC07F0D0EC08F001016953BA
:1025A00073E1938881B833D0020E6A6FFA0EB06F70
:1025B00000017CEC05F001016A2FF8D7040E6E6F64
:1025C000B90E6D6F706B140E6F6F0001EFEC0DF0B4
:1025D0000101682B6851655D01E2686B6851110D5E
:1025E000F350036A6A6F0C0E706F0001DCEC06F0AA
:1025F000B20EF66E020EF76E01016A51F626000E5B
:10260000F722000112EC07F0D0EC08F00101938AE8
:1026100081BA39D0020E6A6FFA0EB06F00017CECFD
:1026200005F001016A2FF8D7040E6E6FB90E6D6FB9
:10263000706B140E6F6F0001EFEC0DF0010165512E
:10264000685D03E1010E696F1ED068C16AF1000187
:1026500094D601016851110DF350036A6A6F0C0E94
:10266000706F0001DCEC06F0B20EF66E020EF76E33
:1026700001016A51F626000EF722000112EC07F064
:10268000D0EC08F001018BD7000E016E0001F0EFD5
:1026900013F0F86AD09E078EB886080EAF6E020E51
:1026A000B06EA60EAC6E900EAB6E93908A80536A9D
:1026B000526A546A556A566A576A586A596A5A6A17
:1026C0005B6A010E5C6E5D6A050E5E6EBB6BBC6B79
:1026D000BD6BBE6BBF6BC06B020E0101626F080E5B
:1026E000636F646F070E656F030E666F676BC15093
:1026F000C00B0F09C16E070EB46E19D00200160090
:10270000000C405F000780302E302E302E3009C084
:10271000000780302E302E302E3019C00003804B41
:1027200045590DC000058053534944000000000E78
:10273000F86E260EF76EFC0EF66E0900F550006E70
:10274000000A13E00900F550016EE8BE05D00F0B3A
:10275000EA6E0900F5CFE9FF01BC090001AC0900F0
:10276000F5CFEEFF004EE9D7F9D7F86A020E686F91
:10277000FA0EB06F00017CEC05F00101682FF8D76C
:10278000000190EF05F0F19E320E936E9D8AC00E0F
:10279000F2127BEF06F0E60EF66E0A0EF76E12EC02
:1027A00007F095968C86D3EF07F001016751FC0F77
:1027B0001CE2040F0001F7EF13F093EF0EF001C0DD
:1027C00067F1010112D034EF0FF001C067F1010190
:1027D0000CD0DDEF0FF001C067F1010106D0C1D6CA
:1027E00001C067F1010101D00101E0D70300F2CF80
:1027F0000DF0F29EE824F76AF736130FF66E280EF6
:10280000F7220A00F550FA6E0800F5500DBEF28E60
:0A281000F96EBA27C627D227DE278B
:020000040030CA
:0E00000000C21E1E008781000FC00FE00F40DF
:00000001FF
;PIC18F4620
;CRC=5483  CREATED="21-dic.-17 00:51"
