:04000000E6EF15F022
:08000800046ED8CF05F0E0CF33
:1000100006F00001E9CF0CF0EACF07F0E1CF08F0DD
:10002000E2CF09F0D9CF0AF0DACF0BF0F3CF12F01C
:10003000F4CF13F0FACF14F000C00EF001C00FF0AF
:1000400002C010F003C011F09DAA2AEF00F09EBA82
:10005000F4EF05F00EC000F00FC001F010C002F088
:1000600011C003F00CC0E9FF07C0EAFF078E08C00B
:10007000E1FF09C0E2FF0AC0D9FF0BC0DAFF12C0DE
:10008000F3FF13C0F4FF14C0FAFF045006C0E0FFF2
:1000900005C0D8FF1000F2CF0DF0F29EF76AB00F46
:1000A000F66E000EF7220900F5500DBEF28E12001A
:1000B000227C217C207C047C007C017C027C037CF3
:1000C000F76AD00FF66E000EF7220900F550120005
:1000D0002B4950442C00F76AE60FF66E000EF7220B
:1000E0000900F5501200434D443AF76AFA0FF66ED4
:1000F000000EF7220900F55012004F4B0D0A0000C8
:10010000F76A100FF66E010EF7220900F550120083
:100110004E6F20415000F76A260FF66E010EF7224F
:100120000900F55012002B43574A41503A00F76A34
:100130003E0FF66E010EF7220900F5501200434FF4
:100140004E4E454354454400F76A580FF66E010E73
:10015000F7220900F55012004641494C0000415475
:100160002B43495053454E443D25632C25750D0ABC
:10017000000041542B43495053454E443D25632CC8
:1001800025750D0A000041542B43495053454E44F8
:100190003D25632C25750D0A000041542B43495021
:1001A000434C4F53453D25630D0A000041542B43FA
:1001B000575141500A0D000041542B4349505345BB
:1001C0004E443D25632C25750D0A000041542B43F8
:1001D0004950434C4F53453D25630D0A000041549F
:1001E0002B43575341505F4445463D25732C312CDA
:1001F000340D0A0041542B43495053454E443D258C
:10020000632C25750D0A000041542B434950434C83
:100210004F53453D25630D0A000041542B4349507F
:1002200053454E443D25632C25750D0A000041546D
:100230002B43495053454E443D25632C25750D0AEB
:100240000000485454502F312E3120323030204F8E
:100250004B0A0A25730A0D0041542B434950434C65
:100260004F53453D25630D0A000041542B43574D24
:100270004F44453D25630D0A000041542B43574A26
:1002800041503F0D0A0041542B43574A41503D25F0
:1002900073004C616E7A6120636F6D616E646F20D4
:1002A0005061726120636F6E656374617273652063
:1002B0006120756E6120726564200D0A000053692B
:1002C0006E2072656420656E746F6E636573206165
:1002D0006374697661204D6F646F204150200D0A70
:1002E000000041542B43574D4F44453D25630D0AB3
:1002F000000041542B4349504D55583D310D0A00E3
:1003000041542B4349505345525645523D312C38A8
:10031000300D0A00456E63656E646572204D616E36
:1003200075616C004170616761646F204D616E752D
:10033000616C2000436F6E66696775726163696FF7
:100340006E202000000000000000000000000000FF
:10035000000000004553544143494F4E204950206E
:1003600020202020004553544143494F4E205353F1
:10037000494420202000415020535349442020204C
:10038000202020202020004150204B4559202020B3
:1003900020202020202020004150204950202020D3
:1003A000202020202020202000436F6E6620416303
:1003B000636573736F2052656400426F727261727D
:1003C00020612046616272696361004F6E2F4F6643
:1003D00066204261636B6C696768740053414C49E5
:1003E00052202020202020202020202000004573A3
:1003F000746163696F6E2020202020004163636573
:10040000737320506F696E74200045737461636963
:100410006F6E202B2041500053414C495220202028
:10042000202020202000000000000000000000002C
:100430000000000053414C4952005B5349475D2086
:1004400020202020205B454E545D00000C4F6E2084
:100450002D3E202573000C4F6E202D3E202573006D
:100460000C4F66662D3E202573000C4F66662D3EB0
:100470002025730041542B43494653520D0A000076
:100480000C43617267616E646F2E2E2E0000415422
:100490002B43494653520D0A00000C4361726761B9
:1004A0006E646F2E2E2E000041542B43574A41504C
:1004B0003F0D0A000C43617267616E646F2E2E2E31
:1004C00000000C446573686162696C697461646FF3
:1004D000000041542B43575341503F0D0A000C4339
:1004E000617267616E646F2E2E2E00000C4465737E
:1004F000686162696C697461646F000041542B43E8
:10050000575341503F0D0A000C43617267616E649E
:100510006F2E2E2E00000C446573686162696C6951
:100520007461646F00000C426F7272616E646F20C0
:1005300045454550524F4D000C426F7272616E64DA
:100540006F205245440041542B43575141500A0DEE
:10055000000041542B5253540A0D000041542B43C8
:10056000575341505F4445463D224B726976657250
:1005700020536D617274486F6D65222C226B726915
:100580007665723536313036222C312C340D0A0026
:100590000C4261636B6C69676874204F6E000C429B
:1005A00061636B6C69676874204F66660000415434
:1005B0002B43574D4F44455F4445463D310D0A009E
:1005C0000C436F6E66696720436C69656E746500E5
:1005D00041542B43574D4F44455F4445463D320DF2
:1005E0000A000C436F6E6669672041500000415459
:1005F0002B43574D4F44455F4445463D330D0A005C
:100600000C436F6E66696720436C69656E74654163
:1006100050000C5265696E696369616E646F000019
:100620000101E26BE36BD751FB0FD8B072D0050F1D
:10063000000109EF04F0010EEA6ED80EE96EF2CF68
:10064000E4F1F29E000E51DD0A000900F550EE6E55
:100650000009FBE10101E4BFF28E040EE26F010E1E
:10066000E36F57D0010EEA6ED80EE96EF2CFE4F1D7
:10067000F29E000E45DD0A000900F550EE6E0009FD
:10068000FBE10101E4BFF28E050EE26F42D0010EE4
:10069000EA6ED80EE96EF2CFE4F1F29E000E3BDD79
:1006A0000A000900F550EE6E0009FBE10101E4BF0C
:1006B000F28E070EE26F2DD0010EEA6ED80EE96EB3
:1006C000F2CFE4F1F29E000E32DD0A000900F5508F
:1006D000EE6E0009FBE10101E4BFF28E090EE26F4C
:1006E00018D0010EEA6ED80EE96EF2CFE4F1F29E58
:1006F000000E2ADD0A000900F550EE6E0009FBE14C
:100700000101E4BFF28E040EE26F010EE36F01D02F
:1007100001015C50060DF350E56BE46F036AD7519D
:10072000E425016EE551032201505F0FE96E000ED2
:100730000320EA6E036AEF50D80FE96E010E032022
:10074000EA6EEF50D65D3DE15C50060DF350E56B6F
:10075000E46F036AD751E425016EE551032201508D
:100760005F0FE96E000E0320EA6EEF2A5C50060D63
:10077000F350E56BE46F036AD751E425016EE55150
:10078000032201505F0FE96E000E0320EA6EE25172
:10079000EF5C14E15D50060DF350E56BE46F036A06
:1007A000D751E425016EE551032201505F0FE96E38
:1007B000000E0320EA6E010EEF6E02D0D75300E167
:1007C00026D05C50060DF350E56BE46F036AD751F9
:1007D000E425016EE551032201505F0FE96E000E22
:1007E0000320EA6EEF6AE32D12D05D50060DF35040
:1007F000E56BE46F036AD751E425016EE5510322EE
:1008000001505F0FE96E000E0320EA6EEF6A0001EF
:100810001200E824F76AF7362D0FF66E080EF7225D
:100820000A00F550FA6E0800F550F96E36068E068D
:100830006406B806E206BB2D2BD00101D651220872
:100840000EE10001C151310803E0C151320804E159
:10085000060EBB6FBC6B01D0BC6B19D0010100014F
:10086000C15131080AE1036ABC517B0FE96E000EE9
:100870000320EA6ED6C1EFFF09D0036ABC516B0FAB
:10088000E96E000E0320EA6ED6C1EFFFBC2B18D034
:10089000BB51050815E10101D651220806E1060EFB
:1008A0000001BB6FBC6B0CD00101036A0001BC519D
:1008B0007B0FE96E000E0320EA6ED6C1EFFFBC2B62
:1008C0000101D65122080AE10001BB51FB0F05E2EC
:1008D000050F71EF04F0BB2BBC6B01010001C4EFED
:1008E00005F0E824F76AF736FD0FF66E080EF722DA
:1008F0000A00F550FA6E0800F550F96ED608D608D1
:10090000D608D608D608BD2D12D00101D65122082E
:100910000CE0036A0001BE518B0FE96E000E03204C
:10092000EA6ED6C1EFFFBE2B010118D00001BD5108
:10093000030813E10101D65122080DE0036A00010A
:10094000BE519B0FE96E000E0320EA6ED6C1EFFF89
:10095000BE2B03D001010001BE6B0101D65122085C
:100960000AE10001BD51FC0F05E2040FBEEF04F0E7
:10097000BD2BBE6B01010001CEEF05F0E824F76A44
:10098000F736970FF66E090EF7220A00F550FA6E49
:100990000800F550F96E7009700970097009BF2DD3
:1009A0000FD00101D65122080CE0036A0001C051AA
:1009B000AB0FE96E000E0320EA6ED6C1EFFFC02B2D
:1009C0000101D651220809E10001BF5103E0010AEB
:1009D00001E002D0BF2BC06B01010001D8EF05F090
:1009E000050E0101D86F552C13D0D6512C0802E109
:1009F000D7530BE0036A59501C0FE96E000E032019
:100A0000EA6ED6C1EFFF592A02D0596A556A19D049
:100A1000036A5950F2CFD9F1F29E000160EC00F068
:100A20000101D9BFF28E016ED65D0AE1D75308E10C
:100A3000592AD851595C03E1010E556E596A01D00B
:100A4000596A0001E5EF05F0040E0101D86F542C3E
:100A500015D0D6512C0802E1D7530BE0036A585049
:100A60001E0FE96E000E0320EA6ED6C1EFFF582A72
:100A700004D0586A546A010E566E19D0036A585051
:100A8000F2CFD9F1F29E00016BEC00F00101D9BF69
:100A9000F28E016ED65D0AE1D75308E1582AD8518B
:100AA000585C03E1010E546E586A01D0586A000187
:100AB000EBEF05F0562C21D00101D6513A0802E1A6
:100AC000D75317E0036A5A50200FE96E000E032037
:100AD000EA6ED6C1EFFF536A5AC052F05A5207E18C
:100AE000D6512C0804E1D75302E15A6A01D05A2AA0
:100AF00004D05A6A566A010E576E0001F1EF05F0F4
:100B00005B50010A0DE0030A12E0010A25E0060A23
:100B100038E0030A40E0010A48E0030A50E04FD001
:100B2000D5C1D6F10101D76B00017ADD5BD0D5C10B
:100B3000D6F1020E0101D76F000172DDD5C1D6F1E9
:100B4000010E0101D76F00016BDDD5C1D6F10101A6
:100B5000D76B000165DD46D0D5C1D6F1030E01018A
:100B6000D76F00015DDDD5C1D6F1040E0101D76F4D
:100B7000000156DDD5C1D6F10101D76B000150DD72
:100B800031D0D5C1D6F157D6D5C1D6F10101D76B39
:100B9000000146DD27D0D5C1D6F1B5D6D5C1D6F1F5
:100BA0000101D76B00013CDD1DD0D5C1D6F1F7D6D0
:100BB000D5C1D6F10101D76B000132DD13D001019F
:100BC000D76BD5C1D6F100010BD70101D76BD5C1C9
:100BD000D6F1000139D70101D76BD5C1D6F100019B
:100BE00069D75B6AFDEF05F09EAAFED7AECFD4F1C0
:100BF0000101D4C1D5F1000183D79E9A2AEF00F0FC
:100C000041542B5253540D0A00000C496E6963691C
:100C1000616E646F2E2E2E000101CE51070B006E07
:100C2000CE31016E013201321F0E01160150D02566
:100C3000E96E000ED121EA6E016A012A002A01D074
:100C40000136002EFDD7CF5303E00150EF1203D041
:100C5000011E0150EF1600011200010EEA6ECD0ECA
:100C6000E96EEF500DE0060E016E006A002EFED711
:100C7000012EFBD77B0E006E002EFED7EF2EF3D792
:100C800012000900F5520DE0F6CFCCF1F7CFCDF10F
:100C9000F5509EA8FED7AD6ECCC1F6FFCDC1F7FFD3
:100CA000F0D7120001017BB102D08C9801D08C8862
:100CB00095987BB302D08C9A01D08C8A959A7BB59B
:100CC00002D08C9C01D08C8C959C7BB702D08C9EE2
:100CD00001D08C8E959E00008C809590020E006E47
:100CE000002EFED700D000008C90959000011200DD
:100CF00001017C6B9588000E83B8010E7C13958AE8
:100D0000000E83BA010E006ED890003600507C139E
:100D1000958C000E83BC010E006E00360036FC0E72
:100D2000001600507C13958E000E83BE010E006EDF
:100D3000003600360036F80E001600507C137CC1D9
:100D400001F0000112009588958A958C958E8C8211
:100D5000959200008C8095900000CADF01C07BF165
:100D60008C90959000008C80959000D000D0000071
:100D7000BFDF01C07AF18C9095909598959A959CDB
:100D8000959E01017B39006EF00E001600507A111D
:100D9000016E0001D2EF06F09590959495928C9497
:100DA0009594D1D701C07AF1010101AE02D00001C2
:100DB000F8D7785302E18C9401D08C84959400008C
:100DC0008C92959200008C90959079397A6F0F0EE5
:100DD0007A177AC17BF1000165DF010179510F0BB0
:100DE0007A6F7B6F00015EDF1200280E01016B6FCE
:100DF0000C0E6C6F010E6D6F060E6E6F8C909590E1
:100E00008C9495948C9295929598959A959C959E94
:100E10009590959495920F0ECD6F00011EDF010EF7
:100E200001016A6F6A5103080CE3030E7B6F000136
:100E300039DF050E0101CD6F00010FDF01016A2BC3
:100E4000F1D7020E7B6F00012DDF050E0101CD6F82
:100E5000000103DF01016A6B6A51030811E3036AB1
:100E60006A516B0FE96E010E0320EA6EEFCF6FF14E
:100E7000786B6FC179F100018FDF01016A2BECD72C
:100E80000001D4EF16F00101752D01D003D0400E02
:100E9000766F01D0766B010E745D762776518009EE
:100EA000776F786B796F000177DF12000101735162
:100EB000070A000107E00B0A0CE0060A16E0020A26
:100EC0001CE022D0010E0101746F756F0001DBDFA1
:100ED00022D00101786B010E796F00015DDF020EF7
:100EE0000101CD6F0001B9DE16D0010E0101746F52
:100EF000020E756F0001C7DF0ED00101786B100E76
:100F0000796F000149DF07D0010E0101786F73C1CD
:100F100079F1000141DF12000900F5520CE0F6CF33
:100F200071F1F7CF72F1F5CF73F1C0DF71C1F6FF48
:100F300072C1F7FFF1D712000900F6CFCDF1F7CF5C
:100F4000CEF1F5509EA8FED7AD6ECDC1F6FFCEC155
:100F5000F7FF0101CC2F01D002D00001EDD7000135
:100F6000120001016E6B6F6B5D50060DF350716BDB
:100F7000706F5F0E7025E96E000E7121EA6EEF5200
:100F800052E16F2B5D50060DF350716B706F036A69
:100F90006F517025016E7151032201505F0FE96E90
:100FA000000E0320EA6EEF2C39D05C50060DF35092
:100FB000716B706F036A6F517025016E715103225E
:100FC00001505F0FE96E000E0320EA6EEF6A5D507C
:100FD000060DF350716B706F036A6F517025016ECF
:100FE0007151032201505F0FE96E000E0320EA6E7B
:100FF000EF6A6F51040803E06F5105080DE15D5081
:10100000060DF350716B706F5F0E7025E96E000E68
:101010007121EA6E010EEF6E6FC16EF15E506F5D71
:1010200001E36F6BA1D75D50060DF350716B706FCC
:101030005F0E7025E96E000E7121EA6EEF6A5B6A41
:101040000A0ECD6F000109DE01016EC101F0000141
:101050001200EF5210E0EACFCDF1E9CFCCF1EF5022
:101060009EA8FED7AD6ECDC1EAFFCCC1E9FFE92A4B
:10107000D8B4EA2AEED7120093908A90080E016E37
:1010800000D00000018E10D0019E01016E330001DE
:10109000D8B08A80D8A08A90018C06D0019C012EFD
:1010A000F4D700D000008A80A70EE96EE92EFED7A3
:1010B00000D001BEE9D701BCF1D769EF08F0090003
:1010C000F5520CE0F6CF6CF1F7CF6DF1F5CF6EF184
:1010D000D3D76CC1F6FF6DC1F7FFF1D71200010144
:1010E0006A6BF2CF6CF1F29EAA6AA96AA69CA69ED0
:1010F000A680A8506CBFF28E0001C16F0A0E0101DC
:10110000CD6F0001AADDC151310A05E0030A03E0F9
:10111000010A01E001D01CD0F250006EF29EAA6AD2
:10112000A96A330EA86EA69CA69EA6840F01550E32
:10113000A76EAA0EA76EA682A6B2FED7A6940050EE
:10114000F2120A0E0101CD6F000187DD330EC16F6F
:101150006A0EF66E020EF76E0A0E0101CC6F0001E8
:10116000EBDEC1519EA8FED7AD6E0D0E9EA8FED738
:10117000AD6E0A0E9EA8FED7AD6E010E5B6E320EEE
:101180000101CD6F000169DD7A0EF66E020EF76E79
:1011900078DD020E5B6EE5DE01C06AF101016A5185
:1011A0000208D8A481D06B6B036A6B51C20FE96E41
:1011B000000E0320EA6EEF500A0835E0036A6B5117
:1011C000C20FE96E000E0320EA6E010E6B256E6FF2
:1011D000F2CF6FF1F29EAA6A6EC1A9FFA69CA69EED
:1011E000A680A8506FBFF28EEF6E0A0ECD6F000181
:1011F00034DD036A01016B51C20FE96E000E03205A
:10120000EA6EEF3C03D0050E6A6F0DD0036A6B5196
:10121000C20FE96E000E0320EA6EEF500A0801E1EA
:1012200002D06B2BC1D76A51050817E0860EF66E07
:10123000020EF76E090ECC6F00017EDEEA6AC20E66
:10124000E96E07DF030E5B6E920EF66E020EF76E0E
:1012500036DF87DE01C06AF101016A51040803E04C
:101260006A51050821E1BE0EF66E020EF76E00010E
:1012700026DFE20EF66E020EF76E0A0E0101CC6F4B
:1012800000015ADE0401CC519EA8FED7AD6E0D0EB2
:101290009EA8FED7AD6E0A0E9EA8FED7AD6E010EBB
:1012A0005B6E00015EDE0101F20EF66E020EF76E5D
:1012B0000001E7DC040E01016C6FFA0ECD6F000136
:1012C000CCDC01016C2FF9D7000EF66E030EF76E21
:1012D0000001D7DC040E01016C6FFA0ECD6F000126
:1012E000BCDC01016C2FF9D7040E5B6E0001E8EF46
:1012F00016F001016A6B6B69F2CF6EF1F29EAA6A79
:10130000A96AA69CA69EA680A8506EBFF28E6A6FA0
:101310006A3D01D059D06A6B6C6B6C51070848E389
:101320006C510A0DF350280F6A6FF2CF6EF1F29EE6
:10133000AA6A6AC1A9FFA69CA69EA680A8506EBFF5
:10134000F28E6B6F0A0ECD6F000187DC01016B3DE1
:1013500001D02CD06D6B6D51090828E36C510B0D39
:10136000F3506F6B6E6F036A6D516E25016E6F5196
:1013700003220150F40FE96E000E0320EA6E6D5156
:101380006A25706FF2CF71F1F29EAA6A70C1A9FF4F
:10139000A69CA69EA680A85071BFF28EEF6E0A0E84
:1013A000CD6F00015ADC01016D2BD5D76C2BB5D761
:1013B0000C0E4C6F530E4D6F410E4E6F4C0E4F6F17
:1013C000490E506F520E516F0001EAEF16F0010EF8
:1013D0000101746F020E756F000155DD3A0EF66E55
:1013E000040EF76E99DD12000101CF51016ACE5D46
:1013F00003E2CEC100F00CD0006A080ED06FCE37E9
:101400000036CF51005CD8B0006E0136D02FF7D730
:10141000000112000150CCC1CEF1640E0101CF6F6A
:101420000001E2DF00C0CCF10150300E08E1010103
:10143000CDA30ED0CDB70CD0CDB9200E04D0010174
:10144000CD97CD99CD81012601509EA8FED7AD6ED6
:10145000CCC1CEF10A0ECF6F0001C6DF00C0CCF1C7
:101460000150300E08E10101CDB70BD0CDA109D05C
:10147000CDB9200E0001012601509EA8FED7AD6E09
:101480000101300ECC27CC519EA8FED7AD6E0001D5
:1014900012000101716B726B736B746B756B1E0EB6
:1014A000766F480E776F540E786F796F500E7A6FA3
:1014B0002F0E7B6F310E7C6F2E0E7D6F310E7E6F87
:1014C000200E7F6F320E806F300E816F826F200E84
:1014D000836F4F0E846F4B0E856F0A0E866F876F7A
:1014E0007B0E886F220E896F630E8A6F6D0E8B6F75
:1014F000640E8C6F220E8D6F3A0E8E6F220E8F6FE0
:101500006F0E906F6B0E916F220E926F7D0E936F28
:101510000A0E946F956B430EB06F6F0EB16F6E0E27
:10152000B26F740EB36F650EB46F6E0EB56F740E3E
:10153000B66F2D0EB76F540EB86F790EB96F700E6F
:10154000BA6F650EBB6F3A0EBC6F200EBD6F740E86
:10155000BE6F650EBF6F780EC06F740EC16F2F0E19
:10156000C26F680EC36F740EC46F6D0EC56F6C0EC4
:10157000C66FC76B572C71EF0FF01E50520868E111
:101580001F50530865E15E0EF66E010EF76E0B0EEE
:10159000CC6F0001D1DC1C509EA8FED7AD6E2C0E86
:1015A0009EA8FED7AD6E76C1CCF11B0E0101CD6FAA
:1015B000000130DF0D0E9EA8FED7AD6E0A0E9EA86C
:1015C000FED7AD6E3C0E0101CD6F00012DEC06F093
:1015D000010EEA6E770EE96E3CDD0A0E9EA8FED77C
:1015E000AD6E0D0E9EA8FED7AD6E780E0101CD6FCB
:1015F00000012DEC06F0720EF66E010EF76E0B0E6A
:101600000101CC6F000198DC1C509EA8FED7AD6E86
:101610002C0E9EA8FED7AD6E010E0101CC6F1B0EE5
:10162000CD6F0001F7DE0D0E9EA8FED7AD6E0A0E3F
:101630009EA8FED7AD6E020E0101CC6FFA0ECD6FE3
:1016400000012DEC06F00101CC2FF8D7010E716FCF
:101650001E504F085EE11F5050085BE1300E215CC8
:10166000736F2050300A000103E0010A29E050D0D6
:10167000D89001017335036AF2CFCCF1F29E0001DC
:101680004BEC00F00900F5CF03F00101CCBFF28E66
:10169000CC6F03C0CDF1CE6FCF6B0F0ED16F890E23
:1016A000D06F00010CEC06F0CCC1CEF10101CF6B84
:1016B0000F0ED16F920ED06F00010CEC06F028D007
:1016C000D89001017335036AF2CFCCF1F29E00018C
:1016D0004BEC00F00900F5CF03F00101CCBFF28E16
:1016E000CC6F03C0CDF1CE6F010ECF6F0F0ED16F57
:1016F000890ED06F00010CEC06F0CCC1CEF10101D7
:10170000CF6B0F0ED16F920ED06F00010CEC06F074
:1017100001011E504E08D8A407D11F504308D8A479
:1017200003D1010E756F75511B081EE3F250006E58
:10173000F29EAA6A75C1A9FFA868A69CA69EA68467
:101740000F01550EA76EAA0EA76EA682A6B2FED7EF
:10175000A6940050F2120A0E0101CD6F00012DEC8B
:1017600006F00101752BDFD7C86B535203E1C85156
:10177000525C2BE3010EC825CC6F036AC851200FC1
:10178000E96E000E0320EA6EEFCFCDF1F250006E4D
:10179000F29EAA6ACCC1A9FFCDC1A8FFA69CA69EB5
:1017A000A6840F01550EA76EAA0EA76EA682A6B23A
:1017B000FED7A6940050F2120A0E0101CD6F00016F
:1017C0002DEC06F00101C82BD0D7010EC825CC6F37
:1017D000F250006EF29EAA6ACCC1A9FF0D0EA86E4F
:1017E000A69CA69EA6840F01550EA76EAA0EA76EF4
:1017F000A682A6B2FED7A6940050F2120A0E0101EC
:10180000CD6F00012DEC06F0020E0101C825CC6F52
:10181000F250006EF29EAA6ACCC1A9FF0A0EA86E11
:10182000A69CA69EA6840F01550EA76EAA0EA76EB3
:10183000A682A6B2FED7A6940050F2121E0E010197
:10184000CD6F00012DEC06F0860EF66E010EF76EE0
:101850000B0E0101CC6F00019CEC07F01C509EA800
:10186000FED7AD6E2C0E9EA8FED7AD6E76C1CCF124
:101870001B0E0101CD6F0001CDDD0D0E9EA8FED720
:10188000AD6E0A0E9EA8FED7AD6E3C0E0101CD6F67
:1018900000012DEC06F0010EEA6E770EE96E29ECE0
:1018A00008F00A0E9EA8FED7AD6E0D0E9EA8FED7BC
:1018B000AD6E780E0101CD6F00012DEC06F09A0E91
:1018C000F66E010EF76E0C0E0101CC6F00019CEC60
:1018D00007F01C509EA8FED7AD6E0D0E9EA8FED739
:1018E000AD6E0A0E9EA8FED7AD6E020E0101CC6F42
:1018F000FA0ECD6F00012DEC06F00101CC2FF8D7C8
:10190000AC0EF66E010EF76E000141EC06F0040E0F
:101910000101CC6FFA0ECD6F00012DEC06F0010134
:10192000CC2FF8D7010E716F1E504108D8A484D077
:101930001F505008D8A480D0B80EF66E010EF76E76
:101940000B0ECC6F00019CEC07F01C509EA8FED73C
:10195000AD6E2C0E9EA8FED7AD6E76C1CCF11B0EDF
:101960000101CD6F000156DD0D0E9EA8FED7AD6EB4
:101970000A0E9EA8FED7AD6E320E0101CD6F00019A
:101980002DEC06F0010EEA6E770EE96E29EC08F0F8
:101990000A0E9EA8FED7AD6E0D0E9EA8FED7AD6EA8
:1019A000780E0101CD6F00012DEC06F0CC0EF66E25
:1019B000010EF76E0C0E0101CC6F00019CEC07F0DC
:1019C0001C509EA8FED7AD6E0D0E9EA8FED7AD6E24
:1019D0000A0E9EA8FED7AD6E020E0101CC6FFA0E64
:1019E000CD6F00012DEC06F00101CC2FF8D7DE0EF3
:1019F000F66E010EF76E0D0ECC6F00019CEC07F039
:101A0000EA6A200EE96E29EC08F0ED0EF66E010E82
:101A1000F76E060E0101CC6F00019CEC07F0040E7E
:101A20000101CC6FFA0ECD6F00012DEC06F0010123
:101A3000CC2FF8D7010E716F1E504E08D8A479D064
:101A40001F504D08D8A475D0F250006EF29EAA6ABD
:101A5000A96A20C0A8FFA69CA69EA6840F01550EC9
:101A6000A76EAA0EA76EA682A6B2FED7A6940050B5
:101A7000F2121E0E0101CD6F00012DEC06F0F40EE6
:101A8000F66E010EF76E0B0E0101CC6F00019CEC9F
:101A900007F01C509EA8FED7AD6E2C0E9EA8FED758
:101AA000AD6E76C1CCF11B0E0101CD6F0001B2DC31
:101AB0000D0E9EA8FED7AD6E0A0E9EA8FED7AD6E87
:101AC000320E0101CD6F00012DEC06F0010EEA6E21
:101AD000770EE96E29EC08F00A0E9EA8FED7AD6ECF
:101AE0000D0E9EA8FED7AD6E780E0101CD6F0001E0
:101AF0002DEC06F0080EF66E020EF76E0C0E0101CC
:101B0000CC6F00019CEC07F01C509EA8FED7AD6E78
:101B10000D0E9EA8FED7AD6E0A0E9EA8FED7AD6E26
:101B2000640E0101CD6F00012DEC06F0010E0101E4
:101B3000716F1E504F08D8A498D01F505308D8A4D6
:101B400094D0010E726F7B0E776F220E786F300E7D
:101B5000796F220E7A6F3A0E7B6F000E84B4010EFD
:101B6000300F7C6F2C0E7D6F220E7E6F310E7F6FDB
:101B7000220E806F3A0E816F000E84B2010E300F7C
:101B8000826F2C0E836F220E846F320E856F220EB1
:101B9000866F3A0E876F000E84B0010E300F886F8B
:101BA0002C0E896F220E8A6F330E8B6F220E8C6F74
:101BB0003A0E8D6F000E80B8010E300F8E6F2C0E16
:101BC0008F6F220E906F340E916F220E926F3A0E2D
:101BD000936F000E80B0010E300F946F2C0E956F36
:101BE000220E966F350E976F220E986F3A0E996FF0
:101BF000000E80B2010E300F9A6F2C0E9B6F220EDA
:101C00009C6F360E9D6F220E9E6F3A0E9F6F000ED8
:101C100080B4010E300FA06F2C0EA16F220EA26FA8
:101C2000370EA36F220EA46F3A0EA56F000E80B67A
:101C3000010E300FA66F2C0EA76F220EA86F4D0E4F
:101C4000A96F220EAA6F3A0EAB6FF2CFCCF1F29EC3
:101C5000AA6AA96AA69CA69EA680A850CCBFF28EAE
:101C6000AC6F7D0EAD6F480E766F1E504E08D8A437
:101C700072D01F504F086FE1C96BCA6B300E205CE9
:101C8000736F73510A0DF350280FC96F0A0EC925DF
:101C9000CA6FC9C175F1C9515224016E000E53209B
:101CA000036E0150035203E10150755D29E2742B6C
:101CB000036A7451200FE96E000E0320EA6EEFCF25
:101CC000CCF1F250006EF29EAA6A75C1A9FFCCC198
:101CD000A8FFA69CA69EA6840F01550EA76EAA0E6D
:101CE000A76EA682A6B2FED7A6940050F2120A0EE4
:101CF0000101CD6F00012DEC06F00101752BCBD752
:101D0000C9515224CC6F000E5320CD6F010ECC254B
:101D1000756F7551CA5D1EE3F250006EF29EAA6A9D
:101D200075C1A9FFA868A69CA69EA6840F01550EA2
:101D3000A76EAA0EA76EA682A6B2FED7A6940050E2
:101D4000F2120A0E0101CD6F00012DEC06F0010127
:101D5000752BDFD7746B7153D8A49BD0725337E1C6
:101D60001A0EF66E020EF76E0B0ECC6F00019CEC95
:101D700007F01C509EA8FED7AD6E2C0E9EA8FED775
:101D8000AD6E76C1CCF11B0E0101CD6F00010AECE6
:101D90000AF00D0E9EA8FED7AD6E0A0E9EA8FED7C5
:101DA000AD6E320E0101CD6F00012DEC06F0010E7B
:101DB000EA6E770EE96E29EC08F00A0E9EA8FED7AF
:101DC000AD6E0D0E9EA8FED7AD6E40D001012E0E59
:101DD000F66E020EF76E0B0ECC6F00019CEC07F056
:101DE0001C509EA8FED7AD6E2C0E9EA8FED7AD6EE1
:101DF00076C1CCF11B0E0101CD6F00010AEC0AF097
:101E00000D0E9EA8FED7AD6E0A0E9EA8FED7AD6E33
:101E1000320E0101CD6F00012DEC06F0420EF66E80
:101E2000020EF76E110E0101CC6F00019CEC07F061
:101E3000010EEA6E770EE96E29EC08F00A0E9EA8F4
:101E4000FED7AD6E0D0E9EA8FED7AD6E780E0101C9
:101E5000CD6F00012DEC06F0580EF66E020EF76EF7
:101E60000C0E0101CC6F00019CEC07F01C509EA8E9
:101E7000FED7AD6E0D0E9EA8FED7AD6E0A0E9EA8C3
:101E8000FED7AD6E640E0101CD6F00012DEC06F0A2
:101E90000101CB6B535203E1CB51525C0AE3036A5D
:101EA000CB51200FE96E000E0320EA6EEF6ACB2BB8
:101EB000F1D7CB6BCB5138080AE3036ACB51770FCC
:101EC000E96E010E0320EA6EEF6ACB2BF3D71E6A90
:101ED0001F6A1C6A576A536A526A712D02D0716B6D
:101EE000FF0071C101F000011200D8B204D0010E50
:101EF000EA6E860EE96E006A016A026A036A0101EF
:101F0000866B876B886B896B855184118311821175
:101F10002CE0200E8A6FD8907E377F37803781374C
:101F200086378737883789378551895D08E184513D
:101F3000885D05E18351875D02E18251865D0FE393
:101F40008251865F8351D8A0833D875F8451D8A09A
:101F5000843D885F8551D8A0853D895FD880003653
:101F60000136023603368A2FD6D786C1EFFF87C1E6
:101F7000ECFF88C1ECFF89C1ECFF00012AEF10F0F3
:101F80000101866B876B010E886FDA6AD96A8B6FE5
:101F90007E0E8A6F010EEA6E820EE96E8BC1E2FF41
:101FA0008AC1E1FF88C189F1D890E550EE02F35073
:101FB0008623F4508723892FF7D786C1DEFF87C198
:101FC00086F1876BD8B0872B8A2BD8B48B2B882BC4
:101FD00088510508DFE1000142EF10F0030E010116
:101FE0007F5F0AE3010EEA6E7F0EE96EEF5004E0B8
:101FF00001D000D0EF2EFDD7000112000101756B5A
:10200000746B776B766B715304E170511308D8B021
:1020100097D071514E08D8A093D004E17051200898
:10202000D8A08ED07D6B010E7C6F860E7B6FA00ECC
:102030007A6FD8927DC181F17CC180F17BC17FF143
:102040007AC17EF1856B846B71C183F170C182F1BD
:1020500000014BD703C07DF102C07CF101C07BF1D0
:1020600000C07AF17DC181F17CC180F17BC17FF13B
:102070007AC17EF10101856B846B836B050E826FE3
:1020800000017ED703C07DF102C07CF101C07BF16D
:1020900000C07AF17BC179F17AC178F193948A8496
:1020A00079C17EF101017E2B7E07D8B405D07F690E
:1020B000000194DF0101F8D778C17FF100018EDFC4
:1020C0000101785176277951772393948A9479C1C5
:1020D0007EF17E2B7E07D8B405D07F6900017EDFBC
:1020E0000101F8D778C17FF1000178DF0101785153
:1020F000762779517723190E7627000E77237751AB
:10210000020811E2FF0A03E17651E7080CE2E80E4B
:10211000765F030E775B742BD8B4752B190E762778
:10212000000E7723ECD77551735D0AE3D8B402D063
:102130000001B4D77251745DD8B002D00001AED79F
:102140000001120001016A6B6B6B6A51100DF350B4
:10215000036A6C6F0C0E736F000156EC07F0140EDF
:10216000F66E030EF76E01016C51F626000EF72293
:1021700000018CEC07F0E7EC09F001016B5355E12D
:10218000000149EC0AF0938881B832D0020E0101B7
:102190006C6FFA0ECD6F00012DEC06F001016C2F73
:1021A000F8D7040E716FB90E706F736B140E726FE7
:1021B000000124DF01016A2B6A51625D01E26A6B52
:1021C0006A51100DF350036A6C6F0C0E736F0001AF
:1021D00056EC07F0140EF66E030EF76E01016C510B
:1021E000F626000EF72200018CEC07F0E7EC09F070
:1021F000938A81BA18D0020E01016C6FFA0ECD6F6E
:1022000000012DEC06F001016C2FF8D7040E716F60
:10221000B90E706F736B140E726F0001EFDE010E5A
:1022200001016B6F0001A9D70101010E6A25016E42
:102230000001F8EF16F00900F6CF6FF1F7CF70F15B
:10224000F5CF73F156EC07F06FC1F6FF70C1F7FFE1
:1022500001016E2F01D002D00001EDD70001120064
:10226000EF5210E0EACF6FF1E9CF6EF1EFCF73F1EB
:1022700056EC07F06FC1EAFF6EC1E9FFE92AD8B456
:10228000EA2AEED7120001016A6B6B6B6A510B0DE3
:10229000F350036AF40F016E000E032201C06CF1CB
:1022A00003C06DF14C0EF66E040EF76E070E6E6FE6
:1022B0000001C1DF6DC1EAFF6CC1E9FFD1DFE7ECCE
:1022C00009F001016B53D8A482D0000149EC0AF057
:1022D000938881B835D0020E01016C6FFA0ECD6F74
:1022E00000012DEC06F001016C2FF8D7040E716F80
:1022F000B90E706F736B140E726F00017FDE0101F7
:102300006A2B6A51635D01E26A6B6A510B0DF350EF
:10231000036AF40F016E000E032201C06CF103C0CA
:102320006DF1560EF66E040EF76E070E6E6F00011D
:1023300082DF6DC1EAFF6CC1E9FF92DFE7EC09F0D3
:10234000938A81BA42D0020E01016C6FFA0ECD6FF2
:1023500000012DEC06F001016C2FF8D7040E716F0F
:10236000B90E706F736B140E726F000147DE0101BE
:1023700063516A5D03E1010E6B6F28D0D8906A3516
:10238000036AF2CF6CF1F29E00014BEC00F0090001
:10239000F5CF03F001016CBFF28E6C6F03C06DF1DD
:1023A000CE6F010ECF6F0F0ED16F890ED06F00016F
:1023B0000CEC06F06CC1CEF10101CF6B0F0ED16FAA
:1023C000920ED06F00010CEC06F001017BD7000EDD
:1023D000016E0001FEEF16F001016A6B6B6B6A5132
:1023E0000B0DF350036AF40F016E000E032201C0BF
:1023F0006CF103C06DF1600EF66E040EF76E070E01
:102400006E6F000118DF6DC1EAFF6CC1E9FF28DFC4
:10241000E7EC09F001016B53D8A481D0000149EC2D
:102420000AF0938881B835D0020E01016C6FFA0E64
:10243000CD6F00012DEC06F001016C2FF8D7040ED2
:10244000716FB90E706F736B140E726F0001D6DD71
:1024500001016A2B6A51645D01E26A6B6A510B0DDE
:10246000F350036AF40F016E000E032201C06CF1F9
:1024700003C06DF16A0EF66E040EF76E070E6E6FF6
:102480000001D9DE6DC1EAFF6CC1E9FFE9DEE7ECCE
:1024900009F0938A81BA41D0020E01016C6FFA0EE5
:1024A000CD6F00012DEC06F001016C2FF8D7040E62
:1024B000716FB90E706F736B140E726F00019EDD39
:1024C000010164516A5D03E1010E6B6F27D0D89062
:1024D0006A35036AF2CF6CF1F29E00014BEC00F01A
:1024E0000900F5CF03F001016CBFF28E6C6F03C0E1
:1024F0006DF1CE6FCF6B0F0ED16F890ED06F0001D3
:102500000CEC06F06CC1CEF10101CF6B0F0ED16F58
:10251000920ED06F00010CEC06F001017CD7000E8A
:10252000016E000104EF17F00101706B0C0E746F67
:10253000020E756F000143EC07F0340EF66E040EC8
:10254000F76E8CEC07F00101705316E1000149ECC5
:102550000AF0938A81BA0ED0020E0101716FFA0E51
:10256000CD6F00012DEC06F00101712FF8D7010E9F
:10257000706F0001E8D701010001120001016E6BCC
:102580006F6B6E510E0DF350036A706F0C0E736F0C
:10259000000156EC07F0EE0EF66E030EF76E010129
:1025A0007051F626000EF72200018CEC07F0E7ECE4
:1025B00009F001016F53D8A4F6D0000149EC0AF0EC
:1025C000938881B832D0020E0101706FFA0ECD6F80
:1025D00000012DEC06F00101702FF8D7040E716F89
:1025E000B90E706F736B140E726F000107DD01017D
:1025F0006E2B6E51665D01E26E6B6E510E0DF350E7
:10260000036A706F0C0E736F000156EC07F0EE0E4C
:10261000F66E030EF76E01017051F626000EF722DA
:1026200000018CEC07F0E7EC09F0938A81BAB9D08D
:10263000020E0101706FFA0ECD6F00012DEC06F055
:102640000101702FF8D7040E716FB90E706F736BA4
:10265000140E726F0001D2DC010166516E5D03E160
:10266000010E6F6F9DD06E51FC0FD8B082D0040F59
:102670000001D6EF13F0AE0EF66E050EF76E41ECCC
:1026800006F0F250006EF29EAA6AA96A310EA86E98
:10269000A69CA69EA6840F01550EA76EAA0EA76E35
:1026A000A682A6B2FED7A6940050F2120A0E01012D
:1026B000CD6F00012DEC06F0C00EF66E050EF76E24
:1026C0008CEC07F0010155D0D00EF66E050EF76EBA
:1026D00041EC06F0F250006EF29EAA6AA96A320E30
:1026E000A86EA69CA69EA6840F01550EA76EAA0EE4
:1026F000A76EA682A6B2FED7A6940050F2120A0ECA
:102700000101CD6F00012DEC06F0E20EF66E050E14
:10271000F76E8CEC07F001012CD0EE0EF66E050E74
:10272000F76E41EC06F0F250006EF29EAA6AA96ABA
:10273000330EA86EA69CA69EA6840F01550EA76E0A
:10274000AA0EA76EA682A6B2FED7A6940050F212D9
:102750000A0E0101CD6F00012DEC06F0000EF66EA1
:10276000060EF76E8CEC07F0010103D0010101D0D9
:1027700001016E51030814E00001D6DE120EF66E60
:10278000060EF76E8CEC07F00C0E0101706FFA0E5E
:10279000CD6F00012DEC06F00101702FF8D7FF007E
:1027A000000107D7010100010CEF15F0F2CF0DF089
:1027B000F29EE824F76AF736D10FF66E270EF7225D
:1027C0000A00F550FA6E0800F5500DBEF28EF96E53
:1027D0007626C8261A276C2701016C51F70FD8B04E
:1027E00033D1090F000130EF15F0740EF66E040EB0
:1027F000F76E41EC06F0050E5B6E800EF66E040E71
:10280000F76E8CEC07F0B1EC07F00C0E0101736F62
:10281000000156EC07F0EA6A6B0EE96E21DDBB6B36
:10282000010112D18E0EF66E040EF76E41EC06F029
:10283000050E5B6E9A0EF66E040EF76E8CEC07F0CA
:10284000B1EC07F00C0E0101736F000156EC07F0BC
:10285000EA6A7B0EE96E04DDBB6B0101F5D0C15164
:1028600032081CE0A80EF66E040EF76E41EC06F07E
:10287000070E5B6EB40EF66E040EF76E8CEC07F06E
:10288000B1EC07F00C0E0101736F000156EC07F07C
:10289000EA6AAB0EE96EE4DCBF6B06D0C20EF66EE0
:1028A000040EF76E8CEC07F00101CED0C151310857
:1028B0001CE0D20EF66E040EF76E41EC06F0060E2A
:1028C0005B6EDE0EF66E040EF76E8CEC07F0B1EC6C
:1028D00007F00C0E0101736F000156EC07F0EA6A75
:1028E0008B0EE96EBDDCBD6B06D0EC0EF66E040EF1
:1028F000F76E8CEC07F00101A7D0C15131081CE044
:10290000FC0EF66E040EF76E41EC06F0060E5B6EE2
:10291000080EF66E050EF76E8CEC07F0B1EC07F0C2
:102920000C0E0101736F000156EC07F0EA6A9B0E72
:10293000E96E96DCBD6B06D0160EF66E050EF76ED0
:102940008CEC07F0010180D0260EF66E050EF76EB6
:102950008CEC07F001016D6B6D516E081EE3F250B7
:10296000006EF29EAA6A6DC1A9FFA868A69CA69EE9
:10297000A6840F01550EA76EAA0EA76EA682A6B258
:10298000FED7A6940050F2120A0E0101CD6F00018D
:102990002DEC06F001016D2BDFD7380EF66E050E1B
:1029A000F76E00018CEC07F0460EF66E050EF76E22
:1029B00041EC06F0040E01016E6FFA0ECD6F0001BE
:1029C0002DEC06F001016E2FF8D7520EF66E050EB3
:1029D000F76E000141EC06F0080E01016E6FFA0E71
:1029E000CD6F00012DEC06F001016E2FF8D75C0EC3
:1029F000F66E050EF76E000141EC06F0080E0101BF
:102A00006E6FFA0ECD6F00012DEC06F001016E2FF6
:102A1000F8D7FF0019D0B2D5010116D095968C7663
:102A200083A607D0900EF66E050EF76E8CEC07F0BD
:102A300006D09E0EF66E050EF76E8CEC07F00101C7
:102A400003D0010101D001016C51080806E06C516E
:102A5000050803E0000168DD01010001C6EF15F083
:102A6000F2CF0DF0F29EE824F76AF736850FF66E86
:102A70002A0EF7220A00F550FA6E0800F5500DBE36
:102A8000F28EF96E24285E28AC28FA28EA27162A46
:102A900048291C2A422A01016A6B6B6B6A51110D8D
:102AA000F350036A6C6F0C0E736F000156EC07F065
:102AB000540EF66E030EF76E01016C51F626000EF1
:102AC000F72200018CEC07F0E7EC09F001016B53F1
:102AD000D8A477D0000149EC0AF0938881B833D0AC
:102AE000020E01016C6FFA0ECD6F00012DEC06F0A5
:102AF00001016C2FF8D7040E716FB90E706F736BF4
:102B0000140E726F0001FEEC0FF001016A2B6A5186
:102B1000655D01E26A6B6A51110DF350036A6C6FD7
:102B20000C0E736F000156EC07F0540EF66E030E98
:102B3000F76E01016C51F626000EF72200018CECB5
:102B400007F0E7EC09F0938A81BA39D0020E01014F
:102B50006C6FFA0ECD6F00012DEC06F001016C2FA9
:102B6000F8D7040E716FB90E706F736B140E726F1D
:102B70000001FEEC0FF0010165516A5D03E1010EF9
:102B80006B6F1ED06AC16CF1000126D601016A513B
:102B9000110DF350036A6C6F0C0E736F000156EC4D
:102BA00007F0540EF66E030EF76E01016C51F62617
:102BB000000EF72200018CEC07F0E7EC09F00101B0
:102BC00086D7000E016E000109EF17F0F86AD09E5B
:102BD000078EB8862A0EAF6E000EB06EA60EAC6ED3
:102BE000900EAB6E93908A80536A526A546A556A0B
:102BF000566A576A586A596A5A6A5B6A010E5C6E6D
:102C00005D6A050E5E6EBB6BBC6BBD6BBE6BBF6B56
:102C1000C06B020E0101626F080E636F646F656F17
:102C2000030E666F676BC150C00B0F09C16E070EB4
:102C3000B46E4DD002001600000C405F00078030DB
:102C40002E302E302E3009C0000780302E302E302E
:102C50002E3009C0000FC0200180000FC02001806D
:102C6000000FC0200180005D00F44F757470757412
:102C700020312020004F75747075742032202000A0
:102C80004F757470757420332020004F7574707503
:102C90007420342020004F75747075742035202006
:102CA000004F757470757420362020004F75747055
:102CB000757420372020004F75747075742038208B
:102CC000200053414C495205C0200CC00000000EAA
:102CD000F86E2C0EF76E340EF66E0900F550006E8D
:102CE000000A13E00900F550016EE8BE05D00F0B95
:102CF000EA6E0900F5CFE9FF01BC090001AC09004B
:102D0000F5CFEEFF004EE9D7F9D7F86AF19E320E03
:102D1000936E93968A9693948A9495968C86686B14
:102D20006851070829E3D8906835036AF2CF6AF141
:102D3000F29E00014BEC00F00900F5CF03F0010119
:102D40006ABFF28E6A6F03C06BF1CE6FCF6B0F0E4E
:102D5000D16F890ED06F00010CEC06F06AC1CEF184
:102D60000101CF6B0F0ED16F920ED06F00010CECF2
:102D700006F00101682BD4D79D8AC00EF212040E12
:102D80006A6FFA0ECD6F00012DEC06F001016A2F7B
:102D9000F8D793968A86000EF66E0C0EF76E000139
:102DA00041EC06F0F5EF06F00A0EF66E0C0EF76E2B
:102DB0008CEC07F0140E01016A6FFA0ECD6F000162
:102DC0002DEC06F001016A2FF8D700016FEF08F033
:102DD00079EF09F0010E0101696F692D20D067516B
:102DE000FC0F1CE2040F000110EF17F0A2EF10F02F
:102DF00001C067F1010112D043EF11F001C067F18A
:102E000001010CD0ECEF11F001C067F1010106D017
:102E100042D601C067F1010101D00101DED70300F4
:102E2000F2CF0DF0F29EE824F76AF736450FF66E02
:102E30002E0EF7220A00F550FA6E0800F5500DBE6E
:0C2E4000F28EF96EEC2DF82D042E102EF1
:020000040030CA
:0E00000000C21E1E008781000FC00FE00F40DF
:00000001FF
;PIC18F4620
;CRC=623C  CREATED="14-ene.-18 01:34"
