:1000000014308A00542C0000FF00030E8301A1006D
:100010000A08A0008A010408A2007708A300780853
:10002000A4007908A5007A08A60003170D08031399
:10003000A70003170F080313A80003170C080313E6
:10004000A90003170E080313AA00831383128C3030
:100050008400801E2D288C1A4E2822088400230834
:10006000F7002408F8002508F9002608FA002708F8
:1000700003178D000313280803178F0003132908A3
:1000800003178C0003132A0803178E00031320089C
:100090008A00210E8300FF0E7F0E09008A110A12CA
:1000A0007E2B0A108A100A1182074F344B340D340C
:1000B0000A340A108A100A1182074E346F34203431
:1000C000413450340A108A100A1182072B34433409
:1000D00057344A34413450343A340A108A100A11E1
:1000E000820743344F344E344E3445344334543411
:1000F000453444340A108A100A11820746344134C8
:1001000049344C340A108A100A1182072B344934BE
:10011000503444342C340A108A100A1182074334B4
:100120004D3444343A34412A2B29532A0D0500001A
:10013000412AAB21D7264F22C51EA5390D05000047
:10014000412AAB2157254128BF060A00412AAB218D
:1001500057254128BD127300412AAB214928CD2AD9
:10016000D81EB1060A00412AAB214928D322522BBE
:100170004529BD182C1CB0060A00412AAB2149288C
:10018000D3224E22BD12631631190D050001412AFA
:10019000AB2149284326CF29C51EA5310D050000F6
:1001A00045346E34633465346E346434653472348B
:1001B00020344D3461346E34753461346C34003421
:1001C0004134703461346734613464346F342034C2
:1001D0004D3461346E34753461346C342034003401
:1001E00043346F346E346634693467347534723432
:1001F0006134633469346F346E3420342034003415
:10020000003400340034003400340034003400344E
:10021000003400340034003400340034003400343E
:100220004F346E3420342D343E3420345334613412
:100230006C346934643461342034313400344F34E4
:100240006E3420342D343E342034533461346C34D5
:100250006934643461342034323400344F346E34C1
:1002600020342D343E342034533461346C346934BA
:10027000643461342034333400344F346E342034E9
:100280002D343E342034533461346C346934643456
:1002900061342034343400344F346E3420342D34FF
:1002A0003E342034533461346C3469346434613402
:1002B0002034353400344F346E3420342D343E3401
:1002C0002034533461346C34693464346134203400
:1002D000363400344F346E3420342D343E342034E0
:1002E000533461346C3469346434613420343734C9
:1002F00000344F346E3420342D343E3420345334A3
:1003000061346C34693464346134203438340034FA
:10031000533441344C344934523420342034203462
:10032000203420342034203420342034003400346D
:10033000003400340034003400340034003400341D
:100340000034003400340034003400344F34663458
:10035000663420342D343E342034533461346C34CC
:100360006934643461342034313400344F346634B9
:10037000663420342D343E342034533461346C34AC
:100380006934643461342034323400344F34663498
:10039000663420342D343E342034533461346C348C
:1003A0006934643461342034333400344F34663477
:1003B000663420342D343E342034533461346C346C
:1003C0006934643461342034343400344F34663456
:1003D000663420342D343E342034533461346C344C
:1003E0006934643461342034353400344F34663435
:1003F000663420342D343E342034533461346C342C
:100400006934643461342034363400344F34663413
:10041000663420342D343E342034533461346C340B
:100420006934643461342034373400344F346634F2
:10043000663420342D343E342034533461346C34EB
:1004400069346434613420343834003453344134F2
:100450004C34493452342034203420342034203475
:10046000203420342034203420340034003400344C
:1004700000340034003400340034003400340034DC
:100480000034003400340034003400345634453431
:100490005234203449345034203420342034203431
:1004A0002034203420342034203420340034563496
:1004B0004534523420345334533449344434203492
:1004C00020342034203420342034203420340034AC
:1004D00056344534523420344B3445345934203466
:1004E000203420342034203420342034203420346C
:1004F000003443346F346E34663420344134633412
:1005000063346534733473346F3420345234653457
:10051000643400344F346E342F344F3466346634D0
:1005200020344234613463346B346C34693467345E
:10053000683474340034533441344C3449345234C4
:10054000203420342034203420342034203420340B
:10055000203420342034003400340034003400349B
:1005600000340034003400340034003400340034EB
:1005700000340034003400340034453473347434AF
:100580006134633469346F346E3420342034203461
:10059000203420340034413463346334653473349C
:1005A0007334203450346F3469346E3474342034EE
:1005B00000344534733474346134633469346F34D3
:1005C0006E3420342B3420344134503400345334CE
:1005D00041344C34493452342034203420342034D3
:1005E00020342034203420340034003400340034EB
:1005F000003400340034003400340034003400345B
:10060000003400340034D320CC245200DB29C92329
:100610005D1020102010A02D4527D42E00008C182E
:100620003919AE18361C2E18AE1800018C21B023D3
:10063000B32F552745008C18B219B420FA100001C9
:100640000C21E1316B36E933683AA0276E000C21AA
:10065000E1316B36E933683AA02766330001412A5D
:10066000AB21D7264F22C52FC422C61EB1060A00D1
:100670008C216F37E63467104336E9326E3A6500F5
:10068000412AAB21D7264F22C52FC422C61EB2064F
:100690000A008C216F37E634671041280001412A97
:1006A000AB21D7264F22C52FC422C61EB3060A008F
:1006B0008C216F37E63467104336E9326E3AE52015
:1006C000500004300317A000031348085120F8001D
:1006D00003171F02031D7A2B0313C80A03172008F0
:1006E00003134802031D772B0130C300782BC3018D
:1006F0007D2B03170313C801C30108008C1E7E2B3A
:100700001A0803179D000313C208031D162C0317B4
:100710001D089E0003134108013A0319962B033A62
:1007200003199C2B013A0319D82B142C03171E080C
:100730009F0003136123152C03171E089F0005302B
:10074000A000031349085920F80003171F02031DD6
:10075000B52B0313C90A0317200803134902031D0D
:10076000B32B0130C400B72B03170313C9010317C0
:100770001E089F000730A00003134A086220F800FB
:1007800003171F02031DD02B0313CA0A03172008E7
:1007900003134A02031DCE2B0130C500D22B0317D1
:1007A0000313CA0103171E089F0003136123152CAE
:1007B00003171E089F000930A00003134B086D208B
:1007C000F80003171F02031DF12B0313CB0A0317B5
:1007D000200803134B02031DEF2B0130C600F32B3F
:1007E00003170313CB0103171E089F000430A0005A
:1007F00003134C087A20F80003171F02031D0C2C6A
:100800000313CC0A0317200803134C02031D0A2C00
:100810000130C7000E2C03170313CC0103171E0869
:100820009F0003136123152CC1019D2C03179F0109
:100830001D089E000530A000730B302C1E082C3CB8
:10084000031D252C9F0803192D2C6C307B07840079
:1008500083131E088000FB0A2F2CFB01F301452C9B
:100860007B0803138220F80003171E02031D442C8B
:100870009F08031D442CFB0A20087B02031D432C08
:100880000130F300FB01452CFB019F011D089E0078
:100890000430A000720B602C1E082C3C031D532C4E
:1008A0009F0803195B2C6E307607840083131E08A3
:1008B0008000F60A5F2CF601F2010130F400752C7D
:1008C000760803138B20F80003171E02031D742CF7
:1008D0009F08031D742CF60A20087602031D732C52
:1008E0000130F200F601752CF6019F011D089E00F3
:1008F000740B9C2C1E083A3C031D812C9F08031985
:10090000982CA0307C07840083131E088000F1011E
:100910007C08F000FC08031D962C1E082C3C031DCF
:10092000962C9F08031D962CFC01972CFC0A9C2CEE
:10093000FC01F4010130F50003138C128A110A1234
:100940002D28EB308400831300080319B42C0630E3
:10095000F800F701F70BAA2CF80BA92C7B30F70055
:10096000F70BB02C800BA72C080083160810081179
:1009700088108312081183160811081688160817A4
:1009800088178312881483168810000083120814B5
:10099000831608100000E701081600308312081AB9
:1009A00001308316E704881600308312881A01305C
:1009B000F7000310F70D77088316E70408170030D7
:1009C0008312081B0130F700F70DF70DFC30F70517
:1009D00077088316E704881700308312881B0130DC
:1009E000F700F70DF70DF70DF830F70577088316C8
:1009F000E7046708F8007808E600831208108316F9
:100A0000081000008312081483160810072D082D03
:100A10000000E701081600308312081A013083161F
:100A2000E704881600308312881A0130F70003109B
:100A3000F70D77088316E704081700308312081BA8
:100A40000130F700F70DF70DFC30F7057708831636
:100A5000E704881700308312881B0130F700F70D78
:100A6000F70DF70DF830F70577088316E7046708E8
:100A7000F8007808E50083120810831608100812A1
:100A8000881208138813660EF700F030F705770810
:100A90006504F8007808E500E51BBD2CE308031D9C
:100AA000552D83120811572D8316831208158316AE
:100AB000081100008312881083168810000083122A
:100AC000081083160810640EE5000F30E505650870
:100AD000E60066186F2D83120812712D831683129B
:100AE000081683160812E618792D831288127B2DBA
:100AF000831683128816831688126619832D831233
:100B00000813852D83168312081783160813E61918
:100B10008D2D831288138F2D8316831288178316C9
:100B20008813000083120814831608100230F7009F
:100B3000F70B982D9B2D00008312081083160810C8
:100B400064080F39E5006508E6006618AB2D8312CE
:100B50000812AD2D83168312081683160812E618A4
:100B6000B52D83128812B72D83168312881683162B
:100B700088126619BF2D83120813C12D83168312A4
:100B8000081783160813E619C92D83128813CB2D75
:100B900083168312881783168813000083120814A3
:100BA000831608100230F700F70BD42DD72D000064
:100BB0008312081083160810831208002830831649
:100BC000D7000C30D8000130D9000630DA0083128B
:100BD0000810831608108312081183160811831257
:100BE00088108316881008128812081388130810BA
:100BF000081188100F30EB008312A12401308316F6
:100C0000D6005608033C031C452E0330E600661848
:100C10000D2E831208120F2E8316831208168316C8
:100C20000812E618172E83128812192E83168312C3
:100C30008816831688126619212E83120813232E14
:100C400083168312081783160813E6192B2E8312B6
:100C500088132D2E8316831288178316881300009D
:100C600083120814831608100230F700F70B362E93
:100C7000392E000083120810831608100530EB008F
:100C80008312A1248316D60A012E0230E6006618CC
:100C90004D2E831208124F2E8316831208168316C8
:100CA0000812E618572E83128812592E83168312C3
:100CB0008816831688126619612E83120813632E14
:100CC00083168312081783160813E6196B2E8312F6
:100CD00088136D2E831683128817831688130000DD
:100CE00083120814831608100230F700F70B762ED3
:100CF000792E000083120810831608100530EB00CF
:100D00008312A1248316D6015608033C031C962E99
:100D1000D7305607840083130008DB00E3015B082B
:100D2000E4008312B5248316D60A842E83128A1116
:100D30000A16022D0B088316EC0083128B13831600
:100D400003178C170C14000000000313EC1FAB2ECC
:100D500083128B1783160318E52E831203170C08D2
:100D60007F3983160313EC00831203170D088316D3
:100D70000313ED00831203170F0883160313EE000D
:100D80006C0883120C1EC22E990083166D08831204
:100D900003178D00831603136E08831203178F0049
:100DA00003130B088316EF0083128B1383160317AC
:100DB0008C170C14000000000313EF1FE22E8312A7
:100DC0008B178316EB0BE52E142F831203170C0DD4
:100DD0000E0D7F3983160313EC00831203170D08E1
:100DE00083160313ED00831203170F0883160313F2
:100DF000EE006C0883120C1EFB2E990083166D0802
:100E0000831203178D00831603136E0883120317D2
:100E10008F008D0A03198F0A031083160313EB0B3F
:100E2000122F142F83129A2E831208008316D901D1
:100E30008312C308031D422F450B252FCA01C5018C
:100E400001308316D900402F8312440B2E2FC90185
:100E5000C40102308316D900402F8312460B372F6E
:100E6000CB01C60103308316D900402F8312470BF4
:100E7000412FCC01C7010130C30004308316D900D3
:100E80008312192FC301C10183165908F800831278
:100E900008000B088316DB0083128B1383160317DD
:100EA0008C170C14000000000313DB1F5A2F831251
:100EB0008B178316831203170C087F390319BD2F74
:100EC00083160313DB00831203170D088316031325
:100ED000DC00831203170F0883160313DD005B0881
:100EE00083120C1E712F990083165C08831203175E
:100EF0008D00831603135D08831203178F000313FD
:100F00000B088316DE0083128B13831603178C17CE
:100F10000C14000000000313DE1F912F83128B17A7
:100F20008316831203170C0D0E0D7F390319BD2F85
:100F300083160313DB00831203170D0883160313B4
:100F4000DC00831203170F0883160313DD005B0810
:100F500083120C1EA92F990083165C0883120317B5
:100F60008D00831603135D08831203178F008D0A0B
:100F700003198F0A0313492F0317031308000B08E3
:100F80008316DC0083128B13831603178C170C1443
:100F9000000000000313DC1FD02F83128B17831671
:100FA000831203178C080319FA2F0D0883160313F5
:100FB000DC00831203170F0883160313DD0083126E
:100FC00003170C0883160313DE008A1583121821F9
:100FD0008A1183165C08831203178D00831603138E
:100FE0005D08831203178F008D0A03198F0A0313FC
:080FF000BF2F031703130800D3
:1010000033308316D600D701DA014D30D90098303D
:10101000831203178D0000308F0003100A308316EF
:101020000313EB008A1183129A268A158316590836
:10103000840083135A188317800803193728EC019A
:101040000408EB006C10831B6C14000883120C1E48
:101050002728990083166B08840083136C18831764
:10106000840A031D36288312850A83161C280D3036
:1010700083120C1E392899000A300C1E3D28990055
:101080000130F8007808C1008A1116278A15A030AF
:1010900003178D0000308F008A11031349278A152A
:1010A0000230F8007808C1008A1116278A157808DE
:1010B0008316D8005808023C031DE428DA014F309B
:1010C000D900A630831203178D0000308F00031063
:1010D000093083160313EB008A1183129A268A15AE
:1010E00083165908840083135A188317800803193C
:1010F0009128EC010408EB006C10831B6C140008B1
:1011000083120C1E8128990083166B0884008313B8
:101110006C188317840A031D90288312850A83168E
:1011200076280330F80078088312C1008A11162748
:101130008A1578088316D8005808043C031DE42853
:10114000DA01D630D9009830831203178D000030B1
:101150008F0003100A3083160313EB008A118312E9
:101160009A268A1583165908840083135A18831700
:1011700080080319D328EC010408EB006C10831BD2
:101180006C14000883120C1EC328990083166B0888
:10119000840083136C188317840A031DD2288312DA
:1011A000850A8316B8280D3083120C1ED5289900A5
:1011B0000A300C1ED92899000130F8007808C100C7
:1011C0008A1116278A158316AC30831203178D00F7
:1011D00000308F008A11031349278A1504308316C3
:1011E000D900FA30EB008A118312A1248A158316E4
:1011F000D90BF128B330831203178D0000308F0014
:101200008A11031349278A1504308316D900FA304E
:10121000EB008A118312A1248A158316D90B0729A2
:101220000330F80001308312C2008A110A160A2D19
:1012300083165E08073A8312031928290B3A03190B
:101240004129063A03195129023A03196B297429D5
:1012500001308316DF00E000600B2F293229403077
:10126000E1003329E10101305F02E10761088038C4
:10127000E200E3016208E4008A118312B5248A15B2
:101280007D298316E3010130E4008A118312B5241D
:101290008A1502308316EB008A118312A1248A1565
:1012A0007D2901308316DF000230E000600B5929F0
:1012B0005C294030E1005D29E10101305F02E10776
:1012C00061088038E200E3016208E4008A118312B9
:1012D000B5248A157D298316E3011030E4008A11B4
:1012E0008312B5248A157D2901308316E3005E0838
:1012F000E4008A118312B5248A1508000B088316AE
:10130000DB0083128B13831603178C170C14000059
:1013100000000313DB1F8F2983128B1783168312A0
:1013200003170C087F390319F02983160313DB0018
:10133000831203170D0883160313DC0083120317AF
:101340000F0883160313DD005B08DE0083121821EB
:1013500083165C08831203178D00831603135D0840
:10136000831203178F0003130B088316DE0083120A
:101370008B13831603178C170C1400000000031343
:10138000DE1FC52983128B178316831203170C0DDA
:101390000E0D7F390319F02983160313DB00831226
:1013A00003170D0883160313DC00831203170F08BD
:1013B00083160313DD005B08DE00831218218316F9
:1013C0005C08831203178D00831603135D088312D4
:1013D00003178F008D0A03198F0A03137E29031741
:1013E0000313080083166D080739F7006D0CF80029
:1013F000F80CF80C1F30F805780883120317100753
:101400008400831311188317F801F80AF70A092AD0
:10141000F80DF70B082A83160313EE080319132A95
:1014200078088004162AF8097808800583120800D5
:101430008316DB01DC017B30DD002230DE0063300F
:10144000DF006D30E0006430E1002230E2003A302D
:10145000E3002230E4006F30E5006B30E60022301C
:10146000E7007D30E800E901750B272B83126E0839
:101470004F3C031D902A6F08503C031D902A3030CA
:1014800083162102DC002008303A831203194C2A0B
:10149000013A03196C2A8C2A031083165C0D2B3E2B
:1014A00084008313840A0008EC0084030008EB0026
:1014B000ED00EE0183120317910190010313F22155
:1014C00083166B08ED00EE01831203179101803043
:1014D00090000313F2218C2A031083165C0D2B3E1F
:1014E00084008313840A0008EC0084030008EB00E6
:1014F000ED000130EE0083120317910190010313F8
:10150000F22183166B08ED00EE018312031791019F
:10151000803090000313F22101308316DB00831228
:10152000F501F101F00114308316EB008A118312EA
:10153000A1248A15BD3003178D0000308F000310E1
:101540000B3083160313EB008A1183129A268A1537
:101550006C080C1EA92A9900C33003178D000030B7
:101560008F000314053083160313EB008A118312D6
:101570009A268A1532308316EB008A118312A12431
:101580008A15DD308400831380080319E12A83164D
:10159000EC010408EB006C10831B6C140008831230
:1015A0000C1ED02A990083166B08840083136C18D4
:1015B0008317840A031DDF2A8312850A8316831288
:1015C000C42A0D300C1EE22A99000A300C1EE62AAD
:1015D000990064308316EB008A118312A1248A15C6
:1015E000C73003178D0000308F0003100C308316B6
:1015F0000313EB008A1183129A268A156C080C1EBD
:10160000FF2A99000D300C1E032B99000A300C1E86
:10161000072B99008316EA01F108031D132B6A08B2
:101620007002031C1C2BA0306A07840083138008FF
:10163000031D0030EA0A0C2B8312EE08031D003054
:10164000EF08031D0030EC08031D003083165B0813
:10165000F800831208008316E001DF01E201E101D6
:10166000DC08031D372B5B08133C0318982C5C081F
:101670004E3C031C982C031D412B5B08203C031C93
:10168000982CE8010130E7008630E600A030E50044
:1016900083106808EC006708EB006608EA0065083C
:1016A000E9008312031793019201831603135C0868
:1016B000831203179100831603135B088312031729
:1016C00090008318662B143084008317F701F8010B
:1016D000F901FA019401950196019701130812048A
:1016E000110410040319A82B20309800031083164E
:1016F0000313E90DEA0DEB0DEC0D83120317940DA6
:10170000950D960D970D13081702031D912B1208C6
:101710001602031D912B11081502031D912B1008B1
:101720001402031CA22B100894021108031C110FB1
:1017300095021208031C120F96021308031C130FC4
:1017400097020314F70DF80DF90DFA0D980B762B8F
:1017500014088000840A15088000840A1608800096
:10176000840A170880007A0883160313E8007908B2
:10177000E7007808E6007708E5006808EC006708ED
:10178000EB006608EA006508E9008312031793017D
:10179000920191010530900020309800940195014C
:1017A00096019701831603136C08FA006B08F90081
:1017B0006A08F8006908F7000310771CF12B831200
:1017C00003171008940711080318110F9507120842
:1017D0000318120F960713080318130F97078316A1
:1017E000031383120317970C960C950C940CFA0CA8
:1017F000F90CF80CF70C980BFE2B012C8316031335
:10180000DC2B7A0883160313E8007908E7007808D0
:10181000E6007708E5006608E4006508E3000611C5
:101820008312061583166408E900E90AE90303191F
:101830002A2CFF30EA000330EA02031C292CEA308C
:101840008400831300080319292C272C272C800BD4
:10185000262C162C6308EA000330EA02031C3A2CFB
:10186000EA3084008313000803193A2C382C382CF2
:10187000800B372C6308E10764080318640FE20744
:1018800006118312061183166408E900E90AE903C8
:1018900003195B2CFF30EA000330EA02031C5A2CC8
:1018A000EA3084008313000803195A2C582C582C52
:1018B000800B572C472C6308EA000330EA02031C14
:1018C0006B2CEA3084008313000803196B2C692CFD
:1018D000692C800B682C6308E10764080318640F07
:1018E000E2071930E1070318E20A6208023C031814
:1018F0008E2CFF3A031D802C6108E73C03188E2CC8
:10190000E830E1020330031C0430E202DF0A03196D
:10191000E00A1930E1070318E20A752C60085E023C
:10192000031C982C031D0F2C5D085F02031C0F2C59
:10193000831208008316D601D701560EF700F03047
:10194000F7057708D8000C30DE0083121821D0305C
:1019500003178D0000308F0083160313580883127D
:1019600003178D0703188F0A8A110313BF278A15DF
:1019700001308316DF000230E000600BC02CC32C66
:101980004030E100C42CE10101305F02E107610851
:101990008038E200E3016208E4008A118312B52472
:1019A0008A15063003178D0003308F0003137E2144
:1019B0008316D708031D592D831218228316061685
:1019C0008312061A392D02308316D800FA30EB0044
:1019D0008A118312A1248A158316D80BE62C0430B1
:1019E000DC00B930DB00DE011430DD0083122B2374
:1019F0008316D60A56087D02031CD601560EF70040
:101A0000F030F7057708D8000C30DE00831218217B
:101A1000D03003178D0000308F0083160313580851
:101A2000831203178D0703188F0A8A110313BF2728
:101A30008A1501308316DF000230E000600B212D93
:101A4000242D4030E100252DE10101305F02E10746
:101A500061088038E200E3016208E4008A11831221
:101A6000B5248A15063003178D0003308F00031349
:101A70007E21831686168312861A572D023083160E
:101A8000D800FA30EB008A118312A1248A1583163C
:101A9000D80B412D0430DC00B930DB00DE011430FE
:101AA000DD0083122B2301308316D7008312D82C3C
:101AB000831601305607F80083128A110A16172D73
:101AC000F701F80183165B0803105C18F707F70CA1
:101AD000F80CDC18F707F70CF80C5C19F707F70C93
:101AE000F80CDC19F707F70CF80C5C1AF707F70C81
:101AF000F80CDC1AF707F70CF80C5C1BF707F70C6F
:101B0000F80CDC1BF707F70CF80C8312080083169F
:101B1000D601D7015608DB000F30DC0083126025A8
:101B200078088316D8000C30DE008312182110309C
:101B300003178D0001308F0083160313580883129A
:101B400003178D0703188F0A8A110313BF278A15FD
:101B500001308316DF000230E000600BB02DB32DA2
:101B60004030E100B42DE10101305F02E10761087E
:101B70008038E200E3016208E4008A118312B52490
:101B80008A15063003178D0003308F0003137E2162
:101B90008316D708031D6F2E83121822831606168C
:101BA0008312061A2C2E02308316D800FA30EB006E
:101BB0008A118312A1248A158316D80BD62D0430DE
:101BC000DC00B930DB00DE011430DD0083122B2392
:101BD0008316D60A56087E02031CD6015608DB007F
:101BE0000F30DC008312602578088316D8000C3093
:101BF000DE0083121821103003178D0001308F0092
:101C0000831603135808831203178D0703188F0ACE
:101C10008A110313BF278A1501308316DF000230B3
:101C2000E000600B142E172E4030E100182EE10169
:101C300001305F02E10761088038E200E3016208D9
:101C4000E4008A118312B5248A15063003178D002B
:101C500003308F0003137E21831686168312861AA3
:101C60006D2E02308316D800FA30EB008A118312F1
:101C7000A1248A158316D80B342E0430DC00B93029
:101C8000DB00DE011430DD0083122B237E08831677
:101C90005602031D4E2E0130D7006E2E0310560D36
:101CA0002B3E84008313840A0008D90084030008B3
:101CB000D800ED000130EE0083120317910190016E
:101CC0000313F22183165808ED00EE018312031767
:101CD0009101803090000313F2218316C92D00304A
:101CE000F80083128A110A16202D8316D601D70117
:101CF000560EF700F030F7057708D8000C30DE00FC
:101D000083121821A63003178D0001308F0083162F
:101D100003135808831203178D0703188F0A8A11BB
:101D20000313BF278A1501308316DF000230E0005D
:101D3000600B9B2E9E2E4030E1009F2EE101013072
:101D40005F02E10761088038E200E3016208E40015
:101D50008A118312B5248A15063003178D000330CB
:101D60008F0003137E218316D708031D562F83127D
:101D70001822831606168312061A142F02308316B1
:101D8000D800FA30EB008A118312A1248A15831639
:101D9000D80BC12E0430DC00B930DB00DE0114307A
:101DA000DD0083122B238316D60A56085202031C29
:101DB000D601560EF700F030F7057708D8000C3042
:101DC000DE0083121821A63003178D0001308F002A
:101DD000831603135808831203178D0703188F0AFD
:101DE0008A110313BF278A1501308316DF000230E2
:101DF000E000600BFC2EFF2E4030E100002FE101DF
:101E000001305F02E10761088038E200E301620807
:101E1000E4008A118312B5248A15063003178D0059
:101E200003308F0003137E21831686168312861AD1
:101E3000542F02308316D800FA30EB008A11831237
:101E4000A1248A158316D80B1C2F0430DC00B9306E
:101E5000DB00DE011430DD0083122B2383165208D1
:101E60005602031D362F0130D700552F0310560D93
:101E70002B3E84008313840A0008D90084030008E1
:101E8000D800ED00EE0183120317910190010313B6
:101E9000F22183165808ED00EE0183120317910119
:101EA000803090000313F2218316B42E0030F80026
:081EB00083128A110A16292D84
:1020000083165808FA3E0318062B063E83120A2B45
:102010000F3003178D0003308F000A128A15031347
:102020007E210A168A110C308316DF000230E00090
:10203000600B1B281E284030E1001F28E101013001
:102040005F02E10761088038E200E3016208E40012
:102050000A128312B5240A16033003178D000330C9
:102060008F000A128A1503137E210A168A110A129A
:102070008A1518220A168A11831686168312861A62
:102080004F2802308316DB00FA30EB000A1283126D
:10209000A1240A168316DB0B442851288312372803
:1020A0008316062B163003178D0003308F000A129B
:1020B0008A1503137E210A168A110C308316DF005D
:1020C0000230E000600B652868284030E100692894
:1020D000E10101305F02E10761088038E200E301BD
:1020E0006208E4000A128312B5240A1603300317AB
:1020F0008D0003308F000A128A1503137E210A1601
:102100008A110A128A1518220A168A11831686164F
:102110008312861A992802308316DB00FA30EB000E
:102120000A128312A1240A168316DB0B8E289B2821
:10213000831281288316062B1B3003178D00033072
:102140008F000A128A1503137E210A168A110C3099
:102150008316DF000230E000600BAF28B228403069
:10216000E100B328E10101305F02E1076108803836
:10217000E200E3016208E4000A128312B5240A16A1
:10218000033003178D0003308F000A128A150313E2
:102190007E210A168A110A128A1518220A168A1135
:1021A000831686168312861AE32802308316DB0014
:1021B000FA30EB000A128312A1240A168316DB0BF5
:1021C000D828E5288312CB288316062B8316D9013D
:1021D000DA015908DB000E30DC000A128A1583127E
:1021E00060250A168A1178088316DB000C30DE00A1
:1021F0000A128A15831218210A168A11BD30031794
:102200008D0002308F00831603135B0883120317BF
:102210008D0703188F0A0A120313BF270A1601300D
:102220008316DF000230E000600B17291A294030C6
:10223000E1001B29E10101305F02E10761088038FC
:10224000E200E3016208E4000A128312B5240A16D0
:10225000063003178D0003308F000A128A1503130E
:102260007E210A168A118316DA08031DA52A0A128E
:102270008A15831218220A168A11831606168312EB
:10228000061AAB2902308316DB00FA30EB000A1283
:102290008312A1240A168316DB0B45290430DC00C7
:1022A000B930DB00DE011430DD000A128A1583121A
:1022B0002B230A168A118316D90A59085402031CC3
:1022C000D9015908DB000E30DC000A128A1583128E
:1022D00060250A168A1178088316DB000C30DE00B0
:1022E0000A128A15831218210A168A11BD300317A3
:1022F0008D0002308F00831603135B0883120317CF
:102300008D0703188F0A0A120313BF270A1601301C
:102310008316DF000230E000600B8F2992294030E5
:10232000E1009329E10101305F02E1076108803893
:10233000E200E3016208E4000A128312B5240A16DF
:10234000063003178D0003308F000A128A1503131D
:102350007E210A168A11831686168312861AA32AEC
:1023600002308316DB00FA30EB000A128312A1243C
:102370000A168316DB0BB3290430DC00B930DB000E
:10238000DE011430DD000A128A1583122B230A168F
:102390008A11831654085902031DD1290130DA002D
:1023A000A42A5908003A83120319DD29013A0319B6
:1023B000F229033A0319072A1B2A2F3003178D002D
:1023C00003308F000A12031349270A163830031707
:1023D0008D0003308F000A128A1503137E210A161E
:1023E0008A111B2A403003178D0003308F000A1218
:1023F000031349270A16493003178D0003308F0055
:102400000A128A1503137E210A168A111B2A4F30DD
:1024100003178D0003308F000A12031349270A1691
:10242000583003178D0003308F000A128A150313EA
:102430007E210A168A110C308316DF000230E0007C
:10244000600B232A262A4030E100272AE1010130CF
:102450005F02E10761088038E200E3016208E400FE
:102460000A128312B5240A16033003178D000330B5
:102470008F000A128A1503137E210A168A110A1286
:102480008A1518220A168A11831686168312861A4E
:10249000572A02308316DB00FA30EB000A1283124F
:1024A000A1240A168316DB0B4C2A592A83123F2AD1
:1024B00083165908DB000E30DC000A128A158312DD
:1024C00060250A168A1178088316DB000C30DE00BE
:1024D0000A128A15831218210A168A11BD300317B1
:1024E0008D0002308F00831603135B0883120317DD
:1024F0008D0703188F0A0A120313BF270A1601302B
:102500008316DF000230E000600B872A8A2A403001
:10251000E1008B2AE10101305F02E10761088038A8
:10252000E200E3016208E4000A128312B5240A16ED
:10253000063003178D0003308F000A128A1503132B
:102540007E210A168A1183163429062B83168811D8
:10255000083083128806881DB92A203003178D00A1
:1025600003308F000A128A1503137E210A168A117E
:10257000C42A273003178D0003308F000A128A15F2
:1025800003137E210A168A110C308316DF000230F5
:10259000E000600BCC2ACF2A4030E100D02AE101D4
:1025A00001305F02E10761088038E200E301620860
:1025B000E4000A128312B5240A16033003178D00B3
:1025C00003308F000A128A1503137E210A168A111E
:1025D0000A128A1518220A168A1183168616831281
:1025E000861A002B02308316DB00FA30EB000A1249
:1025F0008312A1240A168316DB0BF52A022B831201
:10260000E82A8316062B8316062B831683128A115B
:102610000A16012C0A148A140A1182070828522863
:102620009C28E628A62A032B0A128A1518220A16C5
:102630008A118316D601D7015608DB001130DC0061
:102640000A128A15831260250A168A1178088316E1
:10265000D8000C30DE000A128A15831218210A16DF
:102660008A11463003178D0002308F008316031342
:102670005808831203178D0703188F0A0A120313D1
:10268000BF270A1601308316DF000230E000600B1E
:102690004A2B4D2B4030E1004E2BE10101305F020F
:1026A000E10761088038E200E3016208E4000A12F1
:1026B0008312B5240A16063003178D0003308F00ED
:1026C0000A128A1503137E210A168A118316D70867
:1026D000031D4E2C06168312061AD72B02308316C2
:1026E000D800FA30EB000A128312A1240A168316CE
:1026F000D80B712B0430DC00B930DB00DE01143064
:10270000DD000A128A1583122B230A168A118316FA
:10271000D60A56085302031CD6015608DB001130B6
:10272000DC000A128A15831260250A168A117808BD
:102730008316D8000C30DE000A128A158312182185
:102740000A168A11463003178D0002308F00831657
:1027500003135808831203178D0703188F0A0A12F0
:102760000313BF270A1601308316DF000230E00092
:10277000600BBB2BBE2B4030E100BF2BE1010130D1
:102780005F02E10761088038E200E3016208E400CB
:102790000A128312B5240A16063003178D0003307F
:1027A0008F000A128A1503137E210A168A118316D6
:1027B00086168312861A4C2C02308316D800FA3003
:1027C000EB000A128312A1240A168316D80BDF2B02
:1027D0000430DC00B930DB00DE011430DD000A1209
:1027E0008A1583122B230A168A1183165308560260
:1027F000031DFD2B0130D7004D2C5608D800831245
:10280000002883165608DB001130DC000A128A15F6
:10281000831260250A168A1178088316D8000C30B6
:10282000DE000A128A15831218210A168A11463010
:1028300003178D0002308F0083160313580883128C
:1028400003178D0703188F0A0A120313BF270A16EE
:1028500001308316DF000230E000600B302C332C97
:102860004030E100342CE10101305F02E1076108F2
:102870008038E200E3016208E4000A128312B52402
:102880000A16063003178D0003308F000A128A15CE
:1028900003137E210A168A118316672B0030F80075
:1028A00083128A110A16302D03081F3983008316FC
:1028B0000317871508300313990002309A00A630D9
:1028C0009800903083129800831606108312061425
:1028D000C101C201C301C401C501C601C701C801CC
:1028E000C901CA01CB01CC01F101F001F201F301F0
:1028F000F401F501F601FB01FC010230FD00083096
:10290000FE008316D2000530D3000330D400D50179
:1029100003170908C039890003131F129F120030E2
:1029200003178800831287018801890183134A30C5
:102930000313AB00AC014930AD00AE014830AF002D
:10294000B0012C30B100B2012830B300B4012930FD
:10295000B500B6012A30B700B8012B30B900BA0172
:10296000BB01BC013130CD00CE012230CF0055304B
:10297000D0004E30D1004530D2005F30D30043301C
:10298000D4003030D5003630D6004530D700223064
:10299000D8002C30D9002230DA003030DB00DC00E7
:1029A0003930DD003830DE003630DF003330E00013
:1029B0003430E100E2003230E3003030E400E50082
:1029C0003730E600E7003130E8002230E9000D3012
:1029D000EA000A30EB0002308316D600FA30EB0032
:1029E0000A128312A1240A168316D60BEE2C30305D
:1029F00095008113323086008C16C03083128B0410
:102A00000A12DE2D0A1683168811831288150A12FF
:102A10008A1500280A168A1183165508FC3E0318E9
:102A2000352D043E8312372D0A128A159A2C0A1668
:102A30008A1178088316D500352D0A128A15872D3C
:102A40000A168A1178088316D500352D0A128A15C0
:102A5000752E0A168A1178088316D500352D142B89
:102A600078088316D500352D83160D2D63000A14C2
:0E2A70008A100A158207142D1D2D262D2F2DDC
:04400E00E22FFF3E60
:00000001FF
;PIC16F887
;CRC=500E  CREATED="06-dic.-17 23:52"
