:1000000000308A008D280000FF00030E8301A1004C
:100010000A08A0008A010408A2007708A300780853
:10002000A4007908A5007A08A600831383128C30F7
:100030008400801E1D288C1A2E2822088400230884
:10004000F7002408F8002508F9002608FA0020081F
:100050008A00210E8300FF0E7F0E09008A110A120A
:10006000532883160610831206100830F80038282B
:100070000000F8174928F813BD0C03180614031CD8
:100080000610781749287813F80B3C2847280000F9
:10009000061408308400840B4B280000F81B3B2812
:1000A000781B432808008C1E53281A08BC003C0803
:1000B000BD0031208C128A110A121D2880080319F4
:1000C0007428B9010408B8003910831B39140008DA
:1000D0000C1E682899003808840083133918831788
:1000E000840A0319850A5E288A110A12D928393030
:1000F00084008313000803198A280630F800F701EA
:10010000F70B8028F80B7F287B30F700F70B862849
:10011000800B7D288A110A12E62803081F39830004
:100120008316031787152A300313990000309A00AD
:10013000A630980090308312980083160610831220
:100140000614B201B301831603170908C0398900E8
:1001500003131F129F1200300317880083128701B8
:100160008801890183130313A801A9014F30AA0054
:100170004B30AB000D30AC000A30AD0000308316C0
:1001800085008C16C03083128B044130B40054308B
:10019000B500B6015330B700A7018B1BA7178B130F
:1001A0003708BD003120A71B8B1734308400831320
:1001B0005E280D300C1EDA2899000A300C1EDE284D
:1001C00099001430B800FA30B9007728B80BE3284A
:0401D000D5286300CB
:04400E00E22CFF3F62
:00000001FF
;PIC16F887
;CRC=2D45  CREATED="28-nov.-17 21:50"
